{"abi":[{"inputs":[{"internalType":"address","name":"_manager","type":"address"},{"internalType":"string","name":"_accountName","type":"string"},{"internalType":"string","name":"_bankName","type":"string"},{"internalType":"uint256","name":"_branchNumber","type":"uint256"},{"internalType":"uint256","name":"_accountNumber","type":"uint256"},{"internalType":"uint256","name":"_accountDigit","type":"uint256"}],"stateMutability":"nonpayable","type":"constructor"},{"inputs":[],"name":"account","outputs":[{"internalType":"string","name":"accountName","type":"string"},{"internalType":"string","name":"bankName","type":"string"},{"internalType":"uint256","name":"branchNumber","type":"uint256"},{"internalType":"uint256","name":"accountNumber","type":"uint256"},{"internalType":"uint256","name":"accountDigit","type":"uint256"},{"internalType":"string","name":"password","type":"string"},{"internalType":"string","name":"balance","type":"string"},{"internalType":"string","name":"description","type":"string"}],"stateMutability":"view","type":"function"},{"inputs":[],"name":"manager","outputs":[{"internalType":"address","name":"","type":"address"}],"stateMutability":"view","type":"function"},{"inputs":[{"internalType":"string","name":"_password","type":"string"},{"internalType":"string","name":"_balance","type":"string"},{"internalType":"string","name":"_description","type":"string"}],"name":"setParameters","outputs":[],"stateMutability":"nonpayable","type":"function"}],"devdoc":{"kind":"dev","methods":{},"version":1},"evm":{"assembly":"    /* \"smartwill.sol\":1639:2980  contract BankAccount {... */\n  mstore(0x40, 0x80)\n    /* \"smartwill.sol\":2053:2610  constructor (... */\n  callvalue\n  dup1\n  iszero\n  tag_1\n  jumpi\n  0x00\n  dup1\n  revert\ntag_1:\n  pop\n  mload(0x40)\n  sub(codesize, bytecodeSize)\n  dup1\n  bytecodeSize\n  dup4\n  codecopy\n  dup2\n  dup2\n  add\n  0x40\n  mstore\n  dup2\n  add\n  swap1\n  tag_2\n  swap2\n  swap1\n  tag_3\n  jump\t// in\ntag_2:\n    /* \"smartwill.sol\":2272:2280  _manager */\n  dup6\n    /* \"smartwill.sol\":2262:2269  manager */\n  0x00\n  dup1\n    /* \"smartwill.sol\":2262:2280  manager = _manager */\n  0x0100\n  exp\n  dup2\n  sload\n  dup2\n  0xffffffffffffffffffffffffffffffffffffffff\n  mul\n  not\n  and\n  swap1\n  dup4\n  0xffffffffffffffffffffffffffffffffffffffff\n  and\n  mul\n  or\n  swap1\n  sstore\n  pop\n    /* \"smartwill.sol\":2300:2603  AccountDetails({... */\n  mload(0x40)\n  dup1\n  0x0100\n  add\n  0x40\n  mstore\n  dup1\n    /* \"smartwill.sol\":2342:2354  _accountName */\n  dup7\n    /* \"smartwill.sol\":2300:2603  AccountDetails({... */\n  dup2\n  mstore\n  0x20\n  add\n    /* \"smartwill.sol\":2378:2387  _bankName */\n  dup6\n    /* \"smartwill.sol\":2300:2603  AccountDetails({... */\n  dup2\n  mstore\n  0x20\n  add\n    /* \"smartwill.sol\":2415:2428  _branchNumber */\n  dup5\n    /* \"smartwill.sol\":2300:2603  AccountDetails({... */\n  dup2\n  mstore\n  0x20\n  add\n    /* \"smartwill.sol\":2457:2471  _accountNumber */\n  dup4\n    /* \"smartwill.sol\":2300:2603  AccountDetails({... */\n  dup2\n  mstore\n  0x20\n  add\n    /* \"smartwill.sol\":2499:2512  _accountDigit */\n  dup3\n    /* \"smartwill.sol\":2300:2603  AccountDetails({... */\n  dup2\n  mstore\n  0x20\n  add\n  mload(0x40)\n  dup1\n  0x20\n  add\n  0x40\n  mstore\n  dup1\n  0x00\n  dup2\n  mstore\n  pop\n  dup2\n  mstore\n  0x20\n  add\n  mload(0x40)\n  dup1\n  0x20\n  add\n  0x40\n  mstore\n  dup1\n  0x00\n  dup2\n  mstore\n  pop\n  dup2\n  mstore\n  0x20\n  add\n  mload(0x40)\n  dup1\n  0x20\n  add\n  0x40\n  mstore\n  dup1\n  0x00\n  dup2\n  mstore\n  pop\n  dup2\n  mstore\n  pop\n    /* \"smartwill.sol\":2290:2297  account */\n  0x01\n    /* \"smartwill.sol\":2290:2603  account = AccountDetails({... */\n  0x00\n  dup3\n  add\n  mload\n  dup2\n  0x00\n  add\n  swap1\n  dup2\n  tag_6\n  swap2\n  swap1\n  tag_7\n  jump\t// in\ntag_6:\n  pop\n  0x20\n  dup3\n  add\n  mload\n  dup2\n  0x01\n  add\n  swap1\n  dup2\n  tag_8\n  swap2\n  swap1\n  tag_7\n  jump\t// in\ntag_8:\n  pop\n  0x40\n  dup3\n  add\n  mload\n  dup2\n  0x02\n  add\n  sstore\n  0x60\n  dup3\n  add\n  mload\n  dup2\n  0x03\n  add\n  sstore\n  0x80\n  dup3\n  add\n  mload\n  dup2\n  0x04\n  add\n  sstore\n  0xa0\n  dup3\n  add\n  mload\n  dup2\n  0x05\n  add\n  swap1\n  dup2\n  tag_9\n  swap2\n  swap1\n  tag_7\n  jump\t// in\ntag_9:\n  pop\n  0xc0\n  dup3\n  add\n  mload\n  dup2\n  0x06\n  add\n  swap1\n  dup2\n  tag_10\n  swap2\n  swap1\n  tag_7\n  jump\t// in\ntag_10:\n  pop\n  0xe0\n  dup3\n  add\n  mload\n  dup2\n  0x07\n  add\n  swap1\n  dup2\n  tag_11\n  swap2\n  swap1\n  tag_7\n  jump\t// in\ntag_11:\n  pop\n  swap1\n  pop\n  pop\n    /* \"smartwill.sol\":2053:2610  constructor (... */\n  pop\n  pop\n  pop\n  pop\n  pop\n  pop\n    /* \"smartwill.sol\":1639:2980  contract BankAccount {... */\n  jump(tag_12)\n    /* \"#utility.yul\":7:82   */\ntag_13:\n    /* \"#utility.yul\":40:46   */\n  0x00\n    /* \"#utility.yul\":73:75   */\n  0x40\n    /* \"#utility.yul\":67:76   */\n  mload\n    /* \"#utility.yul\":57:76   */\n  swap1\n  pop\n    /* \"#utility.yul\":7:82   */\n  swap1\n  jump\t// out\n    /* \"#utility.yul\":88:205   */\ntag_14:\n    /* \"#utility.yul\":197:198   */\n  0x00\n    /* \"#utility.yul\":194:195   */\n  dup1\n    /* \"#utility.yul\":187:199   */\n  revert\n    /* \"#utility.yul\":211:328   */\ntag_15:\n    /* \"#utility.yul\":320:321   */\n  0x00\n    /* \"#utility.yul\":317:318   */\n  dup1\n    /* \"#utility.yul\":310:322   */\n  revert\n    /* \"#utility.yul\":334:460   */\ntag_16:\n    /* \"#utility.yul\":371:378   */\n  0x00\n    /* \"#utility.yul\":411:453   */\n  0xffffffffffffffffffffffffffffffffffffffff\n    /* \"#utility.yul\":404:409   */\n  dup3\n    /* \"#utility.yul\":400:454   */\n  and\n    /* \"#utility.yul\":389:454   */\n  swap1\n  pop\n    /* \"#utility.yul\":334:460   */\n  swap2\n  swap1\n  pop\n  jump\t// out\n    /* \"#utility.yul\":466:562   */\ntag_17:\n    /* \"#utility.yul\":503:510   */\n  0x00\n    /* \"#utility.yul\":532:556   */\n  tag_57\n    /* \"#utility.yul\":550:555   */\n  dup3\n    /* \"#utility.yul\":532:556   */\n  tag_16\n  jump\t// in\ntag_57:\n    /* \"#utility.yul\":521:556   */\n  swap1\n  pop\n    /* \"#utility.yul\":466:562   */\n  swap2\n  swap1\n  pop\n  jump\t// out\n    /* \"#utility.yul\":568:690   */\ntag_18:\n    /* \"#utility.yul\":641:665   */\n  tag_59\n    /* \"#utility.yul\":659:664   */\n  dup2\n    /* \"#utility.yul\":641:665   */\n  tag_17\n  jump\t// in\ntag_59:\n    /* \"#utility.yul\":634:639   */\n  dup2\n    /* \"#utility.yul\":631:666   */\n  eq\n    /* \"#utility.yul\":621:684   */\n  tag_60\n  jumpi\n    /* \"#utility.yul\":680:681   */\n  0x00\n    /* \"#utility.yul\":677:678   */\n  dup1\n    /* \"#utility.yul\":670:682   */\n  revert\n    /* \"#utility.yul\":621:684   */\ntag_60:\n    /* \"#utility.yul\":568:690   */\n  pop\n  jump\t// out\n    /* \"#utility.yul\":696:839   */\ntag_19:\n    /* \"#utility.yul\":753:758   */\n  0x00\n    /* \"#utility.yul\":784:790   */\n  dup2\n    /* \"#utility.yul\":778:791   */\n  mload\n    /* \"#utility.yul\":769:791   */\n  swap1\n  pop\n    /* \"#utility.yul\":800:833   */\n  tag_62\n    /* \"#utility.yul\":827:832   */\n  dup2\n    /* \"#utility.yul\":800:833   */\n  tag_18\n  jump\t// in\ntag_62:\n    /* \"#utility.yul\":696:839   */\n  swap3\n  swap2\n  pop\n  pop\n  jump\t// out\n    /* \"#utility.yul\":845:962   */\ntag_20:\n    /* \"#utility.yul\":954:955   */\n  0x00\n    /* \"#utility.yul\":951:952   */\n  dup1\n    /* \"#utility.yul\":944:956   */\n  revert\n    /* \"#utility.yul\":968:1085   */\ntag_21:\n    /* \"#utility.yul\":1077:1078   */\n  0x00\n    /* \"#utility.yul\":1074:1075   */\n  dup1\n    /* \"#utility.yul\":1067:1079   */\n  revert\n    /* \"#utility.yul\":1091:1193   */\ntag_22:\n    /* \"#utility.yul\":1132:1138   */\n  0x00\n    /* \"#utility.yul\":1183:1185   */\n  0x1f\n    /* \"#utility.yul\":1179:1186   */\n  not\n    /* \"#utility.yul\":1174:1176   */\n  0x1f\n    /* \"#utility.yul\":1167:1172   */\n  dup4\n    /* \"#utility.yul\":1163:1177   */\n  add\n    /* \"#utility.yul\":1159:1187   */\n  and\n    /* \"#utility.yul\":1149:1187   */\n  swap1\n  pop\n    /* \"#utility.yul\":1091:1193   */\n  swap2\n  swap1\n  pop\n  jump\t// out\n    /* \"#utility.yul\":1199:1379   */\ntag_23:\n    /* \"#utility.yul\":1247:1324   */\n  0x4e487b7100000000000000000000000000000000000000000000000000000000\n    /* \"#utility.yul\":1244:1245   */\n  0x00\n    /* \"#utility.yul\":1237:1325   */\n  mstore\n    /* \"#utility.yul\":1344:1348   */\n  0x41\n    /* \"#utility.yul\":1341:1342   */\n  0x04\n    /* \"#utility.yul\":1334:1349   */\n  mstore\n    /* \"#utility.yul\":1368:1372   */\n  0x24\n    /* \"#utility.yul\":1365:1366   */\n  0x00\n    /* \"#utility.yul\":1358:1373   */\n  revert\n    /* \"#utility.yul\":1385:1666   */\ntag_24:\n    /* \"#utility.yul\":1468:1495   */\n  tag_68\n    /* \"#utility.yul\":1490:1494   */\n  dup3\n    /* \"#utility.yul\":1468:1495   */\n  tag_22\n  jump\t// in\ntag_68:\n    /* \"#utility.yul\":1460:1466   */\n  dup2\n    /* \"#utility.yul\":1456:1496   */\n  add\n    /* \"#utility.yul\":1598:1604   */\n  dup2\n    /* \"#utility.yul\":1586:1596   */\n  dup2\n    /* \"#utility.yul\":1583:1605   */\n  lt\n    /* \"#utility.yul\":1562:1580   */\n  0xffffffffffffffff\n    /* \"#utility.yul\":1550:1560   */\n  dup3\n    /* \"#utility.yul\":1547:1581   */\n  gt\n    /* \"#utility.yul\":1544:1606   */\n  or\n    /* \"#utility.yul\":1541:1629   */\n  iszero\n  tag_69\n  jumpi\n    /* \"#utility.yul\":1609:1627   */\n  tag_70\n  tag_23\n  jump\t// in\ntag_70:\n    /* \"#utility.yul\":1541:1629   */\ntag_69:\n    /* \"#utility.yul\":1649:1659   */\n  dup1\n    /* \"#utility.yul\":1645:1647   */\n  0x40\n    /* \"#utility.yul\":1638:1660   */\n  mstore\n    /* \"#utility.yul\":1428:1666   */\n  pop\n    /* \"#utility.yul\":1385:1666   */\n  pop\n  pop\n  jump\t// out\n    /* \"#utility.yul\":1672:1801   */\ntag_25:\n    /* \"#utility.yul\":1706:1712   */\n  0x00\n    /* \"#utility.yul\":1733:1753   */\n  tag_72\n  tag_13\n  jump\t// in\ntag_72:\n    /* \"#utility.yul\":1723:1753   */\n  swap1\n  pop\n    /* \"#utility.yul\":1762:1795   */\n  tag_73\n    /* \"#utility.yul\":1790:1794   */\n  dup3\n    /* \"#utility.yul\":1782:1788   */\n  dup3\n    /* \"#utility.yul\":1762:1795   */\n  tag_24\n  jump\t// in\ntag_73:\n    /* \"#utility.yul\":1672:1801   */\n  swap2\n  swap1\n  pop\n  jump\t// out\n    /* \"#utility.yul\":1807:2115   */\ntag_26:\n    /* \"#utility.yul\":1869:1873   */\n  0x00\n    /* \"#utility.yul\":1959:1977   */\n  0xffffffffffffffff\n    /* \"#utility.yul\":1951:1957   */\n  dup3\n    /* \"#utility.yul\":1948:1978   */\n  gt\n    /* \"#utility.yul\":1945:2001   */\n  iszero\n  tag_75\n  jumpi\n    /* \"#utility.yul\":1981:1999   */\n  tag_76\n  tag_23\n  jump\t// in\ntag_76:\n    /* \"#utility.yul\":1945:2001   */\ntag_75:\n    /* \"#utility.yul\":2019:2048   */\n  tag_77\n    /* \"#utility.yul\":2041:2047   */\n  dup3\n    /* \"#utility.yul\":2019:2048   */\n  tag_22\n  jump\t// in\ntag_77:\n    /* \"#utility.yul\":2011:2048   */\n  swap1\n  pop\n    /* \"#utility.yul\":2103:2107   */\n  0x20\n    /* \"#utility.yul\":2097:2101   */\n  dup2\n    /* \"#utility.yul\":2093:2108   */\n  add\n    /* \"#utility.yul\":2085:2108   */\n  swap1\n  pop\n    /* \"#utility.yul\":1807:2115   */\n  swap2\n  swap1\n  pop\n  jump\t// out\n    /* \"#utility.yul\":2121:2428   */\ntag_27:\n    /* \"#utility.yul\":2189:2190   */\n  0x00\n    /* \"#utility.yul\":2199:2312   */\ntag_79:\n    /* \"#utility.yul\":2213:2219   */\n  dup4\n    /* \"#utility.yul\":2210:2211   */\n  dup2\n    /* \"#utility.yul\":2207:2220   */\n  lt\n    /* \"#utility.yul\":2199:2312   */\n  iszero\n  tag_81\n  jumpi\n    /* \"#utility.yul\":2298:2299   */\n  dup1\n    /* \"#utility.yul\":2293:2296   */\n  dup3\n    /* \"#utility.yul\":2289:2300   */\n  add\n    /* \"#utility.yul\":2283:2301   */\n  mload\n    /* \"#utility.yul\":2279:2280   */\n  dup2\n    /* \"#utility.yul\":2274:2277   */\n  dup5\n    /* \"#utility.yul\":2270:2281   */\n  add\n    /* \"#utility.yul\":2263:2302   */\n  mstore\n    /* \"#utility.yul\":2235:2237   */\n  0x20\n    /* \"#utility.yul\":2232:2233   */\n  dup2\n    /* \"#utility.yul\":2228:2238   */\n  add\n    /* \"#utility.yul\":2223:2238   */\n  swap1\n  pop\n    /* \"#utility.yul\":2199:2312   */\n  jump(tag_79)\ntag_81:\n    /* \"#utility.yul\":2330:2336   */\n  dup4\n    /* \"#utility.yul\":2327:2328   */\n  dup2\n    /* \"#utility.yul\":2324:2337   */\n  gt\n    /* \"#utility.yul\":2321:2422   */\n  iszero\n  tag_82\n  jumpi\n    /* \"#utility.yul\":2410:2411   */\n  0x00\n    /* \"#utility.yul\":2401:2407   */\n  dup5\n    /* \"#utility.yul\":2396:2399   */\n  dup5\n    /* \"#utility.yul\":2392:2408   */\n  add\n    /* \"#utility.yul\":2385:2412   */\n  mstore\n    /* \"#utility.yul\":2321:2422   */\ntag_82:\n    /* \"#utility.yul\":2170:2428   */\n  pop\n    /* \"#utility.yul\":2121:2428   */\n  pop\n  pop\n  pop\n  jump\t// out\n    /* \"#utility.yul\":2434:2855   */\ntag_28:\n    /* \"#utility.yul\":2523:2528   */\n  0x00\n    /* \"#utility.yul\":2548:2614   */\n  tag_84\n    /* \"#utility.yul\":2564:2613   */\n  tag_85\n    /* \"#utility.yul\":2606:2612   */\n  dup5\n    /* \"#utility.yul\":2564:2613   */\n  tag_26\n  jump\t// in\ntag_85:\n    /* \"#utility.yul\":2548:2614   */\n  tag_25\n  jump\t// in\ntag_84:\n    /* \"#utility.yul\":2539:2614   */\n  swap1\n  pop\n    /* \"#utility.yul\":2637:2643   */\n  dup3\n    /* \"#utility.yul\":2630:2635   */\n  dup2\n    /* \"#utility.yul\":2623:2644   */\n  mstore\n    /* \"#utility.yul\":2675:2679   */\n  0x20\n    /* \"#utility.yul\":2668:2673   */\n  dup2\n    /* \"#utility.yul\":2664:2680   */\n  add\n    /* \"#utility.yul\":2713:2716   */\n  dup5\n    /* \"#utility.yul\":2704:2710   */\n  dup5\n    /* \"#utility.yul\":2699:2702   */\n  dup5\n    /* \"#utility.yul\":2695:2711   */\n  add\n    /* \"#utility.yul\":2692:2717   */\n  gt\n    /* \"#utility.yul\":2689:2801   */\n  iszero\n  tag_86\n  jumpi\n    /* \"#utility.yul\":2720:2799   */\n  tag_87\n  tag_21\n  jump\t// in\ntag_87:\n    /* \"#utility.yul\":2689:2801   */\ntag_86:\n    /* \"#utility.yul\":2810:2849   */\n  tag_88\n    /* \"#utility.yul\":2842:2848   */\n  dup5\n    /* \"#utility.yul\":2837:2840   */\n  dup3\n    /* \"#utility.yul\":2832:2835   */\n  dup6\n    /* \"#utility.yul\":2810:2849   */\n  tag_27\n  jump\t// in\ntag_88:\n    /* \"#utility.yul\":2529:2855   */\n  pop\n    /* \"#utility.yul\":2434:2855   */\n  swap4\n  swap3\n  pop\n  pop\n  pop\n  jump\t// out\n    /* \"#utility.yul\":2875:3230   */\ntag_29:\n    /* \"#utility.yul\":2942:2947   */\n  0x00\n    /* \"#utility.yul\":2991:2994   */\n  dup3\n    /* \"#utility.yul\":2984:2988   */\n  0x1f\n    /* \"#utility.yul\":2976:2982   */\n  dup4\n    /* \"#utility.yul\":2972:2989   */\n  add\n    /* \"#utility.yul\":2968:2995   */\n  slt\n    /* \"#utility.yul\":2958:3080   */\n  tag_90\n  jumpi\n    /* \"#utility.yul\":2999:3078   */\n  tag_91\n  tag_20\n  jump\t// in\ntag_91:\n    /* \"#utility.yul\":2958:3080   */\ntag_90:\n    /* \"#utility.yul\":3109:3115   */\n  dup2\n    /* \"#utility.yul\":3103:3116   */\n  mload\n    /* \"#utility.yul\":3134:3224   */\n  tag_92\n    /* \"#utility.yul\":3220:3223   */\n  dup5\n    /* \"#utility.yul\":3212:3218   */\n  dup3\n    /* \"#utility.yul\":3205:3209   */\n  0x20\n    /* \"#utility.yul\":3197:3203   */\n  dup7\n    /* \"#utility.yul\":3193:3210   */\n  add\n    /* \"#utility.yul\":3134:3224   */\n  tag_28\n  jump\t// in\ntag_92:\n    /* \"#utility.yul\":3125:3224   */\n  swap2\n  pop\n    /* \"#utility.yul\":2948:3230   */\n  pop\n    /* \"#utility.yul\":2875:3230   */\n  swap3\n  swap2\n  pop\n  pop\n  jump\t// out\n    /* \"#utility.yul\":3236:3313   */\ntag_30:\n    /* \"#utility.yul\":3273:3280   */\n  0x00\n    /* \"#utility.yul\":3302:3307   */\n  dup2\n    /* \"#utility.yul\":3291:3307   */\n  swap1\n  pop\n    /* \"#utility.yul\":3236:3313   */\n  swap2\n  swap1\n  pop\n  jump\t// out\n    /* \"#utility.yul\":3319:3441   */\ntag_31:\n    /* \"#utility.yul\":3392:3416   */\n  tag_95\n    /* \"#utility.yul\":3410:3415   */\n  dup2\n    /* \"#utility.yul\":3392:3416   */\n  tag_30\n  jump\t// in\ntag_95:\n    /* \"#utility.yul\":3385:3390   */\n  dup2\n    /* \"#utility.yul\":3382:3417   */\n  eq\n    /* \"#utility.yul\":3372:3435   */\n  tag_96\n  jumpi\n    /* \"#utility.yul\":3431:3432   */\n  0x00\n    /* \"#utility.yul\":3428:3429   */\n  dup1\n    /* \"#utility.yul\":3421:3433   */\n  revert\n    /* \"#utility.yul\":3372:3435   */\ntag_96:\n    /* \"#utility.yul\":3319:3441   */\n  pop\n  jump\t// out\n    /* \"#utility.yul\":3447:3590   */\ntag_32:\n    /* \"#utility.yul\":3504:3509   */\n  0x00\n    /* \"#utility.yul\":3535:3541   */\n  dup2\n    /* \"#utility.yul\":3529:3542   */\n  mload\n    /* \"#utility.yul\":3520:3542   */\n  swap1\n  pop\n    /* \"#utility.yul\":3551:3584   */\n  tag_98\n    /* \"#utility.yul\":3578:3583   */\n  dup2\n    /* \"#utility.yul\":3551:3584   */\n  tag_31\n  jump\t// in\ntag_98:\n    /* \"#utility.yul\":3447:3590   */\n  swap3\n  swap2\n  pop\n  pop\n  jump\t// out\n    /* \"#utility.yul\":3596:5076   */\ntag_3:\n    /* \"#utility.yul\":3731:3737   */\n  0x00\n    /* \"#utility.yul\":3739:3745   */\n  dup1\n    /* \"#utility.yul\":3747:3753   */\n  0x00\n    /* \"#utility.yul\":3755:3761   */\n  dup1\n    /* \"#utility.yul\":3763:3769   */\n  0x00\n    /* \"#utility.yul\":3771:3777   */\n  dup1\n    /* \"#utility.yul\":3820:3823   */\n  0xc0\n    /* \"#utility.yul\":3808:3817   */\n  dup8\n    /* \"#utility.yul\":3799:3806   */\n  dup10\n    /* \"#utility.yul\":3795:3818   */\n  sub\n    /* \"#utility.yul\":3791:3824   */\n  slt\n    /* \"#utility.yul\":3788:3908   */\n  iszero\n  tag_100\n  jumpi\n    /* \"#utility.yul\":3827:3906   */\n  tag_101\n  tag_14\n  jump\t// in\ntag_101:\n    /* \"#utility.yul\":3788:3908   */\ntag_100:\n    /* \"#utility.yul\":3947:3948   */\n  0x00\n    /* \"#utility.yul\":3972:4036   */\n  tag_102\n    /* \"#utility.yul\":4028:4035   */\n  dup10\n    /* \"#utility.yul\":4019:4025   */\n  dup3\n    /* \"#utility.yul\":4008:4017   */\n  dup11\n    /* \"#utility.yul\":4004:4026   */\n  add\n    /* \"#utility.yul\":3972:4036   */\n  tag_19\n  jump\t// in\ntag_102:\n    /* \"#utility.yul\":3962:4036   */\n  swap7\n  pop\n    /* \"#utility.yul\":3918:4046   */\n  pop\n    /* \"#utility.yul\":4106:4108   */\n  0x20\n    /* \"#utility.yul\":4095:4104   */\n  dup8\n    /* \"#utility.yul\":4091:4109   */\n  add\n    /* \"#utility.yul\":4085:4110   */\n  mload\n    /* \"#utility.yul\":4137:4155   */\n  0xffffffffffffffff\n    /* \"#utility.yul\":4129:4135   */\n  dup2\n    /* \"#utility.yul\":4126:4156   */\n  gt\n    /* \"#utility.yul\":4123:4240   */\n  iszero\n  tag_103\n  jumpi\n    /* \"#utility.yul\":4159:4238   */\n  tag_104\n  tag_15\n  jump\t// in\ntag_104:\n    /* \"#utility.yul\":4123:4240   */\ntag_103:\n    /* \"#utility.yul\":4264:4338   */\n  tag_105\n    /* \"#utility.yul\":4330:4337   */\n  dup10\n    /* \"#utility.yul\":4321:4327   */\n  dup3\n    /* \"#utility.yul\":4310:4319   */\n  dup11\n    /* \"#utility.yul\":4306:4328   */\n  add\n    /* \"#utility.yul\":4264:4338   */\n  tag_29\n  jump\t// in\ntag_105:\n    /* \"#utility.yul\":4254:4338   */\n  swap6\n  pop\n    /* \"#utility.yul\":4056:4348   */\n  pop\n    /* \"#utility.yul\":4408:4410   */\n  0x40\n    /* \"#utility.yul\":4397:4406   */\n  dup8\n    /* \"#utility.yul\":4393:4411   */\n  add\n    /* \"#utility.yul\":4387:4412   */\n  mload\n    /* \"#utility.yul\":4439:4457   */\n  0xffffffffffffffff\n    /* \"#utility.yul\":4431:4437   */\n  dup2\n    /* \"#utility.yul\":4428:4458   */\n  gt\n    /* \"#utility.yul\":4425:4542   */\n  iszero\n  tag_106\n  jumpi\n    /* \"#utility.yul\":4461:4540   */\n  tag_107\n  tag_15\n  jump\t// in\ntag_107:\n    /* \"#utility.yul\":4425:4542   */\ntag_106:\n    /* \"#utility.yul\":4566:4640   */\n  tag_108\n    /* \"#utility.yul\":4632:4639   */\n  dup10\n    /* \"#utility.yul\":4623:4629   */\n  dup3\n    /* \"#utility.yul\":4612:4621   */\n  dup11\n    /* \"#utility.yul\":4608:4630   */\n  add\n    /* \"#utility.yul\":4566:4640   */\n  tag_29\n  jump\t// in\ntag_108:\n    /* \"#utility.yul\":4556:4640   */\n  swap5\n  pop\n    /* \"#utility.yul\":4358:4650   */\n  pop\n    /* \"#utility.yul\":4689:4691   */\n  0x60\n    /* \"#utility.yul\":4715:4779   */\n  tag_109\n    /* \"#utility.yul\":4771:4778   */\n  dup10\n    /* \"#utility.yul\":4762:4768   */\n  dup3\n    /* \"#utility.yul\":4751:4760   */\n  dup11\n    /* \"#utility.yul\":4747:4769   */\n  add\n    /* \"#utility.yul\":4715:4779   */\n  tag_32\n  jump\t// in\ntag_109:\n    /* \"#utility.yul\":4705:4779   */\n  swap4\n  pop\n    /* \"#utility.yul\":4660:4789   */\n  pop\n    /* \"#utility.yul\":4828:4831   */\n  0x80\n    /* \"#utility.yul\":4855:4919   */\n  tag_110\n    /* \"#utility.yul\":4911:4918   */\n  dup10\n    /* \"#utility.yul\":4902:4908   */\n  dup3\n    /* \"#utility.yul\":4891:4900   */\n  dup11\n    /* \"#utility.yul\":4887:4909   */\n  add\n    /* \"#utility.yul\":4855:4919   */\n  tag_32\n  jump\t// in\ntag_110:\n    /* \"#utility.yul\":4845:4919   */\n  swap3\n  pop\n    /* \"#utility.yul\":4799:4929   */\n  pop\n    /* \"#utility.yul\":4968:4971   */\n  0xa0\n    /* \"#utility.yul\":4995:5059   */\n  tag_111\n    /* \"#utility.yul\":5051:5058   */\n  dup10\n    /* \"#utility.yul\":5042:5048   */\n  dup3\n    /* \"#utility.yul\":5031:5040   */\n  dup11\n    /* \"#utility.yul\":5027:5049   */\n  add\n    /* \"#utility.yul\":4995:5059   */\n  tag_32\n  jump\t// in\ntag_111:\n    /* \"#utility.yul\":4985:5059   */\n  swap2\n  pop\n    /* \"#utility.yul\":4939:5069   */\n  pop\n    /* \"#utility.yul\":3596:5076   */\n  swap3\n  swap6\n  pop\n  swap3\n  swap6\n  pop\n  swap3\n  swap6\n  jump\t// out\n    /* \"#utility.yul\":5082:5181   */\ntag_33:\n    /* \"#utility.yul\":5134:5140   */\n  0x00\n    /* \"#utility.yul\":5168:5173   */\n  dup2\n    /* \"#utility.yul\":5162:5174   */\n  mload\n    /* \"#utility.yul\":5152:5174   */\n  swap1\n  pop\n    /* \"#utility.yul\":5082:5181   */\n  swap2\n  swap1\n  pop\n  jump\t// out\n    /* \"#utility.yul\":5187:5367   */\ntag_34:\n    /* \"#utility.yul\":5235:5312   */\n  0x4e487b7100000000000000000000000000000000000000000000000000000000\n    /* \"#utility.yul\":5232:5233   */\n  0x00\n    /* \"#utility.yul\":5225:5313   */\n  mstore\n    /* \"#utility.yul\":5332:5336   */\n  0x22\n    /* \"#utility.yul\":5329:5330   */\n  0x04\n    /* \"#utility.yul\":5322:5337   */\n  mstore\n    /* \"#utility.yul\":5356:5360   */\n  0x24\n    /* \"#utility.yul\":5353:5354   */\n  0x00\n    /* \"#utility.yul\":5346:5361   */\n  revert\n    /* \"#utility.yul\":5373:5693   */\ntag_35:\n    /* \"#utility.yul\":5417:5423   */\n  0x00\n    /* \"#utility.yul\":5454:5455   */\n  0x02\n    /* \"#utility.yul\":5448:5452   */\n  dup3\n    /* \"#utility.yul\":5444:5456   */\n  div\n    /* \"#utility.yul\":5434:5456   */\n  swap1\n  pop\n    /* \"#utility.yul\":5501:5502   */\n  0x01\n    /* \"#utility.yul\":5495:5499   */\n  dup3\n    /* \"#utility.yul\":5491:5503   */\n  and\n    /* \"#utility.yul\":5522:5540   */\n  dup1\n    /* \"#utility.yul\":5512:5593   */\n  tag_115\n  jumpi\n    /* \"#utility.yul\":5578:5582   */\n  0x7f\n    /* \"#utility.yul\":5570:5576   */\n  dup3\n    /* \"#utility.yul\":5566:5583   */\n  and\n    /* \"#utility.yul\":5556:5583   */\n  swap2\n  pop\n    /* \"#utility.yul\":5512:5593   */\ntag_115:\n    /* \"#utility.yul\":5640:5642   */\n  0x20\n    /* \"#utility.yul\":5632:5638   */\n  dup3\n    /* \"#utility.yul\":5629:5643   */\n  lt\n    /* \"#utility.yul\":5609:5627   */\n  dup2\n    /* \"#utility.yul\":5606:5644   */\n  sub\n    /* \"#utility.yul\":5603:5687   */\n  tag_116\n  jumpi\n    /* \"#utility.yul\":5659:5677   */\n  tag_117\n  tag_34\n  jump\t// in\ntag_117:\n    /* \"#utility.yul\":5603:5687   */\ntag_116:\n    /* \"#utility.yul\":5424:5693   */\n  pop\n    /* \"#utility.yul\":5373:5693   */\n  swap2\n  swap1\n  pop\n  jump\t// out\n    /* \"#utility.yul\":5699:5840   */\ntag_36:\n    /* \"#utility.yul\":5748:5752   */\n  0x00\n    /* \"#utility.yul\":5771:5774   */\n  dup2\n    /* \"#utility.yul\":5763:5774   */\n  swap1\n  pop\n    /* \"#utility.yul\":5794:5797   */\n  dup2\n    /* \"#utility.yul\":5791:5792   */\n  0x00\n    /* \"#utility.yul\":5784:5798   */\n  mstore\n    /* \"#utility.yul\":5828:5832   */\n  0x20\n    /* \"#utility.yul\":5825:5826   */\n  0x00\n    /* \"#utility.yul\":5815:5833   */\n  keccak256\n    /* \"#utility.yul\":5807:5833   */\n  swap1\n  pop\n    /* \"#utility.yul\":5699:5840   */\n  swap2\n  swap1\n  pop\n  jump\t// out\n    /* \"#utility.yul\":5846:5939   */\ntag_37:\n    /* \"#utility.yul\":5883:5889   */\n  0x00\n    /* \"#utility.yul\":5930:5932   */\n  0x20\n    /* \"#utility.yul\":5925:5927   */\n  0x1f\n    /* \"#utility.yul\":5918:5923   */\n  dup4\n    /* \"#utility.yul\":5914:5928   */\n  add\n    /* \"#utility.yul\":5910:5933   */\n  div\n    /* \"#utility.yul\":5900:5933   */\n  swap1\n  pop\n    /* \"#utility.yul\":5846:5939   */\n  swap2\n  swap1\n  pop\n  jump\t// out\n    /* \"#utility.yul\":5945:6052   */\ntag_38:\n    /* \"#utility.yul\":5989:5997   */\n  0x00\n    /* \"#utility.yul\":6039:6044   */\n  dup3\n    /* \"#utility.yul\":6033:6037   */\n  dup3\n    /* \"#utility.yul\":6029:6045   */\n  shl\n    /* \"#utility.yul\":6008:6045   */\n  swap1\n  pop\n    /* \"#utility.yul\":5945:6052   */\n  swap3\n  swap2\n  pop\n  pop\n  jump\t// out\n    /* \"#utility.yul\":6058:6451   */\ntag_39:\n    /* \"#utility.yul\":6127:6133   */\n  0x00\n    /* \"#utility.yul\":6177:6178   */\n  0x08\n    /* \"#utility.yul\":6165:6175   */\n  dup4\n    /* \"#utility.yul\":6161:6179   */\n  mul\n    /* \"#utility.yul\":6200:6297   */\n  tag_122\n    /* \"#utility.yul\":6230:6296   */\n  0xffffffffffffffffffffffffffffffffffffffffffffffffffffffffffffffff\n    /* \"#utility.yul\":6219:6228   */\n  dup3\n    /* \"#utility.yul\":6200:6297   */\n  tag_38\n  jump\t// in\ntag_122:\n    /* \"#utility.yul\":6318:6357   */\n  tag_123\n    /* \"#utility.yul\":6348:6356   */\n  dup7\n    /* \"#utility.yul\":6337:6346   */\n  dup4\n    /* \"#utility.yul\":6318:6357   */\n  tag_38\n  jump\t// in\ntag_123:\n    /* \"#utility.yul\":6306:6357   */\n  swap6\n  pop\n    /* \"#utility.yul\":6390:6394   */\n  dup1\n    /* \"#utility.yul\":6386:6395   */\n  not\n    /* \"#utility.yul\":6379:6384   */\n  dup5\n    /* \"#utility.yul\":6375:6396   */\n  and\n    /* \"#utility.yul\":6366:6396   */\n  swap4\n  pop\n    /* \"#utility.yul\":6439:6443   */\n  dup1\n    /* \"#utility.yul\":6429:6437   */\n  dup7\n    /* \"#utility.yul\":6425:6444   */\n  and\n    /* \"#utility.yul\":6418:6423   */\n  dup5\n    /* \"#utility.yul\":6415:6445   */\n  or\n    /* \"#utility.yul\":6405:6445   */\n  swap3\n  pop\n    /* \"#utility.yul\":6134:6451   */\n  pop\n  pop\n    /* \"#utility.yul\":6058:6451   */\n  swap4\n  swap3\n  pop\n  pop\n  pop\n  jump\t// out\n    /* \"#utility.yul\":6457:6517   */\ntag_40:\n    /* \"#utility.yul\":6485:6488   */\n  0x00\n    /* \"#utility.yul\":6506:6511   */\n  dup2\n    /* \"#utility.yul\":6499:6511   */\n  swap1\n  pop\n    /* \"#utility.yul\":6457:6517   */\n  swap2\n  swap1\n  pop\n  jump\t// out\n    /* \"#utility.yul\":6523:6665   */\ntag_41:\n    /* \"#utility.yul\":6573:6582   */\n  0x00\n    /* \"#utility.yul\":6606:6659   */\n  tag_126\n    /* \"#utility.yul\":6624:6658   */\n  tag_127\n    /* \"#utility.yul\":6633:6657   */\n  tag_128\n    /* \"#utility.yul\":6651:6656   */\n  dup5\n    /* \"#utility.yul\":6633:6657   */\n  tag_30\n  jump\t// in\ntag_128:\n    /* \"#utility.yul\":6624:6658   */\n  tag_40\n  jump\t// in\ntag_127:\n    /* \"#utility.yul\":6606:6659   */\n  tag_30\n  jump\t// in\ntag_126:\n    /* \"#utility.yul\":6593:6659   */\n  swap1\n  pop\n    /* \"#utility.yul\":6523:6665   */\n  swap2\n  swap1\n  pop\n  jump\t// out\n    /* \"#utility.yul\":6671:6746   */\ntag_42:\n    /* \"#utility.yul\":6714:6717   */\n  0x00\n    /* \"#utility.yul\":6735:6740   */\n  dup2\n    /* \"#utility.yul\":6728:6740   */\n  swap1\n  pop\n    /* \"#utility.yul\":6671:6746   */\n  swap2\n  swap1\n  pop\n  jump\t// out\n    /* \"#utility.yul\":6752:7021   */\ntag_43:\n    /* \"#utility.yul\":6862:6901   */\n  tag_131\n    /* \"#utility.yul\":6893:6900   */\n  dup4\n    /* \"#utility.yul\":6862:6901   */\n  tag_41\n  jump\t// in\ntag_131:\n    /* \"#utility.yul\":6923:7014   */\n  tag_132\n    /* \"#utility.yul\":6972:7013   */\n  tag_133\n    /* \"#utility.yul\":6996:7012   */\n  dup3\n    /* \"#utility.yul\":6972:7013   */\n  tag_42\n  jump\t// in\ntag_133:\n    /* \"#utility.yul\":6964:6970   */\n  dup5\n    /* \"#utility.yul\":6957:6961   */\n  dup5\n    /* \"#utility.yul\":6951:6962   */\n  sload\n    /* \"#utility.yul\":6923:7014   */\n  tag_39\n  jump\t// in\ntag_132:\n    /* \"#utility.yul\":6917:6921   */\n  dup3\n    /* \"#utility.yul\":6910:7015   */\n  sstore\n    /* \"#utility.yul\":6828:7021   */\n  pop\n    /* \"#utility.yul\":6752:7021   */\n  pop\n  pop\n  pop\n  jump\t// out\n    /* \"#utility.yul\":7027:7100   */\ntag_44:\n    /* \"#utility.yul\":7072:7075   */\n  0x00\n    /* \"#utility.yul\":7027:7100   */\n  swap1\n  jump\t// out\n    /* \"#utility.yul\":7106:7295   */\ntag_45:\n    /* \"#utility.yul\":7183:7215   */\n  tag_136\n  tag_44\n  jump\t// in\ntag_136:\n    /* \"#utility.yul\":7224:7289   */\n  tag_137\n    /* \"#utility.yul\":7282:7288   */\n  dup2\n    /* \"#utility.yul\":7274:7280   */\n  dup5\n    /* \"#utility.yul\":7268:7272   */\n  dup5\n    /* \"#utility.yul\":7224:7289   */\n  tag_43\n  jump\t// in\ntag_137:\n    /* \"#utility.yul\":7159:7295   */\n  pop\n    /* \"#utility.yul\":7106:7295   */\n  pop\n  pop\n  jump\t// out\n    /* \"#utility.yul\":7301:7487   */\ntag_46:\n    /* \"#utility.yul\":7361:7481   */\ntag_139:\n    /* \"#utility.yul\":7378:7381   */\n  dup2\n    /* \"#utility.yul\":7371:7376   */\n  dup2\n    /* \"#utility.yul\":7368:7382   */\n  lt\n    /* \"#utility.yul\":7361:7481   */\n  iszero\n  tag_141\n  jumpi\n    /* \"#utility.yul\":7432:7471   */\n  tag_142\n    /* \"#utility.yul\":7469:7470   */\n  0x00\n    /* \"#utility.yul\":7462:7467   */\n  dup3\n    /* \"#utility.yul\":7432:7471   */\n  tag_45\n  jump\t// in\ntag_142:\n    /* \"#utility.yul\":7405:7406   */\n  0x01\n    /* \"#utility.yul\":7398:7403   */\n  dup2\n    /* \"#utility.yul\":7394:7407   */\n  add\n    /* \"#utility.yul\":7385:7407   */\n  swap1\n  pop\n    /* \"#utility.yul\":7361:7481   */\n  jump(tag_139)\ntag_141:\n    /* \"#utility.yul\":7301:7487   */\n  pop\n  pop\n  jump\t// out\n    /* \"#utility.yul\":7493:8036   */\ntag_47:\n    /* \"#utility.yul\":7594:7596   */\n  0x1f\n    /* \"#utility.yul\":7589:7592   */\n  dup3\n    /* \"#utility.yul\":7586:7597   */\n  gt\n    /* \"#utility.yul\":7583:8029   */\n  iszero\n  tag_144\n  jumpi\n    /* \"#utility.yul\":7628:7666   */\n  tag_145\n    /* \"#utility.yul\":7660:7665   */\n  dup2\n    /* \"#utility.yul\":7628:7666   */\n  tag_36\n  jump\t// in\ntag_145:\n    /* \"#utility.yul\":7712:7741   */\n  tag_146\n    /* \"#utility.yul\":7730:7740   */\n  dup5\n    /* \"#utility.yul\":7712:7741   */\n  tag_37\n  jump\t// in\ntag_146:\n    /* \"#utility.yul\":7702:7710   */\n  dup2\n    /* \"#utility.yul\":7698:7742   */\n  add\n    /* \"#utility.yul\":7895:7897   */\n  0x20\n    /* \"#utility.yul\":7883:7893   */\n  dup6\n    /* \"#utility.yul\":7880:7898   */\n  lt\n    /* \"#utility.yul\":7877:7926   */\n  iszero\n  tag_147\n  jumpi\n    /* \"#utility.yul\":7916:7924   */\n  dup2\n    /* \"#utility.yul\":7901:7924   */\n  swap1\n  pop\n    /* \"#utility.yul\":7877:7926   */\ntag_147:\n    /* \"#utility.yul\":7939:8019   */\n  tag_148\n    /* \"#utility.yul\":7995:8017   */\n  tag_149\n    /* \"#utility.yul\":8013:8016   */\n  dup6\n    /* \"#utility.yul\":7995:8017   */\n  tag_37\n  jump\t// in\ntag_149:\n    /* \"#utility.yul\":7985:7993   */\n  dup4\n    /* \"#utility.yul\":7981:8018   */\n  add\n    /* \"#utility.yul\":7968:7979   */\n  dup3\n    /* \"#utility.yul\":7939:8019   */\n  tag_46\n  jump\t// in\ntag_148:\n    /* \"#utility.yul\":7598:8029   */\n  pop\n  pop\n    /* \"#utility.yul\":7583:8029   */\ntag_144:\n    /* \"#utility.yul\":7493:8036   */\n  pop\n  pop\n  pop\n  jump\t// out\n    /* \"#utility.yul\":8042:8159   */\ntag_48:\n    /* \"#utility.yul\":8096:8104   */\n  0x00\n    /* \"#utility.yul\":8146:8151   */\n  dup3\n    /* \"#utility.yul\":8140:8144   */\n  dup3\n    /* \"#utility.yul\":8136:8152   */\n  shr\n    /* \"#utility.yul\":8115:8152   */\n  swap1\n  pop\n    /* \"#utility.yul\":8042:8159   */\n  swap3\n  swap2\n  pop\n  pop\n  jump\t// out\n    /* \"#utility.yul\":8165:8334   */\ntag_49:\n    /* \"#utility.yul\":8209:8215   */\n  0x00\n    /* \"#utility.yul\":8242:8293   */\n  tag_152\n    /* \"#utility.yul\":8290:8291   */\n  0x00\n    /* \"#utility.yul\":8286:8292   */\n  not\n    /* \"#utility.yul\":8278:8283   */\n  dup5\n    /* \"#utility.yul\":8275:8276   */\n  0x08\n    /* \"#utility.yul\":8271:8284   */\n  mul\n    /* \"#utility.yul\":8242:8293   */\n  tag_48\n  jump\t// in\ntag_152:\n    /* \"#utility.yul\":8238:8294   */\n  not\n    /* \"#utility.yul\":8323:8327   */\n  dup1\n    /* \"#utility.yul\":8317:8321   */\n  dup4\n    /* \"#utility.yul\":8313:8328   */\n  and\n    /* \"#utility.yul\":8303:8328   */\n  swap2\n  pop\n    /* \"#utility.yul\":8216:8334   */\n  pop\n    /* \"#utility.yul\":8165:8334   */\n  swap3\n  swap2\n  pop\n  pop\n  jump\t// out\n    /* \"#utility.yul\":8339:8634   */\ntag_50:\n    /* \"#utility.yul\":8415:8419   */\n  0x00\n    /* \"#utility.yul\":8561:8590   */\n  tag_154\n    /* \"#utility.yul\":8586:8589   */\n  dup4\n    /* \"#utility.yul\":8580:8584   */\n  dup4\n    /* \"#utility.yul\":8561:8590   */\n  tag_49\n  jump\t// in\ntag_154:\n    /* \"#utility.yul\":8553:8590   */\n  swap2\n  pop\n    /* \"#utility.yul\":8623:8626   */\n  dup3\n    /* \"#utility.yul\":8620:8621   */\n  0x02\n    /* \"#utility.yul\":8616:8627   */\n  mul\n    /* \"#utility.yul\":8610:8614   */\n  dup3\n    /* \"#utility.yul\":8607:8628   */\n  or\n    /* \"#utility.yul\":8599:8628   */\n  swap1\n  pop\n    /* \"#utility.yul\":8339:8634   */\n  swap3\n  swap2\n  pop\n  pop\n  jump\t// out\n    /* \"#utility.yul\":8639:10034   */\ntag_7:\n    /* \"#utility.yul\":8756:8793   */\n  tag_156\n    /* \"#utility.yul\":8789:8792   */\n  dup3\n    /* \"#utility.yul\":8756:8793   */\n  tag_33\n  jump\t// in\ntag_156:\n    /* \"#utility.yul\":8858:8876   */\n  0xffffffffffffffff\n    /* \"#utility.yul\":8850:8856   */\n  dup2\n    /* \"#utility.yul\":8847:8877   */\n  gt\n    /* \"#utility.yul\":8844:8900   */\n  iszero\n  tag_157\n  jumpi\n    /* \"#utility.yul\":8880:8898   */\n  tag_158\n  tag_23\n  jump\t// in\ntag_158:\n    /* \"#utility.yul\":8844:8900   */\ntag_157:\n    /* \"#utility.yul\":8924:8962   */\n  tag_159\n    /* \"#utility.yul\":8956:8960   */\n  dup3\n    /* \"#utility.yul\":8950:8961   */\n  sload\n    /* \"#utility.yul\":8924:8962   */\n  tag_35\n  jump\t// in\ntag_159:\n    /* \"#utility.yul\":9009:9076   */\n  tag_160\n    /* \"#utility.yul\":9069:9075   */\n  dup3\n    /* \"#utility.yul\":9061:9067   */\n  dup3\n    /* \"#utility.yul\":9055:9059   */\n  dup6\n    /* \"#utility.yul\":9009:9076   */\n  tag_47\n  jump\t// in\ntag_160:\n    /* \"#utility.yul\":9103:9104   */\n  0x00\n    /* \"#utility.yul\":9127:9131   */\n  0x20\n    /* \"#utility.yul\":9114:9131   */\n  swap1\n  pop\n    /* \"#utility.yul\":9159:9161   */\n  0x1f\n    /* \"#utility.yul\":9151:9157   */\n  dup4\n    /* \"#utility.yul\":9148:9162   */\n  gt\n    /* \"#utility.yul\":9176:9177   */\n  0x01\n    /* \"#utility.yul\":9171:9789   */\n  dup2\n  eq\n  tag_162\n  jumpi\n    /* \"#utility.yul\":9833:9834   */\n  0x00\n    /* \"#utility.yul\":9850:9856   */\n  dup5\n    /* \"#utility.yul\":9847:9924   */\n  iszero\n  tag_163\n  jumpi\n    /* \"#utility.yul\":9899:9908   */\n  dup3\n    /* \"#utility.yul\":9894:9897   */\n  dup8\n    /* \"#utility.yul\":9890:9909   */\n  add\n    /* \"#utility.yul\":9884:9910   */\n  mload\n    /* \"#utility.yul\":9875:9910   */\n  swap1\n  pop\n    /* \"#utility.yul\":9847:9924   */\ntag_163:\n    /* \"#utility.yul\":9950:10017   */\n  tag_164\n    /* \"#utility.yul\":10010:10016   */\n  dup6\n    /* \"#utility.yul\":10003:10008   */\n  dup3\n    /* \"#utility.yul\":9950:10017   */\n  tag_50\n  jump\t// in\ntag_164:\n    /* \"#utility.yul\":9944:9948   */\n  dup7\n    /* \"#utility.yul\":9937:10018   */\n  sstore\n    /* \"#utility.yul\":9806:10028   */\n  pop\n    /* \"#utility.yul\":9141:10028   */\n  jump(tag_161)\n    /* \"#utility.yul\":9171:9789   */\ntag_162:\n    /* \"#utility.yul\":9223:9227   */\n  0x1f\n    /* \"#utility.yul\":9219:9228   */\n  not\n    /* \"#utility.yul\":9211:9217   */\n  dup5\n    /* \"#utility.yul\":9207:9229   */\n  and\n    /* \"#utility.yul\":9257:9294   */\n  tag_165\n    /* \"#utility.yul\":9289:9293   */\n  dup7\n    /* \"#utility.yul\":9257:9294   */\n  tag_36\n  jump\t// in\ntag_165:\n    /* \"#utility.yul\":9316:9317   */\n  0x00\n    /* \"#utility.yul\":9330:9538   */\ntag_166:\n    /* \"#utility.yul\":9344:9351   */\n  dup3\n    /* \"#utility.yul\":9341:9342   */\n  dup2\n    /* \"#utility.yul\":9338:9352   */\n  lt\n    /* \"#utility.yul\":9330:9538   */\n  iszero\n  tag_168\n  jumpi\n    /* \"#utility.yul\":9423:9432   */\n  dup5\n    /* \"#utility.yul\":9418:9421   */\n  dup10\n    /* \"#utility.yul\":9414:9433   */\n  add\n    /* \"#utility.yul\":9408:9434   */\n  mload\n    /* \"#utility.yul\":9400:9406   */\n  dup3\n    /* \"#utility.yul\":9393:9435   */\n  sstore\n    /* \"#utility.yul\":9474:9475   */\n  0x01\n    /* \"#utility.yul\":9466:9472   */\n  dup3\n    /* \"#utility.yul\":9462:9476   */\n  add\n    /* \"#utility.yul\":9452:9476   */\n  swap2\n  pop\n    /* \"#utility.yul\":9521:9523   */\n  0x20\n    /* \"#utility.yul\":9510:9519   */\n  dup6\n    /* \"#utility.yul\":9506:9524   */\n  add\n    /* \"#utility.yul\":9493:9524   */\n  swap5\n  pop\n    /* \"#utility.yul\":9367:9371   */\n  0x20\n    /* \"#utility.yul\":9364:9365   */\n  dup2\n    /* \"#utility.yul\":9360:9372   */\n  add\n    /* \"#utility.yul\":9355:9372   */\n  swap1\n  pop\n    /* \"#utility.yul\":9330:9538   */\n  jump(tag_166)\ntag_168:\n    /* \"#utility.yul\":9566:9572   */\n  dup7\n    /* \"#utility.yul\":9557:9564   */\n  dup4\n    /* \"#utility.yul\":9554:9573   */\n  lt\n    /* \"#utility.yul\":9551:9730   */\n  iszero\n  tag_169\n  jumpi\n    /* \"#utility.yul\":9624:9633   */\n  dup5\n    /* \"#utility.yul\":9619:9622   */\n  dup10\n    /* \"#utility.yul\":9615:9634   */\n  add\n    /* \"#utility.yul\":9609:9635   */\n  mload\n    /* \"#utility.yul\":9667:9715   */\n  tag_170\n    /* \"#utility.yul\":9709:9713   */\n  0x1f\n    /* \"#utility.yul\":9701:9707   */\n  dup10\n    /* \"#utility.yul\":9697:9714   */\n  and\n    /* \"#utility.yul\":9686:9695   */\n  dup3\n    /* \"#utility.yul\":9667:9715   */\n  tag_49\n  jump\t// in\ntag_170:\n    /* \"#utility.yul\":9659:9665   */\n  dup4\n    /* \"#utility.yul\":9652:9716   */\n  sstore\n    /* \"#utility.yul\":9574:9730   */\n  pop\n    /* \"#utility.yul\":9551:9730   */\ntag_169:\n    /* \"#utility.yul\":9776:9777   */\n  0x01\n    /* \"#utility.yul\":9772:9773   */\n  0x02\n    /* \"#utility.yul\":9764:9770   */\n  dup9\n    /* \"#utility.yul\":9760:9774   */\n  mul\n    /* \"#utility.yul\":9756:9778   */\n  add\n    /* \"#utility.yul\":9750:9754   */\n  dup9\n    /* \"#utility.yul\":9743:9779   */\n  sstore\n    /* \"#utility.yul\":9178:9789   */\n  pop\n  pop\n  pop\n    /* \"#utility.yul\":9141:10028   */\ntag_161:\n  pop\n    /* \"#utility.yul\":8731:10034   */\n  pop\n  pop\n  pop\n    /* \"#utility.yul\":8639:10034   */\n  pop\n  pop\n  jump\t// out\n    /* \"smartwill.sol\":1639:2980  contract BankAccount {... */\ntag_12:\n  dataSize(sub_0)\n  dup1\n  dataOffset(sub_0)\n  0x00\n  codecopy\n  0x00\n  return\nstop\n\nsub_0: assembly {\n        /* \"smartwill.sol\":1639:2980  contract BankAccount {... */\n      mstore(0x40, 0x80)\n      callvalue\n      dup1\n      iszero\n      tag_1\n      jumpi\n      0x00\n      dup1\n      revert\n    tag_1:\n      pop\n      jumpi(tag_2, lt(calldatasize, 0x04))\n      shr(0xe0, calldataload(0x00))\n      dup1\n      0x481c6a75\n      eq\n      tag_3\n      jumpi\n      dup1\n      0x5dab2420\n      eq\n      tag_4\n      jumpi\n      dup1\n      0xf2390d43\n      eq\n      tag_5\n      jumpi\n    tag_2:\n      0x00\n      dup1\n      revert\n        /* \"smartwill.sol\":1964:1986  address public manager */\n    tag_3:\n      tag_6\n      tag_7\n      jump\t// in\n    tag_6:\n      mload(0x40)\n      tag_8\n      swap2\n      swap1\n      tag_9\n      jump\t// in\n    tag_8:\n      mload(0x40)\n      dup1\n      swap2\n      sub\n      swap1\n      return\n        /* \"smartwill.sol\":1992:2021  AccountDetails public account */\n    tag_4:\n      tag_10\n      tag_11\n      jump\t// in\n    tag_10:\n      mload(0x40)\n      tag_12\n      swap9\n      swap8\n      swap7\n      swap6\n      swap5\n      swap4\n      swap3\n      swap2\n      swap1\n      tag_13\n      jump\t// in\n    tag_12:\n      mload(0x40)\n      dup1\n      swap2\n      sub\n      swap1\n      return\n        /* \"smartwill.sol\":2676:2978  function setParameters(... */\n    tag_5:\n      tag_14\n      0x04\n      dup1\n      calldatasize\n      sub\n      dup2\n      add\n      swap1\n      tag_15\n      swap2\n      swap1\n      tag_16\n      jump\t// in\n    tag_15:\n      tag_17\n      jump\t// in\n    tag_14:\n      stop\n        /* \"smartwill.sol\":1964:1986  address public manager */\n    tag_7:\n      0x00\n      dup1\n      sload\n      swap1\n      0x0100\n      exp\n      swap1\n      div\n      0xffffffffffffffffffffffffffffffffffffffff\n      and\n      dup2\n      jump\t// out\n        /* \"smartwill.sol\":1992:2021  AccountDetails public account */\n    tag_11:\n      0x01\n      dup1\n      0x00\n      add\n      dup1\n      sload\n      tag_18\n      swap1\n      tag_19\n      jump\t// in\n    tag_18:\n      dup1\n      0x1f\n      add\n      0x20\n      dup1\n      swap2\n      div\n      mul\n      0x20\n      add\n      mload(0x40)\n      swap1\n      dup2\n      add\n      0x40\n      mstore\n      dup1\n      swap3\n      swap2\n      swap1\n      dup2\n      dup2\n      mstore\n      0x20\n      add\n      dup3\n      dup1\n      sload\n      tag_20\n      swap1\n      tag_19\n      jump\t// in\n    tag_20:\n      dup1\n      iszero\n      tag_21\n      jumpi\n      dup1\n      0x1f\n      lt\n      tag_22\n      jumpi\n      0x0100\n      dup1\n      dup4\n      sload\n      div\n      mul\n      dup4\n      mstore\n      swap2\n      0x20\n      add\n      swap2\n      jump(tag_21)\n    tag_22:\n      dup3\n      add\n      swap2\n      swap1\n      0x00\n      mstore\n      keccak256(0x00, 0x20)\n      swap1\n    tag_23:\n      dup2\n      sload\n      dup2\n      mstore\n      swap1\n      0x01\n      add\n      swap1\n      0x20\n      add\n      dup1\n      dup4\n      gt\n      tag_23\n      jumpi\n      dup3\n      swap1\n      sub\n      0x1f\n      and\n      dup3\n      add\n      swap2\n    tag_21:\n      pop\n      pop\n      pop\n      pop\n      pop\n      swap1\n      dup1\n      0x01\n      add\n      dup1\n      sload\n      tag_24\n      swap1\n      tag_19\n      jump\t// in\n    tag_24:\n      dup1\n      0x1f\n      add\n      0x20\n      dup1\n      swap2\n      div\n      mul\n      0x20\n      add\n      mload(0x40)\n      swap1\n      dup2\n      add\n      0x40\n      mstore\n      dup1\n      swap3\n      swap2\n      swap1\n      dup2\n      dup2\n      mstore\n      0x20\n      add\n      dup3\n      dup1\n      sload\n      tag_25\n      swap1\n      tag_19\n      jump\t// in\n    tag_25:\n      dup1\n      iszero\n      tag_26\n      jumpi\n      dup1\n      0x1f\n      lt\n      tag_27\n      jumpi\n      0x0100\n      dup1\n      dup4\n      sload\n      div\n      mul\n      dup4\n      mstore\n      swap2\n      0x20\n      add\n      swap2\n      jump(tag_26)\n    tag_27:\n      dup3\n      add\n      swap2\n      swap1\n      0x00\n      mstore\n      keccak256(0x00, 0x20)\n      swap1\n    tag_28:\n      dup2\n      sload\n      dup2\n      mstore\n      swap1\n      0x01\n      add\n      swap1\n      0x20\n      add\n      dup1\n      dup4\n      gt\n      tag_28\n      jumpi\n      dup3\n      swap1\n      sub\n      0x1f\n      and\n      dup3\n      add\n      swap2\n    tag_26:\n      pop\n      pop\n      pop\n      pop\n      pop\n      swap1\n      dup1\n      0x02\n      add\n      sload\n      swap1\n      dup1\n      0x03\n      add\n      sload\n      swap1\n      dup1\n      0x04\n      add\n      sload\n      swap1\n      dup1\n      0x05\n      add\n      dup1\n      sload\n      tag_29\n      swap1\n      tag_19\n      jump\t// in\n    tag_29:\n      dup1\n      0x1f\n      add\n      0x20\n      dup1\n      swap2\n      div\n      mul\n      0x20\n      add\n      mload(0x40)\n      swap1\n      dup2\n      add\n      0x40\n      mstore\n      dup1\n      swap3\n      swap2\n      swap1\n      dup2\n      dup2\n      mstore\n      0x20\n      add\n      dup3\n      dup1\n      sload\n      tag_30\n      swap1\n      tag_19\n      jump\t// in\n    tag_30:\n      dup1\n      iszero\n      tag_31\n      jumpi\n      dup1\n      0x1f\n      lt\n      tag_32\n      jumpi\n      0x0100\n      dup1\n      dup4\n      sload\n      div\n      mul\n      dup4\n      mstore\n      swap2\n      0x20\n      add\n      swap2\n      jump(tag_31)\n    tag_32:\n      dup3\n      add\n      swap2\n      swap1\n      0x00\n      mstore\n      keccak256(0x00, 0x20)\n      swap1\n    tag_33:\n      dup2\n      sload\n      dup2\n      mstore\n      swap1\n      0x01\n      add\n      swap1\n      0x20\n      add\n      dup1\n      dup4\n      gt\n      tag_33\n      jumpi\n      dup3\n      swap1\n      sub\n      0x1f\n      and\n      dup3\n      add\n      swap2\n    tag_31:\n      pop\n      pop\n      pop\n      pop\n      pop\n      swap1\n      dup1\n      0x06\n      add\n      dup1\n      sload\n      tag_34\n      swap1\n      tag_19\n      jump\t// in\n    tag_34:\n      dup1\n      0x1f\n      add\n      0x20\n      dup1\n      swap2\n      div\n      mul\n      0x20\n      add\n      mload(0x40)\n      swap1\n      dup2\n      add\n      0x40\n      mstore\n      dup1\n      swap3\n      swap2\n      swap1\n      dup2\n      dup2\n      mstore\n      0x20\n      add\n      dup3\n      dup1\n      sload\n      tag_35\n      swap1\n      tag_19\n      jump\t// in\n    tag_35:\n      dup1\n      iszero\n      tag_36\n      jumpi\n      dup1\n      0x1f\n      lt\n      tag_37\n      jumpi\n      0x0100\n      dup1\n      dup4\n      sload\n      div\n      mul\n      dup4\n      mstore\n      swap2\n      0x20\n      add\n      swap2\n      jump(tag_36)\n    tag_37:\n      dup3\n      add\n      swap2\n      swap1\n      0x00\n      mstore\n      keccak256(0x00, 0x20)\n      swap1\n    tag_38:\n      dup2\n      sload\n      dup2\n      mstore\n      swap1\n      0x01\n      add\n      swap1\n      0x20\n      add\n      dup1\n      dup4\n      gt\n      tag_38\n      jumpi\n      dup3\n      swap1\n      sub\n      0x1f\n      and\n      dup3\n      add\n      swap2\n    tag_36:\n      pop\n      pop\n      pop\n      pop\n      pop\n      swap1\n      dup1\n      0x07\n      add\n      dup1\n      sload\n      tag_39\n      swap1\n      tag_19\n      jump\t// in\n    tag_39:\n      dup1\n      0x1f\n      add\n      0x20\n      dup1\n      swap2\n      div\n      mul\n      0x20\n      add\n      mload(0x40)\n      swap1\n      dup2\n      add\n      0x40\n      mstore\n      dup1\n      swap3\n      swap2\n      swap1\n      dup2\n      dup2\n      mstore\n      0x20\n      add\n      dup3\n      dup1\n      sload\n      tag_40\n      swap1\n      tag_19\n      jump\t// in\n    tag_40:\n      dup1\n      iszero\n      tag_41\n      jumpi\n      dup1\n      0x1f\n      lt\n      tag_42\n      jumpi\n      0x0100\n      dup1\n      dup4\n      sload\n      div\n      mul\n      dup4\n      mstore\n      swap2\n      0x20\n      add\n      swap2\n      jump(tag_41)\n    tag_42:\n      dup3\n      add\n      swap2\n      swap1\n      0x00\n      mstore\n      keccak256(0x00, 0x20)\n      swap1\n    tag_43:\n      dup2\n      sload\n      dup2\n      mstore\n      swap1\n      0x01\n      add\n      swap1\n      0x20\n      add\n      dup1\n      dup4\n      gt\n      tag_43\n      jumpi\n      dup3\n      swap1\n      sub\n      0x1f\n      and\n      dup3\n      add\n      swap2\n    tag_41:\n      pop\n      pop\n      pop\n      pop\n      pop\n      swap1\n      pop\n      dup9\n      jump\t// out\n        /* \"smartwill.sol\":2676:2978  function setParameters(... */\n    tag_17:\n        /* \"smartwill.sol\":2842:2852  msg.sender */\n      caller\n        /* \"smartwill.sol\":2831:2852  manager == msg.sender */\n      0xffffffffffffffffffffffffffffffffffffffff\n      and\n        /* \"smartwill.sol\":2831:2838  manager */\n      0x00\n      dup1\n      sload\n      swap1\n      0x0100\n      exp\n      swap1\n      div\n      0xffffffffffffffffffffffffffffffffffffffff\n      and\n        /* \"smartwill.sol\":2831:2852  manager == msg.sender */\n      0xffffffffffffffffffffffffffffffffffffffff\n      and\n      eq\n        /* \"smartwill.sol\":2823:2853  require(manager == msg.sender) */\n      tag_45\n      jumpi\n      0x00\n      dup1\n      revert\n    tag_45:\n        /* \"smartwill.sol\":2882:2891  _password */\n      dup3\n        /* \"smartwill.sol\":2863:2870  account */\n      0x01\n        /* \"smartwill.sol\":2863:2879  account.password */\n      0x05\n      add\n        /* \"smartwill.sol\":2863:2891  account.password = _password */\n      swap1\n      dup2\n      tag_46\n      swap2\n      swap1\n      tag_47\n      jump\t// in\n    tag_46:\n      pop\n        /* \"smartwill.sol\":2919:2927  _balance */\n      dup2\n        /* \"smartwill.sol\":2901:2908  account */\n      0x01\n        /* \"smartwill.sol\":2901:2916  account.balance */\n      0x06\n      add\n        /* \"smartwill.sol\":2901:2927  account.balance = _balance */\n      swap1\n      dup2\n      tag_48\n      swap2\n      swap1\n      tag_47\n      jump\t// in\n    tag_48:\n      pop\n        /* \"smartwill.sol\":2959:2971  _description */\n      dup1\n        /* \"smartwill.sol\":2937:2944  account */\n      0x01\n        /* \"smartwill.sol\":2937:2956  account.description */\n      0x07\n      add\n        /* \"smartwill.sol\":2937:2971  account.description = _description */\n      swap1\n      dup2\n      tag_49\n      swap2\n      swap1\n      tag_47\n      jump\t// in\n    tag_49:\n      pop\n        /* \"smartwill.sol\":2676:2978  function setParameters(... */\n      pop\n      pop\n      pop\n      jump\t// out\n        /* \"#utility.yul\":7:133   */\n    tag_50:\n        /* \"#utility.yul\":44:51   */\n      0x00\n        /* \"#utility.yul\":84:126   */\n      0xffffffffffffffffffffffffffffffffffffffff\n        /* \"#utility.yul\":77:82   */\n      dup3\n        /* \"#utility.yul\":73:127   */\n      and\n        /* \"#utility.yul\":62:127   */\n      swap1\n      pop\n        /* \"#utility.yul\":7:133   */\n      swap2\n      swap1\n      pop\n      jump\t// out\n        /* \"#utility.yul\":139:235   */\n    tag_51:\n        /* \"#utility.yul\":176:183   */\n      0x00\n        /* \"#utility.yul\":205:229   */\n      tag_91\n        /* \"#utility.yul\":223:228   */\n      dup3\n        /* \"#utility.yul\":205:229   */\n      tag_50\n      jump\t// in\n    tag_91:\n        /* \"#utility.yul\":194:229   */\n      swap1\n      pop\n        /* \"#utility.yul\":139:235   */\n      swap2\n      swap1\n      pop\n      jump\t// out\n        /* \"#utility.yul\":241:359   */\n    tag_52:\n        /* \"#utility.yul\":328:352   */\n      tag_93\n        /* \"#utility.yul\":346:351   */\n      dup2\n        /* \"#utility.yul\":328:352   */\n      tag_51\n      jump\t// in\n    tag_93:\n        /* \"#utility.yul\":323:326   */\n      dup3\n        /* \"#utility.yul\":316:353   */\n      mstore\n        /* \"#utility.yul\":241:359   */\n      pop\n      pop\n      jump\t// out\n        /* \"#utility.yul\":365:587   */\n    tag_9:\n        /* \"#utility.yul\":458:462   */\n      0x00\n        /* \"#utility.yul\":496:498   */\n      0x20\n        /* \"#utility.yul\":485:494   */\n      dup3\n        /* \"#utility.yul\":481:499   */\n      add\n        /* \"#utility.yul\":473:499   */\n      swap1\n      pop\n        /* \"#utility.yul\":509:580   */\n      tag_95\n        /* \"#utility.yul\":577:578   */\n      0x00\n        /* \"#utility.yul\":566:575   */\n      dup4\n        /* \"#utility.yul\":562:579   */\n      add\n        /* \"#utility.yul\":553:559   */\n      dup5\n        /* \"#utility.yul\":509:580   */\n      tag_52\n      jump\t// in\n    tag_95:\n        /* \"#utility.yul\":365:587   */\n      swap3\n      swap2\n      pop\n      pop\n      jump\t// out\n        /* \"#utility.yul\":593:692   */\n    tag_53:\n        /* \"#utility.yul\":645:651   */\n      0x00\n        /* \"#utility.yul\":679:684   */\n      dup2\n        /* \"#utility.yul\":673:685   */\n      mload\n        /* \"#utility.yul\":663:685   */\n      swap1\n      pop\n        /* \"#utility.yul\":593:692   */\n      swap2\n      swap1\n      pop\n      jump\t// out\n        /* \"#utility.yul\":698:867   */\n    tag_54:\n        /* \"#utility.yul\":782:793   */\n      0x00\n        /* \"#utility.yul\":816:822   */\n      dup3\n        /* \"#utility.yul\":811:814   */\n      dup3\n        /* \"#utility.yul\":804:823   */\n      mstore\n        /* \"#utility.yul\":856:860   */\n      0x20\n        /* \"#utility.yul\":851:854   */\n      dup3\n        /* \"#utility.yul\":847:861   */\n      add\n        /* \"#utility.yul\":832:861   */\n      swap1\n      pop\n        /* \"#utility.yul\":698:867   */\n      swap3\n      swap2\n      pop\n      pop\n      jump\t// out\n        /* \"#utility.yul\":873:1180   */\n    tag_55:\n        /* \"#utility.yul\":941:942   */\n      0x00\n        /* \"#utility.yul\":951:1064   */\n    tag_99:\n        /* \"#utility.yul\":965:971   */\n      dup4\n        /* \"#utility.yul\":962:963   */\n      dup2\n        /* \"#utility.yul\":959:972   */\n      lt\n        /* \"#utility.yul\":951:1064   */\n      iszero\n      tag_101\n      jumpi\n        /* \"#utility.yul\":1050:1051   */\n      dup1\n        /* \"#utility.yul\":1045:1048   */\n      dup3\n        /* \"#utility.yul\":1041:1052   */\n      add\n        /* \"#utility.yul\":1035:1053   */\n      mload\n        /* \"#utility.yul\":1031:1032   */\n      dup2\n        /* \"#utility.yul\":1026:1029   */\n      dup5\n        /* \"#utility.yul\":1022:1033   */\n      add\n        /* \"#utility.yul\":1015:1054   */\n      mstore\n        /* \"#utility.yul\":987:989   */\n      0x20\n        /* \"#utility.yul\":984:985   */\n      dup2\n        /* \"#utility.yul\":980:990   */\n      add\n        /* \"#utility.yul\":975:990   */\n      swap1\n      pop\n        /* \"#utility.yul\":951:1064   */\n      jump(tag_99)\n    tag_101:\n        /* \"#utility.yul\":1082:1088   */\n      dup4\n        /* \"#utility.yul\":1079:1080   */\n      dup2\n        /* \"#utility.yul\":1076:1089   */\n      gt\n        /* \"#utility.yul\":1073:1174   */\n      iszero\n      tag_102\n      jumpi\n        /* \"#utility.yul\":1162:1163   */\n      0x00\n        /* \"#utility.yul\":1153:1159   */\n      dup5\n        /* \"#utility.yul\":1148:1151   */\n      dup5\n        /* \"#utility.yul\":1144:1160   */\n      add\n        /* \"#utility.yul\":1137:1164   */\n      mstore\n        /* \"#utility.yul\":1073:1174   */\n    tag_102:\n        /* \"#utility.yul\":922:1180   */\n      pop\n        /* \"#utility.yul\":873:1180   */\n      pop\n      pop\n      pop\n      jump\t// out\n        /* \"#utility.yul\":1186:1288   */\n    tag_56:\n        /* \"#utility.yul\":1227:1233   */\n      0x00\n        /* \"#utility.yul\":1278:1280   */\n      0x1f\n        /* \"#utility.yul\":1274:1281   */\n      not\n        /* \"#utility.yul\":1269:1271   */\n      0x1f\n        /* \"#utility.yul\":1262:1267   */\n      dup4\n        /* \"#utility.yul\":1258:1272   */\n      add\n        /* \"#utility.yul\":1254:1282   */\n      and\n        /* \"#utility.yul\":1244:1282   */\n      swap1\n      pop\n        /* \"#utility.yul\":1186:1288   */\n      swap2\n      swap1\n      pop\n      jump\t// out\n        /* \"#utility.yul\":1294:1658   */\n    tag_57:\n        /* \"#utility.yul\":1382:1385   */\n      0x00\n        /* \"#utility.yul\":1410:1449   */\n      tag_105\n        /* \"#utility.yul\":1443:1448   */\n      dup3\n        /* \"#utility.yul\":1410:1449   */\n      tag_53\n      jump\t// in\n    tag_105:\n        /* \"#utility.yul\":1465:1536   */\n      tag_106\n        /* \"#utility.yul\":1529:1535   */\n      dup2\n        /* \"#utility.yul\":1524:1527   */\n      dup6\n        /* \"#utility.yul\":1465:1536   */\n      tag_54\n      jump\t// in\n    tag_106:\n        /* \"#utility.yul\":1458:1536   */\n      swap4\n      pop\n        /* \"#utility.yul\":1545:1597   */\n      tag_107\n        /* \"#utility.yul\":1590:1596   */\n      dup2\n        /* \"#utility.yul\":1585:1588   */\n      dup6\n        /* \"#utility.yul\":1578:1582   */\n      0x20\n        /* \"#utility.yul\":1571:1576   */\n      dup7\n        /* \"#utility.yul\":1567:1583   */\n      add\n        /* \"#utility.yul\":1545:1597   */\n      tag_55\n      jump\t// in\n    tag_107:\n        /* \"#utility.yul\":1622:1651   */\n      tag_108\n        /* \"#utility.yul\":1644:1650   */\n      dup2\n        /* \"#utility.yul\":1622:1651   */\n      tag_56\n      jump\t// in\n    tag_108:\n        /* \"#utility.yul\":1617:1620   */\n      dup5\n        /* \"#utility.yul\":1613:1652   */\n      add\n        /* \"#utility.yul\":1606:1652   */\n      swap2\n      pop\n        /* \"#utility.yul\":1386:1658   */\n      pop\n        /* \"#utility.yul\":1294:1658   */\n      swap3\n      swap2\n      pop\n      pop\n      jump\t// out\n        /* \"#utility.yul\":1664:1741   */\n    tag_58:\n        /* \"#utility.yul\":1701:1708   */\n      0x00\n        /* \"#utility.yul\":1730:1735   */\n      dup2\n        /* \"#utility.yul\":1719:1735   */\n      swap1\n      pop\n        /* \"#utility.yul\":1664:1741   */\n      swap2\n      swap1\n      pop\n      jump\t// out\n        /* \"#utility.yul\":1747:1865   */\n    tag_59:\n        /* \"#utility.yul\":1834:1858   */\n      tag_111\n        /* \"#utility.yul\":1852:1857   */\n      dup2\n        /* \"#utility.yul\":1834:1858   */\n      tag_58\n      jump\t// in\n    tag_111:\n        /* \"#utility.yul\":1829:1832   */\n      dup3\n        /* \"#utility.yul\":1822:1859   */\n      mstore\n        /* \"#utility.yul\":1747:1865   */\n      pop\n      pop\n      jump\t// out\n        /* \"#utility.yul\":1871:3323   */\n    tag_13:\n        /* \"#utility.yul\":2260:2264   */\n      0x00\n        /* \"#utility.yul\":2298:2301   */\n      0x0100\n        /* \"#utility.yul\":2287:2296   */\n      dup3\n        /* \"#utility.yul\":2283:2302   */\n      add\n        /* \"#utility.yul\":2275:2302   */\n      swap1\n      pop\n        /* \"#utility.yul\":2348:2357   */\n      dup2\n        /* \"#utility.yul\":2342:2346   */\n      dup2\n        /* \"#utility.yul\":2338:2358   */\n      sub\n        /* \"#utility.yul\":2334:2335   */\n      0x00\n        /* \"#utility.yul\":2323:2332   */\n      dup4\n        /* \"#utility.yul\":2319:2336   */\n      add\n        /* \"#utility.yul\":2312:2359   */\n      mstore\n        /* \"#utility.yul\":2376:2454   */\n      tag_113\n        /* \"#utility.yul\":2449:2453   */\n      dup2\n        /* \"#utility.yul\":2440:2446   */\n      dup12\n        /* \"#utility.yul\":2376:2454   */\n      tag_57\n      jump\t// in\n    tag_113:\n        /* \"#utility.yul\":2368:2454   */\n      swap1\n      pop\n        /* \"#utility.yul\":2501:2510   */\n      dup2\n        /* \"#utility.yul\":2495:2499   */\n      dup2\n        /* \"#utility.yul\":2491:2511   */\n      sub\n        /* \"#utility.yul\":2486:2488   */\n      0x20\n        /* \"#utility.yul\":2475:2484   */\n      dup4\n        /* \"#utility.yul\":2471:2489   */\n      add\n        /* \"#utility.yul\":2464:2512   */\n      mstore\n        /* \"#utility.yul\":2529:2607   */\n      tag_114\n        /* \"#utility.yul\":2602:2606   */\n      dup2\n        /* \"#utility.yul\":2593:2599   */\n      dup11\n        /* \"#utility.yul\":2529:2607   */\n      tag_57\n      jump\t// in\n    tag_114:\n        /* \"#utility.yul\":2521:2607   */\n      swap1\n      pop\n        /* \"#utility.yul\":2617:2689   */\n      tag_115\n        /* \"#utility.yul\":2685:2687   */\n      0x40\n        /* \"#utility.yul\":2674:2683   */\n      dup4\n        /* \"#utility.yul\":2670:2688   */\n      add\n        /* \"#utility.yul\":2661:2667   */\n      dup10\n        /* \"#utility.yul\":2617:2689   */\n      tag_59\n      jump\t// in\n    tag_115:\n        /* \"#utility.yul\":2699:2771   */\n      tag_116\n        /* \"#utility.yul\":2767:2769   */\n      0x60\n        /* \"#utility.yul\":2756:2765   */\n      dup4\n        /* \"#utility.yul\":2752:2770   */\n      add\n        /* \"#utility.yul\":2743:2749   */\n      dup9\n        /* \"#utility.yul\":2699:2771   */\n      tag_59\n      jump\t// in\n    tag_116:\n        /* \"#utility.yul\":2781:2854   */\n      tag_117\n        /* \"#utility.yul\":2849:2852   */\n      0x80\n        /* \"#utility.yul\":2838:2847   */\n      dup4\n        /* \"#utility.yul\":2834:2853   */\n      add\n        /* \"#utility.yul\":2825:2831   */\n      dup8\n        /* \"#utility.yul\":2781:2854   */\n      tag_59\n      jump\t// in\n    tag_117:\n        /* \"#utility.yul\":2902:2911   */\n      dup2\n        /* \"#utility.yul\":2896:2900   */\n      dup2\n        /* \"#utility.yul\":2892:2912   */\n      sub\n        /* \"#utility.yul\":2886:2889   */\n      0xa0\n        /* \"#utility.yul\":2875:2884   */\n      dup4\n        /* \"#utility.yul\":2871:2890   */\n      add\n        /* \"#utility.yul\":2864:2913   */\n      mstore\n        /* \"#utility.yul\":2930:3008   */\n      tag_118\n        /* \"#utility.yul\":3003:3007   */\n      dup2\n        /* \"#utility.yul\":2994:3000   */\n      dup7\n        /* \"#utility.yul\":2930:3008   */\n      tag_57\n      jump\t// in\n    tag_118:\n        /* \"#utility.yul\":2922:3008   */\n      swap1\n      pop\n        /* \"#utility.yul\":3056:3065   */\n      dup2\n        /* \"#utility.yul\":3050:3054   */\n      dup2\n        /* \"#utility.yul\":3046:3066   */\n      sub\n        /* \"#utility.yul\":3040:3043   */\n      0xc0\n        /* \"#utility.yul\":3029:3038   */\n      dup4\n        /* \"#utility.yul\":3025:3044   */\n      add\n        /* \"#utility.yul\":3018:3067   */\n      mstore\n        /* \"#utility.yul\":3084:3162   */\n      tag_119\n        /* \"#utility.yul\":3157:3161   */\n      dup2\n        /* \"#utility.yul\":3148:3154   */\n      dup6\n        /* \"#utility.yul\":3084:3162   */\n      tag_57\n      jump\t// in\n    tag_119:\n        /* \"#utility.yul\":3076:3162   */\n      swap1\n      pop\n        /* \"#utility.yul\":3210:3219   */\n      dup2\n        /* \"#utility.yul\":3204:3208   */\n      dup2\n        /* \"#utility.yul\":3200:3220   */\n      sub\n        /* \"#utility.yul\":3194:3197   */\n      0xe0\n        /* \"#utility.yul\":3183:3192   */\n      dup4\n        /* \"#utility.yul\":3179:3198   */\n      add\n        /* \"#utility.yul\":3172:3221   */\n      mstore\n        /* \"#utility.yul\":3238:3316   */\n      tag_120\n        /* \"#utility.yul\":3311:3315   */\n      dup2\n        /* \"#utility.yul\":3302:3308   */\n      dup5\n        /* \"#utility.yul\":3238:3316   */\n      tag_57\n      jump\t// in\n    tag_120:\n        /* \"#utility.yul\":3230:3316   */\n      swap1\n      pop\n        /* \"#utility.yul\":1871:3323   */\n      swap10\n      swap9\n      pop\n      pop\n      pop\n      pop\n      pop\n      pop\n      pop\n      pop\n      pop\n      jump\t// out\n        /* \"#utility.yul\":3329:3404   */\n    tag_60:\n        /* \"#utility.yul\":3362:3368   */\n      0x00\n        /* \"#utility.yul\":3395:3397   */\n      0x40\n        /* \"#utility.yul\":3389:3398   */\n      mload\n        /* \"#utility.yul\":3379:3398   */\n      swap1\n      pop\n        /* \"#utility.yul\":3329:3404   */\n      swap1\n      jump\t// out\n        /* \"#utility.yul\":3410:3527   */\n    tag_61:\n        /* \"#utility.yul\":3519:3520   */\n      0x00\n        /* \"#utility.yul\":3516:3517   */\n      dup1\n        /* \"#utility.yul\":3509:3521   */\n      revert\n        /* \"#utility.yul\":3533:3650   */\n    tag_62:\n        /* \"#utility.yul\":3642:3643   */\n      0x00\n        /* \"#utility.yul\":3639:3640   */\n      dup1\n        /* \"#utility.yul\":3632:3644   */\n      revert\n        /* \"#utility.yul\":3656:3773   */\n    tag_63:\n        /* \"#utility.yul\":3765:3766   */\n      0x00\n        /* \"#utility.yul\":3762:3763   */\n      dup1\n        /* \"#utility.yul\":3755:3767   */\n      revert\n        /* \"#utility.yul\":3779:3896   */\n    tag_64:\n        /* \"#utility.yul\":3888:3889   */\n      0x00\n        /* \"#utility.yul\":3885:3886   */\n      dup1\n        /* \"#utility.yul\":3878:3890   */\n      revert\n        /* \"#utility.yul\":3902:4082   */\n    tag_65:\n        /* \"#utility.yul\":3950:4027   */\n      0x4e487b7100000000000000000000000000000000000000000000000000000000\n        /* \"#utility.yul\":3947:3948   */\n      0x00\n        /* \"#utility.yul\":3940:4028   */\n      mstore\n        /* \"#utility.yul\":4047:4051   */\n      0x41\n        /* \"#utility.yul\":4044:4045   */\n      0x04\n        /* \"#utility.yul\":4037:4052   */\n      mstore\n        /* \"#utility.yul\":4071:4075   */\n      0x24\n        /* \"#utility.yul\":4068:4069   */\n      0x00\n        /* \"#utility.yul\":4061:4076   */\n      revert\n        /* \"#utility.yul\":4088:4369   */\n    tag_66:\n        /* \"#utility.yul\":4171:4198   */\n      tag_128\n        /* \"#utility.yul\":4193:4197   */\n      dup3\n        /* \"#utility.yul\":4171:4198   */\n      tag_56\n      jump\t// in\n    tag_128:\n        /* \"#utility.yul\":4163:4169   */\n      dup2\n        /* \"#utility.yul\":4159:4199   */\n      add\n        /* \"#utility.yul\":4301:4307   */\n      dup2\n        /* \"#utility.yul\":4289:4299   */\n      dup2\n        /* \"#utility.yul\":4286:4308   */\n      lt\n        /* \"#utility.yul\":4265:4283   */\n      0xffffffffffffffff\n        /* \"#utility.yul\":4253:4263   */\n      dup3\n        /* \"#utility.yul\":4250:4284   */\n      gt\n        /* \"#utility.yul\":4247:4309   */\n      or\n        /* \"#utility.yul\":4244:4332   */\n      iszero\n      tag_129\n      jumpi\n        /* \"#utility.yul\":4312:4330   */\n      tag_130\n      tag_65\n      jump\t// in\n    tag_130:\n        /* \"#utility.yul\":4244:4332   */\n    tag_129:\n        /* \"#utility.yul\":4352:4362   */\n      dup1\n        /* \"#utility.yul\":4348:4350   */\n      0x40\n        /* \"#utility.yul\":4341:4363   */\n      mstore\n        /* \"#utility.yul\":4131:4369   */\n      pop\n        /* \"#utility.yul\":4088:4369   */\n      pop\n      pop\n      jump\t// out\n        /* \"#utility.yul\":4375:4504   */\n    tag_67:\n        /* \"#utility.yul\":4409:4415   */\n      0x00\n        /* \"#utility.yul\":4436:4456   */\n      tag_132\n      tag_60\n      jump\t// in\n    tag_132:\n        /* \"#utility.yul\":4426:4456   */\n      swap1\n      pop\n        /* \"#utility.yul\":4465:4498   */\n      tag_133\n        /* \"#utility.yul\":4493:4497   */\n      dup3\n        /* \"#utility.yul\":4485:4491   */\n      dup3\n        /* \"#utility.yul\":4465:4498   */\n      tag_66\n      jump\t// in\n    tag_133:\n        /* \"#utility.yul\":4375:4504   */\n      swap2\n      swap1\n      pop\n      jump\t// out\n        /* \"#utility.yul\":4510:4818   */\n    tag_68:\n        /* \"#utility.yul\":4572:4576   */\n      0x00\n        /* \"#utility.yul\":4662:4680   */\n      0xffffffffffffffff\n        /* \"#utility.yul\":4654:4660   */\n      dup3\n        /* \"#utility.yul\":4651:4681   */\n      gt\n        /* \"#utility.yul\":4648:4704   */\n      iszero\n      tag_135\n      jumpi\n        /* \"#utility.yul\":4684:4702   */\n      tag_136\n      tag_65\n      jump\t// in\n    tag_136:\n        /* \"#utility.yul\":4648:4704   */\n    tag_135:\n        /* \"#utility.yul\":4722:4751   */\n      tag_137\n        /* \"#utility.yul\":4744:4750   */\n      dup3\n        /* \"#utility.yul\":4722:4751   */\n      tag_56\n      jump\t// in\n    tag_137:\n        /* \"#utility.yul\":4714:4751   */\n      swap1\n      pop\n        /* \"#utility.yul\":4806:4810   */\n      0x20\n        /* \"#utility.yul\":4800:4804   */\n      dup2\n        /* \"#utility.yul\":4796:4811   */\n      add\n        /* \"#utility.yul\":4788:4811   */\n      swap1\n      pop\n        /* \"#utility.yul\":4510:4818   */\n      swap2\n      swap1\n      pop\n      jump\t// out\n        /* \"#utility.yul\":4824:4978   */\n    tag_69:\n        /* \"#utility.yul\":4908:4914   */\n      dup3\n        /* \"#utility.yul\":4903:4906   */\n      dup2\n        /* \"#utility.yul\":4898:4901   */\n      dup4\n        /* \"#utility.yul\":4885:4915   */\n      calldatacopy\n        /* \"#utility.yul\":4970:4971   */\n      0x00\n        /* \"#utility.yul\":4961:4967   */\n      dup4\n        /* \"#utility.yul\":4956:4959   */\n      dup4\n        /* \"#utility.yul\":4952:4968   */\n      add\n        /* \"#utility.yul\":4945:4972   */\n      mstore\n        /* \"#utility.yul\":4824:4978   */\n      pop\n      pop\n      pop\n      jump\t// out\n        /* \"#utility.yul\":4984:5396   */\n    tag_70:\n        /* \"#utility.yul\":5062:5067   */\n      0x00\n        /* \"#utility.yul\":5087:5153   */\n      tag_140\n        /* \"#utility.yul\":5103:5152   */\n      tag_141\n        /* \"#utility.yul\":5145:5151   */\n      dup5\n        /* \"#utility.yul\":5103:5152   */\n      tag_68\n      jump\t// in\n    tag_141:\n        /* \"#utility.yul\":5087:5153   */\n      tag_67\n      jump\t// in\n    tag_140:\n        /* \"#utility.yul\":5078:5153   */\n      swap1\n      pop\n        /* \"#utility.yul\":5176:5182   */\n      dup3\n        /* \"#utility.yul\":5169:5174   */\n      dup2\n        /* \"#utility.yul\":5162:5183   */\n      mstore\n        /* \"#utility.yul\":5214:5218   */\n      0x20\n        /* \"#utility.yul\":5207:5212   */\n      dup2\n        /* \"#utility.yul\":5203:5219   */\n      add\n        /* \"#utility.yul\":5252:5255   */\n      dup5\n        /* \"#utility.yul\":5243:5249   */\n      dup5\n        /* \"#utility.yul\":5238:5241   */\n      dup5\n        /* \"#utility.yul\":5234:5250   */\n      add\n        /* \"#utility.yul\":5231:5256   */\n      gt\n        /* \"#utility.yul\":5228:5340   */\n      iszero\n      tag_142\n      jumpi\n        /* \"#utility.yul\":5259:5338   */\n      tag_143\n      tag_64\n      jump\t// in\n    tag_143:\n        /* \"#utility.yul\":5228:5340   */\n    tag_142:\n        /* \"#utility.yul\":5349:5390   */\n      tag_144\n        /* \"#utility.yul\":5383:5389   */\n      dup5\n        /* \"#utility.yul\":5378:5381   */\n      dup3\n        /* \"#utility.yul\":5373:5376   */\n      dup6\n        /* \"#utility.yul\":5349:5390   */\n      tag_69\n      jump\t// in\n    tag_144:\n        /* \"#utility.yul\":5068:5396   */\n      pop\n        /* \"#utility.yul\":4984:5396   */\n      swap4\n      swap3\n      pop\n      pop\n      pop\n      jump\t// out\n        /* \"#utility.yul\":5416:5756   */\n    tag_71:\n        /* \"#utility.yul\":5472:5477   */\n      0x00\n        /* \"#utility.yul\":5521:5524   */\n      dup3\n        /* \"#utility.yul\":5514:5518   */\n      0x1f\n        /* \"#utility.yul\":5506:5512   */\n      dup4\n        /* \"#utility.yul\":5502:5519   */\n      add\n        /* \"#utility.yul\":5498:5525   */\n      slt\n        /* \"#utility.yul\":5488:5610   */\n      tag_146\n      jumpi\n        /* \"#utility.yul\":5529:5608   */\n      tag_147\n      tag_63\n      jump\t// in\n    tag_147:\n        /* \"#utility.yul\":5488:5610   */\n    tag_146:\n        /* \"#utility.yul\":5646:5652   */\n      dup2\n        /* \"#utility.yul\":5633:5653   */\n      calldataload\n        /* \"#utility.yul\":5671:5750   */\n      tag_148\n        /* \"#utility.yul\":5746:5749   */\n      dup5\n        /* \"#utility.yul\":5738:5744   */\n      dup3\n        /* \"#utility.yul\":5731:5735   */\n      0x20\n        /* \"#utility.yul\":5723:5729   */\n      dup7\n        /* \"#utility.yul\":5719:5736   */\n      add\n        /* \"#utility.yul\":5671:5750   */\n      tag_70\n      jump\t// in\n    tag_148:\n        /* \"#utility.yul\":5662:5750   */\n      swap2\n      pop\n        /* \"#utility.yul\":5478:5756   */\n      pop\n        /* \"#utility.yul\":5416:5756   */\n      swap3\n      swap2\n      pop\n      pop\n      jump\t// out\n        /* \"#utility.yul\":5762:6921   */\n    tag_16:\n        /* \"#utility.yul\":5869:5875   */\n      0x00\n        /* \"#utility.yul\":5877:5883   */\n      dup1\n        /* \"#utility.yul\":5885:5891   */\n      0x00\n        /* \"#utility.yul\":5934:5936   */\n      0x60\n        /* \"#utility.yul\":5922:5931   */\n      dup5\n        /* \"#utility.yul\":5913:5920   */\n      dup7\n        /* \"#utility.yul\":5909:5932   */\n      sub\n        /* \"#utility.yul\":5905:5937   */\n      slt\n        /* \"#utility.yul\":5902:6021   */\n      iszero\n      tag_150\n      jumpi\n        /* \"#utility.yul\":5940:6019   */\n      tag_151\n      tag_61\n      jump\t// in\n    tag_151:\n        /* \"#utility.yul\":5902:6021   */\n    tag_150:\n        /* \"#utility.yul\":6088:6089   */\n      0x00\n        /* \"#utility.yul\":6077:6086   */\n      dup5\n        /* \"#utility.yul\":6073:6090   */\n      add\n        /* \"#utility.yul\":6060:6091   */\n      calldataload\n        /* \"#utility.yul\":6118:6136   */\n      0xffffffffffffffff\n        /* \"#utility.yul\":6110:6116   */\n      dup2\n        /* \"#utility.yul\":6107:6137   */\n      gt\n        /* \"#utility.yul\":6104:6221   */\n      iszero\n      tag_152\n      jumpi\n        /* \"#utility.yul\":6140:6219   */\n      tag_153\n      tag_62\n      jump\t// in\n    tag_153:\n        /* \"#utility.yul\":6104:6221   */\n    tag_152:\n        /* \"#utility.yul\":6245:6308   */\n      tag_154\n        /* \"#utility.yul\":6300:6307   */\n      dup7\n        /* \"#utility.yul\":6291:6297   */\n      dup3\n        /* \"#utility.yul\":6280:6289   */\n      dup8\n        /* \"#utility.yul\":6276:6298   */\n      add\n        /* \"#utility.yul\":6245:6308   */\n      tag_71\n      jump\t// in\n    tag_154:\n        /* \"#utility.yul\":6235:6308   */\n      swap4\n      pop\n        /* \"#utility.yul\":6031:6318   */\n      pop\n        /* \"#utility.yul\":6385:6387   */\n      0x20\n        /* \"#utility.yul\":6374:6383   */\n      dup5\n        /* \"#utility.yul\":6370:6388   */\n      add\n        /* \"#utility.yul\":6357:6389   */\n      calldataload\n        /* \"#utility.yul\":6416:6434   */\n      0xffffffffffffffff\n        /* \"#utility.yul\":6408:6414   */\n      dup2\n        /* \"#utility.yul\":6405:6435   */\n      gt\n        /* \"#utility.yul\":6402:6519   */\n      iszero\n      tag_155\n      jumpi\n        /* \"#utility.yul\":6438:6517   */\n      tag_156\n      tag_62\n      jump\t// in\n    tag_156:\n        /* \"#utility.yul\":6402:6519   */\n    tag_155:\n        /* \"#utility.yul\":6543:6606   */\n      tag_157\n        /* \"#utility.yul\":6598:6605   */\n      dup7\n        /* \"#utility.yul\":6589:6595   */\n      dup3\n        /* \"#utility.yul\":6578:6587   */\n      dup8\n        /* \"#utility.yul\":6574:6596   */\n      add\n        /* \"#utility.yul\":6543:6606   */\n      tag_71\n      jump\t// in\n    tag_157:\n        /* \"#utility.yul\":6533:6606   */\n      swap3\n      pop\n        /* \"#utility.yul\":6328:6616   */\n      pop\n        /* \"#utility.yul\":6683:6685   */\n      0x40\n        /* \"#utility.yul\":6672:6681   */\n      dup5\n        /* \"#utility.yul\":6668:6686   */\n      add\n        /* \"#utility.yul\":6655:6687   */\n      calldataload\n        /* \"#utility.yul\":6714:6732   */\n      0xffffffffffffffff\n        /* \"#utility.yul\":6706:6712   */\n      dup2\n        /* \"#utility.yul\":6703:6733   */\n      gt\n        /* \"#utility.yul\":6700:6817   */\n      iszero\n      tag_158\n      jumpi\n        /* \"#utility.yul\":6736:6815   */\n      tag_159\n      tag_62\n      jump\t// in\n    tag_159:\n        /* \"#utility.yul\":6700:6817   */\n    tag_158:\n        /* \"#utility.yul\":6841:6904   */\n      tag_160\n        /* \"#utility.yul\":6896:6903   */\n      dup7\n        /* \"#utility.yul\":6887:6893   */\n      dup3\n        /* \"#utility.yul\":6876:6885   */\n      dup8\n        /* \"#utility.yul\":6872:6894   */\n      add\n        /* \"#utility.yul\":6841:6904   */\n      tag_71\n      jump\t// in\n    tag_160:\n        /* \"#utility.yul\":6831:6904   */\n      swap2\n      pop\n        /* \"#utility.yul\":6626:6914   */\n      pop\n        /* \"#utility.yul\":5762:6921   */\n      swap3\n      pop\n      swap3\n      pop\n      swap3\n      jump\t// out\n        /* \"#utility.yul\":6927:7107   */\n    tag_72:\n        /* \"#utility.yul\":6975:7052   */\n      0x4e487b7100000000000000000000000000000000000000000000000000000000\n        /* \"#utility.yul\":6972:6973   */\n      0x00\n        /* \"#utility.yul\":6965:7053   */\n      mstore\n        /* \"#utility.yul\":7072:7076   */\n      0x22\n        /* \"#utility.yul\":7069:7070   */\n      0x04\n        /* \"#utility.yul\":7062:7077   */\n      mstore\n        /* \"#utility.yul\":7096:7100   */\n      0x24\n        /* \"#utility.yul\":7093:7094   */\n      0x00\n        /* \"#utility.yul\":7086:7101   */\n      revert\n        /* \"#utility.yul\":7113:7433   */\n    tag_19:\n        /* \"#utility.yul\":7157:7163   */\n      0x00\n        /* \"#utility.yul\":7194:7195   */\n      0x02\n        /* \"#utility.yul\":7188:7192   */\n      dup3\n        /* \"#utility.yul\":7184:7196   */\n      div\n        /* \"#utility.yul\":7174:7196   */\n      swap1\n      pop\n        /* \"#utility.yul\":7241:7242   */\n      0x01\n        /* \"#utility.yul\":7235:7239   */\n      dup3\n        /* \"#utility.yul\":7231:7243   */\n      and\n        /* \"#utility.yul\":7262:7280   */\n      dup1\n        /* \"#utility.yul\":7252:7333   */\n      tag_163\n      jumpi\n        /* \"#utility.yul\":7318:7322   */\n      0x7f\n        /* \"#utility.yul\":7310:7316   */\n      dup3\n        /* \"#utility.yul\":7306:7323   */\n      and\n        /* \"#utility.yul\":7296:7323   */\n      swap2\n      pop\n        /* \"#utility.yul\":7252:7333   */\n    tag_163:\n        /* \"#utility.yul\":7380:7382   */\n      0x20\n        /* \"#utility.yul\":7372:7378   */\n      dup3\n        /* \"#utility.yul\":7369:7383   */\n      lt\n        /* \"#utility.yul\":7349:7367   */\n      dup2\n        /* \"#utility.yul\":7346:7384   */\n      sub\n        /* \"#utility.yul\":7343:7427   */\n      tag_164\n      jumpi\n        /* \"#utility.yul\":7399:7417   */\n      tag_165\n      tag_72\n      jump\t// in\n    tag_165:\n        /* \"#utility.yul\":7343:7427   */\n    tag_164:\n        /* \"#utility.yul\":7164:7433   */\n      pop\n        /* \"#utility.yul\":7113:7433   */\n      swap2\n      swap1\n      pop\n      jump\t// out\n        /* \"#utility.yul\":7439:7580   */\n    tag_73:\n        /* \"#utility.yul\":7488:7492   */\n      0x00\n        /* \"#utility.yul\":7511:7514   */\n      dup2\n        /* \"#utility.yul\":7503:7514   */\n      swap1\n      pop\n        /* \"#utility.yul\":7534:7537   */\n      dup2\n        /* \"#utility.yul\":7531:7532   */\n      0x00\n        /* \"#utility.yul\":7524:7538   */\n      mstore\n        /* \"#utility.yul\":7568:7572   */\n      0x20\n        /* \"#utility.yul\":7565:7566   */\n      0x00\n        /* \"#utility.yul\":7555:7573   */\n      keccak256\n        /* \"#utility.yul\":7547:7573   */\n      swap1\n      pop\n        /* \"#utility.yul\":7439:7580   */\n      swap2\n      swap1\n      pop\n      jump\t// out\n        /* \"#utility.yul\":7586:7679   */\n    tag_74:\n        /* \"#utility.yul\":7623:7629   */\n      0x00\n        /* \"#utility.yul\":7670:7672   */\n      0x20\n        /* \"#utility.yul\":7665:7667   */\n      0x1f\n        /* \"#utility.yul\":7658:7663   */\n      dup4\n        /* \"#utility.yul\":7654:7668   */\n      add\n        /* \"#utility.yul\":7650:7673   */\n      div\n        /* \"#utility.yul\":7640:7673   */\n      swap1\n      pop\n        /* \"#utility.yul\":7586:7679   */\n      swap2\n      swap1\n      pop\n      jump\t// out\n        /* \"#utility.yul\":7685:7792   */\n    tag_75:\n        /* \"#utility.yul\":7729:7737   */\n      0x00\n        /* \"#utility.yul\":7779:7784   */\n      dup3\n        /* \"#utility.yul\":7773:7777   */\n      dup3\n        /* \"#utility.yul\":7769:7785   */\n      shl\n        /* \"#utility.yul\":7748:7785   */\n      swap1\n      pop\n        /* \"#utility.yul\":7685:7792   */\n      swap3\n      swap2\n      pop\n      pop\n      jump\t// out\n        /* \"#utility.yul\":7798:8191   */\n    tag_76:\n        /* \"#utility.yul\":7867:7873   */\n      0x00\n        /* \"#utility.yul\":7917:7918   */\n      0x08\n        /* \"#utility.yul\":7905:7915   */\n      dup4\n        /* \"#utility.yul\":7901:7919   */\n      mul\n        /* \"#utility.yul\":7940:8037   */\n      tag_170\n        /* \"#utility.yul\":7970:8036   */\n      0xffffffffffffffffffffffffffffffffffffffffffffffffffffffffffffffff\n        /* \"#utility.yul\":7959:7968   */\n      dup3\n        /* \"#utility.yul\":7940:8037   */\n      tag_75\n      jump\t// in\n    tag_170:\n        /* \"#utility.yul\":8058:8097   */\n      tag_171\n        /* \"#utility.yul\":8088:8096   */\n      dup7\n        /* \"#utility.yul\":8077:8086   */\n      dup4\n        /* \"#utility.yul\":8058:8097   */\n      tag_75\n      jump\t// in\n    tag_171:\n        /* \"#utility.yul\":8046:8097   */\n      swap6\n      pop\n        /* \"#utility.yul\":8130:8134   */\n      dup1\n        /* \"#utility.yul\":8126:8135   */\n      not\n        /* \"#utility.yul\":8119:8124   */\n      dup5\n        /* \"#utility.yul\":8115:8136   */\n      and\n        /* \"#utility.yul\":8106:8136   */\n      swap4\n      pop\n        /* \"#utility.yul\":8179:8183   */\n      dup1\n        /* \"#utility.yul\":8169:8177   */\n      dup7\n        /* \"#utility.yul\":8165:8184   */\n      and\n        /* \"#utility.yul\":8158:8163   */\n      dup5\n        /* \"#utility.yul\":8155:8185   */\n      or\n        /* \"#utility.yul\":8145:8185   */\n      swap3\n      pop\n        /* \"#utility.yul\":7874:8191   */\n      pop\n      pop\n        /* \"#utility.yul\":7798:8191   */\n      swap4\n      swap3\n      pop\n      pop\n      pop\n      jump\t// out\n        /* \"#utility.yul\":8197:8257   */\n    tag_77:\n        /* \"#utility.yul\":8225:8228   */\n      0x00\n        /* \"#utility.yul\":8246:8251   */\n      dup2\n        /* \"#utility.yul\":8239:8251   */\n      swap1\n      pop\n        /* \"#utility.yul\":8197:8257   */\n      swap2\n      swap1\n      pop\n      jump\t// out\n        /* \"#utility.yul\":8263:8405   */\n    tag_78:\n        /* \"#utility.yul\":8313:8322   */\n      0x00\n        /* \"#utility.yul\":8346:8399   */\n      tag_174\n        /* \"#utility.yul\":8364:8398   */\n      tag_175\n        /* \"#utility.yul\":8373:8397   */\n      tag_176\n        /* \"#utility.yul\":8391:8396   */\n      dup5\n        /* \"#utility.yul\":8373:8397   */\n      tag_58\n      jump\t// in\n    tag_176:\n        /* \"#utility.yul\":8364:8398   */\n      tag_77\n      jump\t// in\n    tag_175:\n        /* \"#utility.yul\":8346:8399   */\n      tag_58\n      jump\t// in\n    tag_174:\n        /* \"#utility.yul\":8333:8399   */\n      swap1\n      pop\n        /* \"#utility.yul\":8263:8405   */\n      swap2\n      swap1\n      pop\n      jump\t// out\n        /* \"#utility.yul\":8411:8486   */\n    tag_79:\n        /* \"#utility.yul\":8454:8457   */\n      0x00\n        /* \"#utility.yul\":8475:8480   */\n      dup2\n        /* \"#utility.yul\":8468:8480   */\n      swap1\n      pop\n        /* \"#utility.yul\":8411:8486   */\n      swap2\n      swap1\n      pop\n      jump\t// out\n        /* \"#utility.yul\":8492:8761   */\n    tag_80:\n        /* \"#utility.yul\":8602:8641   */\n      tag_179\n        /* \"#utility.yul\":8633:8640   */\n      dup4\n        /* \"#utility.yul\":8602:8641   */\n      tag_78\n      jump\t// in\n    tag_179:\n        /* \"#utility.yul\":8663:8754   */\n      tag_180\n        /* \"#utility.yul\":8712:8753   */\n      tag_181\n        /* \"#utility.yul\":8736:8752   */\n      dup3\n        /* \"#utility.yul\":8712:8753   */\n      tag_79\n      jump\t// in\n    tag_181:\n        /* \"#utility.yul\":8704:8710   */\n      dup5\n        /* \"#utility.yul\":8697:8701   */\n      dup5\n        /* \"#utility.yul\":8691:8702   */\n      sload\n        /* \"#utility.yul\":8663:8754   */\n      tag_76\n      jump\t// in\n    tag_180:\n        /* \"#utility.yul\":8657:8661   */\n      dup3\n        /* \"#utility.yul\":8650:8755   */\n      sstore\n        /* \"#utility.yul\":8568:8761   */\n      pop\n        /* \"#utility.yul\":8492:8761   */\n      pop\n      pop\n      pop\n      jump\t// out\n        /* \"#utility.yul\":8767:8840   */\n    tag_81:\n        /* \"#utility.yul\":8812:8815   */\n      0x00\n        /* \"#utility.yul\":8767:8840   */\n      swap1\n      jump\t// out\n        /* \"#utility.yul\":8846:9035   */\n    tag_82:\n        /* \"#utility.yul\":8923:8955   */\n      tag_184\n      tag_81\n      jump\t// in\n    tag_184:\n        /* \"#utility.yul\":8964:9029   */\n      tag_185\n        /* \"#utility.yul\":9022:9028   */\n      dup2\n        /* \"#utility.yul\":9014:9020   */\n      dup5\n        /* \"#utility.yul\":9008:9012   */\n      dup5\n        /* \"#utility.yul\":8964:9029   */\n      tag_80\n      jump\t// in\n    tag_185:\n        /* \"#utility.yul\":8899:9035   */\n      pop\n        /* \"#utility.yul\":8846:9035   */\n      pop\n      pop\n      jump\t// out\n        /* \"#utility.yul\":9041:9227   */\n    tag_83:\n        /* \"#utility.yul\":9101:9221   */\n    tag_187:\n        /* \"#utility.yul\":9118:9121   */\n      dup2\n        /* \"#utility.yul\":9111:9116   */\n      dup2\n        /* \"#utility.yul\":9108:9122   */\n      lt\n        /* \"#utility.yul\":9101:9221   */\n      iszero\n      tag_189\n      jumpi\n        /* \"#utility.yul\":9172:9211   */\n      tag_190\n        /* \"#utility.yul\":9209:9210   */\n      0x00\n        /* \"#utility.yul\":9202:9207   */\n      dup3\n        /* \"#utility.yul\":9172:9211   */\n      tag_82\n      jump\t// in\n    tag_190:\n        /* \"#utility.yul\":9145:9146   */\n      0x01\n        /* \"#utility.yul\":9138:9143   */\n      dup2\n        /* \"#utility.yul\":9134:9147   */\n      add\n        /* \"#utility.yul\":9125:9147   */\n      swap1\n      pop\n        /* \"#utility.yul\":9101:9221   */\n      jump(tag_187)\n    tag_189:\n        /* \"#utility.yul\":9041:9227   */\n      pop\n      pop\n      jump\t// out\n        /* \"#utility.yul\":9233:9776   */\n    tag_84:\n        /* \"#utility.yul\":9334:9336   */\n      0x1f\n        /* \"#utility.yul\":9329:9332   */\n      dup3\n        /* \"#utility.yul\":9326:9337   */\n      gt\n        /* \"#utility.yul\":9323:9769   */\n      iszero\n      tag_192\n      jumpi\n        /* \"#utility.yul\":9368:9406   */\n      tag_193\n        /* \"#utility.yul\":9400:9405   */\n      dup2\n        /* \"#utility.yul\":9368:9406   */\n      tag_73\n      jump\t// in\n    tag_193:\n        /* \"#utility.yul\":9452:9481   */\n      tag_194\n        /* \"#utility.yul\":9470:9480   */\n      dup5\n        /* \"#utility.yul\":9452:9481   */\n      tag_74\n      jump\t// in\n    tag_194:\n        /* \"#utility.yul\":9442:9450   */\n      dup2\n        /* \"#utility.yul\":9438:9482   */\n      add\n        /* \"#utility.yul\":9635:9637   */\n      0x20\n        /* \"#utility.yul\":9623:9633   */\n      dup6\n        /* \"#utility.yul\":9620:9638   */\n      lt\n        /* \"#utility.yul\":9617:9666   */\n      iszero\n      tag_195\n      jumpi\n        /* \"#utility.yul\":9656:9664   */\n      dup2\n        /* \"#utility.yul\":9641:9664   */\n      swap1\n      pop\n        /* \"#utility.yul\":9617:9666   */\n    tag_195:\n        /* \"#utility.yul\":9679:9759   */\n      tag_196\n        /* \"#utility.yul\":9735:9757   */\n      tag_197\n        /* \"#utility.yul\":9753:9756   */\n      dup6\n        /* \"#utility.yul\":9735:9757   */\n      tag_74\n      jump\t// in\n    tag_197:\n        /* \"#utility.yul\":9725:9733   */\n      dup4\n        /* \"#utility.yul\":9721:9758   */\n      add\n        /* \"#utility.yul\":9708:9719   */\n      dup3\n        /* \"#utility.yul\":9679:9759   */\n      tag_83\n      jump\t// in\n    tag_196:\n        /* \"#utility.yul\":9338:9769   */\n      pop\n      pop\n        /* \"#utility.yul\":9323:9769   */\n    tag_192:\n        /* \"#utility.yul\":9233:9776   */\n      pop\n      pop\n      pop\n      jump\t// out\n        /* \"#utility.yul\":9782:9899   */\n    tag_85:\n        /* \"#utility.yul\":9836:9844   */\n      0x00\n        /* \"#utility.yul\":9886:9891   */\n      dup3\n        /* \"#utility.yul\":9880:9884   */\n      dup3\n        /* \"#utility.yul\":9876:9892   */\n      shr\n        /* \"#utility.yul\":9855:9892   */\n      swap1\n      pop\n        /* \"#utility.yul\":9782:9899   */\n      swap3\n      swap2\n      pop\n      pop\n      jump\t// out\n        /* \"#utility.yul\":9905:10074   */\n    tag_86:\n        /* \"#utility.yul\":9949:9955   */\n      0x00\n        /* \"#utility.yul\":9982:10033   */\n      tag_200\n        /* \"#utility.yul\":10030:10031   */\n      0x00\n        /* \"#utility.yul\":10026:10032   */\n      not\n        /* \"#utility.yul\":10018:10023   */\n      dup5\n        /* \"#utility.yul\":10015:10016   */\n      0x08\n        /* \"#utility.yul\":10011:10024   */\n      mul\n        /* \"#utility.yul\":9982:10033   */\n      tag_85\n      jump\t// in\n    tag_200:\n        /* \"#utility.yul\":9978:10034   */\n      not\n        /* \"#utility.yul\":10063:10067   */\n      dup1\n        /* \"#utility.yul\":10057:10061   */\n      dup4\n        /* \"#utility.yul\":10053:10068   */\n      and\n        /* \"#utility.yul\":10043:10068   */\n      swap2\n      pop\n        /* \"#utility.yul\":9956:10074   */\n      pop\n        /* \"#utility.yul\":9905:10074   */\n      swap3\n      swap2\n      pop\n      pop\n      jump\t// out\n        /* \"#utility.yul\":10079:10374   */\n    tag_87:\n        /* \"#utility.yul\":10155:10159   */\n      0x00\n        /* \"#utility.yul\":10301:10330   */\n      tag_202\n        /* \"#utility.yul\":10326:10329   */\n      dup4\n        /* \"#utility.yul\":10320:10324   */\n      dup4\n        /* \"#utility.yul\":10301:10330   */\n      tag_86\n      jump\t// in\n    tag_202:\n        /* \"#utility.yul\":10293:10330   */\n      swap2\n      pop\n        /* \"#utility.yul\":10363:10366   */\n      dup3\n        /* \"#utility.yul\":10360:10361   */\n      0x02\n        /* \"#utility.yul\":10356:10367   */\n      mul\n        /* \"#utility.yul\":10350:10354   */\n      dup3\n        /* \"#utility.yul\":10347:10368   */\n      or\n        /* \"#utility.yul\":10339:10368   */\n      swap1\n      pop\n        /* \"#utility.yul\":10079:10374   */\n      swap3\n      swap2\n      pop\n      pop\n      jump\t// out\n        /* \"#utility.yul\":10379:11774   */\n    tag_47:\n        /* \"#utility.yul\":10496:10533   */\n      tag_204\n        /* \"#utility.yul\":10529:10532   */\n      dup3\n        /* \"#utility.yul\":10496:10533   */\n      tag_53\n      jump\t// in\n    tag_204:\n        /* \"#utility.yul\":10598:10616   */\n      0xffffffffffffffff\n        /* \"#utility.yul\":10590:10596   */\n      dup2\n        /* \"#utility.yul\":10587:10617   */\n      gt\n        /* \"#utility.yul\":10584:10640   */\n      iszero\n      tag_205\n      jumpi\n        /* \"#utility.yul\":10620:10638   */\n      tag_206\n      tag_65\n      jump\t// in\n    tag_206:\n        /* \"#utility.yul\":10584:10640   */\n    tag_205:\n        /* \"#utility.yul\":10664:10702   */\n      tag_207\n        /* \"#utility.yul\":10696:10700   */\n      dup3\n        /* \"#utility.yul\":10690:10701   */\n      sload\n        /* \"#utility.yul\":10664:10702   */\n      tag_19\n      jump\t// in\n    tag_207:\n        /* \"#utility.yul\":10749:10816   */\n      tag_208\n        /* \"#utility.yul\":10809:10815   */\n      dup3\n        /* \"#utility.yul\":10801:10807   */\n      dup3\n        /* \"#utility.yul\":10795:10799   */\n      dup6\n        /* \"#utility.yul\":10749:10816   */\n      tag_84\n      jump\t// in\n    tag_208:\n        /* \"#utility.yul\":10843:10844   */\n      0x00\n        /* \"#utility.yul\":10867:10871   */\n      0x20\n        /* \"#utility.yul\":10854:10871   */\n      swap1\n      pop\n        /* \"#utility.yul\":10899:10901   */\n      0x1f\n        /* \"#utility.yul\":10891:10897   */\n      dup4\n        /* \"#utility.yul\":10888:10902   */\n      gt\n        /* \"#utility.yul\":10916:10917   */\n      0x01\n        /* \"#utility.yul\":10911:11529   */\n      dup2\n      eq\n      tag_210\n      jumpi\n        /* \"#utility.yul\":11573:11574   */\n      0x00\n        /* \"#utility.yul\":11590:11596   */\n      dup5\n        /* \"#utility.yul\":11587:11664   */\n      iszero\n      tag_211\n      jumpi\n        /* \"#utility.yul\":11639:11648   */\n      dup3\n        /* \"#utility.yul\":11634:11637   */\n      dup8\n        /* \"#utility.yul\":11630:11649   */\n      add\n        /* \"#utility.yul\":11624:11650   */\n      mload\n        /* \"#utility.yul\":11615:11650   */\n      swap1\n      pop\n        /* \"#utility.yul\":11587:11664   */\n    tag_211:\n        /* \"#utility.yul\":11690:11757   */\n      tag_212\n        /* \"#utility.yul\":11750:11756   */\n      dup6\n        /* \"#utility.yul\":11743:11748   */\n      dup3\n        /* \"#utility.yul\":11690:11757   */\n      tag_87\n      jump\t// in\n    tag_212:\n        /* \"#utility.yul\":11684:11688   */\n      dup7\n        /* \"#utility.yul\":11677:11758   */\n      sstore\n        /* \"#utility.yul\":11546:11768   */\n      pop\n        /* \"#utility.yul\":10881:11768   */\n      jump(tag_209)\n        /* \"#utility.yul\":10911:11529   */\n    tag_210:\n        /* \"#utility.yul\":10963:10967   */\n      0x1f\n        /* \"#utility.yul\":10959:10968   */\n      not\n        /* \"#utility.yul\":10951:10957   */\n      dup5\n        /* \"#utility.yul\":10947:10969   */\n      and\n        /* \"#utility.yul\":10997:11034   */\n      tag_213\n        /* \"#utility.yul\":11029:11033   */\n      dup7\n        /* \"#utility.yul\":10997:11034   */\n      tag_73\n      jump\t// in\n    tag_213:\n        /* \"#utility.yul\":11056:11057   */\n      0x00\n        /* \"#utility.yul\":11070:11278   */\n    tag_214:\n        /* \"#utility.yul\":11084:11091   */\n      dup3\n        /* \"#utility.yul\":11081:11082   */\n      dup2\n        /* \"#utility.yul\":11078:11092   */\n      lt\n        /* \"#utility.yul\":11070:11278   */\n      iszero\n      tag_216\n      jumpi\n        /* \"#utility.yul\":11163:11172   */\n      dup5\n        /* \"#utility.yul\":11158:11161   */\n      dup10\n        /* \"#utility.yul\":11154:11173   */\n      add\n        /* \"#utility.yul\":11148:11174   */\n      mload\n        /* \"#utility.yul\":11140:11146   */\n      dup3\n        /* \"#utility.yul\":11133:11175   */\n      sstore\n        /* \"#utility.yul\":11214:11215   */\n      0x01\n        /* \"#utility.yul\":11206:11212   */\n      dup3\n        /* \"#utility.yul\":11202:11216   */\n      add\n        /* \"#utility.yul\":11192:11216   */\n      swap2\n      pop\n        /* \"#utility.yul\":11261:11263   */\n      0x20\n        /* \"#utility.yul\":11250:11259   */\n      dup6\n        /* \"#utility.yul\":11246:11264   */\n      add\n        /* \"#utility.yul\":11233:11264   */\n      swap5\n      pop\n        /* \"#utility.yul\":11107:11111   */\n      0x20\n        /* \"#utility.yul\":11104:11105   */\n      dup2\n        /* \"#utility.yul\":11100:11112   */\n      add\n        /* \"#utility.yul\":11095:11112   */\n      swap1\n      pop\n        /* \"#utility.yul\":11070:11278   */\n      jump(tag_214)\n    tag_216:\n        /* \"#utility.yul\":11306:11312   */\n      dup7\n        /* \"#utility.yul\":11297:11304   */\n      dup4\n        /* \"#utility.yul\":11294:11313   */\n      lt\n        /* \"#utility.yul\":11291:11470   */\n      iszero\n      tag_217\n      jumpi\n        /* \"#utility.yul\":11364:11373   */\n      dup5\n        /* \"#utility.yul\":11359:11362   */\n      dup10\n        /* \"#utility.yul\":11355:11374   */\n      add\n        /* \"#utility.yul\":11349:11375   */\n      mload\n        /* \"#utility.yul\":11407:11455   */\n      tag_218\n        /* \"#utility.yul\":11449:11453   */\n      0x1f\n        /* \"#utility.yul\":11441:11447   */\n      dup10\n        /* \"#utility.yul\":11437:11454   */\n      and\n        /* \"#utility.yul\":11426:11435   */\n      dup3\n        /* \"#utility.yul\":11407:11455   */\n      tag_86\n      jump\t// in\n    tag_218:\n        /* \"#utility.yul\":11399:11405   */\n      dup4\n        /* \"#utility.yul\":11392:11456   */\n      sstore\n        /* \"#utility.yul\":11314:11470   */\n      pop\n        /* \"#utility.yul\":11291:11470   */\n    tag_217:\n        /* \"#utility.yul\":11516:11517   */\n      0x01\n        /* \"#utility.yul\":11512:11513   */\n      0x02\n        /* \"#utility.yul\":11504:11510   */\n      dup9\n        /* \"#utility.yul\":11500:11514   */\n      mul\n        /* \"#utility.yul\":11496:11518   */\n      add\n        /* \"#utility.yul\":11490:11494   */\n      dup9\n        /* \"#utility.yul\":11483:11519   */\n      sstore\n        /* \"#utility.yul\":10918:11529   */\n      pop\n      pop\n      pop\n        /* \"#utility.yul\":10881:11768   */\n    tag_209:\n      pop\n        /* \"#utility.yul\":10471:11774   */\n      pop\n      pop\n      pop\n        /* \"#utility.yul\":10379:11774   */\n      pop\n      pop\n      jump\t// out\n\n    auxdata: 0xa2646970667358221220e8949b7fb1979aa2215ada4c2bedce0e506e443ef0eb50d5c4678f2d0bec8ff664736f6c634300080f0033\n}\n","bytecode":{"linkReferences":{},"object":"60806040523480156200001157600080fd5b50604051620012c4380380620012c48339818101604052810190620000379190620003c2565b856000806101000a81548173ffffffffffffffffffffffffffffffffffffffff021916908373ffffffffffffffffffffffffffffffffffffffff1602179055506040518061010001604052808681526020018581526020018481526020018381526020018281526020016040518060200160405280600081525081526020016040518060200160405280600081525081526020016040518060200160405280600081525081525060016000820151816000019081620000f79190620006dd565b5060208201518160010190816200010f9190620006dd565b5060408201518160020155606082015181600301556080820151816004015560a0820151816005019081620001459190620006dd565b5060c08201518160060190816200015d9190620006dd565b5060e0820151816007019081620001759190620006dd565b50905050505050505050620007c4565b6000604051905090565b600080fd5b600080fd5b600073ffffffffffffffffffffffffffffffffffffffff82169050919050565b6000620001c68262000199565b9050919050565b620001d881620001b9565b8114620001e457600080fd5b50565b600081519050620001f881620001cd565b92915050565b600080fd5b600080fd5b6000601f19601f8301169050919050565b7f4e487b7100000000000000000000000000000000000000000000000000000000600052604160045260246000fd5b620002538262000208565b810181811067ffffffffffffffff8211171562000275576200027462000219565b5b80604052505050565b60006200028a62000185565b905062000298828262000248565b919050565b600067ffffffffffffffff821115620002bb57620002ba62000219565b5b620002c68262000208565b9050602081019050919050565b60005b83811015620002f3578082015181840152602081019050620002d6565b8381111562000303576000848401525b50505050565b6000620003206200031a846200029d565b6200027e565b9050828152602081018484840111156200033f576200033e62000203565b5b6200034c848285620002d3565b509392505050565b600082601f8301126200036c576200036b620001fe565b5b81516200037e84826020860162000309565b91505092915050565b6000819050919050565b6200039c8162000387565b8114620003a857600080fd5b50565b600081519050620003bc8162000391565b92915050565b60008060008060008060c08789031215620003e257620003e16200018f565b5b6000620003f289828a01620001e7565b965050602087015167ffffffffffffffff81111562000416576200041562000194565b5b6200042489828a0162000354565b955050604087015167ffffffffffffffff81111562000448576200044762000194565b5b6200045689828a0162000354565b94505060606200046989828a01620003ab565b93505060806200047c89828a01620003ab565b92505060a06200048f89828a01620003ab565b9150509295509295509295565b600081519050919050565b7f4e487b7100000000000000000000000000000000000000000000000000000000600052602260045260246000fd5b60006002820490506001821680620004ef57607f821691505b602082108103620005055762000504620004a7565b5b50919050565b60008190508160005260206000209050919050565b60006020601f8301049050919050565b600082821b905092915050565b6000600883026200056f7fffffffffffffffffffffffffffffffffffffffffffffffffffffffffffffffff8262000530565b6200057b868362000530565b95508019841693508086168417925050509392505050565b6000819050919050565b6000620005be620005b8620005b28462000387565b62000593565b62000387565b9050919050565b6000819050919050565b620005da836200059d565b620005f2620005e982620005c5565b8484546200053d565b825550505050565b600090565b62000609620005fa565b62000616818484620005cf565b505050565b5b818110156200063e5762000632600082620005ff565b6001810190506200061c565b5050565b601f8211156200068d5762000657816200050b565b620006628462000520565b8101602085101562000672578190505b6200068a620006818562000520565b8301826200061b565b50505b505050565b600082821c905092915050565b6000620006b26000198460080262000692565b1980831691505092915050565b6000620006cd83836200069f565b9150826002028217905092915050565b620006e8826200049c565b67ffffffffffffffff81111562000704576200070362000219565b5b620007108254620004d6565b6200071d82828562000642565b600060209050601f83116001811462000755576000841562000740578287015190505b6200074c8582620006bf565b865550620007bc565b601f19841662000765866200050b565b60005b828110156200078f5784890151825560018201915060208501945060208101905062000768565b86831015620007af5784890151620007ab601f8916826200069f565b8355505b6001600288020188555050505b505050505050565b610af080620007d46000396000f3fe608060405234801561001057600080fd5b50600436106100415760003560e01c8063481c6a75146100465780635dab242014610064578063f2390d4314610089575b600080fd5b61004e6100a5565b60405161005b919061047e565b60405180910390f35b61006c6100c9565b60405161008098979695949392919061054b565b60405180910390f35b6100a3600480360381019061009e9190610735565b6103a7565b005b60008054906101000a900473ffffffffffffffffffffffffffffffffffffffff1681565b60018060000180546100da9061080b565b80601f01602080910402602001604051908101604052809291908181526020018280546101069061080b565b80156101535780601f1061012857610100808354040283529160200191610153565b820191906000526020600020905b81548152906001019060200180831161013657829003601f168201915b5050505050908060010180546101689061080b565b80601f01602080910402602001604051908101604052809291908181526020018280546101949061080b565b80156101e15780601f106101b6576101008083540402835291602001916101e1565b820191906000526020600020905b8154815290600101906020018083116101c457829003601f168201915b5050505050908060020154908060030154908060040154908060050180546102089061080b565b80601f01602080910402602001604051908101604052809291908181526020018280546102349061080b565b80156102815780601f1061025657610100808354040283529160200191610281565b820191906000526020600020905b81548152906001019060200180831161026457829003601f168201915b5050505050908060060180546102969061080b565b80601f01602080910402602001604051908101604052809291908181526020018280546102c29061080b565b801561030f5780601f106102e45761010080835404028352916020019161030f565b820191906000526020600020905b8154815290600101906020018083116102f257829003601f168201915b5050505050908060070180546103249061080b565b80601f01602080910402602001604051908101604052809291908181526020018280546103509061080b565b801561039d5780601f106103725761010080835404028352916020019161039d565b820191906000526020600020905b81548152906001019060200180831161038057829003601f168201915b5050505050905088565b3373ffffffffffffffffffffffffffffffffffffffff1660008054906101000a900473ffffffffffffffffffffffffffffffffffffffff1673ffffffffffffffffffffffffffffffffffffffff16146103ff57600080fd5b826001600501908161041191906109e8565b50816001600601908161042491906109e8565b50806001600701908161043791906109e8565b50505050565b600073ffffffffffffffffffffffffffffffffffffffff82169050919050565b60006104688261043d565b9050919050565b6104788161045d565b82525050565b6000602082019050610493600083018461046f565b92915050565b600081519050919050565b600082825260208201905092915050565b60005b838110156104d35780820151818401526020810190506104b8565b838111156104e2576000848401525b50505050565b6000601f19601f8301169050919050565b600061050482610499565b61050e81856104a4565b935061051e8185602086016104b5565b610527816104e8565b840191505092915050565b6000819050919050565b61054581610532565b82525050565b6000610100820190508181036000830152610566818b6104f9565b9050818103602083015261057a818a6104f9565b9050610589604083018961053c565b610596606083018861053c565b6105a3608083018761053c565b81810360a08301526105b581866104f9565b905081810360c08301526105c981856104f9565b905081810360e08301526105dd81846104f9565b90509998505050505050505050565b6000604051905090565b600080fd5b600080fd5b600080fd5b600080fd5b7f4e487b7100000000000000000000000000000000000000000000000000000000600052604160045260246000fd5b610642826104e8565b810181811067ffffffffffffffff821117156106615761066061060a565b5b80604052505050565b60006106746105ec565b90506106808282610639565b919050565b600067ffffffffffffffff8211156106a05761069f61060a565b5b6106a9826104e8565b9050602081019050919050565b82818337600083830152505050565b60006106d86106d384610685565b61066a565b9050828152602081018484840111156106f4576106f3610605565b5b6106ff8482856106b6565b509392505050565b600082601f83011261071c5761071b610600565b5b813561072c8482602086016106c5565b91505092915050565b60008060006060848603121561074e5761074d6105f6565b5b600084013567ffffffffffffffff81111561076c5761076b6105fb565b5b61077886828701610707565b935050602084013567ffffffffffffffff811115610799576107986105fb565b5b6107a586828701610707565b925050604084013567ffffffffffffffff8111156107c6576107c56105fb565b5b6107d286828701610707565b9150509250925092565b7f4e487b7100000000000000000000000000000000000000000000000000000000600052602260045260246000fd5b6000600282049050600182168061082357607f821691505b602082108103610836576108356107dc565b5b50919050565b60008190508160005260206000209050919050565b60006020601f8301049050919050565b600082821b905092915050565b60006008830261089e7fffffffffffffffffffffffffffffffffffffffffffffffffffffffffffffffff82610861565b6108a88683610861565b95508019841693508086168417925050509392505050565b6000819050919050565b60006108e56108e06108db84610532565b6108c0565b610532565b9050919050565b6000819050919050565b6108ff836108ca565b61091361090b826108ec565b84845461086e565b825550505050565b600090565b61092861091b565b6109338184846108f6565b505050565b5b818110156109575761094c600082610920565b600181019050610939565b5050565b601f82111561099c5761096d8161083c565b61097684610851565b81016020851015610985578190505b61099961099185610851565b830182610938565b50505b505050565b600082821c905092915050565b60006109bf600019846008026109a1565b1980831691505092915050565b60006109d883836109ae565b9150826002028217905092915050565b6109f182610499565b67ffffffffffffffff811115610a0a57610a0961060a565b5b610a14825461080b565b610a1f82828561095b565b600060209050601f831160018114610a525760008415610a40578287015190505b610a4a85826109cc565b865550610ab2565b601f198416610a608661083c565b60005b82811015610a8857848901518255600182019150602085019450602081019050610a63565b86831015610aa55784890151610aa1601f8916826109ae565b8355505b6001600288020188555050505b50505050505056fea2646970667358221220e8949b7fb1979aa2215ada4c2bedce0e506e443ef0eb50d5c4678f2d0bec8ff664736f6c634300080f0033","opcodes":"PUSH1 0x80 PUSH1 0x40 MSTORE CALLVALUE DUP1 ISZERO PUSH3 0x11 JUMPI PUSH1 0x0 DUP1 REVERT JUMPDEST POP PUSH1 0x40 MLOAD PUSH3 0x12C4 CODESIZE SUB DUP1 PUSH3 0x12C4 DUP4 CODECOPY DUP2 DUP2 ADD PUSH1 0x40 MSTORE DUP2 ADD SWAP1 PUSH3 0x37 SWAP2 SWAP1 PUSH3 0x3C2 JUMP JUMPDEST DUP6 PUSH1 0x0 DUP1 PUSH2 0x100 EXP DUP2 SLOAD DUP2 PUSH20 0xFFFFFFFFFFFFFFFFFFFFFFFFFFFFFFFFFFFFFFFF MUL NOT AND SWAP1 DUP4 PUSH20 0xFFFFFFFFFFFFFFFFFFFFFFFFFFFFFFFFFFFFFFFF AND MUL OR SWAP1 SSTORE POP PUSH1 0x40 MLOAD DUP1 PUSH2 0x100 ADD PUSH1 0x40 MSTORE DUP1 DUP7 DUP2 MSTORE PUSH1 0x20 ADD DUP6 DUP2 MSTORE PUSH1 0x20 ADD DUP5 DUP2 MSTORE PUSH1 0x20 ADD DUP4 DUP2 MSTORE PUSH1 0x20 ADD DUP3 DUP2 MSTORE PUSH1 0x20 ADD PUSH1 0x40 MLOAD DUP1 PUSH1 0x20 ADD PUSH1 0x40 MSTORE DUP1 PUSH1 0x0 DUP2 MSTORE POP DUP2 MSTORE PUSH1 0x20 ADD PUSH1 0x40 MLOAD DUP1 PUSH1 0x20 ADD PUSH1 0x40 MSTORE DUP1 PUSH1 0x0 DUP2 MSTORE POP DUP2 MSTORE PUSH1 0x20 ADD PUSH1 0x40 MLOAD DUP1 PUSH1 0x20 ADD PUSH1 0x40 MSTORE DUP1 PUSH1 0x0 DUP2 MSTORE POP DUP2 MSTORE POP PUSH1 0x1 PUSH1 0x0 DUP3 ADD MLOAD DUP2 PUSH1 0x0 ADD SWAP1 DUP2 PUSH3 0xF7 SWAP2 SWAP1 PUSH3 0x6DD JUMP JUMPDEST POP PUSH1 0x20 DUP3 ADD MLOAD DUP2 PUSH1 0x1 ADD SWAP1 DUP2 PUSH3 0x10F SWAP2 SWAP1 PUSH3 0x6DD JUMP JUMPDEST POP PUSH1 0x40 DUP3 ADD MLOAD DUP2 PUSH1 0x2 ADD SSTORE PUSH1 0x60 DUP3 ADD MLOAD DUP2 PUSH1 0x3 ADD SSTORE PUSH1 0x80 DUP3 ADD MLOAD DUP2 PUSH1 0x4 ADD SSTORE PUSH1 0xA0 DUP3 ADD MLOAD DUP2 PUSH1 0x5 ADD SWAP1 DUP2 PUSH3 0x145 SWAP2 SWAP1 PUSH3 0x6DD JUMP JUMPDEST POP PUSH1 0xC0 DUP3 ADD MLOAD DUP2 PUSH1 0x6 ADD SWAP1 DUP2 PUSH3 0x15D SWAP2 SWAP1 PUSH3 0x6DD JUMP JUMPDEST POP PUSH1 0xE0 DUP3 ADD MLOAD DUP2 PUSH1 0x7 ADD SWAP1 DUP2 PUSH3 0x175 SWAP2 SWAP1 PUSH3 0x6DD JUMP JUMPDEST POP SWAP1 POP POP POP POP POP POP POP POP PUSH3 0x7C4 JUMP JUMPDEST PUSH1 0x0 PUSH1 0x40 MLOAD SWAP1 POP SWAP1 JUMP JUMPDEST PUSH1 0x0 DUP1 REVERT JUMPDEST PUSH1 0x0 DUP1 REVERT JUMPDEST PUSH1 0x0 PUSH20 0xFFFFFFFFFFFFFFFFFFFFFFFFFFFFFFFFFFFFFFFF DUP3 AND SWAP1 POP SWAP2 SWAP1 POP JUMP JUMPDEST PUSH1 0x0 PUSH3 0x1C6 DUP3 PUSH3 0x199 JUMP JUMPDEST SWAP1 POP SWAP2 SWAP1 POP JUMP JUMPDEST PUSH3 0x1D8 DUP2 PUSH3 0x1B9 JUMP JUMPDEST DUP2 EQ PUSH3 0x1E4 JUMPI PUSH1 0x0 DUP1 REVERT JUMPDEST POP JUMP JUMPDEST PUSH1 0x0 DUP2 MLOAD SWAP1 POP PUSH3 0x1F8 DUP2 PUSH3 0x1CD JUMP JUMPDEST SWAP3 SWAP2 POP POP JUMP JUMPDEST PUSH1 0x0 DUP1 REVERT JUMPDEST PUSH1 0x0 DUP1 REVERT JUMPDEST PUSH1 0x0 PUSH1 0x1F NOT PUSH1 0x1F DUP4 ADD AND SWAP1 POP SWAP2 SWAP1 POP JUMP JUMPDEST PUSH32 0x4E487B7100000000000000000000000000000000000000000000000000000000 PUSH1 0x0 MSTORE PUSH1 0x41 PUSH1 0x4 MSTORE PUSH1 0x24 PUSH1 0x0 REVERT JUMPDEST PUSH3 0x253 DUP3 PUSH3 0x208 JUMP JUMPDEST DUP2 ADD DUP2 DUP2 LT PUSH8 0xFFFFFFFFFFFFFFFF DUP3 GT OR ISZERO PUSH3 0x275 JUMPI PUSH3 0x274 PUSH3 0x219 JUMP JUMPDEST JUMPDEST DUP1 PUSH1 0x40 MSTORE POP POP POP JUMP JUMPDEST PUSH1 0x0 PUSH3 0x28A PUSH3 0x185 JUMP JUMPDEST SWAP1 POP PUSH3 0x298 DUP3 DUP3 PUSH3 0x248 JUMP JUMPDEST SWAP2 SWAP1 POP JUMP JUMPDEST PUSH1 0x0 PUSH8 0xFFFFFFFFFFFFFFFF DUP3 GT ISZERO PUSH3 0x2BB JUMPI PUSH3 0x2BA PUSH3 0x219 JUMP JUMPDEST JUMPDEST PUSH3 0x2C6 DUP3 PUSH3 0x208 JUMP JUMPDEST SWAP1 POP PUSH1 0x20 DUP2 ADD SWAP1 POP SWAP2 SWAP1 POP JUMP JUMPDEST PUSH1 0x0 JUMPDEST DUP4 DUP2 LT ISZERO PUSH3 0x2F3 JUMPI DUP1 DUP3 ADD MLOAD DUP2 DUP5 ADD MSTORE PUSH1 0x20 DUP2 ADD SWAP1 POP PUSH3 0x2D6 JUMP JUMPDEST DUP4 DUP2 GT ISZERO PUSH3 0x303 JUMPI PUSH1 0x0 DUP5 DUP5 ADD MSTORE JUMPDEST POP POP POP POP JUMP JUMPDEST PUSH1 0x0 PUSH3 0x320 PUSH3 0x31A DUP5 PUSH3 0x29D JUMP JUMPDEST PUSH3 0x27E JUMP JUMPDEST SWAP1 POP DUP3 DUP2 MSTORE PUSH1 0x20 DUP2 ADD DUP5 DUP5 DUP5 ADD GT ISZERO PUSH3 0x33F JUMPI PUSH3 0x33E PUSH3 0x203 JUMP JUMPDEST JUMPDEST PUSH3 0x34C DUP5 DUP3 DUP6 PUSH3 0x2D3 JUMP JUMPDEST POP SWAP4 SWAP3 POP POP POP JUMP JUMPDEST PUSH1 0x0 DUP3 PUSH1 0x1F DUP4 ADD SLT PUSH3 0x36C JUMPI PUSH3 0x36B PUSH3 0x1FE JUMP JUMPDEST JUMPDEST DUP2 MLOAD PUSH3 0x37E DUP5 DUP3 PUSH1 0x20 DUP7 ADD PUSH3 0x309 JUMP JUMPDEST SWAP2 POP POP SWAP3 SWAP2 POP POP JUMP JUMPDEST PUSH1 0x0 DUP2 SWAP1 POP SWAP2 SWAP1 POP JUMP JUMPDEST PUSH3 0x39C DUP2 PUSH3 0x387 JUMP JUMPDEST DUP2 EQ PUSH3 0x3A8 JUMPI PUSH1 0x0 DUP1 REVERT JUMPDEST POP JUMP JUMPDEST PUSH1 0x0 DUP2 MLOAD SWAP1 POP PUSH3 0x3BC DUP2 PUSH3 0x391 JUMP JUMPDEST SWAP3 SWAP2 POP POP JUMP JUMPDEST PUSH1 0x0 DUP1 PUSH1 0x0 DUP1 PUSH1 0x0 DUP1 PUSH1 0xC0 DUP8 DUP10 SUB SLT ISZERO PUSH3 0x3E2 JUMPI PUSH3 0x3E1 PUSH3 0x18F JUMP JUMPDEST JUMPDEST PUSH1 0x0 PUSH3 0x3F2 DUP10 DUP3 DUP11 ADD PUSH3 0x1E7 JUMP JUMPDEST SWAP7 POP POP PUSH1 0x20 DUP8 ADD MLOAD PUSH8 0xFFFFFFFFFFFFFFFF DUP2 GT ISZERO PUSH3 0x416 JUMPI PUSH3 0x415 PUSH3 0x194 JUMP JUMPDEST JUMPDEST PUSH3 0x424 DUP10 DUP3 DUP11 ADD PUSH3 0x354 JUMP JUMPDEST SWAP6 POP POP PUSH1 0x40 DUP8 ADD MLOAD PUSH8 0xFFFFFFFFFFFFFFFF DUP2 GT ISZERO PUSH3 0x448 JUMPI PUSH3 0x447 PUSH3 0x194 JUMP JUMPDEST JUMPDEST PUSH3 0x456 DUP10 DUP3 DUP11 ADD PUSH3 0x354 JUMP JUMPDEST SWAP5 POP POP PUSH1 0x60 PUSH3 0x469 DUP10 DUP3 DUP11 ADD PUSH3 0x3AB JUMP JUMPDEST SWAP4 POP POP PUSH1 0x80 PUSH3 0x47C DUP10 DUP3 DUP11 ADD PUSH3 0x3AB JUMP JUMPDEST SWAP3 POP POP PUSH1 0xA0 PUSH3 0x48F DUP10 DUP3 DUP11 ADD PUSH3 0x3AB JUMP JUMPDEST SWAP2 POP POP SWAP3 SWAP6 POP SWAP3 SWAP6 POP SWAP3 SWAP6 JUMP JUMPDEST PUSH1 0x0 DUP2 MLOAD SWAP1 POP SWAP2 SWAP1 POP JUMP JUMPDEST PUSH32 0x4E487B7100000000000000000000000000000000000000000000000000000000 PUSH1 0x0 MSTORE PUSH1 0x22 PUSH1 0x4 MSTORE PUSH1 0x24 PUSH1 0x0 REVERT JUMPDEST PUSH1 0x0 PUSH1 0x2 DUP3 DIV SWAP1 POP PUSH1 0x1 DUP3 AND DUP1 PUSH3 0x4EF JUMPI PUSH1 0x7F DUP3 AND SWAP2 POP JUMPDEST PUSH1 0x20 DUP3 LT DUP2 SUB PUSH3 0x505 JUMPI PUSH3 0x504 PUSH3 0x4A7 JUMP JUMPDEST JUMPDEST POP SWAP2 SWAP1 POP JUMP JUMPDEST PUSH1 0x0 DUP2 SWAP1 POP DUP2 PUSH1 0x0 MSTORE PUSH1 0x20 PUSH1 0x0 KECCAK256 SWAP1 POP SWAP2 SWAP1 POP JUMP JUMPDEST PUSH1 0x0 PUSH1 0x20 PUSH1 0x1F DUP4 ADD DIV SWAP1 POP SWAP2 SWAP1 POP JUMP JUMPDEST PUSH1 0x0 DUP3 DUP3 SHL SWAP1 POP SWAP3 SWAP2 POP POP JUMP JUMPDEST PUSH1 0x0 PUSH1 0x8 DUP4 MUL PUSH3 0x56F PUSH32 0xFFFFFFFFFFFFFFFFFFFFFFFFFFFFFFFFFFFFFFFFFFFFFFFFFFFFFFFFFFFFFFFF DUP3 PUSH3 0x530 JUMP JUMPDEST PUSH3 0x57B DUP7 DUP4 PUSH3 0x530 JUMP JUMPDEST SWAP6 POP DUP1 NOT DUP5 AND SWAP4 POP DUP1 DUP7 AND DUP5 OR SWAP3 POP POP POP SWAP4 SWAP3 POP POP POP JUMP JUMPDEST PUSH1 0x0 DUP2 SWAP1 POP SWAP2 SWAP1 POP JUMP JUMPDEST PUSH1 0x0 PUSH3 0x5BE PUSH3 0x5B8 PUSH3 0x5B2 DUP5 PUSH3 0x387 JUMP JUMPDEST PUSH3 0x593 JUMP JUMPDEST PUSH3 0x387 JUMP JUMPDEST SWAP1 POP SWAP2 SWAP1 POP JUMP JUMPDEST PUSH1 0x0 DUP2 SWAP1 POP SWAP2 SWAP1 POP JUMP JUMPDEST PUSH3 0x5DA DUP4 PUSH3 0x59D JUMP JUMPDEST PUSH3 0x5F2 PUSH3 0x5E9 DUP3 PUSH3 0x5C5 JUMP JUMPDEST DUP5 DUP5 SLOAD PUSH3 0x53D JUMP JUMPDEST DUP3 SSTORE POP POP POP POP JUMP JUMPDEST PUSH1 0x0 SWAP1 JUMP JUMPDEST PUSH3 0x609 PUSH3 0x5FA JUMP JUMPDEST PUSH3 0x616 DUP2 DUP5 DUP5 PUSH3 0x5CF JUMP JUMPDEST POP POP POP JUMP JUMPDEST JUMPDEST DUP2 DUP2 LT ISZERO PUSH3 0x63E JUMPI PUSH3 0x632 PUSH1 0x0 DUP3 PUSH3 0x5FF JUMP JUMPDEST PUSH1 0x1 DUP2 ADD SWAP1 POP PUSH3 0x61C JUMP JUMPDEST POP POP JUMP JUMPDEST PUSH1 0x1F DUP3 GT ISZERO PUSH3 0x68D JUMPI PUSH3 0x657 DUP2 PUSH3 0x50B JUMP JUMPDEST PUSH3 0x662 DUP5 PUSH3 0x520 JUMP JUMPDEST DUP2 ADD PUSH1 0x20 DUP6 LT ISZERO PUSH3 0x672 JUMPI DUP2 SWAP1 POP JUMPDEST PUSH3 0x68A PUSH3 0x681 DUP6 PUSH3 0x520 JUMP JUMPDEST DUP4 ADD DUP3 PUSH3 0x61B JUMP JUMPDEST POP POP JUMPDEST POP POP POP JUMP JUMPDEST PUSH1 0x0 DUP3 DUP3 SHR SWAP1 POP SWAP3 SWAP2 POP POP JUMP JUMPDEST PUSH1 0x0 PUSH3 0x6B2 PUSH1 0x0 NOT DUP5 PUSH1 0x8 MUL PUSH3 0x692 JUMP JUMPDEST NOT DUP1 DUP4 AND SWAP2 POP POP SWAP3 SWAP2 POP POP JUMP JUMPDEST PUSH1 0x0 PUSH3 0x6CD DUP4 DUP4 PUSH3 0x69F JUMP JUMPDEST SWAP2 POP DUP3 PUSH1 0x2 MUL DUP3 OR SWAP1 POP SWAP3 SWAP2 POP POP JUMP JUMPDEST PUSH3 0x6E8 DUP3 PUSH3 0x49C JUMP JUMPDEST PUSH8 0xFFFFFFFFFFFFFFFF DUP2 GT ISZERO PUSH3 0x704 JUMPI PUSH3 0x703 PUSH3 0x219 JUMP JUMPDEST JUMPDEST PUSH3 0x710 DUP3 SLOAD PUSH3 0x4D6 JUMP JUMPDEST PUSH3 0x71D DUP3 DUP3 DUP6 PUSH3 0x642 JUMP JUMPDEST PUSH1 0x0 PUSH1 0x20 SWAP1 POP PUSH1 0x1F DUP4 GT PUSH1 0x1 DUP2 EQ PUSH3 0x755 JUMPI PUSH1 0x0 DUP5 ISZERO PUSH3 0x740 JUMPI DUP3 DUP8 ADD MLOAD SWAP1 POP JUMPDEST PUSH3 0x74C DUP6 DUP3 PUSH3 0x6BF JUMP JUMPDEST DUP7 SSTORE POP PUSH3 0x7BC JUMP JUMPDEST PUSH1 0x1F NOT DUP5 AND PUSH3 0x765 DUP7 PUSH3 0x50B JUMP JUMPDEST PUSH1 0x0 JUMPDEST DUP3 DUP2 LT ISZERO PUSH3 0x78F JUMPI DUP5 DUP10 ADD MLOAD DUP3 SSTORE PUSH1 0x1 DUP3 ADD SWAP2 POP PUSH1 0x20 DUP6 ADD SWAP5 POP PUSH1 0x20 DUP2 ADD SWAP1 POP PUSH3 0x768 JUMP JUMPDEST DUP7 DUP4 LT ISZERO PUSH3 0x7AF JUMPI DUP5 DUP10 ADD MLOAD PUSH3 0x7AB PUSH1 0x1F DUP10 AND DUP3 PUSH3 0x69F JUMP JUMPDEST DUP4 SSTORE POP JUMPDEST PUSH1 0x1 PUSH1 0x2 DUP9 MUL ADD DUP9 SSTORE POP POP POP JUMPDEST POP POP POP POP POP POP JUMP JUMPDEST PUSH2 0xAF0 DUP1 PUSH3 0x7D4 PUSH1 0x0 CODECOPY PUSH1 0x0 RETURN INVALID PUSH1 0x80 PUSH1 0x40 MSTORE CALLVALUE DUP1 ISZERO PUSH2 0x10 JUMPI PUSH1 0x0 DUP1 REVERT JUMPDEST POP PUSH1 0x4 CALLDATASIZE LT PUSH2 0x41 JUMPI PUSH1 0x0 CALLDATALOAD PUSH1 0xE0 SHR DUP1 PUSH4 0x481C6A75 EQ PUSH2 0x46 JUMPI DUP1 PUSH4 0x5DAB2420 EQ PUSH2 0x64 JUMPI DUP1 PUSH4 0xF2390D43 EQ PUSH2 0x89 JUMPI JUMPDEST PUSH1 0x0 DUP1 REVERT JUMPDEST PUSH2 0x4E PUSH2 0xA5 JUMP JUMPDEST PUSH1 0x40 MLOAD PUSH2 0x5B SWAP2 SWAP1 PUSH2 0x47E JUMP JUMPDEST PUSH1 0x40 MLOAD DUP1 SWAP2 SUB SWAP1 RETURN JUMPDEST PUSH2 0x6C PUSH2 0xC9 JUMP JUMPDEST PUSH1 0x40 MLOAD PUSH2 0x80 SWAP9 SWAP8 SWAP7 SWAP6 SWAP5 SWAP4 SWAP3 SWAP2 SWAP1 PUSH2 0x54B JUMP JUMPDEST PUSH1 0x40 MLOAD DUP1 SWAP2 SUB SWAP1 RETURN JUMPDEST PUSH2 0xA3 PUSH1 0x4 DUP1 CALLDATASIZE SUB DUP2 ADD SWAP1 PUSH2 0x9E SWAP2 SWAP1 PUSH2 0x735 JUMP JUMPDEST PUSH2 0x3A7 JUMP JUMPDEST STOP JUMPDEST PUSH1 0x0 DUP1 SLOAD SWAP1 PUSH2 0x100 EXP SWAP1 DIV PUSH20 0xFFFFFFFFFFFFFFFFFFFFFFFFFFFFFFFFFFFFFFFF AND DUP2 JUMP JUMPDEST PUSH1 0x1 DUP1 PUSH1 0x0 ADD DUP1 SLOAD PUSH2 0xDA SWAP1 PUSH2 0x80B JUMP JUMPDEST DUP1 PUSH1 0x1F ADD PUSH1 0x20 DUP1 SWAP2 DIV MUL PUSH1 0x20 ADD PUSH1 0x40 MLOAD SWAP1 DUP2 ADD PUSH1 0x40 MSTORE DUP1 SWAP3 SWAP2 SWAP1 DUP2 DUP2 MSTORE PUSH1 0x20 ADD DUP3 DUP1 SLOAD PUSH2 0x106 SWAP1 PUSH2 0x80B JUMP JUMPDEST DUP1 ISZERO PUSH2 0x153 JUMPI DUP1 PUSH1 0x1F LT PUSH2 0x128 JUMPI PUSH2 0x100 DUP1 DUP4 SLOAD DIV MUL DUP4 MSTORE SWAP2 PUSH1 0x20 ADD SWAP2 PUSH2 0x153 JUMP JUMPDEST DUP3 ADD SWAP2 SWAP1 PUSH1 0x0 MSTORE PUSH1 0x20 PUSH1 0x0 KECCAK256 SWAP1 JUMPDEST DUP2 SLOAD DUP2 MSTORE SWAP1 PUSH1 0x1 ADD SWAP1 PUSH1 0x20 ADD DUP1 DUP4 GT PUSH2 0x136 JUMPI DUP3 SWAP1 SUB PUSH1 0x1F AND DUP3 ADD SWAP2 JUMPDEST POP POP POP POP POP SWAP1 DUP1 PUSH1 0x1 ADD DUP1 SLOAD PUSH2 0x168 SWAP1 PUSH2 0x80B JUMP JUMPDEST DUP1 PUSH1 0x1F ADD PUSH1 0x20 DUP1 SWAP2 DIV MUL PUSH1 0x20 ADD PUSH1 0x40 MLOAD SWAP1 DUP2 ADD PUSH1 0x40 MSTORE DUP1 SWAP3 SWAP2 SWAP1 DUP2 DUP2 MSTORE PUSH1 0x20 ADD DUP3 DUP1 SLOAD PUSH2 0x194 SWAP1 PUSH2 0x80B JUMP JUMPDEST DUP1 ISZERO PUSH2 0x1E1 JUMPI DUP1 PUSH1 0x1F LT PUSH2 0x1B6 JUMPI PUSH2 0x100 DUP1 DUP4 SLOAD DIV MUL DUP4 MSTORE SWAP2 PUSH1 0x20 ADD SWAP2 PUSH2 0x1E1 JUMP JUMPDEST DUP3 ADD SWAP2 SWAP1 PUSH1 0x0 MSTORE PUSH1 0x20 PUSH1 0x0 KECCAK256 SWAP1 JUMPDEST DUP2 SLOAD DUP2 MSTORE SWAP1 PUSH1 0x1 ADD SWAP1 PUSH1 0x20 ADD DUP1 DUP4 GT PUSH2 0x1C4 JUMPI DUP3 SWAP1 SUB PUSH1 0x1F AND DUP3 ADD SWAP2 JUMPDEST POP POP POP POP POP SWAP1 DUP1 PUSH1 0x2 ADD SLOAD SWAP1 DUP1 PUSH1 0x3 ADD SLOAD SWAP1 DUP1 PUSH1 0x4 ADD SLOAD SWAP1 DUP1 PUSH1 0x5 ADD DUP1 SLOAD PUSH2 0x208 SWAP1 PUSH2 0x80B JUMP JUMPDEST DUP1 PUSH1 0x1F ADD PUSH1 0x20 DUP1 SWAP2 DIV MUL PUSH1 0x20 ADD PUSH1 0x40 MLOAD SWAP1 DUP2 ADD PUSH1 0x40 MSTORE DUP1 SWAP3 SWAP2 SWAP1 DUP2 DUP2 MSTORE PUSH1 0x20 ADD DUP3 DUP1 SLOAD PUSH2 0x234 SWAP1 PUSH2 0x80B JUMP JUMPDEST DUP1 ISZERO PUSH2 0x281 JUMPI DUP1 PUSH1 0x1F LT PUSH2 0x256 JUMPI PUSH2 0x100 DUP1 DUP4 SLOAD DIV MUL DUP4 MSTORE SWAP2 PUSH1 0x20 ADD SWAP2 PUSH2 0x281 JUMP JUMPDEST DUP3 ADD SWAP2 SWAP1 PUSH1 0x0 MSTORE PUSH1 0x20 PUSH1 0x0 KECCAK256 SWAP1 JUMPDEST DUP2 SLOAD DUP2 MSTORE SWAP1 PUSH1 0x1 ADD SWAP1 PUSH1 0x20 ADD DUP1 DUP4 GT PUSH2 0x264 JUMPI DUP3 SWAP1 SUB PUSH1 0x1F AND DUP3 ADD SWAP2 JUMPDEST POP POP POP POP POP SWAP1 DUP1 PUSH1 0x6 ADD DUP1 SLOAD PUSH2 0x296 SWAP1 PUSH2 0x80B JUMP JUMPDEST DUP1 PUSH1 0x1F ADD PUSH1 0x20 DUP1 SWAP2 DIV MUL PUSH1 0x20 ADD PUSH1 0x40 MLOAD SWAP1 DUP2 ADD PUSH1 0x40 MSTORE DUP1 SWAP3 SWAP2 SWAP1 DUP2 DUP2 MSTORE PUSH1 0x20 ADD DUP3 DUP1 SLOAD PUSH2 0x2C2 SWAP1 PUSH2 0x80B JUMP JUMPDEST DUP1 ISZERO PUSH2 0x30F JUMPI DUP1 PUSH1 0x1F LT PUSH2 0x2E4 JUMPI PUSH2 0x100 DUP1 DUP4 SLOAD DIV MUL DUP4 MSTORE SWAP2 PUSH1 0x20 ADD SWAP2 PUSH2 0x30F JUMP JUMPDEST DUP3 ADD SWAP2 SWAP1 PUSH1 0x0 MSTORE PUSH1 0x20 PUSH1 0x0 KECCAK256 SWAP1 JUMPDEST DUP2 SLOAD DUP2 MSTORE SWAP1 PUSH1 0x1 ADD SWAP1 PUSH1 0x20 ADD DUP1 DUP4 GT PUSH2 0x2F2 JUMPI DUP3 SWAP1 SUB PUSH1 0x1F AND DUP3 ADD SWAP2 JUMPDEST POP POP POP POP POP SWAP1 DUP1 PUSH1 0x7 ADD DUP1 SLOAD PUSH2 0x324 SWAP1 PUSH2 0x80B JUMP JUMPDEST DUP1 PUSH1 0x1F ADD PUSH1 0x20 DUP1 SWAP2 DIV MUL PUSH1 0x20 ADD PUSH1 0x40 MLOAD SWAP1 DUP2 ADD PUSH1 0x40 MSTORE DUP1 SWAP3 SWAP2 SWAP1 DUP2 DUP2 MSTORE PUSH1 0x20 ADD DUP3 DUP1 SLOAD PUSH2 0x350 SWAP1 PUSH2 0x80B JUMP JUMPDEST DUP1 ISZERO PUSH2 0x39D JUMPI DUP1 PUSH1 0x1F LT PUSH2 0x372 JUMPI PUSH2 0x100 DUP1 DUP4 SLOAD DIV MUL DUP4 MSTORE SWAP2 PUSH1 0x20 ADD SWAP2 PUSH2 0x39D JUMP JUMPDEST DUP3 ADD SWAP2 SWAP1 PUSH1 0x0 MSTORE PUSH1 0x20 PUSH1 0x0 KECCAK256 SWAP1 JUMPDEST DUP2 SLOAD DUP2 MSTORE SWAP1 PUSH1 0x1 ADD SWAP1 PUSH1 0x20 ADD DUP1 DUP4 GT PUSH2 0x380 JUMPI DUP3 SWAP1 SUB PUSH1 0x1F AND DUP3 ADD SWAP2 JUMPDEST POP POP POP POP POP SWAP1 POP DUP9 JUMP JUMPDEST CALLER PUSH20 0xFFFFFFFFFFFFFFFFFFFFFFFFFFFFFFFFFFFFFFFF AND PUSH1 0x0 DUP1 SLOAD SWAP1 PUSH2 0x100 EXP SWAP1 DIV PUSH20 0xFFFFFFFFFFFFFFFFFFFFFFFFFFFFFFFFFFFFFFFF AND PUSH20 0xFFFFFFFFFFFFFFFFFFFFFFFFFFFFFFFFFFFFFFFF AND EQ PUSH2 0x3FF JUMPI PUSH1 0x0 DUP1 REVERT JUMPDEST DUP3 PUSH1 0x1 PUSH1 0x5 ADD SWAP1 DUP2 PUSH2 0x411 SWAP2 SWAP1 PUSH2 0x9E8 JUMP JUMPDEST POP DUP2 PUSH1 0x1 PUSH1 0x6 ADD SWAP1 DUP2 PUSH2 0x424 SWAP2 SWAP1 PUSH2 0x9E8 JUMP JUMPDEST POP DUP1 PUSH1 0x1 PUSH1 0x7 ADD SWAP1 DUP2 PUSH2 0x437 SWAP2 SWAP1 PUSH2 0x9E8 JUMP JUMPDEST POP POP POP POP JUMP JUMPDEST PUSH1 0x0 PUSH20 0xFFFFFFFFFFFFFFFFFFFFFFFFFFFFFFFFFFFFFFFF DUP3 AND SWAP1 POP SWAP2 SWAP1 POP JUMP JUMPDEST PUSH1 0x0 PUSH2 0x468 DUP3 PUSH2 0x43D JUMP JUMPDEST SWAP1 POP SWAP2 SWAP1 POP JUMP JUMPDEST PUSH2 0x478 DUP2 PUSH2 0x45D JUMP JUMPDEST DUP3 MSTORE POP POP JUMP JUMPDEST PUSH1 0x0 PUSH1 0x20 DUP3 ADD SWAP1 POP PUSH2 0x493 PUSH1 0x0 DUP4 ADD DUP5 PUSH2 0x46F JUMP JUMPDEST SWAP3 SWAP2 POP POP JUMP JUMPDEST PUSH1 0x0 DUP2 MLOAD SWAP1 POP SWAP2 SWAP1 POP JUMP JUMPDEST PUSH1 0x0 DUP3 DUP3 MSTORE PUSH1 0x20 DUP3 ADD SWAP1 POP SWAP3 SWAP2 POP POP JUMP JUMPDEST PUSH1 0x0 JUMPDEST DUP4 DUP2 LT ISZERO PUSH2 0x4D3 JUMPI DUP1 DUP3 ADD MLOAD DUP2 DUP5 ADD MSTORE PUSH1 0x20 DUP2 ADD SWAP1 POP PUSH2 0x4B8 JUMP JUMPDEST DUP4 DUP2 GT ISZERO PUSH2 0x4E2 JUMPI PUSH1 0x0 DUP5 DUP5 ADD MSTORE JUMPDEST POP POP POP POP JUMP JUMPDEST PUSH1 0x0 PUSH1 0x1F NOT PUSH1 0x1F DUP4 ADD AND SWAP1 POP SWAP2 SWAP1 POP JUMP JUMPDEST PUSH1 0x0 PUSH2 0x504 DUP3 PUSH2 0x499 JUMP JUMPDEST PUSH2 0x50E DUP2 DUP6 PUSH2 0x4A4 JUMP JUMPDEST SWAP4 POP PUSH2 0x51E DUP2 DUP6 PUSH1 0x20 DUP7 ADD PUSH2 0x4B5 JUMP JUMPDEST PUSH2 0x527 DUP2 PUSH2 0x4E8 JUMP JUMPDEST DUP5 ADD SWAP2 POP POP SWAP3 SWAP2 POP POP JUMP JUMPDEST PUSH1 0x0 DUP2 SWAP1 POP SWAP2 SWAP1 POP JUMP JUMPDEST PUSH2 0x545 DUP2 PUSH2 0x532 JUMP JUMPDEST DUP3 MSTORE POP POP JUMP JUMPDEST PUSH1 0x0 PUSH2 0x100 DUP3 ADD SWAP1 POP DUP2 DUP2 SUB PUSH1 0x0 DUP4 ADD MSTORE PUSH2 0x566 DUP2 DUP12 PUSH2 0x4F9 JUMP JUMPDEST SWAP1 POP DUP2 DUP2 SUB PUSH1 0x20 DUP4 ADD MSTORE PUSH2 0x57A DUP2 DUP11 PUSH2 0x4F9 JUMP JUMPDEST SWAP1 POP PUSH2 0x589 PUSH1 0x40 DUP4 ADD DUP10 PUSH2 0x53C JUMP JUMPDEST PUSH2 0x596 PUSH1 0x60 DUP4 ADD DUP9 PUSH2 0x53C JUMP JUMPDEST PUSH2 0x5A3 PUSH1 0x80 DUP4 ADD DUP8 PUSH2 0x53C JUMP JUMPDEST DUP2 DUP2 SUB PUSH1 0xA0 DUP4 ADD MSTORE PUSH2 0x5B5 DUP2 DUP7 PUSH2 0x4F9 JUMP JUMPDEST SWAP1 POP DUP2 DUP2 SUB PUSH1 0xC0 DUP4 ADD MSTORE PUSH2 0x5C9 DUP2 DUP6 PUSH2 0x4F9 JUMP JUMPDEST SWAP1 POP DUP2 DUP2 SUB PUSH1 0xE0 DUP4 ADD MSTORE PUSH2 0x5DD DUP2 DUP5 PUSH2 0x4F9 JUMP JUMPDEST SWAP1 POP SWAP10 SWAP9 POP POP POP POP POP POP POP POP POP JUMP JUMPDEST PUSH1 0x0 PUSH1 0x40 MLOAD SWAP1 POP SWAP1 JUMP JUMPDEST PUSH1 0x0 DUP1 REVERT JUMPDEST PUSH1 0x0 DUP1 REVERT JUMPDEST PUSH1 0x0 DUP1 REVERT JUMPDEST PUSH1 0x0 DUP1 REVERT JUMPDEST PUSH32 0x4E487B7100000000000000000000000000000000000000000000000000000000 PUSH1 0x0 MSTORE PUSH1 0x41 PUSH1 0x4 MSTORE PUSH1 0x24 PUSH1 0x0 REVERT JUMPDEST PUSH2 0x642 DUP3 PUSH2 0x4E8 JUMP JUMPDEST DUP2 ADD DUP2 DUP2 LT PUSH8 0xFFFFFFFFFFFFFFFF DUP3 GT OR ISZERO PUSH2 0x661 JUMPI PUSH2 0x660 PUSH2 0x60A JUMP JUMPDEST JUMPDEST DUP1 PUSH1 0x40 MSTORE POP POP POP JUMP JUMPDEST PUSH1 0x0 PUSH2 0x674 PUSH2 0x5EC JUMP JUMPDEST SWAP1 POP PUSH2 0x680 DUP3 DUP3 PUSH2 0x639 JUMP JUMPDEST SWAP2 SWAP1 POP JUMP JUMPDEST PUSH1 0x0 PUSH8 0xFFFFFFFFFFFFFFFF DUP3 GT ISZERO PUSH2 0x6A0 JUMPI PUSH2 0x69F PUSH2 0x60A JUMP JUMPDEST JUMPDEST PUSH2 0x6A9 DUP3 PUSH2 0x4E8 JUMP JUMPDEST SWAP1 POP PUSH1 0x20 DUP2 ADD SWAP1 POP SWAP2 SWAP1 POP JUMP JUMPDEST DUP3 DUP2 DUP4 CALLDATACOPY PUSH1 0x0 DUP4 DUP4 ADD MSTORE POP POP POP JUMP JUMPDEST PUSH1 0x0 PUSH2 0x6D8 PUSH2 0x6D3 DUP5 PUSH2 0x685 JUMP JUMPDEST PUSH2 0x66A JUMP JUMPDEST SWAP1 POP DUP3 DUP2 MSTORE PUSH1 0x20 DUP2 ADD DUP5 DUP5 DUP5 ADD GT ISZERO PUSH2 0x6F4 JUMPI PUSH2 0x6F3 PUSH2 0x605 JUMP JUMPDEST JUMPDEST PUSH2 0x6FF DUP5 DUP3 DUP6 PUSH2 0x6B6 JUMP JUMPDEST POP SWAP4 SWAP3 POP POP POP JUMP JUMPDEST PUSH1 0x0 DUP3 PUSH1 0x1F DUP4 ADD SLT PUSH2 0x71C JUMPI PUSH2 0x71B PUSH2 0x600 JUMP JUMPDEST JUMPDEST DUP2 CALLDATALOAD PUSH2 0x72C DUP5 DUP3 PUSH1 0x20 DUP7 ADD PUSH2 0x6C5 JUMP JUMPDEST SWAP2 POP POP SWAP3 SWAP2 POP POP JUMP JUMPDEST PUSH1 0x0 DUP1 PUSH1 0x0 PUSH1 0x60 DUP5 DUP7 SUB SLT ISZERO PUSH2 0x74E JUMPI PUSH2 0x74D PUSH2 0x5F6 JUMP JUMPDEST JUMPDEST PUSH1 0x0 DUP5 ADD CALLDATALOAD PUSH8 0xFFFFFFFFFFFFFFFF DUP2 GT ISZERO PUSH2 0x76C JUMPI PUSH2 0x76B PUSH2 0x5FB JUMP JUMPDEST JUMPDEST PUSH2 0x778 DUP7 DUP3 DUP8 ADD PUSH2 0x707 JUMP JUMPDEST SWAP4 POP POP PUSH1 0x20 DUP5 ADD CALLDATALOAD PUSH8 0xFFFFFFFFFFFFFFFF DUP2 GT ISZERO PUSH2 0x799 JUMPI PUSH2 0x798 PUSH2 0x5FB JUMP JUMPDEST JUMPDEST PUSH2 0x7A5 DUP7 DUP3 DUP8 ADD PUSH2 0x707 JUMP JUMPDEST SWAP3 POP POP PUSH1 0x40 DUP5 ADD CALLDATALOAD PUSH8 0xFFFFFFFFFFFFFFFF DUP2 GT ISZERO PUSH2 0x7C6 JUMPI PUSH2 0x7C5 PUSH2 0x5FB JUMP JUMPDEST JUMPDEST PUSH2 0x7D2 DUP7 DUP3 DUP8 ADD PUSH2 0x707 JUMP JUMPDEST SWAP2 POP POP SWAP3 POP SWAP3 POP SWAP3 JUMP JUMPDEST PUSH32 0x4E487B7100000000000000000000000000000000000000000000000000000000 PUSH1 0x0 MSTORE PUSH1 0x22 PUSH1 0x4 MSTORE PUSH1 0x24 PUSH1 0x0 REVERT JUMPDEST PUSH1 0x0 PUSH1 0x2 DUP3 DIV SWAP1 POP PUSH1 0x1 DUP3 AND DUP1 PUSH2 0x823 JUMPI PUSH1 0x7F DUP3 AND SWAP2 POP JUMPDEST PUSH1 0x20 DUP3 LT DUP2 SUB PUSH2 0x836 JUMPI PUSH2 0x835 PUSH2 0x7DC JUMP JUMPDEST JUMPDEST POP SWAP2 SWAP1 POP JUMP JUMPDEST PUSH1 0x0 DUP2 SWAP1 POP DUP2 PUSH1 0x0 MSTORE PUSH1 0x20 PUSH1 0x0 KECCAK256 SWAP1 POP SWAP2 SWAP1 POP JUMP JUMPDEST PUSH1 0x0 PUSH1 0x20 PUSH1 0x1F DUP4 ADD DIV SWAP1 POP SWAP2 SWAP1 POP JUMP JUMPDEST PUSH1 0x0 DUP3 DUP3 SHL SWAP1 POP SWAP3 SWAP2 POP POP JUMP JUMPDEST PUSH1 0x0 PUSH1 0x8 DUP4 MUL PUSH2 0x89E PUSH32 0xFFFFFFFFFFFFFFFFFFFFFFFFFFFFFFFFFFFFFFFFFFFFFFFFFFFFFFFFFFFFFFFF DUP3 PUSH2 0x861 JUMP JUMPDEST PUSH2 0x8A8 DUP7 DUP4 PUSH2 0x861 JUMP JUMPDEST SWAP6 POP DUP1 NOT DUP5 AND SWAP4 POP DUP1 DUP7 AND DUP5 OR SWAP3 POP POP POP SWAP4 SWAP3 POP POP POP JUMP JUMPDEST PUSH1 0x0 DUP2 SWAP1 POP SWAP2 SWAP1 POP JUMP JUMPDEST PUSH1 0x0 PUSH2 0x8E5 PUSH2 0x8E0 PUSH2 0x8DB DUP5 PUSH2 0x532 JUMP JUMPDEST PUSH2 0x8C0 JUMP JUMPDEST PUSH2 0x532 JUMP JUMPDEST SWAP1 POP SWAP2 SWAP1 POP JUMP JUMPDEST PUSH1 0x0 DUP2 SWAP1 POP SWAP2 SWAP1 POP JUMP JUMPDEST PUSH2 0x8FF DUP4 PUSH2 0x8CA JUMP JUMPDEST PUSH2 0x913 PUSH2 0x90B DUP3 PUSH2 0x8EC JUMP JUMPDEST DUP5 DUP5 SLOAD PUSH2 0x86E JUMP JUMPDEST DUP3 SSTORE POP POP POP POP JUMP JUMPDEST PUSH1 0x0 SWAP1 JUMP JUMPDEST PUSH2 0x928 PUSH2 0x91B JUMP JUMPDEST PUSH2 0x933 DUP2 DUP5 DUP5 PUSH2 0x8F6 JUMP JUMPDEST POP POP POP JUMP JUMPDEST JUMPDEST DUP2 DUP2 LT ISZERO PUSH2 0x957 JUMPI PUSH2 0x94C PUSH1 0x0 DUP3 PUSH2 0x920 JUMP JUMPDEST PUSH1 0x1 DUP2 ADD SWAP1 POP PUSH2 0x939 JUMP JUMPDEST POP POP JUMP JUMPDEST PUSH1 0x1F DUP3 GT ISZERO PUSH2 0x99C JUMPI PUSH2 0x96D DUP2 PUSH2 0x83C JUMP JUMPDEST PUSH2 0x976 DUP5 PUSH2 0x851 JUMP JUMPDEST DUP2 ADD PUSH1 0x20 DUP6 LT ISZERO PUSH2 0x985 JUMPI DUP2 SWAP1 POP JUMPDEST PUSH2 0x999 PUSH2 0x991 DUP6 PUSH2 0x851 JUMP JUMPDEST DUP4 ADD DUP3 PUSH2 0x938 JUMP JUMPDEST POP POP JUMPDEST POP POP POP JUMP JUMPDEST PUSH1 0x0 DUP3 DUP3 SHR SWAP1 POP SWAP3 SWAP2 POP POP JUMP JUMPDEST PUSH1 0x0 PUSH2 0x9BF PUSH1 0x0 NOT DUP5 PUSH1 0x8 MUL PUSH2 0x9A1 JUMP JUMPDEST NOT DUP1 DUP4 AND SWAP2 POP POP SWAP3 SWAP2 POP POP JUMP JUMPDEST PUSH1 0x0 PUSH2 0x9D8 DUP4 DUP4 PUSH2 0x9AE JUMP JUMPDEST SWAP2 POP DUP3 PUSH1 0x2 MUL DUP3 OR SWAP1 POP SWAP3 SWAP2 POP POP JUMP JUMPDEST PUSH2 0x9F1 DUP3 PUSH2 0x499 JUMP JUMPDEST PUSH8 0xFFFFFFFFFFFFFFFF DUP2 GT ISZERO PUSH2 0xA0A JUMPI PUSH2 0xA09 PUSH2 0x60A JUMP JUMPDEST JUMPDEST PUSH2 0xA14 DUP3 SLOAD PUSH2 0x80B JUMP JUMPDEST PUSH2 0xA1F DUP3 DUP3 DUP6 PUSH2 0x95B JUMP JUMPDEST PUSH1 0x0 PUSH1 0x20 SWAP1 POP PUSH1 0x1F DUP4 GT PUSH1 0x1 DUP2 EQ PUSH2 0xA52 JUMPI PUSH1 0x0 DUP5 ISZERO PUSH2 0xA40 JUMPI DUP3 DUP8 ADD MLOAD SWAP1 POP JUMPDEST PUSH2 0xA4A DUP6 DUP3 PUSH2 0x9CC JUMP JUMPDEST DUP7 SSTORE POP PUSH2 0xAB2 JUMP JUMPDEST PUSH1 0x1F NOT DUP5 AND PUSH2 0xA60 DUP7 PUSH2 0x83C JUMP JUMPDEST PUSH1 0x0 JUMPDEST DUP3 DUP2 LT ISZERO PUSH2 0xA88 JUMPI DUP5 DUP10 ADD MLOAD DUP3 SSTORE PUSH1 0x1 DUP3 ADD SWAP2 POP PUSH1 0x20 DUP6 ADD SWAP5 POP PUSH1 0x20 DUP2 ADD SWAP1 POP PUSH2 0xA63 JUMP JUMPDEST DUP7 DUP4 LT ISZERO PUSH2 0xAA5 JUMPI DUP5 DUP10 ADD MLOAD PUSH2 0xAA1 PUSH1 0x1F DUP10 AND DUP3 PUSH2 0x9AE JUMP JUMPDEST DUP4 SSTORE POP JUMPDEST PUSH1 0x1 PUSH1 0x2 DUP9 MUL ADD DUP9 SSTORE POP POP POP JUMPDEST POP POP POP POP POP POP JUMP INVALID LOG2 PUSH5 0x6970667358 0x22 SLT KECCAK256 0xE8 SWAP5 SWAP12 PUSH32 0xB1979AA2215ADA4C2BEDCE0E506E443EF0EB50D5C4678F2D0BEC8FF664736F6C PUSH4 0x4300080F STOP CALLER "},"gasEstimates":{"creation":{"codeDepositCost":"560000","executionCost":"infinite","totalCost":"infinite"},"external":{"account()":"infinite","manager()":"2489","setParameters(string,string,string)":"infinite"}},"methodIdentifiers":{"account()":"5dab2420","manager()":"481c6a75","setParameters(string,string,string)":"f2390d43"}},"storageLayout":{"storage":[{"astId":134,"contract":"smartwill.sol:BankAccount","label":"manager","offset":0,"slot":"0","type":"t_address"},{"astId":137,"contract":"smartwill.sol:BankAccount","label":"account","offset":0,"slot":"1","type":"t_struct(AccountDetails)132_storage"}],"types":{"t_address":{"encoding":"inplace","label":"address","numberOfBytes":"20"},"t_string_storage":{"encoding":"bytes","label":"string","numberOfBytes":"32"},"t_struct(AccountDetails)132_storage":{"encoding":"inplace","label":"struct BankAccount.AccountDetails","members":[{"astId":117,"contract":"smartwill.sol:BankAccount","label":"accountName","offset":0,"slot":"0","type":"t_string_storage"},{"astId":119,"contract":"smartwill.sol:BankAccount","label":"bankName","offset":0,"slot":"1","type":"t_string_storage"},{"astId":121,"contract":"smartwill.sol:BankAccount","label":"branchNumber","offset":0,"slot":"2","type":"t_uint256"},{"astId":123,"contract":"smartwill.sol:BankAccount","label":"accountNumber","offset":0,"slot":"3","type":"t_uint256"},{"astId":125,"contract":"smartwill.sol:BankAccount","label":"accountDigit","offset":0,"slot":"4","type":"t_uint256"},{"astId":127,"contract":"smartwill.sol:BankAccount","label":"password","offset":0,"slot":"5","type":"t_string_storage"},{"astId":129,"contract":"smartwill.sol:BankAccount","label":"balance","offset":0,"slot":"6","type":"t_string_storage"},{"astId":131,"contract":"smartwill.sol:BankAccount","label":"description","offset":0,"slot":"7","type":"t_string_storage"}],"numberOfBytes":"256"},"t_uint256":{"encoding":"inplace","label":"uint256","numberOfBytes":"32"}}},"userdoc":{"kind":"user","methods":{},"version":1}}