{"abi":[{"inputs":[],"name":"createSmartWill","outputs":[],"stateMutability":"nonpayable","type":"function"},{"inputs":[{"internalType":"uint256","name":"","type":"uint256"}],"name":"deployedSmartWills","outputs":[{"internalType":"address","name":"","type":"address"}],"stateMutability":"view","type":"function"},{"inputs":[],"name":"getDeployedSmartWills","outputs":[{"internalType":"address[]","name":"","type":"address[]"}],"stateMutability":"view","type":"function"}],"devdoc":{"kind":"dev","methods":{},"version":1},"evm":{"assembly":"    /* \"smartwill.sol\":65:502  contract Factory {... */\n  mstore(0x40, 0x80)\n  callvalue\n  dup1\n  iszero\n  tag_1\n  jumpi\n  0x00\n  dup1\n  revert\ntag_1:\n  pop\n  dataSize(sub_0)\n  dup1\n  dataOffset(sub_0)\n  0x00\n  codecopy\n  0x00\n  return\nstop\n\nsub_0: assembly {\n        /* \"smartwill.sol\":65:502  contract Factory {... */\n      mstore(0x40, 0x80)\n      callvalue\n      dup1\n      iszero\n      tag_1\n      jumpi\n      0x00\n      dup1\n      revert\n    tag_1:\n      pop\n      jumpi(tag_2, lt(calldatasize, 0x04))\n      shr(0xe0, calldataload(0x00))\n      dup1\n      0x0a2bfd06\n      eq\n      tag_3\n      jumpi\n      dup1\n      0xa488f510\n      eq\n      tag_4\n      jumpi\n      dup1\n      0xf6376489\n      eq\n      tag_5\n      jumpi\n    tag_2:\n      0x00\n      dup1\n      revert\n        /* \"smartwill.sol\":387:500  function getDeployedSmartWills() public view returns(address[] memory) {... */\n    tag_3:\n      tag_6\n      tag_7\n      jump\t// in\n    tag_6:\n      mload(0x40)\n      tag_8\n      swap2\n      swap1\n      tag_9\n      jump\t// in\n    tag_8:\n      mload(0x40)\n      dup1\n      swap2\n      sub\n      swap1\n      return\n        /* \"smartwill.sol\":179:334  function createSmartWill() public {... */\n    tag_4:\n      tag_10\n      tag_11\n      jump\t// in\n    tag_10:\n      stop\n        /* \"smartwill.sol\":110:145  address[] public deployedSmartWills */\n    tag_5:\n      tag_12\n      0x04\n      dup1\n      calldatasize\n      sub\n      dup2\n      add\n      swap1\n      tag_13\n      swap2\n      swap1\n      tag_14\n      jump\t// in\n    tag_13:\n      tag_15\n      jump\t// in\n    tag_12:\n      mload(0x40)\n      tag_16\n      swap2\n      swap1\n      tag_17\n      jump\t// in\n    tag_16:\n      mload(0x40)\n      dup1\n      swap2\n      sub\n      swap1\n      return\n        /* \"smartwill.sol\":387:500  function getDeployedSmartWills() public view returns(address[] memory) {... */\n    tag_7:\n        /* \"smartwill.sol\":440:456  address[] memory */\n      0x60\n        /* \"smartwill.sol\":475:493  deployedSmartWills */\n      0x00\n        /* \"smartwill.sol\":468:493  return deployedSmartWills */\n      dup1\n      sload\n      dup1\n      0x20\n      mul\n      0x20\n      add\n      mload(0x40)\n      swap1\n      dup2\n      add\n      0x40\n      mstore\n      dup1\n      swap3\n      swap2\n      swap1\n      dup2\n      dup2\n      mstore\n      0x20\n      add\n      dup3\n      dup1\n      sload\n      dup1\n      iszero\n      tag_19\n      jumpi\n      0x20\n      mul\n      dup3\n      add\n      swap2\n      swap1\n      0x00\n      mstore\n      keccak256(0x00, 0x20)\n      swap1\n    tag_20:\n      dup2\n      0x00\n      swap1\n      sload\n      swap1\n      0x0100\n      exp\n      swap1\n      div\n      0xffffffffffffffffffffffffffffffffffffffff\n      and\n      0xffffffffffffffffffffffffffffffffffffffff\n      and\n      dup2\n      mstore\n      0x20\n      add\n      swap1\n      0x01\n      add\n      swap1\n      dup1\n      dup4\n      gt\n      tag_20\n      jumpi\n    tag_19:\n      pop\n      pop\n      pop\n      pop\n      pop\n      swap1\n      pop\n        /* \"smartwill.sol\":387:500  function getDeployedSmartWills() public view returns(address[] memory) {... */\n      swap1\n      jump\t// out\n        /* \"smartwill.sol\":179:334  function createSmartWill() public {... */\n    tag_11:\n        /* \"smartwill.sol\":223:243  address newSmartWill */\n      0x00\n        /* \"smartwill.sol\":268:278  msg.sender */\n      caller\n        /* \"smartwill.sol\":254:279  new SmartWill(msg.sender) */\n      mload(0x40)\n      tag_22\n      swap1\n      tag_23\n      jump\t// in\n    tag_22:\n      tag_24\n      swap2\n      swap1\n      tag_17\n      jump\t// in\n    tag_24:\n      mload(0x40)\n      dup1\n      swap2\n      sub\n      swap1\n      0x00\n      create\n      dup1\n      iszero\n      dup1\n      iszero\n      tag_25\n      jumpi\n      returndatasize\n      0x00\n      dup1\n      returndatacopy\n      revert(0x00, returndatasize)\n    tag_25:\n      pop\n        /* \"smartwill.sol\":223:280  address newSmartWill = address(new SmartWill(msg.sender)) */\n      swap1\n      pop\n        /* \"smartwill.sol\":290:308  deployedSmartWills */\n      0x00\n        /* \"smartwill.sol\":314:326  newSmartWill */\n      dup2\n        /* \"smartwill.sol\":290:327  deployedSmartWills.push(newSmartWill) */\n      swap1\n      dup1\n      0x01\n      dup2\n      sload\n      add\n      dup1\n      dup3\n      sstore\n      dup1\n      swap2\n      pop\n      pop\n      0x01\n      swap1\n      sub\n      swap1\n      0x00\n      mstore\n      keccak256(0x00, 0x20)\n      add\n      0x00\n      swap1\n      swap2\n      swap1\n      swap2\n      swap1\n      swap2\n      0x0100\n      exp\n      dup2\n      sload\n      dup2\n      0xffffffffffffffffffffffffffffffffffffffff\n      mul\n      not\n      and\n      swap1\n      dup4\n      0xffffffffffffffffffffffffffffffffffffffff\n      and\n      mul\n      or\n      swap1\n      sstore\n      pop\n        /* \"smartwill.sol\":213:334  {... */\n      pop\n        /* \"smartwill.sol\":179:334  function createSmartWill() public {... */\n      jump\t// out\n        /* \"smartwill.sol\":110:145  address[] public deployedSmartWills */\n    tag_15:\n      0x00\n      dup2\n      dup2\n      sload\n      dup2\n      lt\n      tag_27\n      jumpi\n      0x00\n      dup1\n      revert\n    tag_27:\n      swap1\n      0x00\n      mstore\n      keccak256(0x00, 0x20)\n      add\n      0x00\n      swap2\n      pop\n      sload\n      swap1\n      0x0100\n      exp\n      swap1\n      div\n      0xffffffffffffffffffffffffffffffffffffffff\n      and\n      dup2\n      jump\t// out\n    tag_23:\n      dataSize(sub_0)\n      dup1\n      dataOffset(sub_0)\n      dup4\n      codecopy\n      add\n      swap1\n      jump\t// out\n        /* \"#utility.yul\":7:121   */\n    tag_29:\n        /* \"#utility.yul\":74:80   */\n      0x00\n        /* \"#utility.yul\":108:113   */\n      dup2\n        /* \"#utility.yul\":102:114   */\n      mload\n        /* \"#utility.yul\":92:114   */\n      swap1\n      pop\n        /* \"#utility.yul\":7:121   */\n      swap2\n      swap1\n      pop\n      jump\t// out\n        /* \"#utility.yul\":127:311   */\n    tag_30:\n        /* \"#utility.yul\":226:237   */\n      0x00\n        /* \"#utility.yul\":260:266   */\n      dup3\n        /* \"#utility.yul\":255:258   */\n      dup3\n        /* \"#utility.yul\":248:267   */\n      mstore\n        /* \"#utility.yul\":300:304   */\n      0x20\n        /* \"#utility.yul\":295:298   */\n      dup3\n        /* \"#utility.yul\":291:305   */\n      add\n        /* \"#utility.yul\":276:305   */\n      swap1\n      pop\n        /* \"#utility.yul\":127:311   */\n      swap3\n      swap2\n      pop\n      pop\n      jump\t// out\n        /* \"#utility.yul\":317:449   */\n    tag_31:\n        /* \"#utility.yul\":384:388   */\n      0x00\n        /* \"#utility.yul\":407:410   */\n      dup2\n        /* \"#utility.yul\":399:410   */\n      swap1\n      pop\n        /* \"#utility.yul\":437:441   */\n      0x20\n        /* \"#utility.yul\":432:435   */\n      dup3\n        /* \"#utility.yul\":428:442   */\n      add\n        /* \"#utility.yul\":420:442   */\n      swap1\n      pop\n        /* \"#utility.yul\":317:449   */\n      swap2\n      swap1\n      pop\n      jump\t// out\n        /* \"#utility.yul\":455:581   */\n    tag_32:\n        /* \"#utility.yul\":492:499   */\n      0x00\n        /* \"#utility.yul\":532:574   */\n      0xffffffffffffffffffffffffffffffffffffffff\n        /* \"#utility.yul\":525:530   */\n      dup3\n        /* \"#utility.yul\":521:575   */\n      and\n        /* \"#utility.yul\":510:575   */\n      swap1\n      pop\n        /* \"#utility.yul\":455:581   */\n      swap2\n      swap1\n      pop\n      jump\t// out\n        /* \"#utility.yul\":587:683   */\n    tag_33:\n        /* \"#utility.yul\":624:631   */\n      0x00\n        /* \"#utility.yul\":653:677   */\n      tag_51\n        /* \"#utility.yul\":671:676   */\n      dup3\n        /* \"#utility.yul\":653:677   */\n      tag_32\n      jump\t// in\n    tag_51:\n        /* \"#utility.yul\":642:677   */\n      swap1\n      pop\n        /* \"#utility.yul\":587:683   */\n      swap2\n      swap1\n      pop\n      jump\t// out\n        /* \"#utility.yul\":689:797   */\n    tag_34:\n        /* \"#utility.yul\":766:790   */\n      tag_53\n        /* \"#utility.yul\":784:789   */\n      dup2\n        /* \"#utility.yul\":766:790   */\n      tag_33\n      jump\t// in\n    tag_53:\n        /* \"#utility.yul\":761:764   */\n      dup3\n        /* \"#utility.yul\":754:791   */\n      mstore\n        /* \"#utility.yul\":689:797   */\n      pop\n      pop\n      jump\t// out\n        /* \"#utility.yul\":803:982   */\n    tag_35:\n        /* \"#utility.yul\":872:882   */\n      0x00\n        /* \"#utility.yul\":893:939   */\n      tag_55\n        /* \"#utility.yul\":935:938   */\n      dup4\n        /* \"#utility.yul\":927:933   */\n      dup4\n        /* \"#utility.yul\":893:939   */\n      tag_34\n      jump\t// in\n    tag_55:\n        /* \"#utility.yul\":971:975   */\n      0x20\n        /* \"#utility.yul\":966:969   */\n      dup4\n        /* \"#utility.yul\":962:976   */\n      add\n        /* \"#utility.yul\":948:976   */\n      swap1\n      pop\n        /* \"#utility.yul\":803:982   */\n      swap3\n      swap2\n      pop\n      pop\n      jump\t// out\n        /* \"#utility.yul\":988:1101   */\n    tag_36:\n        /* \"#utility.yul\":1058:1062   */\n      0x00\n        /* \"#utility.yul\":1090:1094   */\n      0x20\n        /* \"#utility.yul\":1085:1088   */\n      dup3\n        /* \"#utility.yul\":1081:1095   */\n      add\n        /* \"#utility.yul\":1073:1095   */\n      swap1\n      pop\n        /* \"#utility.yul\":988:1101   */\n      swap2\n      swap1\n      pop\n      jump\t// out\n        /* \"#utility.yul\":1137:1869   */\n    tag_37:\n        /* \"#utility.yul\":1256:1259   */\n      0x00\n        /* \"#utility.yul\":1285:1339   */\n      tag_58\n        /* \"#utility.yul\":1333:1338   */\n      dup3\n        /* \"#utility.yul\":1285:1339   */\n      tag_29\n      jump\t// in\n    tag_58:\n        /* \"#utility.yul\":1355:1441   */\n      tag_59\n        /* \"#utility.yul\":1434:1440   */\n      dup2\n        /* \"#utility.yul\":1429:1432   */\n      dup6\n        /* \"#utility.yul\":1355:1441   */\n      tag_30\n      jump\t// in\n    tag_59:\n        /* \"#utility.yul\":1348:1441   */\n      swap4\n      pop\n        /* \"#utility.yul\":1465:1521   */\n      tag_60\n        /* \"#utility.yul\":1515:1520   */\n      dup4\n        /* \"#utility.yul\":1465:1521   */\n      tag_31\n      jump\t// in\n    tag_60:\n        /* \"#utility.yul\":1544:1551   */\n      dup1\n        /* \"#utility.yul\":1575:1576   */\n      0x00\n        /* \"#utility.yul\":1560:1844   */\n    tag_61:\n        /* \"#utility.yul\":1585:1591   */\n      dup4\n        /* \"#utility.yul\":1582:1583   */\n      dup2\n        /* \"#utility.yul\":1579:1592   */\n      lt\n        /* \"#utility.yul\":1560:1844   */\n      iszero\n      tag_63\n      jumpi\n        /* \"#utility.yul\":1661:1667   */\n      dup2\n        /* \"#utility.yul\":1655:1668   */\n      mload\n        /* \"#utility.yul\":1688:1751   */\n      tag_64\n        /* \"#utility.yul\":1747:1750   */\n      dup9\n        /* \"#utility.yul\":1732:1745   */\n      dup3\n        /* \"#utility.yul\":1688:1751   */\n      tag_35\n      jump\t// in\n    tag_64:\n        /* \"#utility.yul\":1681:1751   */\n      swap8\n      pop\n        /* \"#utility.yul\":1774:1834   */\n      tag_65\n        /* \"#utility.yul\":1827:1833   */\n      dup4\n        /* \"#utility.yul\":1774:1834   */\n      tag_36\n      jump\t// in\n    tag_65:\n        /* \"#utility.yul\":1764:1834   */\n      swap3\n      pop\n        /* \"#utility.yul\":1620:1844   */\n      pop\n        /* \"#utility.yul\":1607:1608   */\n      0x01\n        /* \"#utility.yul\":1604:1605   */\n      dup2\n        /* \"#utility.yul\":1600:1609   */\n      add\n        /* \"#utility.yul\":1595:1609   */\n      swap1\n      pop\n        /* \"#utility.yul\":1560:1844   */\n      jump(tag_61)\n    tag_63:\n        /* \"#utility.yul\":1564:1578   */\n      pop\n        /* \"#utility.yul\":1860:1863   */\n      dup6\n        /* \"#utility.yul\":1853:1863   */\n      swap4\n      pop\n        /* \"#utility.yul\":1261:1869   */\n      pop\n      pop\n      pop\n        /* \"#utility.yul\":1137:1869   */\n      swap3\n      swap2\n      pop\n      pop\n      jump\t// out\n        /* \"#utility.yul\":1875:2248   */\n    tag_9:\n        /* \"#utility.yul\":2018:2022   */\n      0x00\n        /* \"#utility.yul\":2056:2058   */\n      0x20\n        /* \"#utility.yul\":2045:2054   */\n      dup3\n        /* \"#utility.yul\":2041:2059   */\n      add\n        /* \"#utility.yul\":2033:2059   */\n      swap1\n      pop\n        /* \"#utility.yul\":2105:2114   */\n      dup2\n        /* \"#utility.yul\":2099:2103   */\n      dup2\n        /* \"#utility.yul\":2095:2115   */\n      sub\n        /* \"#utility.yul\":2091:2092   */\n      0x00\n        /* \"#utility.yul\":2080:2089   */\n      dup4\n        /* \"#utility.yul\":2076:2093   */\n      add\n        /* \"#utility.yul\":2069:2116   */\n      mstore\n        /* \"#utility.yul\":2133:2241   */\n      tag_67\n        /* \"#utility.yul\":2236:2240   */\n      dup2\n        /* \"#utility.yul\":2227:2233   */\n      dup5\n        /* \"#utility.yul\":2133:2241   */\n      tag_37\n      jump\t// in\n    tag_67:\n        /* \"#utility.yul\":2125:2241   */\n      swap1\n      pop\n        /* \"#utility.yul\":1875:2248   */\n      swap3\n      swap2\n      pop\n      pop\n      jump\t// out\n        /* \"#utility.yul\":2335:2452   */\n    tag_39:\n        /* \"#utility.yul\":2444:2445   */\n      0x00\n        /* \"#utility.yul\":2441:2442   */\n      dup1\n        /* \"#utility.yul\":2434:2446   */\n      revert\n        /* \"#utility.yul\":2581:2658   */\n    tag_41:\n        /* \"#utility.yul\":2618:2625   */\n      0x00\n        /* \"#utility.yul\":2647:2652   */\n      dup2\n        /* \"#utility.yul\":2636:2652   */\n      swap1\n      pop\n        /* \"#utility.yul\":2581:2658   */\n      swap2\n      swap1\n      pop\n      jump\t// out\n        /* \"#utility.yul\":2664:2786   */\n    tag_42:\n        /* \"#utility.yul\":2737:2761   */\n      tag_73\n        /* \"#utility.yul\":2755:2760   */\n      dup2\n        /* \"#utility.yul\":2737:2761   */\n      tag_41\n      jump\t// in\n    tag_73:\n        /* \"#utility.yul\":2730:2735   */\n      dup2\n        /* \"#utility.yul\":2727:2762   */\n      eq\n        /* \"#utility.yul\":2717:2780   */\n      tag_74\n      jumpi\n        /* \"#utility.yul\":2776:2777   */\n      0x00\n        /* \"#utility.yul\":2773:2774   */\n      dup1\n        /* \"#utility.yul\":2766:2778   */\n      revert\n        /* \"#utility.yul\":2717:2780   */\n    tag_74:\n        /* \"#utility.yul\":2664:2786   */\n      pop\n      jump\t// out\n        /* \"#utility.yul\":2792:2931   */\n    tag_43:\n        /* \"#utility.yul\":2838:2843   */\n      0x00\n        /* \"#utility.yul\":2876:2882   */\n      dup2\n        /* \"#utility.yul\":2863:2883   */\n      calldataload\n        /* \"#utility.yul\":2854:2883   */\n      swap1\n      pop\n        /* \"#utility.yul\":2892:2925   */\n      tag_76\n        /* \"#utility.yul\":2919:2924   */\n      dup2\n        /* \"#utility.yul\":2892:2925   */\n      tag_42\n      jump\t// in\n    tag_76:\n        /* \"#utility.yul\":2792:2931   */\n      swap3\n      swap2\n      pop\n      pop\n      jump\t// out\n        /* \"#utility.yul\":2937:3266   */\n    tag_14:\n        /* \"#utility.yul\":2996:3002   */\n      0x00\n        /* \"#utility.yul\":3045:3047   */\n      0x20\n        /* \"#utility.yul\":3033:3042   */\n      dup3\n        /* \"#utility.yul\":3024:3031   */\n      dup5\n        /* \"#utility.yul\":3020:3043   */\n      sub\n        /* \"#utility.yul\":3016:3048   */\n      slt\n        /* \"#utility.yul\":3013:3132   */\n      iszero\n      tag_78\n      jumpi\n        /* \"#utility.yul\":3051:3130   */\n      tag_79\n      tag_39\n      jump\t// in\n    tag_79:\n        /* \"#utility.yul\":3013:3132   */\n    tag_78:\n        /* \"#utility.yul\":3171:3172   */\n      0x00\n        /* \"#utility.yul\":3196:3249   */\n      tag_80\n        /* \"#utility.yul\":3241:3248   */\n      dup5\n        /* \"#utility.yul\":3232:3238   */\n      dup3\n        /* \"#utility.yul\":3221:3230   */\n      dup6\n        /* \"#utility.yul\":3217:3239   */\n      add\n        /* \"#utility.yul\":3196:3249   */\n      tag_43\n      jump\t// in\n    tag_80:\n        /* \"#utility.yul\":3186:3249   */\n      swap2\n      pop\n        /* \"#utility.yul\":3142:3259   */\n      pop\n        /* \"#utility.yul\":2937:3266   */\n      swap3\n      swap2\n      pop\n      pop\n      jump\t// out\n        /* \"#utility.yul\":3272:3390   */\n    tag_44:\n        /* \"#utility.yul\":3359:3383   */\n      tag_82\n        /* \"#utility.yul\":3377:3382   */\n      dup2\n        /* \"#utility.yul\":3359:3383   */\n      tag_33\n      jump\t// in\n    tag_82:\n        /* \"#utility.yul\":3354:3357   */\n      dup3\n        /* \"#utility.yul\":3347:3384   */\n      mstore\n        /* \"#utility.yul\":3272:3390   */\n      pop\n      pop\n      jump\t// out\n        /* \"#utility.yul\":3396:3618   */\n    tag_17:\n        /* \"#utility.yul\":3489:3493   */\n      0x00\n        /* \"#utility.yul\":3527:3529   */\n      0x20\n        /* \"#utility.yul\":3516:3525   */\n      dup3\n        /* \"#utility.yul\":3512:3530   */\n      add\n        /* \"#utility.yul\":3504:3530   */\n      swap1\n      pop\n        /* \"#utility.yul\":3540:3611   */\n      tag_84\n        /* \"#utility.yul\":3608:3609   */\n      0x00\n        /* \"#utility.yul\":3597:3606   */\n      dup4\n        /* \"#utility.yul\":3593:3610   */\n      add\n        /* \"#utility.yul\":3584:3590   */\n      dup5\n        /* \"#utility.yul\":3540:3611   */\n      tag_44\n      jump\t// in\n    tag_84:\n        /* \"#utility.yul\":3396:3618   */\n      swap3\n      swap2\n      pop\n      pop\n      jump\t// out\n    stop\n\n    sub_0: assembly {\n            /* \"smartwill.sol\":505:1636  contract SmartWill {... */\n          mstore(0x40, 0x80)\n            /* \"smartwill.sol\":815:881  constructor (address _manager) {... */\n          callvalue\n          dup1\n          iszero\n          tag_1\n          jumpi\n          0x00\n          dup1\n          revert\n        tag_1:\n          pop\n          mload(0x40)\n          sub(codesize, bytecodeSize)\n          dup1\n          bytecodeSize\n          dup4\n          codecopy\n          dup2\n          dup2\n          add\n          0x40\n          mstore\n          dup2\n          add\n          swap1\n          tag_2\n          swap2\n          swap1\n          tag_3\n          jump\t// in\n        tag_2:\n            /* \"smartwill.sol\":866:874  _manager */\n          dup1\n            /* \"smartwill.sol\":856:863  manager */\n          0x00\n          dup1\n            /* \"smartwill.sol\":856:874  manager = _manager */\n          0x0100\n          exp\n          dup2\n          sload\n          dup2\n          0xffffffffffffffffffffffffffffffffffffffff\n          mul\n          not\n          and\n          swap1\n          dup4\n          0xffffffffffffffffffffffffffffffffffffffff\n          and\n          mul\n          or\n          swap1\n          sstore\n          pop\n            /* \"smartwill.sol\":815:881  constructor (address _manager) {... */\n          pop\n            /* \"smartwill.sol\":505:1636  contract SmartWill {... */\n          jump(tag_6)\n            /* \"#utility.yul\":88:205   */\n        tag_8:\n            /* \"#utility.yul\":197:198   */\n          0x00\n            /* \"#utility.yul\":194:195   */\n          dup1\n            /* \"#utility.yul\":187:199   */\n          revert\n            /* \"#utility.yul\":334:460   */\n        tag_10:\n            /* \"#utility.yul\":371:378   */\n          0x00\n            /* \"#utility.yul\":411:453   */\n          0xffffffffffffffffffffffffffffffffffffffff\n            /* \"#utility.yul\":404:409   */\n          dup3\n            /* \"#utility.yul\":400:454   */\n          and\n            /* \"#utility.yul\":389:454   */\n          swap1\n          pop\n            /* \"#utility.yul\":334:460   */\n          swap2\n          swap1\n          pop\n          jump\t// out\n            /* \"#utility.yul\":466:562   */\n        tag_11:\n            /* \"#utility.yul\":503:510   */\n          0x00\n            /* \"#utility.yul\":532:556   */\n          tag_20\n            /* \"#utility.yul\":550:555   */\n          dup3\n            /* \"#utility.yul\":532:556   */\n          tag_10\n          jump\t// in\n        tag_20:\n            /* \"#utility.yul\":521:556   */\n          swap1\n          pop\n            /* \"#utility.yul\":466:562   */\n          swap2\n          swap1\n          pop\n          jump\t// out\n            /* \"#utility.yul\":568:690   */\n        tag_12:\n            /* \"#utility.yul\":641:665   */\n          tag_22\n            /* \"#utility.yul\":659:664   */\n          dup2\n            /* \"#utility.yul\":641:665   */\n          tag_11\n          jump\t// in\n        tag_22:\n            /* \"#utility.yul\":634:639   */\n          dup2\n            /* \"#utility.yul\":631:666   */\n          eq\n            /* \"#utility.yul\":621:684   */\n          tag_23\n          jumpi\n            /* \"#utility.yul\":680:681   */\n          0x00\n            /* \"#utility.yul\":677:678   */\n          dup1\n            /* \"#utility.yul\":670:682   */\n          revert\n            /* \"#utility.yul\":621:684   */\n        tag_23:\n            /* \"#utility.yul\":568:690   */\n          pop\n          jump\t// out\n            /* \"#utility.yul\":696:839   */\n        tag_13:\n            /* \"#utility.yul\":753:758   */\n          0x00\n            /* \"#utility.yul\":784:790   */\n          dup2\n            /* \"#utility.yul\":778:791   */\n          mload\n            /* \"#utility.yul\":769:791   */\n          swap1\n          pop\n            /* \"#utility.yul\":800:833   */\n          tag_25\n            /* \"#utility.yul\":827:832   */\n          dup2\n            /* \"#utility.yul\":800:833   */\n          tag_12\n          jump\t// in\n        tag_25:\n            /* \"#utility.yul\":696:839   */\n          swap3\n          swap2\n          pop\n          pop\n          jump\t// out\n            /* \"#utility.yul\":845:1196   */\n        tag_3:\n            /* \"#utility.yul\":915:921   */\n          0x00\n            /* \"#utility.yul\":964:966   */\n          0x20\n            /* \"#utility.yul\":952:961   */\n          dup3\n            /* \"#utility.yul\":943:950   */\n          dup5\n            /* \"#utility.yul\":939:962   */\n          sub\n            /* \"#utility.yul\":935:967   */\n          slt\n            /* \"#utility.yul\":932:1051   */\n          iszero\n          tag_27\n          jumpi\n            /* \"#utility.yul\":970:1049   */\n          tag_28\n          tag_8\n          jump\t// in\n        tag_28:\n            /* \"#utility.yul\":932:1051   */\n        tag_27:\n            /* \"#utility.yul\":1090:1091   */\n          0x00\n            /* \"#utility.yul\":1115:1179   */\n          tag_29\n            /* \"#utility.yul\":1171:1178   */\n          dup5\n            /* \"#utility.yul\":1162:1168   */\n          dup3\n            /* \"#utility.yul\":1151:1160   */\n          dup6\n            /* \"#utility.yul\":1147:1169   */\n          add\n            /* \"#utility.yul\":1115:1179   */\n          tag_13\n          jump\t// in\n        tag_29:\n            /* \"#utility.yul\":1105:1179   */\n          swap2\n          pop\n            /* \"#utility.yul\":1061:1189   */\n          pop\n            /* \"#utility.yul\":845:1196   */\n          swap3\n          swap2\n          pop\n          pop\n          jump\t// out\n            /* \"smartwill.sol\":505:1636  contract SmartWill {... */\n        tag_6:\n          dataSize(sub_0)\n          dup1\n          dataOffset(sub_0)\n          0x00\n          codecopy\n          0x00\n          return\n        stop\n\n        sub_0: assembly {\n                /* \"smartwill.sol\":505:1636  contract SmartWill {... */\n              mstore(0x40, 0x80)\n              callvalue\n              dup1\n              iszero\n              tag_1\n              jumpi\n              0x00\n              dup1\n              revert\n            tag_1:\n              pop\n              jumpi(tag_2, lt(calldatasize, 0x04))\n              shr(0xe0, calldataload(0x00))\n              dup1\n              0x0626756d\n              eq\n              tag_3\n              jumpi\n              dup1\n              0x33f0fb5a\n              eq\n              tag_4\n              jumpi\n              dup1\n              0x481c6a75\n              eq\n              tag_5\n              jumpi\n              dup1\n              0xd580d5f0\n              eq\n              tag_6\n              jumpi\n              dup1\n              0xfee272bb\n              eq\n              tag_7\n              jumpi\n            tag_2:\n              0x00\n              dup1\n              revert\n                /* \"smartwill.sol\":1525:1634  function getDeployedBankAccounts() public view returns(address[] memory) {... */\n            tag_3:\n              tag_8\n              tag_9\n              jump\t// in\n            tag_8:\n              mload(0x40)\n              tag_10\n              swap2\n              swap1\n              tag_11\n              jump\t// in\n            tag_10:\n              mload(0x40)\n              dup1\n              swap2\n              sub\n              swap1\n              return\n                /* \"smartwill.sol\":580:609  address[] public bankAccounts */\n            tag_4:\n              tag_12\n              0x04\n              dup1\n              calldatasize\n              sub\n              dup2\n              add\n              swap1\n              tag_13\n              swap2\n              swap1\n              tag_14\n              jump\t// in\n            tag_13:\n              tag_15\n              jump\t// in\n            tag_12:\n              mload(0x40)\n              tag_16\n              swap2\n              swap1\n              tag_17\n              jump\t// in\n            tag_16:\n              mload(0x40)\n              dup1\n              swap2\n              sub\n              swap1\n              return\n                /* \"smartwill.sol\":552:574  address public manager */\n            tag_5:\n              tag_18\n              tag_19\n              jump\t// in\n            tag_18:\n              mload(0x40)\n              tag_20\n              swap2\n              swap1\n              tag_17\n              jump\t// in\n            tag_20:\n              mload(0x40)\n              dup1\n              swap2\n              sub\n              swap1\n              return\n                /* \"smartwill.sol\":615:644  uint public bankAccountsCount */\n            tag_6:\n              tag_21\n              tag_22\n              jump\t// in\n            tag_21:\n              mload(0x40)\n              tag_23\n              swap2\n              swap1\n              tag_24\n              jump\t// in\n            tag_23:\n              mload(0x40)\n              dup1\n              swap2\n              sub\n              swap1\n              return\n                /* \"smartwill.sol\":959:1468  function createBankAccount(... */\n            tag_7:\n              tag_25\n              0x04\n              dup1\n              calldatasize\n              sub\n              dup2\n              add\n              swap1\n              tag_26\n              swap2\n              swap1\n              tag_27\n              jump\t// in\n            tag_26:\n              tag_28\n              jump\t// in\n            tag_25:\n              stop\n                /* \"smartwill.sol\":1525:1634  function getDeployedBankAccounts() public view returns(address[] memory) {... */\n            tag_9:\n                /* \"smartwill.sol\":1580:1596  address[] memory */\n              0x60\n                /* \"smartwill.sol\":1615:1627  bankAccounts */\n              0x01\n                /* \"smartwill.sol\":1608:1627  return bankAccounts */\n              dup1\n              sload\n              dup1\n              0x20\n              mul\n              0x20\n              add\n              mload(0x40)\n              swap1\n              dup2\n              add\n              0x40\n              mstore\n              dup1\n              swap3\n              swap2\n              swap1\n              dup2\n              dup2\n              mstore\n              0x20\n              add\n              dup3\n              dup1\n              sload\n              dup1\n              iszero\n              tag_30\n              jumpi\n              0x20\n              mul\n              dup3\n              add\n              swap2\n              swap1\n              0x00\n              mstore\n              keccak256(0x00, 0x20)\n              swap1\n            tag_31:\n              dup2\n              0x00\n              swap1\n              sload\n              swap1\n              0x0100\n              exp\n              swap1\n              div\n              0xffffffffffffffffffffffffffffffffffffffff\n              and\n              0xffffffffffffffffffffffffffffffffffffffff\n              and\n              dup2\n              mstore\n              0x20\n              add\n              swap1\n              0x01\n              add\n              swap1\n              dup1\n              dup4\n              gt\n              tag_31\n              jumpi\n            tag_30:\n              pop\n              pop\n              pop\n              pop\n              pop\n              swap1\n              pop\n                /* \"smartwill.sol\":1525:1634  function getDeployedBankAccounts() public view returns(address[] memory) {... */\n              swap1\n              jump\t// out\n                /* \"smartwill.sol\":580:609  address[] public bankAccounts */\n            tag_15:\n              0x01\n              dup2\n              dup2\n              sload\n              dup2\n              lt\n              tag_32\n              jumpi\n              0x00\n              dup1\n              revert\n            tag_32:\n              swap1\n              0x00\n              mstore\n              keccak256(0x00, 0x20)\n              add\n              0x00\n              swap2\n              pop\n              sload\n              swap1\n              0x0100\n              exp\n              swap1\n              div\n              0xffffffffffffffffffffffffffffffffffffffff\n              and\n              dup2\n              jump\t// out\n                /* \"smartwill.sol\":552:574  address public manager */\n            tag_19:\n              0x00\n              dup1\n              sload\n              swap1\n              0x0100\n              exp\n              swap1\n              div\n              0xffffffffffffffffffffffffffffffffffffffff\n              and\n              dup2\n              jump\t// out\n                /* \"smartwill.sol\":615:644  uint public bankAccountsCount */\n            tag_22:\n              sload(0x02)\n              dup2\n              jump\t// out\n                /* \"smartwill.sol\":959:1468  function createBankAccount(... */\n            tag_28:\n                /* \"smartwill.sol\":753:763  msg.sender */\n              caller\n                /* \"smartwill.sol\":742:763  manager == msg.sender */\n              0xffffffffffffffffffffffffffffffffffffffff\n              and\n                /* \"smartwill.sol\":742:749  manager */\n              0x00\n              dup1\n              sload\n              swap1\n              0x0100\n              exp\n              swap1\n              div\n              0xffffffffffffffffffffffffffffffffffffffff\n              and\n                /* \"smartwill.sol\":742:763  manager == msg.sender */\n              0xffffffffffffffffffffffffffffffffffffffff\n              and\n              eq\n                /* \"smartwill.sol\":734:764  require(manager == msg.sender) */\n              tag_35\n              jumpi\n              0x00\n              dup1\n              revert\n            tag_35:\n                /* \"smartwill.sol\":1178:1200  address newBankAccount */\n              0x00\n                /* \"smartwill.sol\":1240:1247  manager */\n              dup1\n              0x00\n              swap1\n              sload\n              swap1\n              0x0100\n              exp\n              swap1\n              div\n              0xffffffffffffffffffffffffffffffffffffffff\n              and\n                /* \"smartwill.sol\":1261:1273  _accountName */\n              dup7\n                /* \"smartwill.sol\":1287:1296  _bankName */\n              dup7\n                /* \"smartwill.sol\":1310:1323  _branchNumber */\n              dup7\n                /* \"smartwill.sol\":1337:1351  _accountNumber */\n              dup7\n                /* \"smartwill.sol\":1365:1378  _accountDigit */\n              dup7\n                /* \"smartwill.sol\":1211:1388  new BankAccount(... */\n              mload(0x40)\n              tag_37\n              swap1\n              tag_38\n              jump\t// in\n            tag_37:\n              tag_39\n              swap7\n              swap6\n              swap5\n              swap4\n              swap3\n              swap2\n              swap1\n              tag_40\n              jump\t// in\n            tag_39:\n              mload(0x40)\n              dup1\n              swap2\n              sub\n              swap1\n              0x00\n              create\n              dup1\n              iszero\n              dup1\n              iszero\n              tag_41\n              jumpi\n              returndatasize\n              0x00\n              dup1\n              returndatacopy\n              revert(0x00, returndatasize)\n            tag_41:\n              pop\n                /* \"smartwill.sol\":1178:1389  address newBankAccount = address(new BankAccount(... */\n              swap1\n              pop\n                /* \"smartwill.sol\":1399:1411  bankAccounts */\n              0x01\n                /* \"smartwill.sol\":1417:1431  newBankAccount */\n              dup2\n                /* \"smartwill.sol\":1399:1432  bankAccounts.push(newBankAccount) */\n              swap1\n              dup1\n              0x01\n              dup2\n              sload\n              add\n              dup1\n              dup3\n              sstore\n              dup1\n              swap2\n              pop\n              pop\n              0x01\n              swap1\n              sub\n              swap1\n              0x00\n              mstore\n              keccak256(0x00, 0x20)\n              add\n              0x00\n              swap1\n              swap2\n              swap1\n              swap2\n              swap1\n              swap2\n              0x0100\n              exp\n              dup2\n              sload\n              dup2\n              0xffffffffffffffffffffffffffffffffffffffff\n              mul\n              not\n              and\n              swap1\n              dup4\n              0xffffffffffffffffffffffffffffffffffffffff\n              and\n              mul\n              or\n              swap1\n              sstore\n              pop\n                /* \"smartwill.sol\":1442:1459  bankAccountsCount */\n              0x02\n              0x00\n                /* \"smartwill.sol\":1442:1461  bankAccountsCount++ */\n              dup2\n              sload\n              dup1\n              swap3\n              swap2\n              swap1\n              tag_43\n              swap1\n              tag_44\n              jump\t// in\n            tag_43:\n              swap2\n              swap1\n              pop\n              sstore\n              pop\n                /* \"smartwill.sol\":1168:1468  {... */\n              pop\n                /* \"smartwill.sol\":959:1468  function createBankAccount(... */\n              pop\n              pop\n              pop\n              pop\n              pop\n              jump\t// out\n            tag_38:\n              dataSize(sub_0)\n              dup1\n              dataOffset(sub_0)\n              dup4\n              codecopy\n              add\n              swap1\n              jump\t// out\n                /* \"#utility.yul\":7:121   */\n            tag_45:\n                /* \"#utility.yul\":74:80   */\n              0x00\n                /* \"#utility.yul\":108:113   */\n              dup2\n                /* \"#utility.yul\":102:114   */\n              mload\n                /* \"#utility.yul\":92:114   */\n              swap1\n              pop\n                /* \"#utility.yul\":7:121   */\n              swap2\n              swap1\n              pop\n              jump\t// out\n                /* \"#utility.yul\":127:311   */\n            tag_46:\n                /* \"#utility.yul\":226:237   */\n              0x00\n                /* \"#utility.yul\":260:266   */\n              dup3\n                /* \"#utility.yul\":255:258   */\n              dup3\n                /* \"#utility.yul\":248:267   */\n              mstore\n                /* \"#utility.yul\":300:304   */\n              0x20\n                /* \"#utility.yul\":295:298   */\n              dup3\n                /* \"#utility.yul\":291:305   */\n              add\n                /* \"#utility.yul\":276:305   */\n              swap1\n              pop\n                /* \"#utility.yul\":127:311   */\n              swap3\n              swap2\n              pop\n              pop\n              jump\t// out\n                /* \"#utility.yul\":317:449   */\n            tag_47:\n                /* \"#utility.yul\":384:388   */\n              0x00\n                /* \"#utility.yul\":407:410   */\n              dup2\n                /* \"#utility.yul\":399:410   */\n              swap1\n              pop\n                /* \"#utility.yul\":437:441   */\n              0x20\n                /* \"#utility.yul\":432:435   */\n              dup3\n                /* \"#utility.yul\":428:442   */\n              add\n                /* \"#utility.yul\":420:442   */\n              swap1\n              pop\n                /* \"#utility.yul\":317:449   */\n              swap2\n              swap1\n              pop\n              jump\t// out\n                /* \"#utility.yul\":455:581   */\n            tag_48:\n                /* \"#utility.yul\":492:499   */\n              0x00\n                /* \"#utility.yul\":532:574   */\n              0xffffffffffffffffffffffffffffffffffffffff\n                /* \"#utility.yul\":525:530   */\n              dup3\n                /* \"#utility.yul\":521:575   */\n              and\n                /* \"#utility.yul\":510:575   */\n              swap1\n              pop\n                /* \"#utility.yul\":455:581   */\n              swap2\n              swap1\n              pop\n              jump\t// out\n                /* \"#utility.yul\":587:683   */\n            tag_49:\n                /* \"#utility.yul\":624:631   */\n              0x00\n                /* \"#utility.yul\":653:677   */\n              tag_83\n                /* \"#utility.yul\":671:676   */\n              dup3\n                /* \"#utility.yul\":653:677   */\n              tag_48\n              jump\t// in\n            tag_83:\n                /* \"#utility.yul\":642:677   */\n              swap1\n              pop\n                /* \"#utility.yul\":587:683   */\n              swap2\n              swap1\n              pop\n              jump\t// out\n                /* \"#utility.yul\":689:797   */\n            tag_50:\n                /* \"#utility.yul\":766:790   */\n              tag_85\n                /* \"#utility.yul\":784:789   */\n              dup2\n                /* \"#utility.yul\":766:790   */\n              tag_49\n              jump\t// in\n            tag_85:\n                /* \"#utility.yul\":761:764   */\n              dup3\n                /* \"#utility.yul\":754:791   */\n              mstore\n                /* \"#utility.yul\":689:797   */\n              pop\n              pop\n              jump\t// out\n                /* \"#utility.yul\":803:982   */\n            tag_51:\n                /* \"#utility.yul\":872:882   */\n              0x00\n                /* \"#utility.yul\":893:939   */\n              tag_87\n                /* \"#utility.yul\":935:938   */\n              dup4\n                /* \"#utility.yul\":927:933   */\n              dup4\n                /* \"#utility.yul\":893:939   */\n              tag_50\n              jump\t// in\n            tag_87:\n                /* \"#utility.yul\":971:975   */\n              0x20\n                /* \"#utility.yul\":966:969   */\n              dup4\n                /* \"#utility.yul\":962:976   */\n              add\n                /* \"#utility.yul\":948:976   */\n              swap1\n              pop\n                /* \"#utility.yul\":803:982   */\n              swap3\n              swap2\n              pop\n              pop\n              jump\t// out\n                /* \"#utility.yul\":988:1101   */\n            tag_52:\n                /* \"#utility.yul\":1058:1062   */\n              0x00\n                /* \"#utility.yul\":1090:1094   */\n              0x20\n                /* \"#utility.yul\":1085:1088   */\n              dup3\n                /* \"#utility.yul\":1081:1095   */\n              add\n                /* \"#utility.yul\":1073:1095   */\n              swap1\n              pop\n                /* \"#utility.yul\":988:1101   */\n              swap2\n              swap1\n              pop\n              jump\t// out\n                /* \"#utility.yul\":1137:1869   */\n            tag_53:\n                /* \"#utility.yul\":1256:1259   */\n              0x00\n                /* \"#utility.yul\":1285:1339   */\n              tag_90\n                /* \"#utility.yul\":1333:1338   */\n              dup3\n                /* \"#utility.yul\":1285:1339   */\n              tag_45\n              jump\t// in\n            tag_90:\n                /* \"#utility.yul\":1355:1441   */\n              tag_91\n                /* \"#utility.yul\":1434:1440   */\n              dup2\n                /* \"#utility.yul\":1429:1432   */\n              dup6\n                /* \"#utility.yul\":1355:1441   */\n              tag_46\n              jump\t// in\n            tag_91:\n                /* \"#utility.yul\":1348:1441   */\n              swap4\n              pop\n                /* \"#utility.yul\":1465:1521   */\n              tag_92\n                /* \"#utility.yul\":1515:1520   */\n              dup4\n                /* \"#utility.yul\":1465:1521   */\n              tag_47\n              jump\t// in\n            tag_92:\n                /* \"#utility.yul\":1544:1551   */\n              dup1\n                /* \"#utility.yul\":1575:1576   */\n              0x00\n                /* \"#utility.yul\":1560:1844   */\n            tag_93:\n                /* \"#utility.yul\":1585:1591   */\n              dup4\n                /* \"#utility.yul\":1582:1583   */\n              dup2\n                /* \"#utility.yul\":1579:1592   */\n              lt\n                /* \"#utility.yul\":1560:1844   */\n              iszero\n              tag_95\n              jumpi\n                /* \"#utility.yul\":1661:1667   */\n              dup2\n                /* \"#utility.yul\":1655:1668   */\n              mload\n                /* \"#utility.yul\":1688:1751   */\n              tag_96\n                /* \"#utility.yul\":1747:1750   */\n              dup9\n                /* \"#utility.yul\":1732:1745   */\n              dup3\n                /* \"#utility.yul\":1688:1751   */\n              tag_51\n              jump\t// in\n            tag_96:\n                /* \"#utility.yul\":1681:1751   */\n              swap8\n              pop\n                /* \"#utility.yul\":1774:1834   */\n              tag_97\n                /* \"#utility.yul\":1827:1833   */\n              dup4\n                /* \"#utility.yul\":1774:1834   */\n              tag_52\n              jump\t// in\n            tag_97:\n                /* \"#utility.yul\":1764:1834   */\n              swap3\n              pop\n                /* \"#utility.yul\":1620:1844   */\n              pop\n                /* \"#utility.yul\":1607:1608   */\n              0x01\n                /* \"#utility.yul\":1604:1605   */\n              dup2\n                /* \"#utility.yul\":1600:1609   */\n              add\n                /* \"#utility.yul\":1595:1609   */\n              swap1\n              pop\n                /* \"#utility.yul\":1560:1844   */\n              jump(tag_93)\n            tag_95:\n                /* \"#utility.yul\":1564:1578   */\n              pop\n                /* \"#utility.yul\":1860:1863   */\n              dup6\n                /* \"#utility.yul\":1853:1863   */\n              swap4\n              pop\n                /* \"#utility.yul\":1261:1869   */\n              pop\n              pop\n              pop\n                /* \"#utility.yul\":1137:1869   */\n              swap3\n              swap2\n              pop\n              pop\n              jump\t// out\n                /* \"#utility.yul\":1875:2248   */\n            tag_11:\n                /* \"#utility.yul\":2018:2022   */\n              0x00\n                /* \"#utility.yul\":2056:2058   */\n              0x20\n                /* \"#utility.yul\":2045:2054   */\n              dup3\n                /* \"#utility.yul\":2041:2059   */\n              add\n                /* \"#utility.yul\":2033:2059   */\n              swap1\n              pop\n                /* \"#utility.yul\":2105:2114   */\n              dup2\n                /* \"#utility.yul\":2099:2103   */\n              dup2\n                /* \"#utility.yul\":2095:2115   */\n              sub\n                /* \"#utility.yul\":2091:2092   */\n              0x00\n                /* \"#utility.yul\":2080:2089   */\n              dup4\n                /* \"#utility.yul\":2076:2093   */\n              add\n                /* \"#utility.yul\":2069:2116   */\n              mstore\n                /* \"#utility.yul\":2133:2241   */\n              tag_99\n                /* \"#utility.yul\":2236:2240   */\n              dup2\n                /* \"#utility.yul\":2227:2233   */\n              dup5\n                /* \"#utility.yul\":2133:2241   */\n              tag_53\n              jump\t// in\n            tag_99:\n                /* \"#utility.yul\":2125:2241   */\n              swap1\n              pop\n                /* \"#utility.yul\":1875:2248   */\n              swap3\n              swap2\n              pop\n              pop\n              jump\t// out\n                /* \"#utility.yul\":2254:2329   */\n            tag_54:\n                /* \"#utility.yul\":2287:2293   */\n              0x00\n                /* \"#utility.yul\":2320:2322   */\n              0x40\n                /* \"#utility.yul\":2314:2323   */\n              mload\n                /* \"#utility.yul\":2304:2323   */\n              swap1\n              pop\n                /* \"#utility.yul\":2254:2329   */\n              swap1\n              jump\t// out\n                /* \"#utility.yul\":2335:2452   */\n            tag_55:\n                /* \"#utility.yul\":2444:2445   */\n              0x00\n                /* \"#utility.yul\":2441:2442   */\n              dup1\n                /* \"#utility.yul\":2434:2446   */\n              revert\n                /* \"#utility.yul\":2458:2575   */\n            tag_56:\n                /* \"#utility.yul\":2567:2568   */\n              0x00\n                /* \"#utility.yul\":2564:2565   */\n              dup1\n                /* \"#utility.yul\":2557:2569   */\n              revert\n                /* \"#utility.yul\":2581:2658   */\n            tag_57:\n                /* \"#utility.yul\":2618:2625   */\n              0x00\n                /* \"#utility.yul\":2647:2652   */\n              dup2\n                /* \"#utility.yul\":2636:2652   */\n              swap1\n              pop\n                /* \"#utility.yul\":2581:2658   */\n              swap2\n              swap1\n              pop\n              jump\t// out\n                /* \"#utility.yul\":2664:2786   */\n            tag_58:\n                /* \"#utility.yul\":2737:2761   */\n              tag_105\n                /* \"#utility.yul\":2755:2760   */\n              dup2\n                /* \"#utility.yul\":2737:2761   */\n              tag_57\n              jump\t// in\n            tag_105:\n                /* \"#utility.yul\":2730:2735   */\n              dup2\n                /* \"#utility.yul\":2727:2762   */\n              eq\n                /* \"#utility.yul\":2717:2780   */\n              tag_106\n              jumpi\n                /* \"#utility.yul\":2776:2777   */\n              0x00\n                /* \"#utility.yul\":2773:2774   */\n              dup1\n                /* \"#utility.yul\":2766:2778   */\n              revert\n                /* \"#utility.yul\":2717:2780   */\n            tag_106:\n                /* \"#utility.yul\":2664:2786   */\n              pop\n              jump\t// out\n                /* \"#utility.yul\":2792:2931   */\n            tag_59:\n                /* \"#utility.yul\":2838:2843   */\n              0x00\n                /* \"#utility.yul\":2876:2882   */\n              dup2\n                /* \"#utility.yul\":2863:2883   */\n              calldataload\n                /* \"#utility.yul\":2854:2883   */\n              swap1\n              pop\n                /* \"#utility.yul\":2892:2925   */\n              tag_108\n                /* \"#utility.yul\":2919:2924   */\n              dup2\n                /* \"#utility.yul\":2892:2925   */\n              tag_58\n              jump\t// in\n            tag_108:\n                /* \"#utility.yul\":2792:2931   */\n              swap3\n              swap2\n              pop\n              pop\n              jump\t// out\n                /* \"#utility.yul\":2937:3266   */\n            tag_14:\n                /* \"#utility.yul\":2996:3002   */\n              0x00\n                /* \"#utility.yul\":3045:3047   */\n              0x20\n                /* \"#utility.yul\":3033:3042   */\n              dup3\n                /* \"#utility.yul\":3024:3031   */\n              dup5\n                /* \"#utility.yul\":3020:3043   */\n              sub\n                /* \"#utility.yul\":3016:3048   */\n              slt\n                /* \"#utility.yul\":3013:3132   */\n              iszero\n              tag_110\n              jumpi\n                /* \"#utility.yul\":3051:3130   */\n              tag_111\n              tag_55\n              jump\t// in\n            tag_111:\n                /* \"#utility.yul\":3013:3132   */\n            tag_110:\n                /* \"#utility.yul\":3171:3172   */\n              0x00\n                /* \"#utility.yul\":3196:3249   */\n              tag_112\n                /* \"#utility.yul\":3241:3248   */\n              dup5\n                /* \"#utility.yul\":3232:3238   */\n              dup3\n                /* \"#utility.yul\":3221:3230   */\n              dup6\n                /* \"#utility.yul\":3217:3239   */\n              add\n                /* \"#utility.yul\":3196:3249   */\n              tag_59\n              jump\t// in\n            tag_112:\n                /* \"#utility.yul\":3186:3249   */\n              swap2\n              pop\n                /* \"#utility.yul\":3142:3259   */\n              pop\n                /* \"#utility.yul\":2937:3266   */\n              swap3\n              swap2\n              pop\n              pop\n              jump\t// out\n                /* \"#utility.yul\":3272:3390   */\n            tag_60:\n                /* \"#utility.yul\":3359:3383   */\n              tag_114\n                /* \"#utility.yul\":3377:3382   */\n              dup2\n                /* \"#utility.yul\":3359:3383   */\n              tag_49\n              jump\t// in\n            tag_114:\n                /* \"#utility.yul\":3354:3357   */\n              dup3\n                /* \"#utility.yul\":3347:3384   */\n              mstore\n                /* \"#utility.yul\":3272:3390   */\n              pop\n              pop\n              jump\t// out\n                /* \"#utility.yul\":3396:3618   */\n            tag_17:\n                /* \"#utility.yul\":3489:3493   */\n              0x00\n                /* \"#utility.yul\":3527:3529   */\n              0x20\n                /* \"#utility.yul\":3516:3525   */\n              dup3\n                /* \"#utility.yul\":3512:3530   */\n              add\n                /* \"#utility.yul\":3504:3530   */\n              swap1\n              pop\n                /* \"#utility.yul\":3540:3611   */\n              tag_116\n                /* \"#utility.yul\":3608:3609   */\n              0x00\n                /* \"#utility.yul\":3597:3606   */\n              dup4\n                /* \"#utility.yul\":3593:3610   */\n              add\n                /* \"#utility.yul\":3584:3590   */\n              dup5\n                /* \"#utility.yul\":3540:3611   */\n              tag_60\n              jump\t// in\n            tag_116:\n                /* \"#utility.yul\":3396:3618   */\n              swap3\n              swap2\n              pop\n              pop\n              jump\t// out\n                /* \"#utility.yul\":3624:3742   */\n            tag_61:\n                /* \"#utility.yul\":3711:3735   */\n              tag_118\n                /* \"#utility.yul\":3729:3734   */\n              dup2\n                /* \"#utility.yul\":3711:3735   */\n              tag_57\n              jump\t// in\n            tag_118:\n                /* \"#utility.yul\":3706:3709   */\n              dup3\n                /* \"#utility.yul\":3699:3736   */\n              mstore\n                /* \"#utility.yul\":3624:3742   */\n              pop\n              pop\n              jump\t// out\n                /* \"#utility.yul\":3748:3970   */\n            tag_24:\n                /* \"#utility.yul\":3841:3845   */\n              0x00\n                /* \"#utility.yul\":3879:3881   */\n              0x20\n                /* \"#utility.yul\":3868:3877   */\n              dup3\n                /* \"#utility.yul\":3864:3882   */\n              add\n                /* \"#utility.yul\":3856:3882   */\n              swap1\n              pop\n                /* \"#utility.yul\":3892:3963   */\n              tag_120\n                /* \"#utility.yul\":3960:3961   */\n              0x00\n                /* \"#utility.yul\":3949:3958   */\n              dup4\n                /* \"#utility.yul\":3945:3962   */\n              add\n                /* \"#utility.yul\":3936:3942   */\n              dup5\n                /* \"#utility.yul\":3892:3963   */\n              tag_61\n              jump\t// in\n            tag_120:\n                /* \"#utility.yul\":3748:3970   */\n              swap3\n              swap2\n              pop\n              pop\n              jump\t// out\n                /* \"#utility.yul\":3976:4093   */\n            tag_62:\n                /* \"#utility.yul\":4085:4086   */\n              0x00\n                /* \"#utility.yul\":4082:4083   */\n              dup1\n                /* \"#utility.yul\":4075:4087   */\n              revert\n                /* \"#utility.yul\":4099:4216   */\n            tag_63:\n                /* \"#utility.yul\":4208:4209   */\n              0x00\n                /* \"#utility.yul\":4205:4206   */\n              dup1\n                /* \"#utility.yul\":4198:4210   */\n              revert\n                /* \"#utility.yul\":4222:4324   */\n            tag_64:\n                /* \"#utility.yul\":4263:4269   */\n              0x00\n                /* \"#utility.yul\":4314:4316   */\n              0x1f\n                /* \"#utility.yul\":4310:4317   */\n              not\n                /* \"#utility.yul\":4305:4307   */\n              0x1f\n                /* \"#utility.yul\":4298:4303   */\n              dup4\n                /* \"#utility.yul\":4294:4308   */\n              add\n                /* \"#utility.yul\":4290:4318   */\n              and\n                /* \"#utility.yul\":4280:4318   */\n              swap1\n              pop\n                /* \"#utility.yul\":4222:4324   */\n              swap2\n              swap1\n              pop\n              jump\t// out\n                /* \"#utility.yul\":4330:4510   */\n            tag_65:\n                /* \"#utility.yul\":4378:4455   */\n              0x4e487b7100000000000000000000000000000000000000000000000000000000\n                /* \"#utility.yul\":4375:4376   */\n              0x00\n                /* \"#utility.yul\":4368:4456   */\n              mstore\n                /* \"#utility.yul\":4475:4479   */\n              0x41\n                /* \"#utility.yul\":4472:4473   */\n              0x04\n                /* \"#utility.yul\":4465:4480   */\n              mstore\n                /* \"#utility.yul\":4499:4503   */\n              0x24\n                /* \"#utility.yul\":4496:4497   */\n              0x00\n                /* \"#utility.yul\":4489:4504   */\n              revert\n                /* \"#utility.yul\":4516:4797   */\n            tag_66:\n                /* \"#utility.yul\":4599:4626   */\n              tag_126\n                /* \"#utility.yul\":4621:4625   */\n              dup3\n                /* \"#utility.yul\":4599:4626   */\n              tag_64\n              jump\t// in\n            tag_126:\n                /* \"#utility.yul\":4591:4597   */\n              dup2\n                /* \"#utility.yul\":4587:4627   */\n              add\n                /* \"#utility.yul\":4729:4735   */\n              dup2\n                /* \"#utility.yul\":4717:4727   */\n              dup2\n                /* \"#utility.yul\":4714:4736   */\n              lt\n                /* \"#utility.yul\":4693:4711   */\n              0xffffffffffffffff\n                /* \"#utility.yul\":4681:4691   */\n              dup3\n                /* \"#utility.yul\":4678:4712   */\n              gt\n                /* \"#utility.yul\":4675:4737   */\n              or\n                /* \"#utility.yul\":4672:4760   */\n              iszero\n              tag_127\n              jumpi\n                /* \"#utility.yul\":4740:4758   */\n              tag_128\n              tag_65\n              jump\t// in\n            tag_128:\n                /* \"#utility.yul\":4672:4760   */\n            tag_127:\n                /* \"#utility.yul\":4780:4790   */\n              dup1\n                /* \"#utility.yul\":4776:4778   */\n              0x40\n                /* \"#utility.yul\":4769:4791   */\n              mstore\n                /* \"#utility.yul\":4559:4797   */\n              pop\n                /* \"#utility.yul\":4516:4797   */\n              pop\n              pop\n              jump\t// out\n                /* \"#utility.yul\":4803:4932   */\n            tag_67:\n                /* \"#utility.yul\":4837:4843   */\n              0x00\n                /* \"#utility.yul\":4864:4884   */\n              tag_130\n              tag_54\n              jump\t// in\n            tag_130:\n                /* \"#utility.yul\":4854:4884   */\n              swap1\n              pop\n                /* \"#utility.yul\":4893:4926   */\n              tag_131\n                /* \"#utility.yul\":4921:4925   */\n              dup3\n                /* \"#utility.yul\":4913:4919   */\n              dup3\n                /* \"#utility.yul\":4893:4926   */\n              tag_66\n              jump\t// in\n            tag_131:\n                /* \"#utility.yul\":4803:4932   */\n              swap2\n              swap1\n              pop\n              jump\t// out\n                /* \"#utility.yul\":4938:5246   */\n            tag_68:\n                /* \"#utility.yul\":5000:5004   */\n              0x00\n                /* \"#utility.yul\":5090:5108   */\n              0xffffffffffffffff\n                /* \"#utility.yul\":5082:5088   */\n              dup3\n                /* \"#utility.yul\":5079:5109   */\n              gt\n                /* \"#utility.yul\":5076:5132   */\n              iszero\n              tag_133\n              jumpi\n                /* \"#utility.yul\":5112:5130   */\n              tag_134\n              tag_65\n              jump\t// in\n            tag_134:\n                /* \"#utility.yul\":5076:5132   */\n            tag_133:\n                /* \"#utility.yul\":5150:5179   */\n              tag_135\n                /* \"#utility.yul\":5172:5178   */\n              dup3\n                /* \"#utility.yul\":5150:5179   */\n              tag_64\n              jump\t// in\n            tag_135:\n                /* \"#utility.yul\":5142:5179   */\n              swap1\n              pop\n                /* \"#utility.yul\":5234:5238   */\n              0x20\n                /* \"#utility.yul\":5228:5232   */\n              dup2\n                /* \"#utility.yul\":5224:5239   */\n              add\n                /* \"#utility.yul\":5216:5239   */\n              swap1\n              pop\n                /* \"#utility.yul\":4938:5246   */\n              swap2\n              swap1\n              pop\n              jump\t// out\n                /* \"#utility.yul\":5252:5406   */\n            tag_69:\n                /* \"#utility.yul\":5336:5342   */\n              dup3\n                /* \"#utility.yul\":5331:5334   */\n              dup2\n                /* \"#utility.yul\":5326:5329   */\n              dup4\n                /* \"#utility.yul\":5313:5343   */\n              calldatacopy\n                /* \"#utility.yul\":5398:5399   */\n              0x00\n                /* \"#utility.yul\":5389:5395   */\n              dup4\n                /* \"#utility.yul\":5384:5387   */\n              dup4\n                /* \"#utility.yul\":5380:5396   */\n              add\n                /* \"#utility.yul\":5373:5400   */\n              mstore\n                /* \"#utility.yul\":5252:5406   */\n              pop\n              pop\n              pop\n              jump\t// out\n                /* \"#utility.yul\":5412:5824   */\n            tag_70:\n                /* \"#utility.yul\":5490:5495   */\n              0x00\n                /* \"#utility.yul\":5515:5581   */\n              tag_138\n                /* \"#utility.yul\":5531:5580   */\n              tag_139\n                /* \"#utility.yul\":5573:5579   */\n              dup5\n                /* \"#utility.yul\":5531:5580   */\n              tag_68\n              jump\t// in\n            tag_139:\n                /* \"#utility.yul\":5515:5581   */\n              tag_67\n              jump\t// in\n            tag_138:\n                /* \"#utility.yul\":5506:5581   */\n              swap1\n              pop\n                /* \"#utility.yul\":5604:5610   */\n              dup3\n                /* \"#utility.yul\":5597:5602   */\n              dup2\n                /* \"#utility.yul\":5590:5611   */\n              mstore\n                /* \"#utility.yul\":5642:5646   */\n              0x20\n                /* \"#utility.yul\":5635:5640   */\n              dup2\n                /* \"#utility.yul\":5631:5647   */\n              add\n                /* \"#utility.yul\":5680:5683   */\n              dup5\n                /* \"#utility.yul\":5671:5677   */\n              dup5\n                /* \"#utility.yul\":5666:5669   */\n              dup5\n                /* \"#utility.yul\":5662:5678   */\n              add\n                /* \"#utility.yul\":5659:5684   */\n              gt\n                /* \"#utility.yul\":5656:5768   */\n              iszero\n              tag_140\n              jumpi\n                /* \"#utility.yul\":5687:5766   */\n              tag_141\n              tag_63\n              jump\t// in\n            tag_141:\n                /* \"#utility.yul\":5656:5768   */\n            tag_140:\n                /* \"#utility.yul\":5777:5818   */\n              tag_142\n                /* \"#utility.yul\":5811:5817   */\n              dup5\n                /* \"#utility.yul\":5806:5809   */\n              dup3\n                /* \"#utility.yul\":5801:5804   */\n              dup6\n                /* \"#utility.yul\":5777:5818   */\n              tag_69\n              jump\t// in\n            tag_142:\n                /* \"#utility.yul\":5496:5824   */\n              pop\n                /* \"#utility.yul\":5412:5824   */\n              swap4\n              swap3\n              pop\n              pop\n              pop\n              jump\t// out\n                /* \"#utility.yul\":5844:6184   */\n            tag_71:\n                /* \"#utility.yul\":5900:5905   */\n              0x00\n                /* \"#utility.yul\":5949:5952   */\n              dup3\n                /* \"#utility.yul\":5942:5946   */\n              0x1f\n                /* \"#utility.yul\":5934:5940   */\n              dup4\n                /* \"#utility.yul\":5930:5947   */\n              add\n                /* \"#utility.yul\":5926:5953   */\n              slt\n                /* \"#utility.yul\":5916:6038   */\n              tag_144\n              jumpi\n                /* \"#utility.yul\":5957:6036   */\n              tag_145\n              tag_62\n              jump\t// in\n            tag_145:\n                /* \"#utility.yul\":5916:6038   */\n            tag_144:\n                /* \"#utility.yul\":6074:6080   */\n              dup2\n                /* \"#utility.yul\":6061:6081   */\n              calldataload\n                /* \"#utility.yul\":6099:6178   */\n              tag_146\n                /* \"#utility.yul\":6174:6177   */\n              dup5\n                /* \"#utility.yul\":6166:6172   */\n              dup3\n                /* \"#utility.yul\":6159:6163   */\n              0x20\n                /* \"#utility.yul\":6151:6157   */\n              dup7\n                /* \"#utility.yul\":6147:6164   */\n              add\n                /* \"#utility.yul\":6099:6178   */\n              tag_70\n              jump\t// in\n            tag_146:\n                /* \"#utility.yul\":6090:6178   */\n              swap2\n              pop\n                /* \"#utility.yul\":5906:6184   */\n              pop\n                /* \"#utility.yul\":5844:6184   */\n              swap3\n              swap2\n              pop\n              pop\n              jump\t// out\n                /* \"#utility.yul\":6190:7461   */\n            tag_27:\n                /* \"#utility.yul\":6305:6311   */\n              0x00\n                /* \"#utility.yul\":6313:6319   */\n              dup1\n                /* \"#utility.yul\":6321:6327   */\n              0x00\n                /* \"#utility.yul\":6329:6335   */\n              dup1\n                /* \"#utility.yul\":6337:6343   */\n              0x00\n                /* \"#utility.yul\":6386:6389   */\n              0xa0\n                /* \"#utility.yul\":6374:6383   */\n              dup7\n                /* \"#utility.yul\":6365:6372   */\n              dup9\n                /* \"#utility.yul\":6361:6384   */\n              sub\n                /* \"#utility.yul\":6357:6390   */\n              slt\n                /* \"#utility.yul\":6354:6474   */\n              iszero\n              tag_148\n              jumpi\n                /* \"#utility.yul\":6393:6472   */\n              tag_149\n              tag_55\n              jump\t// in\n            tag_149:\n                /* \"#utility.yul\":6354:6474   */\n            tag_148:\n                /* \"#utility.yul\":6541:6542   */\n              0x00\n                /* \"#utility.yul\":6530:6539   */\n              dup7\n                /* \"#utility.yul\":6526:6543   */\n              add\n                /* \"#utility.yul\":6513:6544   */\n              calldataload\n                /* \"#utility.yul\":6571:6589   */\n              0xffffffffffffffff\n                /* \"#utility.yul\":6563:6569   */\n              dup2\n                /* \"#utility.yul\":6560:6590   */\n              gt\n                /* \"#utility.yul\":6557:6674   */\n              iszero\n              tag_150\n              jumpi\n                /* \"#utility.yul\":6593:6672   */\n              tag_151\n              tag_56\n              jump\t// in\n            tag_151:\n                /* \"#utility.yul\":6557:6674   */\n            tag_150:\n                /* \"#utility.yul\":6698:6761   */\n              tag_152\n                /* \"#utility.yul\":6753:6760   */\n              dup9\n                /* \"#utility.yul\":6744:6750   */\n              dup3\n                /* \"#utility.yul\":6733:6742   */\n              dup10\n                /* \"#utility.yul\":6729:6751   */\n              add\n                /* \"#utility.yul\":6698:6761   */\n              tag_71\n              jump\t// in\n            tag_152:\n                /* \"#utility.yul\":6688:6761   */\n              swap6\n              pop\n                /* \"#utility.yul\":6484:6771   */\n              pop\n                /* \"#utility.yul\":6838:6840   */\n              0x20\n                /* \"#utility.yul\":6827:6836   */\n              dup7\n                /* \"#utility.yul\":6823:6841   */\n              add\n                /* \"#utility.yul\":6810:6842   */\n              calldataload\n                /* \"#utility.yul\":6869:6887   */\n              0xffffffffffffffff\n                /* \"#utility.yul\":6861:6867   */\n              dup2\n                /* \"#utility.yul\":6858:6888   */\n              gt\n                /* \"#utility.yul\":6855:6972   */\n              iszero\n              tag_153\n              jumpi\n                /* \"#utility.yul\":6891:6970   */\n              tag_154\n              tag_56\n              jump\t// in\n            tag_154:\n                /* \"#utility.yul\":6855:6972   */\n            tag_153:\n                /* \"#utility.yul\":6996:7059   */\n              tag_155\n                /* \"#utility.yul\":7051:7058   */\n              dup9\n                /* \"#utility.yul\":7042:7048   */\n              dup3\n                /* \"#utility.yul\":7031:7040   */\n              dup10\n                /* \"#utility.yul\":7027:7049   */\n              add\n                /* \"#utility.yul\":6996:7059   */\n              tag_71\n              jump\t// in\n            tag_155:\n                /* \"#utility.yul\":6986:7059   */\n              swap5\n              pop\n                /* \"#utility.yul\":6781:7069   */\n              pop\n                /* \"#utility.yul\":7108:7110   */\n              0x40\n                /* \"#utility.yul\":7134:7187   */\n              tag_156\n                /* \"#utility.yul\":7179:7186   */\n              dup9\n                /* \"#utility.yul\":7170:7176   */\n              dup3\n                /* \"#utility.yul\":7159:7168   */\n              dup10\n                /* \"#utility.yul\":7155:7177   */\n              add\n                /* \"#utility.yul\":7134:7187   */\n              tag_59\n              jump\t// in\n            tag_156:\n                /* \"#utility.yul\":7124:7187   */\n              swap4\n              pop\n                /* \"#utility.yul\":7079:7197   */\n              pop\n                /* \"#utility.yul\":7236:7238   */\n              0x60\n                /* \"#utility.yul\":7262:7315   */\n              tag_157\n                /* \"#utility.yul\":7307:7314   */\n              dup9\n                /* \"#utility.yul\":7298:7304   */\n              dup3\n                /* \"#utility.yul\":7287:7296   */\n              dup10\n                /* \"#utility.yul\":7283:7305   */\n              add\n                /* \"#utility.yul\":7262:7315   */\n              tag_59\n              jump\t// in\n            tag_157:\n                /* \"#utility.yul\":7252:7315   */\n              swap3\n              pop\n                /* \"#utility.yul\":7207:7325   */\n              pop\n                /* \"#utility.yul\":7364:7367   */\n              0x80\n                /* \"#utility.yul\":7391:7444   */\n              tag_158\n                /* \"#utility.yul\":7436:7443   */\n              dup9\n                /* \"#utility.yul\":7427:7433   */\n              dup3\n                /* \"#utility.yul\":7416:7425   */\n              dup10\n                /* \"#utility.yul\":7412:7434   */\n              add\n                /* \"#utility.yul\":7391:7444   */\n              tag_59\n              jump\t// in\n            tag_158:\n                /* \"#utility.yul\":7381:7444   */\n              swap2\n              pop\n                /* \"#utility.yul\":7335:7454   */\n              pop\n                /* \"#utility.yul\":6190:7461   */\n              swap3\n              swap6\n              pop\n              swap3\n              swap6\n              swap1\n              swap4\n              pop\n              jump\t// out\n                /* \"#utility.yul\":7467:7566   */\n            tag_72:\n                /* \"#utility.yul\":7519:7525   */\n              0x00\n                /* \"#utility.yul\":7553:7558   */\n              dup2\n                /* \"#utility.yul\":7547:7559   */\n              mload\n                /* \"#utility.yul\":7537:7559   */\n              swap1\n              pop\n                /* \"#utility.yul\":7467:7566   */\n              swap2\n              swap1\n              pop\n              jump\t// out\n                /* \"#utility.yul\":7572:7741   */\n            tag_73:\n                /* \"#utility.yul\":7656:7667   */\n              0x00\n                /* \"#utility.yul\":7690:7696   */\n              dup3\n                /* \"#utility.yul\":7685:7688   */\n              dup3\n                /* \"#utility.yul\":7678:7697   */\n              mstore\n                /* \"#utility.yul\":7730:7734   */\n              0x20\n                /* \"#utility.yul\":7725:7728   */\n              dup3\n                /* \"#utility.yul\":7721:7735   */\n              add\n                /* \"#utility.yul\":7706:7735   */\n              swap1\n              pop\n                /* \"#utility.yul\":7572:7741   */\n              swap3\n              swap2\n              pop\n              pop\n              jump\t// out\n                /* \"#utility.yul\":7747:8054   */\n            tag_74:\n                /* \"#utility.yul\":7815:7816   */\n              0x00\n                /* \"#utility.yul\":7825:7938   */\n            tag_162:\n                /* \"#utility.yul\":7839:7845   */\n              dup4\n                /* \"#utility.yul\":7836:7837   */\n              dup2\n                /* \"#utility.yul\":7833:7846   */\n              lt\n                /* \"#utility.yul\":7825:7938   */\n              iszero\n              tag_164\n              jumpi\n                /* \"#utility.yul\":7924:7925   */\n              dup1\n                /* \"#utility.yul\":7919:7922   */\n              dup3\n                /* \"#utility.yul\":7915:7926   */\n              add\n                /* \"#utility.yul\":7909:7927   */\n              mload\n                /* \"#utility.yul\":7905:7906   */\n              dup2\n                /* \"#utility.yul\":7900:7903   */\n              dup5\n                /* \"#utility.yul\":7896:7907   */\n              add\n                /* \"#utility.yul\":7889:7928   */\n              mstore\n                /* \"#utility.yul\":7861:7863   */\n              0x20\n                /* \"#utility.yul\":7858:7859   */\n              dup2\n                /* \"#utility.yul\":7854:7864   */\n              add\n                /* \"#utility.yul\":7849:7864   */\n              swap1\n              pop\n                /* \"#utility.yul\":7825:7938   */\n              jump(tag_162)\n            tag_164:\n                /* \"#utility.yul\":7956:7962   */\n              dup4\n                /* \"#utility.yul\":7953:7954   */\n              dup2\n                /* \"#utility.yul\":7950:7963   */\n              gt\n                /* \"#utility.yul\":7947:8048   */\n              iszero\n              tag_165\n              jumpi\n                /* \"#utility.yul\":8036:8037   */\n              0x00\n                /* \"#utility.yul\":8027:8033   */\n              dup5\n                /* \"#utility.yul\":8022:8025   */\n              dup5\n                /* \"#utility.yul\":8018:8034   */\n              add\n                /* \"#utility.yul\":8011:8038   */\n              mstore\n                /* \"#utility.yul\":7947:8048   */\n            tag_165:\n                /* \"#utility.yul\":7796:8054   */\n              pop\n                /* \"#utility.yul\":7747:8054   */\n              pop\n              pop\n              pop\n              jump\t// out\n                /* \"#utility.yul\":8060:8424   */\n            tag_75:\n                /* \"#utility.yul\":8148:8151   */\n              0x00\n                /* \"#utility.yul\":8176:8215   */\n              tag_167\n                /* \"#utility.yul\":8209:8214   */\n              dup3\n                /* \"#utility.yul\":8176:8215   */\n              tag_72\n              jump\t// in\n            tag_167:\n                /* \"#utility.yul\":8231:8302   */\n              tag_168\n                /* \"#utility.yul\":8295:8301   */\n              dup2\n                /* \"#utility.yul\":8290:8293   */\n              dup6\n                /* \"#utility.yul\":8231:8302   */\n              tag_73\n              jump\t// in\n            tag_168:\n                /* \"#utility.yul\":8224:8302   */\n              swap4\n              pop\n                /* \"#utility.yul\":8311:8363   */\n              tag_169\n                /* \"#utility.yul\":8356:8362   */\n              dup2\n                /* \"#utility.yul\":8351:8354   */\n              dup6\n                /* \"#utility.yul\":8344:8348   */\n              0x20\n                /* \"#utility.yul\":8337:8342   */\n              dup7\n                /* \"#utility.yul\":8333:8349   */\n              add\n                /* \"#utility.yul\":8311:8363   */\n              tag_74\n              jump\t// in\n            tag_169:\n                /* \"#utility.yul\":8388:8417   */\n              tag_170\n                /* \"#utility.yul\":8410:8416   */\n              dup2\n                /* \"#utility.yul\":8388:8417   */\n              tag_64\n              jump\t// in\n            tag_170:\n                /* \"#utility.yul\":8383:8386   */\n              dup5\n                /* \"#utility.yul\":8379:8418   */\n              add\n                /* \"#utility.yul\":8372:8418   */\n              swap2\n              pop\n                /* \"#utility.yul\":8152:8424   */\n              pop\n                /* \"#utility.yul\":8060:8424   */\n              swap3\n              swap2\n              pop\n              pop\n              jump\t// out\n                /* \"#utility.yul\":8430:9387   */\n            tag_40:\n                /* \"#utility.yul\":8703:8707   */\n              0x00\n                /* \"#utility.yul\":8741:8744   */\n              0xc0\n                /* \"#utility.yul\":8730:8739   */\n              dup3\n                /* \"#utility.yul\":8726:8745   */\n              add\n                /* \"#utility.yul\":8718:8745   */\n              swap1\n              pop\n                /* \"#utility.yul\":8755:8826   */\n              tag_172\n                /* \"#utility.yul\":8823:8824   */\n              0x00\n                /* \"#utility.yul\":8812:8821   */\n              dup4\n                /* \"#utility.yul\":8808:8825   */\n              add\n                /* \"#utility.yul\":8799:8805   */\n              dup10\n                /* \"#utility.yul\":8755:8826   */\n              tag_60\n              jump\t// in\n            tag_172:\n                /* \"#utility.yul\":8873:8882   */\n              dup2\n                /* \"#utility.yul\":8867:8871   */\n              dup2\n                /* \"#utility.yul\":8863:8883   */\n              sub\n                /* \"#utility.yul\":8858:8860   */\n              0x20\n                /* \"#utility.yul\":8847:8856   */\n              dup4\n                /* \"#utility.yul\":8843:8861   */\n              add\n                /* \"#utility.yul\":8836:8884   */\n              mstore\n                /* \"#utility.yul\":8901:8979   */\n              tag_173\n                /* \"#utility.yul\":8974:8978   */\n              dup2\n                /* \"#utility.yul\":8965:8971   */\n              dup9\n                /* \"#utility.yul\":8901:8979   */\n              tag_75\n              jump\t// in\n            tag_173:\n                /* \"#utility.yul\":8893:8979   */\n              swap1\n              pop\n                /* \"#utility.yul\":9026:9035   */\n              dup2\n                /* \"#utility.yul\":9020:9024   */\n              dup2\n                /* \"#utility.yul\":9016:9036   */\n              sub\n                /* \"#utility.yul\":9011:9013   */\n              0x40\n                /* \"#utility.yul\":9000:9009   */\n              dup4\n                /* \"#utility.yul\":8996:9014   */\n              add\n                /* \"#utility.yul\":8989:9037   */\n              mstore\n                /* \"#utility.yul\":9054:9132   */\n              tag_174\n                /* \"#utility.yul\":9127:9131   */\n              dup2\n                /* \"#utility.yul\":9118:9124   */\n              dup8\n                /* \"#utility.yul\":9054:9132   */\n              tag_75\n              jump\t// in\n            tag_174:\n                /* \"#utility.yul\":9046:9132   */\n              swap1\n              pop\n                /* \"#utility.yul\":9142:9214   */\n              tag_175\n                /* \"#utility.yul\":9210:9212   */\n              0x60\n                /* \"#utility.yul\":9199:9208   */\n              dup4\n                /* \"#utility.yul\":9195:9213   */\n              add\n                /* \"#utility.yul\":9186:9192   */\n              dup7\n                /* \"#utility.yul\":9142:9214   */\n              tag_61\n              jump\t// in\n            tag_175:\n                /* \"#utility.yul\":9224:9297   */\n              tag_176\n                /* \"#utility.yul\":9292:9295   */\n              0x80\n                /* \"#utility.yul\":9281:9290   */\n              dup4\n                /* \"#utility.yul\":9277:9296   */\n              add\n                /* \"#utility.yul\":9268:9274   */\n              dup6\n                /* \"#utility.yul\":9224:9297   */\n              tag_61\n              jump\t// in\n            tag_176:\n                /* \"#utility.yul\":9307:9380   */\n              tag_177\n                /* \"#utility.yul\":9375:9378   */\n              0xa0\n                /* \"#utility.yul\":9364:9373   */\n              dup4\n                /* \"#utility.yul\":9360:9379   */\n              add\n                /* \"#utility.yul\":9351:9357   */\n              dup5\n                /* \"#utility.yul\":9307:9380   */\n              tag_61\n              jump\t// in\n            tag_177:\n                /* \"#utility.yul\":8430:9387   */\n              swap8\n              swap7\n              pop\n              pop\n              pop\n              pop\n              pop\n              pop\n              pop\n              jump\t// out\n                /* \"#utility.yul\":9393:9573   */\n            tag_76:\n                /* \"#utility.yul\":9441:9518   */\n              0x4e487b7100000000000000000000000000000000000000000000000000000000\n                /* \"#utility.yul\":9438:9439   */\n              0x00\n                /* \"#utility.yul\":9431:9519   */\n              mstore\n                /* \"#utility.yul\":9538:9542   */\n              0x11\n                /* \"#utility.yul\":9535:9536   */\n              0x04\n                /* \"#utility.yul\":9528:9543   */\n              mstore\n                /* \"#utility.yul\":9562:9566   */\n              0x24\n                /* \"#utility.yul\":9559:9560   */\n              0x00\n                /* \"#utility.yul\":9552:9567   */\n              revert\n                /* \"#utility.yul\":9579:9812   */\n            tag_44:\n                /* \"#utility.yul\":9618:9621   */\n              0x00\n                /* \"#utility.yul\":9641:9665   */\n              tag_180\n                /* \"#utility.yul\":9659:9664   */\n              dup3\n                /* \"#utility.yul\":9641:9665   */\n              tag_57\n              jump\t// in\n            tag_180:\n                /* \"#utility.yul\":9632:9665   */\n              swap2\n              pop\n                /* \"#utility.yul\":9687:9753   */\n              0xffffffffffffffffffffffffffffffffffffffffffffffffffffffffffffffff\n                /* \"#utility.yul\":9680:9685   */\n              dup3\n                /* \"#utility.yul\":9677:9754   */\n              sub\n                /* \"#utility.yul\":9674:9777   */\n              tag_181\n              jumpi\n                /* \"#utility.yul\":9757:9775   */\n              tag_182\n              tag_76\n              jump\t// in\n            tag_182:\n                /* \"#utility.yul\":9674:9777   */\n            tag_181:\n                /* \"#utility.yul\":9804:9805   */\n              0x01\n                /* \"#utility.yul\":9797:9802   */\n              dup3\n                /* \"#utility.yul\":9793:9806   */\n              add\n                /* \"#utility.yul\":9786:9806   */\n              swap1\n              pop\n                /* \"#utility.yul\":9579:9812   */\n              swap2\n              swap1\n              pop\n              jump\t// out\n            stop\n\n            sub_0: assembly {\n                    /* \"smartwill.sol\":1639:2980  contract BankAccount {... */\n                  mstore(0x40, 0x80)\n                    /* \"smartwill.sol\":2053:2610  constructor (... */\n                  callvalue\n                  dup1\n                  iszero\n                  tag_1\n                  jumpi\n                  0x00\n                  dup1\n                  revert\n                tag_1:\n                  pop\n                  mload(0x40)\n                  sub(codesize, bytecodeSize)\n                  dup1\n                  bytecodeSize\n                  dup4\n                  codecopy\n                  dup2\n                  dup2\n                  add\n                  0x40\n                  mstore\n                  dup2\n                  add\n                  swap1\n                  tag_2\n                  swap2\n                  swap1\n                  tag_3\n                  jump\t// in\n                tag_2:\n                    /* \"smartwill.sol\":2272:2280  _manager */\n                  dup6\n                    /* \"smartwill.sol\":2262:2269  manager */\n                  0x00\n                  dup1\n                    /* \"smartwill.sol\":2262:2280  manager = _manager */\n                  0x0100\n                  exp\n                  dup2\n                  sload\n                  dup2\n                  0xffffffffffffffffffffffffffffffffffffffff\n                  mul\n                  not\n                  and\n                  swap1\n                  dup4\n                  0xffffffffffffffffffffffffffffffffffffffff\n                  and\n                  mul\n                  or\n                  swap1\n                  sstore\n                  pop\n                    /* \"smartwill.sol\":2300:2603  AccountDetails({... */\n                  mload(0x40)\n                  dup1\n                  0x0100\n                  add\n                  0x40\n                  mstore\n                  dup1\n                    /* \"smartwill.sol\":2342:2354  _accountName */\n                  dup7\n                    /* \"smartwill.sol\":2300:2603  AccountDetails({... */\n                  dup2\n                  mstore\n                  0x20\n                  add\n                    /* \"smartwill.sol\":2378:2387  _bankName */\n                  dup6\n                    /* \"smartwill.sol\":2300:2603  AccountDetails({... */\n                  dup2\n                  mstore\n                  0x20\n                  add\n                    /* \"smartwill.sol\":2415:2428  _branchNumber */\n                  dup5\n                    /* \"smartwill.sol\":2300:2603  AccountDetails({... */\n                  dup2\n                  mstore\n                  0x20\n                  add\n                    /* \"smartwill.sol\":2457:2471  _accountNumber */\n                  dup4\n                    /* \"smartwill.sol\":2300:2603  AccountDetails({... */\n                  dup2\n                  mstore\n                  0x20\n                  add\n                    /* \"smartwill.sol\":2499:2512  _accountDigit */\n                  dup3\n                    /* \"smartwill.sol\":2300:2603  AccountDetails({... */\n                  dup2\n                  mstore\n                  0x20\n                  add\n                  mload(0x40)\n                  dup1\n                  0x20\n                  add\n                  0x40\n                  mstore\n                  dup1\n                  0x00\n                  dup2\n                  mstore\n                  pop\n                  dup2\n                  mstore\n                  0x20\n                  add\n                  mload(0x40)\n                  dup1\n                  0x20\n                  add\n                  0x40\n                  mstore\n                  dup1\n                  0x00\n                  dup2\n                  mstore\n                  pop\n                  dup2\n                  mstore\n                  0x20\n                  add\n                  mload(0x40)\n                  dup1\n                  0x20\n                  add\n                  0x40\n                  mstore\n                  dup1\n                  0x00\n                  dup2\n                  mstore\n                  pop\n                  dup2\n                  mstore\n                  pop\n                    /* \"smartwill.sol\":2290:2297  account */\n                  0x01\n                    /* \"smartwill.sol\":2290:2603  account = AccountDetails({... */\n                  0x00\n                  dup3\n                  add\n                  mload\n                  dup2\n                  0x00\n                  add\n                  swap1\n                  dup2\n                  tag_6\n                  swap2\n                  swap1\n                  tag_7\n                  jump\t// in\n                tag_6:\n                  pop\n                  0x20\n                  dup3\n                  add\n                  mload\n                  dup2\n                  0x01\n                  add\n                  swap1\n                  dup2\n                  tag_8\n                  swap2\n                  swap1\n                  tag_7\n                  jump\t// in\n                tag_8:\n                  pop\n                  0x40\n                  dup3\n                  add\n                  mload\n                  dup2\n                  0x02\n                  add\n                  sstore\n                  0x60\n                  dup3\n                  add\n                  mload\n                  dup2\n                  0x03\n                  add\n                  sstore\n                  0x80\n                  dup3\n                  add\n                  mload\n                  dup2\n                  0x04\n                  add\n                  sstore\n                  0xa0\n                  dup3\n                  add\n                  mload\n                  dup2\n                  0x05\n                  add\n                  swap1\n                  dup2\n                  tag_9\n                  swap2\n                  swap1\n                  tag_7\n                  jump\t// in\n                tag_9:\n                  pop\n                  0xc0\n                  dup3\n                  add\n                  mload\n                  dup2\n                  0x06\n                  add\n                  swap1\n                  dup2\n                  tag_10\n                  swap2\n                  swap1\n                  tag_7\n                  jump\t// in\n                tag_10:\n                  pop\n                  0xe0\n                  dup3\n                  add\n                  mload\n                  dup2\n                  0x07\n                  add\n                  swap1\n                  dup2\n                  tag_11\n                  swap2\n                  swap1\n                  tag_7\n                  jump\t// in\n                tag_11:\n                  pop\n                  swap1\n                  pop\n                  pop\n                    /* \"smartwill.sol\":2053:2610  constructor (... */\n                  pop\n                  pop\n                  pop\n                  pop\n                  pop\n                  pop\n                    /* \"smartwill.sol\":1639:2980  contract BankAccount {... */\n                  jump(tag_12)\n                    /* \"#utility.yul\":7:82   */\n                tag_13:\n                    /* \"#utility.yul\":40:46   */\n                  0x00\n                    /* \"#utility.yul\":73:75   */\n                  0x40\n                    /* \"#utility.yul\":67:76   */\n                  mload\n                    /* \"#utility.yul\":57:76   */\n                  swap1\n                  pop\n                    /* \"#utility.yul\":7:82   */\n                  swap1\n                  jump\t// out\n                    /* \"#utility.yul\":88:205   */\n                tag_14:\n                    /* \"#utility.yul\":197:198   */\n                  0x00\n                    /* \"#utility.yul\":194:195   */\n                  dup1\n                    /* \"#utility.yul\":187:199   */\n                  revert\n                    /* \"#utility.yul\":211:328   */\n                tag_15:\n                    /* \"#utility.yul\":320:321   */\n                  0x00\n                    /* \"#utility.yul\":317:318   */\n                  dup1\n                    /* \"#utility.yul\":310:322   */\n                  revert\n                    /* \"#utility.yul\":334:460   */\n                tag_16:\n                    /* \"#utility.yul\":371:378   */\n                  0x00\n                    /* \"#utility.yul\":411:453   */\n                  0xffffffffffffffffffffffffffffffffffffffff\n                    /* \"#utility.yul\":404:409   */\n                  dup3\n                    /* \"#utility.yul\":400:454   */\n                  and\n                    /* \"#utility.yul\":389:454   */\n                  swap1\n                  pop\n                    /* \"#utility.yul\":334:460   */\n                  swap2\n                  swap1\n                  pop\n                  jump\t// out\n                    /* \"#utility.yul\":466:562   */\n                tag_17:\n                    /* \"#utility.yul\":503:510   */\n                  0x00\n                    /* \"#utility.yul\":532:556   */\n                  tag_57\n                    /* \"#utility.yul\":550:555   */\n                  dup3\n                    /* \"#utility.yul\":532:556   */\n                  tag_16\n                  jump\t// in\n                tag_57:\n                    /* \"#utility.yul\":521:556   */\n                  swap1\n                  pop\n                    /* \"#utility.yul\":466:562   */\n                  swap2\n                  swap1\n                  pop\n                  jump\t// out\n                    /* \"#utility.yul\":568:690   */\n                tag_18:\n                    /* \"#utility.yul\":641:665   */\n                  tag_59\n                    /* \"#utility.yul\":659:664   */\n                  dup2\n                    /* \"#utility.yul\":641:665   */\n                  tag_17\n                  jump\t// in\n                tag_59:\n                    /* \"#utility.yul\":634:639   */\n                  dup2\n                    /* \"#utility.yul\":631:666   */\n                  eq\n                    /* \"#utility.yul\":621:684   */\n                  tag_60\n                  jumpi\n                    /* \"#utility.yul\":680:681   */\n                  0x00\n                    /* \"#utility.yul\":677:678   */\n                  dup1\n                    /* \"#utility.yul\":670:682   */\n                  revert\n                    /* \"#utility.yul\":621:684   */\n                tag_60:\n                    /* \"#utility.yul\":568:690   */\n                  pop\n                  jump\t// out\n                    /* \"#utility.yul\":696:839   */\n                tag_19:\n                    /* \"#utility.yul\":753:758   */\n                  0x00\n                    /* \"#utility.yul\":784:790   */\n                  dup2\n                    /* \"#utility.yul\":778:791   */\n                  mload\n                    /* \"#utility.yul\":769:791   */\n                  swap1\n                  pop\n                    /* \"#utility.yul\":800:833   */\n                  tag_62\n                    /* \"#utility.yul\":827:832   */\n                  dup2\n                    /* \"#utility.yul\":800:833   */\n                  tag_18\n                  jump\t// in\n                tag_62:\n                    /* \"#utility.yul\":696:839   */\n                  swap3\n                  swap2\n                  pop\n                  pop\n                  jump\t// out\n                    /* \"#utility.yul\":845:962   */\n                tag_20:\n                    /* \"#utility.yul\":954:955   */\n                  0x00\n                    /* \"#utility.yul\":951:952   */\n                  dup1\n                    /* \"#utility.yul\":944:956   */\n                  revert\n                    /* \"#utility.yul\":968:1085   */\n                tag_21:\n                    /* \"#utility.yul\":1077:1078   */\n                  0x00\n                    /* \"#utility.yul\":1074:1075   */\n                  dup1\n                    /* \"#utility.yul\":1067:1079   */\n                  revert\n                    /* \"#utility.yul\":1091:1193   */\n                tag_22:\n                    /* \"#utility.yul\":1132:1138   */\n                  0x00\n                    /* \"#utility.yul\":1183:1185   */\n                  0x1f\n                    /* \"#utility.yul\":1179:1186   */\n                  not\n                    /* \"#utility.yul\":1174:1176   */\n                  0x1f\n                    /* \"#utility.yul\":1167:1172   */\n                  dup4\n                    /* \"#utility.yul\":1163:1177   */\n                  add\n                    /* \"#utility.yul\":1159:1187   */\n                  and\n                    /* \"#utility.yul\":1149:1187   */\n                  swap1\n                  pop\n                    /* \"#utility.yul\":1091:1193   */\n                  swap2\n                  swap1\n                  pop\n                  jump\t// out\n                    /* \"#utility.yul\":1199:1379   */\n                tag_23:\n                    /* \"#utility.yul\":1247:1324   */\n                  0x4e487b7100000000000000000000000000000000000000000000000000000000\n                    /* \"#utility.yul\":1244:1245   */\n                  0x00\n                    /* \"#utility.yul\":1237:1325   */\n                  mstore\n                    /* \"#utility.yul\":1344:1348   */\n                  0x41\n                    /* \"#utility.yul\":1341:1342   */\n                  0x04\n                    /* \"#utility.yul\":1334:1349   */\n                  mstore\n                    /* \"#utility.yul\":1368:1372   */\n                  0x24\n                    /* \"#utility.yul\":1365:1366   */\n                  0x00\n                    /* \"#utility.yul\":1358:1373   */\n                  revert\n                    /* \"#utility.yul\":1385:1666   */\n                tag_24:\n                    /* \"#utility.yul\":1468:1495   */\n                  tag_68\n                    /* \"#utility.yul\":1490:1494   */\n                  dup3\n                    /* \"#utility.yul\":1468:1495   */\n                  tag_22\n                  jump\t// in\n                tag_68:\n                    /* \"#utility.yul\":1460:1466   */\n                  dup2\n                    /* \"#utility.yul\":1456:1496   */\n                  add\n                    /* \"#utility.yul\":1598:1604   */\n                  dup2\n                    /* \"#utility.yul\":1586:1596   */\n                  dup2\n                    /* \"#utility.yul\":1583:1605   */\n                  lt\n                    /* \"#utility.yul\":1562:1580   */\n                  0xffffffffffffffff\n                    /* \"#utility.yul\":1550:1560   */\n                  dup3\n                    /* \"#utility.yul\":1547:1581   */\n                  gt\n                    /* \"#utility.yul\":1544:1606   */\n                  or\n                    /* \"#utility.yul\":1541:1629   */\n                  iszero\n                  tag_69\n                  jumpi\n                    /* \"#utility.yul\":1609:1627   */\n                  tag_70\n                  tag_23\n                  jump\t// in\n                tag_70:\n                    /* \"#utility.yul\":1541:1629   */\n                tag_69:\n                    /* \"#utility.yul\":1649:1659   */\n                  dup1\n                    /* \"#utility.yul\":1645:1647   */\n                  0x40\n                    /* \"#utility.yul\":1638:1660   */\n                  mstore\n                    /* \"#utility.yul\":1428:1666   */\n                  pop\n                    /* \"#utility.yul\":1385:1666   */\n                  pop\n                  pop\n                  jump\t// out\n                    /* \"#utility.yul\":1672:1801   */\n                tag_25:\n                    /* \"#utility.yul\":1706:1712   */\n                  0x00\n                    /* \"#utility.yul\":1733:1753   */\n                  tag_72\n                  tag_13\n                  jump\t// in\n                tag_72:\n                    /* \"#utility.yul\":1723:1753   */\n                  swap1\n                  pop\n                    /* \"#utility.yul\":1762:1795   */\n                  tag_73\n                    /* \"#utility.yul\":1790:1794   */\n                  dup3\n                    /* \"#utility.yul\":1782:1788   */\n                  dup3\n                    /* \"#utility.yul\":1762:1795   */\n                  tag_24\n                  jump\t// in\n                tag_73:\n                    /* \"#utility.yul\":1672:1801   */\n                  swap2\n                  swap1\n                  pop\n                  jump\t// out\n                    /* \"#utility.yul\":1807:2115   */\n                tag_26:\n                    /* \"#utility.yul\":1869:1873   */\n                  0x00\n                    /* \"#utility.yul\":1959:1977   */\n                  0xffffffffffffffff\n                    /* \"#utility.yul\":1951:1957   */\n                  dup3\n                    /* \"#utility.yul\":1948:1978   */\n                  gt\n                    /* \"#utility.yul\":1945:2001   */\n                  iszero\n                  tag_75\n                  jumpi\n                    /* \"#utility.yul\":1981:1999   */\n                  tag_76\n                  tag_23\n                  jump\t// in\n                tag_76:\n                    /* \"#utility.yul\":1945:2001   */\n                tag_75:\n                    /* \"#utility.yul\":2019:2048   */\n                  tag_77\n                    /* \"#utility.yul\":2041:2047   */\n                  dup3\n                    /* \"#utility.yul\":2019:2048   */\n                  tag_22\n                  jump\t// in\n                tag_77:\n                    /* \"#utility.yul\":2011:2048   */\n                  swap1\n                  pop\n                    /* \"#utility.yul\":2103:2107   */\n                  0x20\n                    /* \"#utility.yul\":2097:2101   */\n                  dup2\n                    /* \"#utility.yul\":2093:2108   */\n                  add\n                    /* \"#utility.yul\":2085:2108   */\n                  swap1\n                  pop\n                    /* \"#utility.yul\":1807:2115   */\n                  swap2\n                  swap1\n                  pop\n                  jump\t// out\n                    /* \"#utility.yul\":2121:2428   */\n                tag_27:\n                    /* \"#utility.yul\":2189:2190   */\n                  0x00\n                    /* \"#utility.yul\":2199:2312   */\n                tag_79:\n                    /* \"#utility.yul\":2213:2219   */\n                  dup4\n                    /* \"#utility.yul\":2210:2211   */\n                  dup2\n                    /* \"#utility.yul\":2207:2220   */\n                  lt\n                    /* \"#utility.yul\":2199:2312   */\n                  iszero\n                  tag_81\n                  jumpi\n                    /* \"#utility.yul\":2298:2299   */\n                  dup1\n                    /* \"#utility.yul\":2293:2296   */\n                  dup3\n                    /* \"#utility.yul\":2289:2300   */\n                  add\n                    /* \"#utility.yul\":2283:2301   */\n                  mload\n                    /* \"#utility.yul\":2279:2280   */\n                  dup2\n                    /* \"#utility.yul\":2274:2277   */\n                  dup5\n                    /* \"#utility.yul\":2270:2281   */\n                  add\n                    /* \"#utility.yul\":2263:2302   */\n                  mstore\n                    /* \"#utility.yul\":2235:2237   */\n                  0x20\n                    /* \"#utility.yul\":2232:2233   */\n                  dup2\n                    /* \"#utility.yul\":2228:2238   */\n                  add\n                    /* \"#utility.yul\":2223:2238   */\n                  swap1\n                  pop\n                    /* \"#utility.yul\":2199:2312   */\n                  jump(tag_79)\n                tag_81:\n                    /* \"#utility.yul\":2330:2336   */\n                  dup4\n                    /* \"#utility.yul\":2327:2328   */\n                  dup2\n                    /* \"#utility.yul\":2324:2337   */\n                  gt\n                    /* \"#utility.yul\":2321:2422   */\n                  iszero\n                  tag_82\n                  jumpi\n                    /* \"#utility.yul\":2410:2411   */\n                  0x00\n                    /* \"#utility.yul\":2401:2407   */\n                  dup5\n                    /* \"#utility.yul\":2396:2399   */\n                  dup5\n                    /* \"#utility.yul\":2392:2408   */\n                  add\n                    /* \"#utility.yul\":2385:2412   */\n                  mstore\n                    /* \"#utility.yul\":2321:2422   */\n                tag_82:\n                    /* \"#utility.yul\":2170:2428   */\n                  pop\n                    /* \"#utility.yul\":2121:2428   */\n                  pop\n                  pop\n                  pop\n                  jump\t// out\n                    /* \"#utility.yul\":2434:2855   */\n                tag_28:\n                    /* \"#utility.yul\":2523:2528   */\n                  0x00\n                    /* \"#utility.yul\":2548:2614   */\n                  tag_84\n                    /* \"#utility.yul\":2564:2613   */\n                  tag_85\n                    /* \"#utility.yul\":2606:2612   */\n                  dup5\n                    /* \"#utility.yul\":2564:2613   */\n                  tag_26\n                  jump\t// in\n                tag_85:\n                    /* \"#utility.yul\":2548:2614   */\n                  tag_25\n                  jump\t// in\n                tag_84:\n                    /* \"#utility.yul\":2539:2614   */\n                  swap1\n                  pop\n                    /* \"#utility.yul\":2637:2643   */\n                  dup3\n                    /* \"#utility.yul\":2630:2635   */\n                  dup2\n                    /* \"#utility.yul\":2623:2644   */\n                  mstore\n                    /* \"#utility.yul\":2675:2679   */\n                  0x20\n                    /* \"#utility.yul\":2668:2673   */\n                  dup2\n                    /* \"#utility.yul\":2664:2680   */\n                  add\n                    /* \"#utility.yul\":2713:2716   */\n                  dup5\n                    /* \"#utility.yul\":2704:2710   */\n                  dup5\n                    /* \"#utility.yul\":2699:2702   */\n                  dup5\n                    /* \"#utility.yul\":2695:2711   */\n                  add\n                    /* \"#utility.yul\":2692:2717   */\n                  gt\n                    /* \"#utility.yul\":2689:2801   */\n                  iszero\n                  tag_86\n                  jumpi\n                    /* \"#utility.yul\":2720:2799   */\n                  tag_87\n                  tag_21\n                  jump\t// in\n                tag_87:\n                    /* \"#utility.yul\":2689:2801   */\n                tag_86:\n                    /* \"#utility.yul\":2810:2849   */\n                  tag_88\n                    /* \"#utility.yul\":2842:2848   */\n                  dup5\n                    /* \"#utility.yul\":2837:2840   */\n                  dup3\n                    /* \"#utility.yul\":2832:2835   */\n                  dup6\n                    /* \"#utility.yul\":2810:2849   */\n                  tag_27\n                  jump\t// in\n                tag_88:\n                    /* \"#utility.yul\":2529:2855   */\n                  pop\n                    /* \"#utility.yul\":2434:2855   */\n                  swap4\n                  swap3\n                  pop\n                  pop\n                  pop\n                  jump\t// out\n                    /* \"#utility.yul\":2875:3230   */\n                tag_29:\n                    /* \"#utility.yul\":2942:2947   */\n                  0x00\n                    /* \"#utility.yul\":2991:2994   */\n                  dup3\n                    /* \"#utility.yul\":2984:2988   */\n                  0x1f\n                    /* \"#utility.yul\":2976:2982   */\n                  dup4\n                    /* \"#utility.yul\":2972:2989   */\n                  add\n                    /* \"#utility.yul\":2968:2995   */\n                  slt\n                    /* \"#utility.yul\":2958:3080   */\n                  tag_90\n                  jumpi\n                    /* \"#utility.yul\":2999:3078   */\n                  tag_91\n                  tag_20\n                  jump\t// in\n                tag_91:\n                    /* \"#utility.yul\":2958:3080   */\n                tag_90:\n                    /* \"#utility.yul\":3109:3115   */\n                  dup2\n                    /* \"#utility.yul\":3103:3116   */\n                  mload\n                    /* \"#utility.yul\":3134:3224   */\n                  tag_92\n                    /* \"#utility.yul\":3220:3223   */\n                  dup5\n                    /* \"#utility.yul\":3212:3218   */\n                  dup3\n                    /* \"#utility.yul\":3205:3209   */\n                  0x20\n                    /* \"#utility.yul\":3197:3203   */\n                  dup7\n                    /* \"#utility.yul\":3193:3210   */\n                  add\n                    /* \"#utility.yul\":3134:3224   */\n                  tag_28\n                  jump\t// in\n                tag_92:\n                    /* \"#utility.yul\":3125:3224   */\n                  swap2\n                  pop\n                    /* \"#utility.yul\":2948:3230   */\n                  pop\n                    /* \"#utility.yul\":2875:3230   */\n                  swap3\n                  swap2\n                  pop\n                  pop\n                  jump\t// out\n                    /* \"#utility.yul\":3236:3313   */\n                tag_30:\n                    /* \"#utility.yul\":3273:3280   */\n                  0x00\n                    /* \"#utility.yul\":3302:3307   */\n                  dup2\n                    /* \"#utility.yul\":3291:3307   */\n                  swap1\n                  pop\n                    /* \"#utility.yul\":3236:3313   */\n                  swap2\n                  swap1\n                  pop\n                  jump\t// out\n                    /* \"#utility.yul\":3319:3441   */\n                tag_31:\n                    /* \"#utility.yul\":3392:3416   */\n                  tag_95\n                    /* \"#utility.yul\":3410:3415   */\n                  dup2\n                    /* \"#utility.yul\":3392:3416   */\n                  tag_30\n                  jump\t// in\n                tag_95:\n                    /* \"#utility.yul\":3385:3390   */\n                  dup2\n                    /* \"#utility.yul\":3382:3417   */\n                  eq\n                    /* \"#utility.yul\":3372:3435   */\n                  tag_96\n                  jumpi\n                    /* \"#utility.yul\":3431:3432   */\n                  0x00\n                    /* \"#utility.yul\":3428:3429   */\n                  dup1\n                    /* \"#utility.yul\":3421:3433   */\n                  revert\n                    /* \"#utility.yul\":3372:3435   */\n                tag_96:\n                    /* \"#utility.yul\":3319:3441   */\n                  pop\n                  jump\t// out\n                    /* \"#utility.yul\":3447:3590   */\n                tag_32:\n                    /* \"#utility.yul\":3504:3509   */\n                  0x00\n                    /* \"#utility.yul\":3535:3541   */\n                  dup2\n                    /* \"#utility.yul\":3529:3542   */\n                  mload\n                    /* \"#utility.yul\":3520:3542   */\n                  swap1\n                  pop\n                    /* \"#utility.yul\":3551:3584   */\n                  tag_98\n                    /* \"#utility.yul\":3578:3583   */\n                  dup2\n                    /* \"#utility.yul\":3551:3584   */\n                  tag_31\n                  jump\t// in\n                tag_98:\n                    /* \"#utility.yul\":3447:3590   */\n                  swap3\n                  swap2\n                  pop\n                  pop\n                  jump\t// out\n                    /* \"#utility.yul\":3596:5076   */\n                tag_3:\n                    /* \"#utility.yul\":3731:3737   */\n                  0x00\n                    /* \"#utility.yul\":3739:3745   */\n                  dup1\n                    /* \"#utility.yul\":3747:3753   */\n                  0x00\n                    /* \"#utility.yul\":3755:3761   */\n                  dup1\n                    /* \"#utility.yul\":3763:3769   */\n                  0x00\n                    /* \"#utility.yul\":3771:3777   */\n                  dup1\n                    /* \"#utility.yul\":3820:3823   */\n                  0xc0\n                    /* \"#utility.yul\":3808:3817   */\n                  dup8\n                    /* \"#utility.yul\":3799:3806   */\n                  dup10\n                    /* \"#utility.yul\":3795:3818   */\n                  sub\n                    /* \"#utility.yul\":3791:3824   */\n                  slt\n                    /* \"#utility.yul\":3788:3908   */\n                  iszero\n                  tag_100\n                  jumpi\n                    /* \"#utility.yul\":3827:3906   */\n                  tag_101\n                  tag_14\n                  jump\t// in\n                tag_101:\n                    /* \"#utility.yul\":3788:3908   */\n                tag_100:\n                    /* \"#utility.yul\":3947:3948   */\n                  0x00\n                    /* \"#utility.yul\":3972:4036   */\n                  tag_102\n                    /* \"#utility.yul\":4028:4035   */\n                  dup10\n                    /* \"#utility.yul\":4019:4025   */\n                  dup3\n                    /* \"#utility.yul\":4008:4017   */\n                  dup11\n                    /* \"#utility.yul\":4004:4026   */\n                  add\n                    /* \"#utility.yul\":3972:4036   */\n                  tag_19\n                  jump\t// in\n                tag_102:\n                    /* \"#utility.yul\":3962:4036   */\n                  swap7\n                  pop\n                    /* \"#utility.yul\":3918:4046   */\n                  pop\n                    /* \"#utility.yul\":4106:4108   */\n                  0x20\n                    /* \"#utility.yul\":4095:4104   */\n                  dup8\n                    /* \"#utility.yul\":4091:4109   */\n                  add\n                    /* \"#utility.yul\":4085:4110   */\n                  mload\n                    /* \"#utility.yul\":4137:4155   */\n                  0xffffffffffffffff\n                    /* \"#utility.yul\":4129:4135   */\n                  dup2\n                    /* \"#utility.yul\":4126:4156   */\n                  gt\n                    /* \"#utility.yul\":4123:4240   */\n                  iszero\n                  tag_103\n                  jumpi\n                    /* \"#utility.yul\":4159:4238   */\n                  tag_104\n                  tag_15\n                  jump\t// in\n                tag_104:\n                    /* \"#utility.yul\":4123:4240   */\n                tag_103:\n                    /* \"#utility.yul\":4264:4338   */\n                  tag_105\n                    /* \"#utility.yul\":4330:4337   */\n                  dup10\n                    /* \"#utility.yul\":4321:4327   */\n                  dup3\n                    /* \"#utility.yul\":4310:4319   */\n                  dup11\n                    /* \"#utility.yul\":4306:4328   */\n                  add\n                    /* \"#utility.yul\":4264:4338   */\n                  tag_29\n                  jump\t// in\n                tag_105:\n                    /* \"#utility.yul\":4254:4338   */\n                  swap6\n                  pop\n                    /* \"#utility.yul\":4056:4348   */\n                  pop\n                    /* \"#utility.yul\":4408:4410   */\n                  0x40\n                    /* \"#utility.yul\":4397:4406   */\n                  dup8\n                    /* \"#utility.yul\":4393:4411   */\n                  add\n                    /* \"#utility.yul\":4387:4412   */\n                  mload\n                    /* \"#utility.yul\":4439:4457   */\n                  0xffffffffffffffff\n                    /* \"#utility.yul\":4431:4437   */\n                  dup2\n                    /* \"#utility.yul\":4428:4458   */\n                  gt\n                    /* \"#utility.yul\":4425:4542   */\n                  iszero\n                  tag_106\n                  jumpi\n                    /* \"#utility.yul\":4461:4540   */\n                  tag_107\n                  tag_15\n                  jump\t// in\n                tag_107:\n                    /* \"#utility.yul\":4425:4542   */\n                tag_106:\n                    /* \"#utility.yul\":4566:4640   */\n                  tag_108\n                    /* \"#utility.yul\":4632:4639   */\n                  dup10\n                    /* \"#utility.yul\":4623:4629   */\n                  dup3\n                    /* \"#utility.yul\":4612:4621   */\n                  dup11\n                    /* \"#utility.yul\":4608:4630   */\n                  add\n                    /* \"#utility.yul\":4566:4640   */\n                  tag_29\n                  jump\t// in\n                tag_108:\n                    /* \"#utility.yul\":4556:4640   */\n                  swap5\n                  pop\n                    /* \"#utility.yul\":4358:4650   */\n                  pop\n                    /* \"#utility.yul\":4689:4691   */\n                  0x60\n                    /* \"#utility.yul\":4715:4779   */\n                  tag_109\n                    /* \"#utility.yul\":4771:4778   */\n                  dup10\n                    /* \"#utility.yul\":4762:4768   */\n                  dup3\n                    /* \"#utility.yul\":4751:4760   */\n                  dup11\n                    /* \"#utility.yul\":4747:4769   */\n                  add\n                    /* \"#utility.yul\":4715:4779   */\n                  tag_32\n                  jump\t// in\n                tag_109:\n                    /* \"#utility.yul\":4705:4779   */\n                  swap4\n                  pop\n                    /* \"#utility.yul\":4660:4789   */\n                  pop\n                    /* \"#utility.yul\":4828:4831   */\n                  0x80\n                    /* \"#utility.yul\":4855:4919   */\n                  tag_110\n                    /* \"#utility.yul\":4911:4918   */\n                  dup10\n                    /* \"#utility.yul\":4902:4908   */\n                  dup3\n                    /* \"#utility.yul\":4891:4900   */\n                  dup11\n                    /* \"#utility.yul\":4887:4909   */\n                  add\n                    /* \"#utility.yul\":4855:4919   */\n                  tag_32\n                  jump\t// in\n                tag_110:\n                    /* \"#utility.yul\":4845:4919   */\n                  swap3\n                  pop\n                    /* \"#utility.yul\":4799:4929   */\n                  pop\n                    /* \"#utility.yul\":4968:4971   */\n                  0xa0\n                    /* \"#utility.yul\":4995:5059   */\n                  tag_111\n                    /* \"#utility.yul\":5051:5058   */\n                  dup10\n                    /* \"#utility.yul\":5042:5048   */\n                  dup3\n                    /* \"#utility.yul\":5031:5040   */\n                  dup11\n                    /* \"#utility.yul\":5027:5049   */\n                  add\n                    /* \"#utility.yul\":4995:5059   */\n                  tag_32\n                  jump\t// in\n                tag_111:\n                    /* \"#utility.yul\":4985:5059   */\n                  swap2\n                  pop\n                    /* \"#utility.yul\":4939:5069   */\n                  pop\n                    /* \"#utility.yul\":3596:5076   */\n                  swap3\n                  swap6\n                  pop\n                  swap3\n                  swap6\n                  pop\n                  swap3\n                  swap6\n                  jump\t// out\n                    /* \"#utility.yul\":5082:5181   */\n                tag_33:\n                    /* \"#utility.yul\":5134:5140   */\n                  0x00\n                    /* \"#utility.yul\":5168:5173   */\n                  dup2\n                    /* \"#utility.yul\":5162:5174   */\n                  mload\n                    /* \"#utility.yul\":5152:5174   */\n                  swap1\n                  pop\n                    /* \"#utility.yul\":5082:5181   */\n                  swap2\n                  swap1\n                  pop\n                  jump\t// out\n                    /* \"#utility.yul\":5187:5367   */\n                tag_34:\n                    /* \"#utility.yul\":5235:5312   */\n                  0x4e487b7100000000000000000000000000000000000000000000000000000000\n                    /* \"#utility.yul\":5232:5233   */\n                  0x00\n                    /* \"#utility.yul\":5225:5313   */\n                  mstore\n                    /* \"#utility.yul\":5332:5336   */\n                  0x22\n                    /* \"#utility.yul\":5329:5330   */\n                  0x04\n                    /* \"#utility.yul\":5322:5337   */\n                  mstore\n                    /* \"#utility.yul\":5356:5360   */\n                  0x24\n                    /* \"#utility.yul\":5353:5354   */\n                  0x00\n                    /* \"#utility.yul\":5346:5361   */\n                  revert\n                    /* \"#utility.yul\":5373:5693   */\n                tag_35:\n                    /* \"#utility.yul\":5417:5423   */\n                  0x00\n                    /* \"#utility.yul\":5454:5455   */\n                  0x02\n                    /* \"#utility.yul\":5448:5452   */\n                  dup3\n                    /* \"#utility.yul\":5444:5456   */\n                  div\n                    /* \"#utility.yul\":5434:5456   */\n                  swap1\n                  pop\n                    /* \"#utility.yul\":5501:5502   */\n                  0x01\n                    /* \"#utility.yul\":5495:5499   */\n                  dup3\n                    /* \"#utility.yul\":5491:5503   */\n                  and\n                    /* \"#utility.yul\":5522:5540   */\n                  dup1\n                    /* \"#utility.yul\":5512:5593   */\n                  tag_115\n                  jumpi\n                    /* \"#utility.yul\":5578:5582   */\n                  0x7f\n                    /* \"#utility.yul\":5570:5576   */\n                  dup3\n                    /* \"#utility.yul\":5566:5583   */\n                  and\n                    /* \"#utility.yul\":5556:5583   */\n                  swap2\n                  pop\n                    /* \"#utility.yul\":5512:5593   */\n                tag_115:\n                    /* \"#utility.yul\":5640:5642   */\n                  0x20\n                    /* \"#utility.yul\":5632:5638   */\n                  dup3\n                    /* \"#utility.yul\":5629:5643   */\n                  lt\n                    /* \"#utility.yul\":5609:5627   */\n                  dup2\n                    /* \"#utility.yul\":5606:5644   */\n                  sub\n                    /* \"#utility.yul\":5603:5687   */\n                  tag_116\n                  jumpi\n                    /* \"#utility.yul\":5659:5677   */\n                  tag_117\n                  tag_34\n                  jump\t// in\n                tag_117:\n                    /* \"#utility.yul\":5603:5687   */\n                tag_116:\n                    /* \"#utility.yul\":5424:5693   */\n                  pop\n                    /* \"#utility.yul\":5373:5693   */\n                  swap2\n                  swap1\n                  pop\n                  jump\t// out\n                    /* \"#utility.yul\":5699:5840   */\n                tag_36:\n                    /* \"#utility.yul\":5748:5752   */\n                  0x00\n                    /* \"#utility.yul\":5771:5774   */\n                  dup2\n                    /* \"#utility.yul\":5763:5774   */\n                  swap1\n                  pop\n                    /* \"#utility.yul\":5794:5797   */\n                  dup2\n                    /* \"#utility.yul\":5791:5792   */\n                  0x00\n                    /* \"#utility.yul\":5784:5798   */\n                  mstore\n                    /* \"#utility.yul\":5828:5832   */\n                  0x20\n                    /* \"#utility.yul\":5825:5826   */\n                  0x00\n                    /* \"#utility.yul\":5815:5833   */\n                  keccak256\n                    /* \"#utility.yul\":5807:5833   */\n                  swap1\n                  pop\n                    /* \"#utility.yul\":5699:5840   */\n                  swap2\n                  swap1\n                  pop\n                  jump\t// out\n                    /* \"#utility.yul\":5846:5939   */\n                tag_37:\n                    /* \"#utility.yul\":5883:5889   */\n                  0x00\n                    /* \"#utility.yul\":5930:5932   */\n                  0x20\n                    /* \"#utility.yul\":5925:5927   */\n                  0x1f\n                    /* \"#utility.yul\":5918:5923   */\n                  dup4\n                    /* \"#utility.yul\":5914:5928   */\n                  add\n                    /* \"#utility.yul\":5910:5933   */\n                  div\n                    /* \"#utility.yul\":5900:5933   */\n                  swap1\n                  pop\n                    /* \"#utility.yul\":5846:5939   */\n                  swap2\n                  swap1\n                  pop\n                  jump\t// out\n                    /* \"#utility.yul\":5945:6052   */\n                tag_38:\n                    /* \"#utility.yul\":5989:5997   */\n                  0x00\n                    /* \"#utility.yul\":6039:6044   */\n                  dup3\n                    /* \"#utility.yul\":6033:6037   */\n                  dup3\n                    /* \"#utility.yul\":6029:6045   */\n                  shl\n                    /* \"#utility.yul\":6008:6045   */\n                  swap1\n                  pop\n                    /* \"#utility.yul\":5945:6052   */\n                  swap3\n                  swap2\n                  pop\n                  pop\n                  jump\t// out\n                    /* \"#utility.yul\":6058:6451   */\n                tag_39:\n                    /* \"#utility.yul\":6127:6133   */\n                  0x00\n                    /* \"#utility.yul\":6177:6178   */\n                  0x08\n                    /* \"#utility.yul\":6165:6175   */\n                  dup4\n                    /* \"#utility.yul\":6161:6179   */\n                  mul\n                    /* \"#utility.yul\":6200:6297   */\n                  tag_122\n                    /* \"#utility.yul\":6230:6296   */\n                  0xffffffffffffffffffffffffffffffffffffffffffffffffffffffffffffffff\n                    /* \"#utility.yul\":6219:6228   */\n                  dup3\n                    /* \"#utility.yul\":6200:6297   */\n                  tag_38\n                  jump\t// in\n                tag_122:\n                    /* \"#utility.yul\":6318:6357   */\n                  tag_123\n                    /* \"#utility.yul\":6348:6356   */\n                  dup7\n                    /* \"#utility.yul\":6337:6346   */\n                  dup4\n                    /* \"#utility.yul\":6318:6357   */\n                  tag_38\n                  jump\t// in\n                tag_123:\n                    /* \"#utility.yul\":6306:6357   */\n                  swap6\n                  pop\n                    /* \"#utility.yul\":6390:6394   */\n                  dup1\n                    /* \"#utility.yul\":6386:6395   */\n                  not\n                    /* \"#utility.yul\":6379:6384   */\n                  dup5\n                    /* \"#utility.yul\":6375:6396   */\n                  and\n                    /* \"#utility.yul\":6366:6396   */\n                  swap4\n                  pop\n                    /* \"#utility.yul\":6439:6443   */\n                  dup1\n                    /* \"#utility.yul\":6429:6437   */\n                  dup7\n                    /* \"#utility.yul\":6425:6444   */\n                  and\n                    /* \"#utility.yul\":6418:6423   */\n                  dup5\n                    /* \"#utility.yul\":6415:6445   */\n                  or\n                    /* \"#utility.yul\":6405:6445   */\n                  swap3\n                  pop\n                    /* \"#utility.yul\":6134:6451   */\n                  pop\n                  pop\n                    /* \"#utility.yul\":6058:6451   */\n                  swap4\n                  swap3\n                  pop\n                  pop\n                  pop\n                  jump\t// out\n                    /* \"#utility.yul\":6457:6517   */\n                tag_40:\n                    /* \"#utility.yul\":6485:6488   */\n                  0x00\n                    /* \"#utility.yul\":6506:6511   */\n                  dup2\n                    /* \"#utility.yul\":6499:6511   */\n                  swap1\n                  pop\n                    /* \"#utility.yul\":6457:6517   */\n                  swap2\n                  swap1\n                  pop\n                  jump\t// out\n                    /* \"#utility.yul\":6523:6665   */\n                tag_41:\n                    /* \"#utility.yul\":6573:6582   */\n                  0x00\n                    /* \"#utility.yul\":6606:6659   */\n                  tag_126\n                    /* \"#utility.yul\":6624:6658   */\n                  tag_127\n                    /* \"#utility.yul\":6633:6657   */\n                  tag_128\n                    /* \"#utility.yul\":6651:6656   */\n                  dup5\n                    /* \"#utility.yul\":6633:6657   */\n                  tag_30\n                  jump\t// in\n                tag_128:\n                    /* \"#utility.yul\":6624:6658   */\n                  tag_40\n                  jump\t// in\n                tag_127:\n                    /* \"#utility.yul\":6606:6659   */\n                  tag_30\n                  jump\t// in\n                tag_126:\n                    /* \"#utility.yul\":6593:6659   */\n                  swap1\n                  pop\n                    /* \"#utility.yul\":6523:6665   */\n                  swap2\n                  swap1\n                  pop\n                  jump\t// out\n                    /* \"#utility.yul\":6671:6746   */\n                tag_42:\n                    /* \"#utility.yul\":6714:6717   */\n                  0x00\n                    /* \"#utility.yul\":6735:6740   */\n                  dup2\n                    /* \"#utility.yul\":6728:6740   */\n                  swap1\n                  pop\n                    /* \"#utility.yul\":6671:6746   */\n                  swap2\n                  swap1\n                  pop\n                  jump\t// out\n                    /* \"#utility.yul\":6752:7021   */\n                tag_43:\n                    /* \"#utility.yul\":6862:6901   */\n                  tag_131\n                    /* \"#utility.yul\":6893:6900   */\n                  dup4\n                    /* \"#utility.yul\":6862:6901   */\n                  tag_41\n                  jump\t// in\n                tag_131:\n                    /* \"#utility.yul\":6923:7014   */\n                  tag_132\n                    /* \"#utility.yul\":6972:7013   */\n                  tag_133\n                    /* \"#utility.yul\":6996:7012   */\n                  dup3\n                    /* \"#utility.yul\":6972:7013   */\n                  tag_42\n                  jump\t// in\n                tag_133:\n                    /* \"#utility.yul\":6964:6970   */\n                  dup5\n                    /* \"#utility.yul\":6957:6961   */\n                  dup5\n                    /* \"#utility.yul\":6951:6962   */\n                  sload\n                    /* \"#utility.yul\":6923:7014   */\n                  tag_39\n                  jump\t// in\n                tag_132:\n                    /* \"#utility.yul\":6917:6921   */\n                  dup3\n                    /* \"#utility.yul\":6910:7015   */\n                  sstore\n                    /* \"#utility.yul\":6828:7021   */\n                  pop\n                    /* \"#utility.yul\":6752:7021   */\n                  pop\n                  pop\n                  pop\n                  jump\t// out\n                    /* \"#utility.yul\":7027:7100   */\n                tag_44:\n                    /* \"#utility.yul\":7072:7075   */\n                  0x00\n                    /* \"#utility.yul\":7027:7100   */\n                  swap1\n                  jump\t// out\n                    /* \"#utility.yul\":7106:7295   */\n                tag_45:\n                    /* \"#utility.yul\":7183:7215   */\n                  tag_136\n                  tag_44\n                  jump\t// in\n                tag_136:\n                    /* \"#utility.yul\":7224:7289   */\n                  tag_137\n                    /* \"#utility.yul\":7282:7288   */\n                  dup2\n                    /* \"#utility.yul\":7274:7280   */\n                  dup5\n                    /* \"#utility.yul\":7268:7272   */\n                  dup5\n                    /* \"#utility.yul\":7224:7289   */\n                  tag_43\n                  jump\t// in\n                tag_137:\n                    /* \"#utility.yul\":7159:7295   */\n                  pop\n                    /* \"#utility.yul\":7106:7295   */\n                  pop\n                  pop\n                  jump\t// out\n                    /* \"#utility.yul\":7301:7487   */\n                tag_46:\n                    /* \"#utility.yul\":7361:7481   */\n                tag_139:\n                    /* \"#utility.yul\":7378:7381   */\n                  dup2\n                    /* \"#utility.yul\":7371:7376   */\n                  dup2\n                    /* \"#utility.yul\":7368:7382   */\n                  lt\n                    /* \"#utility.yul\":7361:7481   */\n                  iszero\n                  tag_141\n                  jumpi\n                    /* \"#utility.yul\":7432:7471   */\n                  tag_142\n                    /* \"#utility.yul\":7469:7470   */\n                  0x00\n                    /* \"#utility.yul\":7462:7467   */\n                  dup3\n                    /* \"#utility.yul\":7432:7471   */\n                  tag_45\n                  jump\t// in\n                tag_142:\n                    /* \"#utility.yul\":7405:7406   */\n                  0x01\n                    /* \"#utility.yul\":7398:7403   */\n                  dup2\n                    /* \"#utility.yul\":7394:7407   */\n                  add\n                    /* \"#utility.yul\":7385:7407   */\n                  swap1\n                  pop\n                    /* \"#utility.yul\":7361:7481   */\n                  jump(tag_139)\n                tag_141:\n                    /* \"#utility.yul\":7301:7487   */\n                  pop\n                  pop\n                  jump\t// out\n                    /* \"#utility.yul\":7493:8036   */\n                tag_47:\n                    /* \"#utility.yul\":7594:7596   */\n                  0x1f\n                    /* \"#utility.yul\":7589:7592   */\n                  dup3\n                    /* \"#utility.yul\":7586:7597   */\n                  gt\n                    /* \"#utility.yul\":7583:8029   */\n                  iszero\n                  tag_144\n                  jumpi\n                    /* \"#utility.yul\":7628:7666   */\n                  tag_145\n                    /* \"#utility.yul\":7660:7665   */\n                  dup2\n                    /* \"#utility.yul\":7628:7666   */\n                  tag_36\n                  jump\t// in\n                tag_145:\n                    /* \"#utility.yul\":7712:7741   */\n                  tag_146\n                    /* \"#utility.yul\":7730:7740   */\n                  dup5\n                    /* \"#utility.yul\":7712:7741   */\n                  tag_37\n                  jump\t// in\n                tag_146:\n                    /* \"#utility.yul\":7702:7710   */\n                  dup2\n                    /* \"#utility.yul\":7698:7742   */\n                  add\n                    /* \"#utility.yul\":7895:7897   */\n                  0x20\n                    /* \"#utility.yul\":7883:7893   */\n                  dup6\n                    /* \"#utility.yul\":7880:7898   */\n                  lt\n                    /* \"#utility.yul\":7877:7926   */\n                  iszero\n                  tag_147\n                  jumpi\n                    /* \"#utility.yul\":7916:7924   */\n                  dup2\n                    /* \"#utility.yul\":7901:7924   */\n                  swap1\n                  pop\n                    /* \"#utility.yul\":7877:7926   */\n                tag_147:\n                    /* \"#utility.yul\":7939:8019   */\n                  tag_148\n                    /* \"#utility.yul\":7995:8017   */\n                  tag_149\n                    /* \"#utility.yul\":8013:8016   */\n                  dup6\n                    /* \"#utility.yul\":7995:8017   */\n                  tag_37\n                  jump\t// in\n                tag_149:\n                    /* \"#utility.yul\":7985:7993   */\n                  dup4\n                    /* \"#utility.yul\":7981:8018   */\n                  add\n                    /* \"#utility.yul\":7968:7979   */\n                  dup3\n                    /* \"#utility.yul\":7939:8019   */\n                  tag_46\n                  jump\t// in\n                tag_148:\n                    /* \"#utility.yul\":7598:8029   */\n                  pop\n                  pop\n                    /* \"#utility.yul\":7583:8029   */\n                tag_144:\n                    /* \"#utility.yul\":7493:8036   */\n                  pop\n                  pop\n                  pop\n                  jump\t// out\n                    /* \"#utility.yul\":8042:8159   */\n                tag_48:\n                    /* \"#utility.yul\":8096:8104   */\n                  0x00\n                    /* \"#utility.yul\":8146:8151   */\n                  dup3\n                    /* \"#utility.yul\":8140:8144   */\n                  dup3\n                    /* \"#utility.yul\":8136:8152   */\n                  shr\n                    /* \"#utility.yul\":8115:8152   */\n                  swap1\n                  pop\n                    /* \"#utility.yul\":8042:8159   */\n                  swap3\n                  swap2\n                  pop\n                  pop\n                  jump\t// out\n                    /* \"#utility.yul\":8165:8334   */\n                tag_49:\n                    /* \"#utility.yul\":8209:8215   */\n                  0x00\n                    /* \"#utility.yul\":8242:8293   */\n                  tag_152\n                    /* \"#utility.yul\":8290:8291   */\n                  0x00\n                    /* \"#utility.yul\":8286:8292   */\n                  not\n                    /* \"#utility.yul\":8278:8283   */\n                  dup5\n                    /* \"#utility.yul\":8275:8276   */\n                  0x08\n                    /* \"#utility.yul\":8271:8284   */\n                  mul\n                    /* \"#utility.yul\":8242:8293   */\n                  tag_48\n                  jump\t// in\n                tag_152:\n                    /* \"#utility.yul\":8238:8294   */\n                  not\n                    /* \"#utility.yul\":8323:8327   */\n                  dup1\n                    /* \"#utility.yul\":8317:8321   */\n                  dup4\n                    /* \"#utility.yul\":8313:8328   */\n                  and\n                    /* \"#utility.yul\":8303:8328   */\n                  swap2\n                  pop\n                    /* \"#utility.yul\":8216:8334   */\n                  pop\n                    /* \"#utility.yul\":8165:8334   */\n                  swap3\n                  swap2\n                  pop\n                  pop\n                  jump\t// out\n                    /* \"#utility.yul\":8339:8634   */\n                tag_50:\n                    /* \"#utility.yul\":8415:8419   */\n                  0x00\n                    /* \"#utility.yul\":8561:8590   */\n                  tag_154\n                    /* \"#utility.yul\":8586:8589   */\n                  dup4\n                    /* \"#utility.yul\":8580:8584   */\n                  dup4\n                    /* \"#utility.yul\":8561:8590   */\n                  tag_49\n                  jump\t// in\n                tag_154:\n                    /* \"#utility.yul\":8553:8590   */\n                  swap2\n                  pop\n                    /* \"#utility.yul\":8623:8626   */\n                  dup3\n                    /* \"#utility.yul\":8620:8621   */\n                  0x02\n                    /* \"#utility.yul\":8616:8627   */\n                  mul\n                    /* \"#utility.yul\":8610:8614   */\n                  dup3\n                    /* \"#utility.yul\":8607:8628   */\n                  or\n                    /* \"#utility.yul\":8599:8628   */\n                  swap1\n                  pop\n                    /* \"#utility.yul\":8339:8634   */\n                  swap3\n                  swap2\n                  pop\n                  pop\n                  jump\t// out\n                    /* \"#utility.yul\":8639:10034   */\n                tag_7:\n                    /* \"#utility.yul\":8756:8793   */\n                  tag_156\n                    /* \"#utility.yul\":8789:8792   */\n                  dup3\n                    /* \"#utility.yul\":8756:8793   */\n                  tag_33\n                  jump\t// in\n                tag_156:\n                    /* \"#utility.yul\":8858:8876   */\n                  0xffffffffffffffff\n                    /* \"#utility.yul\":8850:8856   */\n                  dup2\n                    /* \"#utility.yul\":8847:8877   */\n                  gt\n                    /* \"#utility.yul\":8844:8900   */\n                  iszero\n                  tag_157\n                  jumpi\n                    /* \"#utility.yul\":8880:8898   */\n                  tag_158\n                  tag_23\n                  jump\t// in\n                tag_158:\n                    /* \"#utility.yul\":8844:8900   */\n                tag_157:\n                    /* \"#utility.yul\":8924:8962   */\n                  tag_159\n                    /* \"#utility.yul\":8956:8960   */\n                  dup3\n                    /* \"#utility.yul\":8950:8961   */\n                  sload\n                    /* \"#utility.yul\":8924:8962   */\n                  tag_35\n                  jump\t// in\n                tag_159:\n                    /* \"#utility.yul\":9009:9076   */\n                  tag_160\n                    /* \"#utility.yul\":9069:9075   */\n                  dup3\n                    /* \"#utility.yul\":9061:9067   */\n                  dup3\n                    /* \"#utility.yul\":9055:9059   */\n                  dup6\n                    /* \"#utility.yul\":9009:9076   */\n                  tag_47\n                  jump\t// in\n                tag_160:\n                    /* \"#utility.yul\":9103:9104   */\n                  0x00\n                    /* \"#utility.yul\":9127:9131   */\n                  0x20\n                    /* \"#utility.yul\":9114:9131   */\n                  swap1\n                  pop\n                    /* \"#utility.yul\":9159:9161   */\n                  0x1f\n                    /* \"#utility.yul\":9151:9157   */\n                  dup4\n                    /* \"#utility.yul\":9148:9162   */\n                  gt\n                    /* \"#utility.yul\":9176:9177   */\n                  0x01\n                    /* \"#utility.yul\":9171:9789   */\n                  dup2\n                  eq\n                  tag_162\n                  jumpi\n                    /* \"#utility.yul\":9833:9834   */\n                  0x00\n                    /* \"#utility.yul\":9850:9856   */\n                  dup5\n                    /* \"#utility.yul\":9847:9924   */\n                  iszero\n                  tag_163\n                  jumpi\n                    /* \"#utility.yul\":9899:9908   */\n                  dup3\n                    /* \"#utility.yul\":9894:9897   */\n                  dup8\n                    /* \"#utility.yul\":9890:9909   */\n                  add\n                    /* \"#utility.yul\":9884:9910   */\n                  mload\n                    /* \"#utility.yul\":9875:9910   */\n                  swap1\n                  pop\n                    /* \"#utility.yul\":9847:9924   */\n                tag_163:\n                    /* \"#utility.yul\":9950:10017   */\n                  tag_164\n                    /* \"#utility.yul\":10010:10016   */\n                  dup6\n                    /* \"#utility.yul\":10003:10008   */\n                  dup3\n                    /* \"#utility.yul\":9950:10017   */\n                  tag_50\n                  jump\t// in\n                tag_164:\n                    /* \"#utility.yul\":9944:9948   */\n                  dup7\n                    /* \"#utility.yul\":9937:10018   */\n                  sstore\n                    /* \"#utility.yul\":9806:10028   */\n                  pop\n                    /* \"#utility.yul\":9141:10028   */\n                  jump(tag_161)\n                    /* \"#utility.yul\":9171:9789   */\n                tag_162:\n                    /* \"#utility.yul\":9223:9227   */\n                  0x1f\n                    /* \"#utility.yul\":9219:9228   */\n                  not\n                    /* \"#utility.yul\":9211:9217   */\n                  dup5\n                    /* \"#utility.yul\":9207:9229   */\n                  and\n                    /* \"#utility.yul\":9257:9294   */\n                  tag_165\n                    /* \"#utility.yul\":9289:9293   */\n                  dup7\n                    /* \"#utility.yul\":9257:9294   */\n                  tag_36\n                  jump\t// in\n                tag_165:\n                    /* \"#utility.yul\":9316:9317   */\n                  0x00\n                    /* \"#utility.yul\":9330:9538   */\n                tag_166:\n                    /* \"#utility.yul\":9344:9351   */\n                  dup3\n                    /* \"#utility.yul\":9341:9342   */\n                  dup2\n                    /* \"#utility.yul\":9338:9352   */\n                  lt\n                    /* \"#utility.yul\":9330:9538   */\n                  iszero\n                  tag_168\n                  jumpi\n                    /* \"#utility.yul\":9423:9432   */\n                  dup5\n                    /* \"#utility.yul\":9418:9421   */\n                  dup10\n                    /* \"#utility.yul\":9414:9433   */\n                  add\n                    /* \"#utility.yul\":9408:9434   */\n                  mload\n                    /* \"#utility.yul\":9400:9406   */\n                  dup3\n                    /* \"#utility.yul\":9393:9435   */\n                  sstore\n                    /* \"#utility.yul\":9474:9475   */\n                  0x01\n                    /* \"#utility.yul\":9466:9472   */\n                  dup3\n                    /* \"#utility.yul\":9462:9476   */\n                  add\n                    /* \"#utility.yul\":9452:9476   */\n                  swap2\n                  pop\n                    /* \"#utility.yul\":9521:9523   */\n                  0x20\n                    /* \"#utility.yul\":9510:9519   */\n                  dup6\n                    /* \"#utility.yul\":9506:9524   */\n                  add\n                    /* \"#utility.yul\":9493:9524   */\n                  swap5\n                  pop\n                    /* \"#utility.yul\":9367:9371   */\n                  0x20\n                    /* \"#utility.yul\":9364:9365   */\n                  dup2\n                    /* \"#utility.yul\":9360:9372   */\n                  add\n                    /* \"#utility.yul\":9355:9372   */\n                  swap1\n                  pop\n                    /* \"#utility.yul\":9330:9538   */\n                  jump(tag_166)\n                tag_168:\n                    /* \"#utility.yul\":9566:9572   */\n                  dup7\n                    /* \"#utility.yul\":9557:9564   */\n                  dup4\n                    /* \"#utility.yul\":9554:9573   */\n                  lt\n                    /* \"#utility.yul\":9551:9730   */\n                  iszero\n                  tag_169\n                  jumpi\n                    /* \"#utility.yul\":9624:9633   */\n                  dup5\n                    /* \"#utility.yul\":9619:9622   */\n                  dup10\n                    /* \"#utility.yul\":9615:9634   */\n                  add\n                    /* \"#utility.yul\":9609:9635   */\n                  mload\n                    /* \"#utility.yul\":9667:9715   */\n                  tag_170\n                    /* \"#utility.yul\":9709:9713   */\n                  0x1f\n                    /* \"#utility.yul\":9701:9707   */\n                  dup10\n                    /* \"#utility.yul\":9697:9714   */\n                  and\n                    /* \"#utility.yul\":9686:9695   */\n                  dup3\n                    /* \"#utility.yul\":9667:9715   */\n                  tag_49\n                  jump\t// in\n                tag_170:\n                    /* \"#utility.yul\":9659:9665   */\n                  dup4\n                    /* \"#utility.yul\":9652:9716   */\n                  sstore\n                    /* \"#utility.yul\":9574:9730   */\n                  pop\n                    /* \"#utility.yul\":9551:9730   */\n                tag_169:\n                    /* \"#utility.yul\":9776:9777   */\n                  0x01\n                    /* \"#utility.yul\":9772:9773   */\n                  0x02\n                    /* \"#utility.yul\":9764:9770   */\n                  dup9\n                    /* \"#utility.yul\":9760:9774   */\n                  mul\n                    /* \"#utility.yul\":9756:9778   */\n                  add\n                    /* \"#utility.yul\":9750:9754   */\n                  dup9\n                    /* \"#utility.yul\":9743:9779   */\n                  sstore\n                    /* \"#utility.yul\":9178:9789   */\n                  pop\n                  pop\n                  pop\n                    /* \"#utility.yul\":9141:10028   */\n                tag_161:\n                  pop\n                    /* \"#utility.yul\":8731:10034   */\n                  pop\n                  pop\n                  pop\n                    /* \"#utility.yul\":8639:10034   */\n                  pop\n                  pop\n                  jump\t// out\n                    /* \"smartwill.sol\":1639:2980  contract BankAccount {... */\n                tag_12:\n                  dataSize(sub_0)\n                  dup1\n                  dataOffset(sub_0)\n                  0x00\n                  codecopy\n                  0x00\n                  return\n                stop\n\n                sub_0: assembly {\n                        /* \"smartwill.sol\":1639:2980  contract BankAccount {... */\n                      mstore(0x40, 0x80)\n                      callvalue\n                      dup1\n                      iszero\n                      tag_1\n                      jumpi\n                      0x00\n                      dup1\n                      revert\n                    tag_1:\n                      pop\n                      jumpi(tag_2, lt(calldatasize, 0x04))\n                      shr(0xe0, calldataload(0x00))\n                      dup1\n                      0x481c6a75\n                      eq\n                      tag_3\n                      jumpi\n                      dup1\n                      0x5dab2420\n                      eq\n                      tag_4\n                      jumpi\n                      dup1\n                      0xf2390d43\n                      eq\n                      tag_5\n                      jumpi\n                    tag_2:\n                      0x00\n                      dup1\n                      revert\n                        /* \"smartwill.sol\":1964:1986  address public manager */\n                    tag_3:\n                      tag_6\n                      tag_7\n                      jump\t// in\n                    tag_6:\n                      mload(0x40)\n                      tag_8\n                      swap2\n                      swap1\n                      tag_9\n                      jump\t// in\n                    tag_8:\n                      mload(0x40)\n                      dup1\n                      swap2\n                      sub\n                      swap1\n                      return\n                        /* \"smartwill.sol\":1992:2021  AccountDetails public account */\n                    tag_4:\n                      tag_10\n                      tag_11\n                      jump\t// in\n                    tag_10:\n                      mload(0x40)\n                      tag_12\n                      swap9\n                      swap8\n                      swap7\n                      swap6\n                      swap5\n                      swap4\n                      swap3\n                      swap2\n                      swap1\n                      tag_13\n                      jump\t// in\n                    tag_12:\n                      mload(0x40)\n                      dup1\n                      swap2\n                      sub\n                      swap1\n                      return\n                        /* \"smartwill.sol\":2676:2978  function setParameters(... */\n                    tag_5:\n                      tag_14\n                      0x04\n                      dup1\n                      calldatasize\n                      sub\n                      dup2\n                      add\n                      swap1\n                      tag_15\n                      swap2\n                      swap1\n                      tag_16\n                      jump\t// in\n                    tag_15:\n                      tag_17\n                      jump\t// in\n                    tag_14:\n                      stop\n                        /* \"smartwill.sol\":1964:1986  address public manager */\n                    tag_7:\n                      0x00\n                      dup1\n                      sload\n                      swap1\n                      0x0100\n                      exp\n                      swap1\n                      div\n                      0xffffffffffffffffffffffffffffffffffffffff\n                      and\n                      dup2\n                      jump\t// out\n                        /* \"smartwill.sol\":1992:2021  AccountDetails public account */\n                    tag_11:\n                      0x01\n                      dup1\n                      0x00\n                      add\n                      dup1\n                      sload\n                      tag_18\n                      swap1\n                      tag_19\n                      jump\t// in\n                    tag_18:\n                      dup1\n                      0x1f\n                      add\n                      0x20\n                      dup1\n                      swap2\n                      div\n                      mul\n                      0x20\n                      add\n                      mload(0x40)\n                      swap1\n                      dup2\n                      add\n                      0x40\n                      mstore\n                      dup1\n                      swap3\n                      swap2\n                      swap1\n                      dup2\n                      dup2\n                      mstore\n                      0x20\n                      add\n                      dup3\n                      dup1\n                      sload\n                      tag_20\n                      swap1\n                      tag_19\n                      jump\t// in\n                    tag_20:\n                      dup1\n                      iszero\n                      tag_21\n                      jumpi\n                      dup1\n                      0x1f\n                      lt\n                      tag_22\n                      jumpi\n                      0x0100\n                      dup1\n                      dup4\n                      sload\n                      div\n                      mul\n                      dup4\n                      mstore\n                      swap2\n                      0x20\n                      add\n                      swap2\n                      jump(tag_21)\n                    tag_22:\n                      dup3\n                      add\n                      swap2\n                      swap1\n                      0x00\n                      mstore\n                      keccak256(0x00, 0x20)\n                      swap1\n                    tag_23:\n                      dup2\n                      sload\n                      dup2\n                      mstore\n                      swap1\n                      0x01\n                      add\n                      swap1\n                      0x20\n                      add\n                      dup1\n                      dup4\n                      gt\n                      tag_23\n                      jumpi\n                      dup3\n                      swap1\n                      sub\n                      0x1f\n                      and\n                      dup3\n                      add\n                      swap2\n                    tag_21:\n                      pop\n                      pop\n                      pop\n                      pop\n                      pop\n                      swap1\n                      dup1\n                      0x01\n                      add\n                      dup1\n                      sload\n                      tag_24\n                      swap1\n                      tag_19\n                      jump\t// in\n                    tag_24:\n                      dup1\n                      0x1f\n                      add\n                      0x20\n                      dup1\n                      swap2\n                      div\n                      mul\n                      0x20\n                      add\n                      mload(0x40)\n                      swap1\n                      dup2\n                      add\n                      0x40\n                      mstore\n                      dup1\n                      swap3\n                      swap2\n                      swap1\n                      dup2\n                      dup2\n                      mstore\n                      0x20\n                      add\n                      dup3\n                      dup1\n                      sload\n                      tag_25\n                      swap1\n                      tag_19\n                      jump\t// in\n                    tag_25:\n                      dup1\n                      iszero\n                      tag_26\n                      jumpi\n                      dup1\n                      0x1f\n                      lt\n                      tag_27\n                      jumpi\n                      0x0100\n                      dup1\n                      dup4\n                      sload\n                      div\n                      mul\n                      dup4\n                      mstore\n                      swap2\n                      0x20\n                      add\n                      swap2\n                      jump(tag_26)\n                    tag_27:\n                      dup3\n                      add\n                      swap2\n                      swap1\n                      0x00\n                      mstore\n                      keccak256(0x00, 0x20)\n                      swap1\n                    tag_28:\n                      dup2\n                      sload\n                      dup2\n                      mstore\n                      swap1\n                      0x01\n                      add\n                      swap1\n                      0x20\n                      add\n                      dup1\n                      dup4\n                      gt\n                      tag_28\n                      jumpi\n                      dup3\n                      swap1\n                      sub\n                      0x1f\n                      and\n                      dup3\n                      add\n                      swap2\n                    tag_26:\n                      pop\n                      pop\n                      pop\n                      pop\n                      pop\n                      swap1\n                      dup1\n                      0x02\n                      add\n                      sload\n                      swap1\n                      dup1\n                      0x03\n                      add\n                      sload\n                      swap1\n                      dup1\n                      0x04\n                      add\n                      sload\n                      swap1\n                      dup1\n                      0x05\n                      add\n                      dup1\n                      sload\n                      tag_29\n                      swap1\n                      tag_19\n                      jump\t// in\n                    tag_29:\n                      dup1\n                      0x1f\n                      add\n                      0x20\n                      dup1\n                      swap2\n                      div\n                      mul\n                      0x20\n                      add\n                      mload(0x40)\n                      swap1\n                      dup2\n                      add\n                      0x40\n                      mstore\n                      dup1\n                      swap3\n                      swap2\n                      swap1\n                      dup2\n                      dup2\n                      mstore\n                      0x20\n                      add\n                      dup3\n                      dup1\n                      sload\n                      tag_30\n                      swap1\n                      tag_19\n                      jump\t// in\n                    tag_30:\n                      dup1\n                      iszero\n                      tag_31\n                      jumpi\n                      dup1\n                      0x1f\n                      lt\n                      tag_32\n                      jumpi\n                      0x0100\n                      dup1\n                      dup4\n                      sload\n                      div\n                      mul\n                      dup4\n                      mstore\n                      swap2\n                      0x20\n                      add\n                      swap2\n                      jump(tag_31)\n                    tag_32:\n                      dup3\n                      add\n                      swap2\n                      swap1\n                      0x00\n                      mstore\n                      keccak256(0x00, 0x20)\n                      swap1\n                    tag_33:\n                      dup2\n                      sload\n                      dup2\n                      mstore\n                      swap1\n                      0x01\n                      add\n                      swap1\n                      0x20\n                      add\n                      dup1\n                      dup4\n                      gt\n                      tag_33\n                      jumpi\n                      dup3\n                      swap1\n                      sub\n                      0x1f\n                      and\n                      dup3\n                      add\n                      swap2\n                    tag_31:\n                      pop\n                      pop\n                      pop\n                      pop\n                      pop\n                      swap1\n                      dup1\n                      0x06\n                      add\n                      dup1\n                      sload\n                      tag_34\n                      swap1\n                      tag_19\n                      jump\t// in\n                    tag_34:\n                      dup1\n                      0x1f\n                      add\n                      0x20\n                      dup1\n                      swap2\n                      div\n                      mul\n                      0x20\n                      add\n                      mload(0x40)\n                      swap1\n                      dup2\n                      add\n                      0x40\n                      mstore\n                      dup1\n                      swap3\n                      swap2\n                      swap1\n                      dup2\n                      dup2\n                      mstore\n                      0x20\n                      add\n                      dup3\n                      dup1\n                      sload\n                      tag_35\n                      swap1\n                      tag_19\n                      jump\t// in\n                    tag_35:\n                      dup1\n                      iszero\n                      tag_36\n                      jumpi\n                      dup1\n                      0x1f\n                      lt\n                      tag_37\n                      jumpi\n                      0x0100\n                      dup1\n                      dup4\n                      sload\n                      div\n                      mul\n                      dup4\n                      mstore\n                      swap2\n                      0x20\n                      add\n                      swap2\n                      jump(tag_36)\n                    tag_37:\n                      dup3\n                      add\n                      swap2\n                      swap1\n                      0x00\n                      mstore\n                      keccak256(0x00, 0x20)\n                      swap1\n                    tag_38:\n                      dup2\n                      sload\n                      dup2\n                      mstore\n                      swap1\n                      0x01\n                      add\n                      swap1\n                      0x20\n                      add\n                      dup1\n                      dup4\n                      gt\n                      tag_38\n                      jumpi\n                      dup3\n                      swap1\n                      sub\n                      0x1f\n                      and\n                      dup3\n                      add\n                      swap2\n                    tag_36:\n                      pop\n                      pop\n                      pop\n                      pop\n                      pop\n                      swap1\n                      dup1\n                      0x07\n                      add\n                      dup1\n                      sload\n                      tag_39\n                      swap1\n                      tag_19\n                      jump\t// in\n                    tag_39:\n                      dup1\n                      0x1f\n                      add\n                      0x20\n                      dup1\n                      swap2\n                      div\n                      mul\n                      0x20\n                      add\n                      mload(0x40)\n                      swap1\n                      dup2\n                      add\n                      0x40\n                      mstore\n                      dup1\n                      swap3\n                      swap2\n                      swap1\n                      dup2\n                      dup2\n                      mstore\n                      0x20\n                      add\n                      dup3\n                      dup1\n                      sload\n                      tag_40\n                      swap1\n                      tag_19\n                      jump\t// in\n                    tag_40:\n                      dup1\n                      iszero\n                      tag_41\n                      jumpi\n                      dup1\n                      0x1f\n                      lt\n                      tag_42\n                      jumpi\n                      0x0100\n                      dup1\n                      dup4\n                      sload\n                      div\n                      mul\n                      dup4\n                      mstore\n                      swap2\n                      0x20\n                      add\n                      swap2\n                      jump(tag_41)\n                    tag_42:\n                      dup3\n                      add\n                      swap2\n                      swap1\n                      0x00\n                      mstore\n                      keccak256(0x00, 0x20)\n                      swap1\n                    tag_43:\n                      dup2\n                      sload\n                      dup2\n                      mstore\n                      swap1\n                      0x01\n                      add\n                      swap1\n                      0x20\n                      add\n                      dup1\n                      dup4\n                      gt\n                      tag_43\n                      jumpi\n                      dup3\n                      swap1\n                      sub\n                      0x1f\n                      and\n                      dup3\n                      add\n                      swap2\n                    tag_41:\n                      pop\n                      pop\n                      pop\n                      pop\n                      pop\n                      swap1\n                      pop\n                      dup9\n                      jump\t// out\n                        /* \"smartwill.sol\":2676:2978  function setParameters(... */\n                    tag_17:\n                        /* \"smartwill.sol\":2842:2852  msg.sender */\n                      caller\n                        /* \"smartwill.sol\":2831:2852  manager == msg.sender */\n                      0xffffffffffffffffffffffffffffffffffffffff\n                      and\n                        /* \"smartwill.sol\":2831:2838  manager */\n                      0x00\n                      dup1\n                      sload\n                      swap1\n                      0x0100\n                      exp\n                      swap1\n                      div\n                      0xffffffffffffffffffffffffffffffffffffffff\n                      and\n                        /* \"smartwill.sol\":2831:2852  manager == msg.sender */\n                      0xffffffffffffffffffffffffffffffffffffffff\n                      and\n                      eq\n                        /* \"smartwill.sol\":2823:2853  require(manager == msg.sender) */\n                      tag_45\n                      jumpi\n                      0x00\n                      dup1\n                      revert\n                    tag_45:\n                        /* \"smartwill.sol\":2882:2891  _password */\n                      dup3\n                        /* \"smartwill.sol\":2863:2870  account */\n                      0x01\n                        /* \"smartwill.sol\":2863:2879  account.password */\n                      0x05\n                      add\n                        /* \"smartwill.sol\":2863:2891  account.password = _password */\n                      swap1\n                      dup2\n                      tag_46\n                      swap2\n                      swap1\n                      tag_47\n                      jump\t// in\n                    tag_46:\n                      pop\n                        /* \"smartwill.sol\":2919:2927  _balance */\n                      dup2\n                        /* \"smartwill.sol\":2901:2908  account */\n                      0x01\n                        /* \"smartwill.sol\":2901:2916  account.balance */\n                      0x06\n                      add\n                        /* \"smartwill.sol\":2901:2927  account.balance = _balance */\n                      swap1\n                      dup2\n                      tag_48\n                      swap2\n                      swap1\n                      tag_47\n                      jump\t// in\n                    tag_48:\n                      pop\n                        /* \"smartwill.sol\":2959:2971  _description */\n                      dup1\n                        /* \"smartwill.sol\":2937:2944  account */\n                      0x01\n                        /* \"smartwill.sol\":2937:2956  account.description */\n                      0x07\n                      add\n                        /* \"smartwill.sol\":2937:2971  account.description = _description */\n                      swap1\n                      dup2\n                      tag_49\n                      swap2\n                      swap1\n                      tag_47\n                      jump\t// in\n                    tag_49:\n                      pop\n                        /* \"smartwill.sol\":2676:2978  function setParameters(... */\n                      pop\n                      pop\n                      pop\n                      jump\t// out\n                        /* \"#utility.yul\":7:133   */\n                    tag_50:\n                        /* \"#utility.yul\":44:51   */\n                      0x00\n                        /* \"#utility.yul\":84:126   */\n                      0xffffffffffffffffffffffffffffffffffffffff\n                        /* \"#utility.yul\":77:82   */\n                      dup3\n                        /* \"#utility.yul\":73:127   */\n                      and\n                        /* \"#utility.yul\":62:127   */\n                      swap1\n                      pop\n                        /* \"#utility.yul\":7:133   */\n                      swap2\n                      swap1\n                      pop\n                      jump\t// out\n                        /* \"#utility.yul\":139:235   */\n                    tag_51:\n                        /* \"#utility.yul\":176:183   */\n                      0x00\n                        /* \"#utility.yul\":205:229   */\n                      tag_91\n                        /* \"#utility.yul\":223:228   */\n                      dup3\n                        /* \"#utility.yul\":205:229   */\n                      tag_50\n                      jump\t// in\n                    tag_91:\n                        /* \"#utility.yul\":194:229   */\n                      swap1\n                      pop\n                        /* \"#utility.yul\":139:235   */\n                      swap2\n                      swap1\n                      pop\n                      jump\t// out\n                        /* \"#utility.yul\":241:359   */\n                    tag_52:\n                        /* \"#utility.yul\":328:352   */\n                      tag_93\n                        /* \"#utility.yul\":346:351   */\n                      dup2\n                        /* \"#utility.yul\":328:352   */\n                      tag_51\n                      jump\t// in\n                    tag_93:\n                        /* \"#utility.yul\":323:326   */\n                      dup3\n                        /* \"#utility.yul\":316:353   */\n                      mstore\n                        /* \"#utility.yul\":241:359   */\n                      pop\n                      pop\n                      jump\t// out\n                        /* \"#utility.yul\":365:587   */\n                    tag_9:\n                        /* \"#utility.yul\":458:462   */\n                      0x00\n                        /* \"#utility.yul\":496:498   */\n                      0x20\n                        /* \"#utility.yul\":485:494   */\n                      dup3\n                        /* \"#utility.yul\":481:499   */\n                      add\n                        /* \"#utility.yul\":473:499   */\n                      swap1\n                      pop\n                        /* \"#utility.yul\":509:580   */\n                      tag_95\n                        /* \"#utility.yul\":577:578   */\n                      0x00\n                        /* \"#utility.yul\":566:575   */\n                      dup4\n                        /* \"#utility.yul\":562:579   */\n                      add\n                        /* \"#utility.yul\":553:559   */\n                      dup5\n                        /* \"#utility.yul\":509:580   */\n                      tag_52\n                      jump\t// in\n                    tag_95:\n                        /* \"#utility.yul\":365:587   */\n                      swap3\n                      swap2\n                      pop\n                      pop\n                      jump\t// out\n                        /* \"#utility.yul\":593:692   */\n                    tag_53:\n                        /* \"#utility.yul\":645:651   */\n                      0x00\n                        /* \"#utility.yul\":679:684   */\n                      dup2\n                        /* \"#utility.yul\":673:685   */\n                      mload\n                        /* \"#utility.yul\":663:685   */\n                      swap1\n                      pop\n                        /* \"#utility.yul\":593:692   */\n                      swap2\n                      swap1\n                      pop\n                      jump\t// out\n                        /* \"#utility.yul\":698:867   */\n                    tag_54:\n                        /* \"#utility.yul\":782:793   */\n                      0x00\n                        /* \"#utility.yul\":816:822   */\n                      dup3\n                        /* \"#utility.yul\":811:814   */\n                      dup3\n                        /* \"#utility.yul\":804:823   */\n                      mstore\n                        /* \"#utility.yul\":856:860   */\n                      0x20\n                        /* \"#utility.yul\":851:854   */\n                      dup3\n                        /* \"#utility.yul\":847:861   */\n                      add\n                        /* \"#utility.yul\":832:861   */\n                      swap1\n                      pop\n                        /* \"#utility.yul\":698:867   */\n                      swap3\n                      swap2\n                      pop\n                      pop\n                      jump\t// out\n                        /* \"#utility.yul\":873:1180   */\n                    tag_55:\n                        /* \"#utility.yul\":941:942   */\n                      0x00\n                        /* \"#utility.yul\":951:1064   */\n                    tag_99:\n                        /* \"#utility.yul\":965:971   */\n                      dup4\n                        /* \"#utility.yul\":962:963   */\n                      dup2\n                        /* \"#utility.yul\":959:972   */\n                      lt\n                        /* \"#utility.yul\":951:1064   */\n                      iszero\n                      tag_101\n                      jumpi\n                        /* \"#utility.yul\":1050:1051   */\n                      dup1\n                        /* \"#utility.yul\":1045:1048   */\n                      dup3\n                        /* \"#utility.yul\":1041:1052   */\n                      add\n                        /* \"#utility.yul\":1035:1053   */\n                      mload\n                        /* \"#utility.yul\":1031:1032   */\n                      dup2\n                        /* \"#utility.yul\":1026:1029   */\n                      dup5\n                        /* \"#utility.yul\":1022:1033   */\n                      add\n                        /* \"#utility.yul\":1015:1054   */\n                      mstore\n                        /* \"#utility.yul\":987:989   */\n                      0x20\n                        /* \"#utility.yul\":984:985   */\n                      dup2\n                        /* \"#utility.yul\":980:990   */\n                      add\n                        /* \"#utility.yul\":975:990   */\n                      swap1\n                      pop\n                        /* \"#utility.yul\":951:1064   */\n                      jump(tag_99)\n                    tag_101:\n                        /* \"#utility.yul\":1082:1088   */\n                      dup4\n                        /* \"#utility.yul\":1079:1080   */\n                      dup2\n                        /* \"#utility.yul\":1076:1089   */\n                      gt\n                        /* \"#utility.yul\":1073:1174   */\n                      iszero\n                      tag_102\n                      jumpi\n                        /* \"#utility.yul\":1162:1163   */\n                      0x00\n                        /* \"#utility.yul\":1153:1159   */\n                      dup5\n                        /* \"#utility.yul\":1148:1151   */\n                      dup5\n                        /* \"#utility.yul\":1144:1160   */\n                      add\n                        /* \"#utility.yul\":1137:1164   */\n                      mstore\n                        /* \"#utility.yul\":1073:1174   */\n                    tag_102:\n                        /* \"#utility.yul\":922:1180   */\n                      pop\n                        /* \"#utility.yul\":873:1180   */\n                      pop\n                      pop\n                      pop\n                      jump\t// out\n                        /* \"#utility.yul\":1186:1288   */\n                    tag_56:\n                        /* \"#utility.yul\":1227:1233   */\n                      0x00\n                        /* \"#utility.yul\":1278:1280   */\n                      0x1f\n                        /* \"#utility.yul\":1274:1281   */\n                      not\n                        /* \"#utility.yul\":1269:1271   */\n                      0x1f\n                        /* \"#utility.yul\":1262:1267   */\n                      dup4\n                        /* \"#utility.yul\":1258:1272   */\n                      add\n                        /* \"#utility.yul\":1254:1282   */\n                      and\n                        /* \"#utility.yul\":1244:1282   */\n                      swap1\n                      pop\n                        /* \"#utility.yul\":1186:1288   */\n                      swap2\n                      swap1\n                      pop\n                      jump\t// out\n                        /* \"#utility.yul\":1294:1658   */\n                    tag_57:\n                        /* \"#utility.yul\":1382:1385   */\n                      0x00\n                        /* \"#utility.yul\":1410:1449   */\n                      tag_105\n                        /* \"#utility.yul\":1443:1448   */\n                      dup3\n                        /* \"#utility.yul\":1410:1449   */\n                      tag_53\n                      jump\t// in\n                    tag_105:\n                        /* \"#utility.yul\":1465:1536   */\n                      tag_106\n                        /* \"#utility.yul\":1529:1535   */\n                      dup2\n                        /* \"#utility.yul\":1524:1527   */\n                      dup6\n                        /* \"#utility.yul\":1465:1536   */\n                      tag_54\n                      jump\t// in\n                    tag_106:\n                        /* \"#utility.yul\":1458:1536   */\n                      swap4\n                      pop\n                        /* \"#utility.yul\":1545:1597   */\n                      tag_107\n                        /* \"#utility.yul\":1590:1596   */\n                      dup2\n                        /* \"#utility.yul\":1585:1588   */\n                      dup6\n                        /* \"#utility.yul\":1578:1582   */\n                      0x20\n                        /* \"#utility.yul\":1571:1576   */\n                      dup7\n                        /* \"#utility.yul\":1567:1583   */\n                      add\n                        /* \"#utility.yul\":1545:1597   */\n                      tag_55\n                      jump\t// in\n                    tag_107:\n                        /* \"#utility.yul\":1622:1651   */\n                      tag_108\n                        /* \"#utility.yul\":1644:1650   */\n                      dup2\n                        /* \"#utility.yul\":1622:1651   */\n                      tag_56\n                      jump\t// in\n                    tag_108:\n                        /* \"#utility.yul\":1617:1620   */\n                      dup5\n                        /* \"#utility.yul\":1613:1652   */\n                      add\n                        /* \"#utility.yul\":1606:1652   */\n                      swap2\n                      pop\n                        /* \"#utility.yul\":1386:1658   */\n                      pop\n                        /* \"#utility.yul\":1294:1658   */\n                      swap3\n                      swap2\n                      pop\n                      pop\n                      jump\t// out\n                        /* \"#utility.yul\":1664:1741   */\n                    tag_58:\n                        /* \"#utility.yul\":1701:1708   */\n                      0x00\n                        /* \"#utility.yul\":1730:1735   */\n                      dup2\n                        /* \"#utility.yul\":1719:1735   */\n                      swap1\n                      pop\n                        /* \"#utility.yul\":1664:1741   */\n                      swap2\n                      swap1\n                      pop\n                      jump\t// out\n                        /* \"#utility.yul\":1747:1865   */\n                    tag_59:\n                        /* \"#utility.yul\":1834:1858   */\n                      tag_111\n                        /* \"#utility.yul\":1852:1857   */\n                      dup2\n                        /* \"#utility.yul\":1834:1858   */\n                      tag_58\n                      jump\t// in\n                    tag_111:\n                        /* \"#utility.yul\":1829:1832   */\n                      dup3\n                        /* \"#utility.yul\":1822:1859   */\n                      mstore\n                        /* \"#utility.yul\":1747:1865   */\n                      pop\n                      pop\n                      jump\t// out\n                        /* \"#utility.yul\":1871:3323   */\n                    tag_13:\n                        /* \"#utility.yul\":2260:2264   */\n                      0x00\n                        /* \"#utility.yul\":2298:2301   */\n                      0x0100\n                        /* \"#utility.yul\":2287:2296   */\n                      dup3\n                        /* \"#utility.yul\":2283:2302   */\n                      add\n                        /* \"#utility.yul\":2275:2302   */\n                      swap1\n                      pop\n                        /* \"#utility.yul\":2348:2357   */\n                      dup2\n                        /* \"#utility.yul\":2342:2346   */\n                      dup2\n                        /* \"#utility.yul\":2338:2358   */\n                      sub\n                        /* \"#utility.yul\":2334:2335   */\n                      0x00\n                        /* \"#utility.yul\":2323:2332   */\n                      dup4\n                        /* \"#utility.yul\":2319:2336   */\n                      add\n                        /* \"#utility.yul\":2312:2359   */\n                      mstore\n                        /* \"#utility.yul\":2376:2454   */\n                      tag_113\n                        /* \"#utility.yul\":2449:2453   */\n                      dup2\n                        /* \"#utility.yul\":2440:2446   */\n                      dup12\n                        /* \"#utility.yul\":2376:2454   */\n                      tag_57\n                      jump\t// in\n                    tag_113:\n                        /* \"#utility.yul\":2368:2454   */\n                      swap1\n                      pop\n                        /* \"#utility.yul\":2501:2510   */\n                      dup2\n                        /* \"#utility.yul\":2495:2499   */\n                      dup2\n                        /* \"#utility.yul\":2491:2511   */\n                      sub\n                        /* \"#utility.yul\":2486:2488   */\n                      0x20\n                        /* \"#utility.yul\":2475:2484   */\n                      dup4\n                        /* \"#utility.yul\":2471:2489   */\n                      add\n                        /* \"#utility.yul\":2464:2512   */\n                      mstore\n                        /* \"#utility.yul\":2529:2607   */\n                      tag_114\n                        /* \"#utility.yul\":2602:2606   */\n                      dup2\n                        /* \"#utility.yul\":2593:2599   */\n                      dup11\n                        /* \"#utility.yul\":2529:2607   */\n                      tag_57\n                      jump\t// in\n                    tag_114:\n                        /* \"#utility.yul\":2521:2607   */\n                      swap1\n                      pop\n                        /* \"#utility.yul\":2617:2689   */\n                      tag_115\n                        /* \"#utility.yul\":2685:2687   */\n                      0x40\n                        /* \"#utility.yul\":2674:2683   */\n                      dup4\n                        /* \"#utility.yul\":2670:2688   */\n                      add\n                        /* \"#utility.yul\":2661:2667   */\n                      dup10\n                        /* \"#utility.yul\":2617:2689   */\n                      tag_59\n                      jump\t// in\n                    tag_115:\n                        /* \"#utility.yul\":2699:2771   */\n                      tag_116\n                        /* \"#utility.yul\":2767:2769   */\n                      0x60\n                        /* \"#utility.yul\":2756:2765   */\n                      dup4\n                        /* \"#utility.yul\":2752:2770   */\n                      add\n                        /* \"#utility.yul\":2743:2749   */\n                      dup9\n                        /* \"#utility.yul\":2699:2771   */\n                      tag_59\n                      jump\t// in\n                    tag_116:\n                        /* \"#utility.yul\":2781:2854   */\n                      tag_117\n                        /* \"#utility.yul\":2849:2852   */\n                      0x80\n                        /* \"#utility.yul\":2838:2847   */\n                      dup4\n                        /* \"#utility.yul\":2834:2853   */\n                      add\n                        /* \"#utility.yul\":2825:2831   */\n                      dup8\n                        /* \"#utility.yul\":2781:2854   */\n                      tag_59\n                      jump\t// in\n                    tag_117:\n                        /* \"#utility.yul\":2902:2911   */\n                      dup2\n                        /* \"#utility.yul\":2896:2900   */\n                      dup2\n                        /* \"#utility.yul\":2892:2912   */\n                      sub\n                        /* \"#utility.yul\":2886:2889   */\n                      0xa0\n                        /* \"#utility.yul\":2875:2884   */\n                      dup4\n                        /* \"#utility.yul\":2871:2890   */\n                      add\n                        /* \"#utility.yul\":2864:2913   */\n                      mstore\n                        /* \"#utility.yul\":2930:3008   */\n                      tag_118\n                        /* \"#utility.yul\":3003:3007   */\n                      dup2\n                        /* \"#utility.yul\":2994:3000   */\n                      dup7\n                        /* \"#utility.yul\":2930:3008   */\n                      tag_57\n                      jump\t// in\n                    tag_118:\n                        /* \"#utility.yul\":2922:3008   */\n                      swap1\n                      pop\n                        /* \"#utility.yul\":3056:3065   */\n                      dup2\n                        /* \"#utility.yul\":3050:3054   */\n                      dup2\n                        /* \"#utility.yul\":3046:3066   */\n                      sub\n                        /* \"#utility.yul\":3040:3043   */\n                      0xc0\n                        /* \"#utility.yul\":3029:3038   */\n                      dup4\n                        /* \"#utility.yul\":3025:3044   */\n                      add\n                        /* \"#utility.yul\":3018:3067   */\n                      mstore\n                        /* \"#utility.yul\":3084:3162   */\n                      tag_119\n                        /* \"#utility.yul\":3157:3161   */\n                      dup2\n                        /* \"#utility.yul\":3148:3154   */\n                      dup6\n                        /* \"#utility.yul\":3084:3162   */\n                      tag_57\n                      jump\t// in\n                    tag_119:\n                        /* \"#utility.yul\":3076:3162   */\n                      swap1\n                      pop\n                        /* \"#utility.yul\":3210:3219   */\n                      dup2\n                        /* \"#utility.yul\":3204:3208   */\n                      dup2\n                        /* \"#utility.yul\":3200:3220   */\n                      sub\n                        /* \"#utility.yul\":3194:3197   */\n                      0xe0\n                        /* \"#utility.yul\":3183:3192   */\n                      dup4\n                        /* \"#utility.yul\":3179:3198   */\n                      add\n                        /* \"#utility.yul\":3172:3221   */\n                      mstore\n                        /* \"#utility.yul\":3238:3316   */\n                      tag_120\n                        /* \"#utility.yul\":3311:3315   */\n                      dup2\n                        /* \"#utility.yul\":3302:3308   */\n                      dup5\n                        /* \"#utility.yul\":3238:3316   */\n                      tag_57\n                      jump\t// in\n                    tag_120:\n                        /* \"#utility.yul\":3230:3316   */\n                      swap1\n                      pop\n                        /* \"#utility.yul\":1871:3323   */\n                      swap10\n                      swap9\n                      pop\n                      pop\n                      pop\n                      pop\n                      pop\n                      pop\n                      pop\n                      pop\n                      pop\n                      jump\t// out\n                        /* \"#utility.yul\":3329:3404   */\n                    tag_60:\n                        /* \"#utility.yul\":3362:3368   */\n                      0x00\n                        /* \"#utility.yul\":3395:3397   */\n                      0x40\n                        /* \"#utility.yul\":3389:3398   */\n                      mload\n                        /* \"#utility.yul\":3379:3398   */\n                      swap1\n                      pop\n                        /* \"#utility.yul\":3329:3404   */\n                      swap1\n                      jump\t// out\n                        /* \"#utility.yul\":3410:3527   */\n                    tag_61:\n                        /* \"#utility.yul\":3519:3520   */\n                      0x00\n                        /* \"#utility.yul\":3516:3517   */\n                      dup1\n                        /* \"#utility.yul\":3509:3521   */\n                      revert\n                        /* \"#utility.yul\":3533:3650   */\n                    tag_62:\n                        /* \"#utility.yul\":3642:3643   */\n                      0x00\n                        /* \"#utility.yul\":3639:3640   */\n                      dup1\n                        /* \"#utility.yul\":3632:3644   */\n                      revert\n                        /* \"#utility.yul\":3656:3773   */\n                    tag_63:\n                        /* \"#utility.yul\":3765:3766   */\n                      0x00\n                        /* \"#utility.yul\":3762:3763   */\n                      dup1\n                        /* \"#utility.yul\":3755:3767   */\n                      revert\n                        /* \"#utility.yul\":3779:3896   */\n                    tag_64:\n                        /* \"#utility.yul\":3888:3889   */\n                      0x00\n                        /* \"#utility.yul\":3885:3886   */\n                      dup1\n                        /* \"#utility.yul\":3878:3890   */\n                      revert\n                        /* \"#utility.yul\":3902:4082   */\n                    tag_65:\n                        /* \"#utility.yul\":3950:4027   */\n                      0x4e487b7100000000000000000000000000000000000000000000000000000000\n                        /* \"#utility.yul\":3947:3948   */\n                      0x00\n                        /* \"#utility.yul\":3940:4028   */\n                      mstore\n                        /* \"#utility.yul\":4047:4051   */\n                      0x41\n                        /* \"#utility.yul\":4044:4045   */\n                      0x04\n                        /* \"#utility.yul\":4037:4052   */\n                      mstore\n                        /* \"#utility.yul\":4071:4075   */\n                      0x24\n                        /* \"#utility.yul\":4068:4069   */\n                      0x00\n                        /* \"#utility.yul\":4061:4076   */\n                      revert\n                        /* \"#utility.yul\":4088:4369   */\n                    tag_66:\n                        /* \"#utility.yul\":4171:4198   */\n                      tag_128\n                        /* \"#utility.yul\":4193:4197   */\n                      dup3\n                        /* \"#utility.yul\":4171:4198   */\n                      tag_56\n                      jump\t// in\n                    tag_128:\n                        /* \"#utility.yul\":4163:4169   */\n                      dup2\n                        /* \"#utility.yul\":4159:4199   */\n                      add\n                        /* \"#utility.yul\":4301:4307   */\n                      dup2\n                        /* \"#utility.yul\":4289:4299   */\n                      dup2\n                        /* \"#utility.yul\":4286:4308   */\n                      lt\n                        /* \"#utility.yul\":4265:4283   */\n                      0xffffffffffffffff\n                        /* \"#utility.yul\":4253:4263   */\n                      dup3\n                        /* \"#utility.yul\":4250:4284   */\n                      gt\n                        /* \"#utility.yul\":4247:4309   */\n                      or\n                        /* \"#utility.yul\":4244:4332   */\n                      iszero\n                      tag_129\n                      jumpi\n                        /* \"#utility.yul\":4312:4330   */\n                      tag_130\n                      tag_65\n                      jump\t// in\n                    tag_130:\n                        /* \"#utility.yul\":4244:4332   */\n                    tag_129:\n                        /* \"#utility.yul\":4352:4362   */\n                      dup1\n                        /* \"#utility.yul\":4348:4350   */\n                      0x40\n                        /* \"#utility.yul\":4341:4363   */\n                      mstore\n                        /* \"#utility.yul\":4131:4369   */\n                      pop\n                        /* \"#utility.yul\":4088:4369   */\n                      pop\n                      pop\n                      jump\t// out\n                        /* \"#utility.yul\":4375:4504   */\n                    tag_67:\n                        /* \"#utility.yul\":4409:4415   */\n                      0x00\n                        /* \"#utility.yul\":4436:4456   */\n                      tag_132\n                      tag_60\n                      jump\t// in\n                    tag_132:\n                        /* \"#utility.yul\":4426:4456   */\n                      swap1\n                      pop\n                        /* \"#utility.yul\":4465:4498   */\n                      tag_133\n                        /* \"#utility.yul\":4493:4497   */\n                      dup3\n                        /* \"#utility.yul\":4485:4491   */\n                      dup3\n                        /* \"#utility.yul\":4465:4498   */\n                      tag_66\n                      jump\t// in\n                    tag_133:\n                        /* \"#utility.yul\":4375:4504   */\n                      swap2\n                      swap1\n                      pop\n                      jump\t// out\n                        /* \"#utility.yul\":4510:4818   */\n                    tag_68:\n                        /* \"#utility.yul\":4572:4576   */\n                      0x00\n                        /* \"#utility.yul\":4662:4680   */\n                      0xffffffffffffffff\n                        /* \"#utility.yul\":4654:4660   */\n                      dup3\n                        /* \"#utility.yul\":4651:4681   */\n                      gt\n                        /* \"#utility.yul\":4648:4704   */\n                      iszero\n                      tag_135\n                      jumpi\n                        /* \"#utility.yul\":4684:4702   */\n                      tag_136\n                      tag_65\n                      jump\t// in\n                    tag_136:\n                        /* \"#utility.yul\":4648:4704   */\n                    tag_135:\n                        /* \"#utility.yul\":4722:4751   */\n                      tag_137\n                        /* \"#utility.yul\":4744:4750   */\n                      dup3\n                        /* \"#utility.yul\":4722:4751   */\n                      tag_56\n                      jump\t// in\n                    tag_137:\n                        /* \"#utility.yul\":4714:4751   */\n                      swap1\n                      pop\n                        /* \"#utility.yul\":4806:4810   */\n                      0x20\n                        /* \"#utility.yul\":4800:4804   */\n                      dup2\n                        /* \"#utility.yul\":4796:4811   */\n                      add\n                        /* \"#utility.yul\":4788:4811   */\n                      swap1\n                      pop\n                        /* \"#utility.yul\":4510:4818   */\n                      swap2\n                      swap1\n                      pop\n                      jump\t// out\n                        /* \"#utility.yul\":4824:4978   */\n                    tag_69:\n                        /* \"#utility.yul\":4908:4914   */\n                      dup3\n                        /* \"#utility.yul\":4903:4906   */\n                      dup2\n                        /* \"#utility.yul\":4898:4901   */\n                      dup4\n                        /* \"#utility.yul\":4885:4915   */\n                      calldatacopy\n                        /* \"#utility.yul\":4970:4971   */\n                      0x00\n                        /* \"#utility.yul\":4961:4967   */\n                      dup4\n                        /* \"#utility.yul\":4956:4959   */\n                      dup4\n                        /* \"#utility.yul\":4952:4968   */\n                      add\n                        /* \"#utility.yul\":4945:4972   */\n                      mstore\n                        /* \"#utility.yul\":4824:4978   */\n                      pop\n                      pop\n                      pop\n                      jump\t// out\n                        /* \"#utility.yul\":4984:5396   */\n                    tag_70:\n                        /* \"#utility.yul\":5062:5067   */\n                      0x00\n                        /* \"#utility.yul\":5087:5153   */\n                      tag_140\n                        /* \"#utility.yul\":5103:5152   */\n                      tag_141\n                        /* \"#utility.yul\":5145:5151   */\n                      dup5\n                        /* \"#utility.yul\":5103:5152   */\n                      tag_68\n                      jump\t// in\n                    tag_141:\n                        /* \"#utility.yul\":5087:5153   */\n                      tag_67\n                      jump\t// in\n                    tag_140:\n                        /* \"#utility.yul\":5078:5153   */\n                      swap1\n                      pop\n                        /* \"#utility.yul\":5176:5182   */\n                      dup3\n                        /* \"#utility.yul\":5169:5174   */\n                      dup2\n                        /* \"#utility.yul\":5162:5183   */\n                      mstore\n                        /* \"#utility.yul\":5214:5218   */\n                      0x20\n                        /* \"#utility.yul\":5207:5212   */\n                      dup2\n                        /* \"#utility.yul\":5203:5219   */\n                      add\n                        /* \"#utility.yul\":5252:5255   */\n                      dup5\n                        /* \"#utility.yul\":5243:5249   */\n                      dup5\n                        /* \"#utility.yul\":5238:5241   */\n                      dup5\n                        /* \"#utility.yul\":5234:5250   */\n                      add\n                        /* \"#utility.yul\":5231:5256   */\n                      gt\n                        /* \"#utility.yul\":5228:5340   */\n                      iszero\n                      tag_142\n                      jumpi\n                        /* \"#utility.yul\":5259:5338   */\n                      tag_143\n                      tag_64\n                      jump\t// in\n                    tag_143:\n                        /* \"#utility.yul\":5228:5340   */\n                    tag_142:\n                        /* \"#utility.yul\":5349:5390   */\n                      tag_144\n                        /* \"#utility.yul\":5383:5389   */\n                      dup5\n                        /* \"#utility.yul\":5378:5381   */\n                      dup3\n                        /* \"#utility.yul\":5373:5376   */\n                      dup6\n                        /* \"#utility.yul\":5349:5390   */\n                      tag_69\n                      jump\t// in\n                    tag_144:\n                        /* \"#utility.yul\":5068:5396   */\n                      pop\n                        /* \"#utility.yul\":4984:5396   */\n                      swap4\n                      swap3\n                      pop\n                      pop\n                      pop\n                      jump\t// out\n                        /* \"#utility.yul\":5416:5756   */\n                    tag_71:\n                        /* \"#utility.yul\":5472:5477   */\n                      0x00\n                        /* \"#utility.yul\":5521:5524   */\n                      dup3\n                        /* \"#utility.yul\":5514:5518   */\n                      0x1f\n                        /* \"#utility.yul\":5506:5512   */\n                      dup4\n                        /* \"#utility.yul\":5502:5519   */\n                      add\n                        /* \"#utility.yul\":5498:5525   */\n                      slt\n                        /* \"#utility.yul\":5488:5610   */\n                      tag_146\n                      jumpi\n                        /* \"#utility.yul\":5529:5608   */\n                      tag_147\n                      tag_63\n                      jump\t// in\n                    tag_147:\n                        /* \"#utility.yul\":5488:5610   */\n                    tag_146:\n                        /* \"#utility.yul\":5646:5652   */\n                      dup2\n                        /* \"#utility.yul\":5633:5653   */\n                      calldataload\n                        /* \"#utility.yul\":5671:5750   */\n                      tag_148\n                        /* \"#utility.yul\":5746:5749   */\n                      dup5\n                        /* \"#utility.yul\":5738:5744   */\n                      dup3\n                        /* \"#utility.yul\":5731:5735   */\n                      0x20\n                        /* \"#utility.yul\":5723:5729   */\n                      dup7\n                        /* \"#utility.yul\":5719:5736   */\n                      add\n                        /* \"#utility.yul\":5671:5750   */\n                      tag_70\n                      jump\t// in\n                    tag_148:\n                        /* \"#utility.yul\":5662:5750   */\n                      swap2\n                      pop\n                        /* \"#utility.yul\":5478:5756   */\n                      pop\n                        /* \"#utility.yul\":5416:5756   */\n                      swap3\n                      swap2\n                      pop\n                      pop\n                      jump\t// out\n                        /* \"#utility.yul\":5762:6921   */\n                    tag_16:\n                        /* \"#utility.yul\":5869:5875   */\n                      0x00\n                        /* \"#utility.yul\":5877:5883   */\n                      dup1\n                        /* \"#utility.yul\":5885:5891   */\n                      0x00\n                        /* \"#utility.yul\":5934:5936   */\n                      0x60\n                        /* \"#utility.yul\":5922:5931   */\n                      dup5\n                        /* \"#utility.yul\":5913:5920   */\n                      dup7\n                        /* \"#utility.yul\":5909:5932   */\n                      sub\n                        /* \"#utility.yul\":5905:5937   */\n                      slt\n                        /* \"#utility.yul\":5902:6021   */\n                      iszero\n                      tag_150\n                      jumpi\n                        /* \"#utility.yul\":5940:6019   */\n                      tag_151\n                      tag_61\n                      jump\t// in\n                    tag_151:\n                        /* \"#utility.yul\":5902:6021   */\n                    tag_150:\n                        /* \"#utility.yul\":6088:6089   */\n                      0x00\n                        /* \"#utility.yul\":6077:6086   */\n                      dup5\n                        /* \"#utility.yul\":6073:6090   */\n                      add\n                        /* \"#utility.yul\":6060:6091   */\n                      calldataload\n                        /* \"#utility.yul\":6118:6136   */\n                      0xffffffffffffffff\n                        /* \"#utility.yul\":6110:6116   */\n                      dup2\n                        /* \"#utility.yul\":6107:6137   */\n                      gt\n                        /* \"#utility.yul\":6104:6221   */\n                      iszero\n                      tag_152\n                      jumpi\n                        /* \"#utility.yul\":6140:6219   */\n                      tag_153\n                      tag_62\n                      jump\t// in\n                    tag_153:\n                        /* \"#utility.yul\":6104:6221   */\n                    tag_152:\n                        /* \"#utility.yul\":6245:6308   */\n                      tag_154\n                        /* \"#utility.yul\":6300:6307   */\n                      dup7\n                        /* \"#utility.yul\":6291:6297   */\n                      dup3\n                        /* \"#utility.yul\":6280:6289   */\n                      dup8\n                        /* \"#utility.yul\":6276:6298   */\n                      add\n                        /* \"#utility.yul\":6245:6308   */\n                      tag_71\n                      jump\t// in\n                    tag_154:\n                        /* \"#utility.yul\":6235:6308   */\n                      swap4\n                      pop\n                        /* \"#utility.yul\":6031:6318   */\n                      pop\n                        /* \"#utility.yul\":6385:6387   */\n                      0x20\n                        /* \"#utility.yul\":6374:6383   */\n                      dup5\n                        /* \"#utility.yul\":6370:6388   */\n                      add\n                        /* \"#utility.yul\":6357:6389   */\n                      calldataload\n                        /* \"#utility.yul\":6416:6434   */\n                      0xffffffffffffffff\n                        /* \"#utility.yul\":6408:6414   */\n                      dup2\n                        /* \"#utility.yul\":6405:6435   */\n                      gt\n                        /* \"#utility.yul\":6402:6519   */\n                      iszero\n                      tag_155\n                      jumpi\n                        /* \"#utility.yul\":6438:6517   */\n                      tag_156\n                      tag_62\n                      jump\t// in\n                    tag_156:\n                        /* \"#utility.yul\":6402:6519   */\n                    tag_155:\n                        /* \"#utility.yul\":6543:6606   */\n                      tag_157\n                        /* \"#utility.yul\":6598:6605   */\n                      dup7\n                        /* \"#utility.yul\":6589:6595   */\n                      dup3\n                        /* \"#utility.yul\":6578:6587   */\n                      dup8\n                        /* \"#utility.yul\":6574:6596   */\n                      add\n                        /* \"#utility.yul\":6543:6606   */\n                      tag_71\n                      jump\t// in\n                    tag_157:\n                        /* \"#utility.yul\":6533:6606   */\n                      swap3\n                      pop\n                        /* \"#utility.yul\":6328:6616   */\n                      pop\n                        /* \"#utility.yul\":6683:6685   */\n                      0x40\n                        /* \"#utility.yul\":6672:6681   */\n                      dup5\n                        /* \"#utility.yul\":6668:6686   */\n                      add\n                        /* \"#utility.yul\":6655:6687   */\n                      calldataload\n                        /* \"#utility.yul\":6714:6732   */\n                      0xffffffffffffffff\n                        /* \"#utility.yul\":6706:6712   */\n                      dup2\n                        /* \"#utility.yul\":6703:6733   */\n                      gt\n                        /* \"#utility.yul\":6700:6817   */\n                      iszero\n                      tag_158\n                      jumpi\n                        /* \"#utility.yul\":6736:6815   */\n                      tag_159\n                      tag_62\n                      jump\t// in\n                    tag_159:\n                        /* \"#utility.yul\":6700:6817   */\n                    tag_158:\n                        /* \"#utility.yul\":6841:6904   */\n                      tag_160\n                        /* \"#utility.yul\":6896:6903   */\n                      dup7\n                        /* \"#utility.yul\":6887:6893   */\n                      dup3\n                        /* \"#utility.yul\":6876:6885   */\n                      dup8\n                        /* \"#utility.yul\":6872:6894   */\n                      add\n                        /* \"#utility.yul\":6841:6904   */\n                      tag_71\n                      jump\t// in\n                    tag_160:\n                        /* \"#utility.yul\":6831:6904   */\n                      swap2\n                      pop\n                        /* \"#utility.yul\":6626:6914   */\n                      pop\n                        /* \"#utility.yul\":5762:6921   */\n                      swap3\n                      pop\n                      swap3\n                      pop\n                      swap3\n                      jump\t// out\n                        /* \"#utility.yul\":6927:7107   */\n                    tag_72:\n                        /* \"#utility.yul\":6975:7052   */\n                      0x4e487b7100000000000000000000000000000000000000000000000000000000\n                        /* \"#utility.yul\":6972:6973   */\n                      0x00\n                        /* \"#utility.yul\":6965:7053   */\n                      mstore\n                        /* \"#utility.yul\":7072:7076   */\n                      0x22\n                        /* \"#utility.yul\":7069:7070   */\n                      0x04\n                        /* \"#utility.yul\":7062:7077   */\n                      mstore\n                        /* \"#utility.yul\":7096:7100   */\n                      0x24\n                        /* \"#utility.yul\":7093:7094   */\n                      0x00\n                        /* \"#utility.yul\":7086:7101   */\n                      revert\n                        /* \"#utility.yul\":7113:7433   */\n                    tag_19:\n                        /* \"#utility.yul\":7157:7163   */\n                      0x00\n                        /* \"#utility.yul\":7194:7195   */\n                      0x02\n                        /* \"#utility.yul\":7188:7192   */\n                      dup3\n                        /* \"#utility.yul\":7184:7196   */\n                      div\n                        /* \"#utility.yul\":7174:7196   */\n                      swap1\n                      pop\n                        /* \"#utility.yul\":7241:7242   */\n                      0x01\n                        /* \"#utility.yul\":7235:7239   */\n                      dup3\n                        /* \"#utility.yul\":7231:7243   */\n                      and\n                        /* \"#utility.yul\":7262:7280   */\n                      dup1\n                        /* \"#utility.yul\":7252:7333   */\n                      tag_163\n                      jumpi\n                        /* \"#utility.yul\":7318:7322   */\n                      0x7f\n                        /* \"#utility.yul\":7310:7316   */\n                      dup3\n                        /* \"#utility.yul\":7306:7323   */\n                      and\n                        /* \"#utility.yul\":7296:7323   */\n                      swap2\n                      pop\n                        /* \"#utility.yul\":7252:7333   */\n                    tag_163:\n                        /* \"#utility.yul\":7380:7382   */\n                      0x20\n                        /* \"#utility.yul\":7372:7378   */\n                      dup3\n                        /* \"#utility.yul\":7369:7383   */\n                      lt\n                        /* \"#utility.yul\":7349:7367   */\n                      dup2\n                        /* \"#utility.yul\":7346:7384   */\n                      sub\n                        /* \"#utility.yul\":7343:7427   */\n                      tag_164\n                      jumpi\n                        /* \"#utility.yul\":7399:7417   */\n                      tag_165\n                      tag_72\n                      jump\t// in\n                    tag_165:\n                        /* \"#utility.yul\":7343:7427   */\n                    tag_164:\n                        /* \"#utility.yul\":7164:7433   */\n                      pop\n                        /* \"#utility.yul\":7113:7433   */\n                      swap2\n                      swap1\n                      pop\n                      jump\t// out\n                        /* \"#utility.yul\":7439:7580   */\n                    tag_73:\n                        /* \"#utility.yul\":7488:7492   */\n                      0x00\n                        /* \"#utility.yul\":7511:7514   */\n                      dup2\n                        /* \"#utility.yul\":7503:7514   */\n                      swap1\n                      pop\n                        /* \"#utility.yul\":7534:7537   */\n                      dup2\n                        /* \"#utility.yul\":7531:7532   */\n                      0x00\n                        /* \"#utility.yul\":7524:7538   */\n                      mstore\n                        /* \"#utility.yul\":7568:7572   */\n                      0x20\n                        /* \"#utility.yul\":7565:7566   */\n                      0x00\n                        /* \"#utility.yul\":7555:7573   */\n                      keccak256\n                        /* \"#utility.yul\":7547:7573   */\n                      swap1\n                      pop\n                        /* \"#utility.yul\":7439:7580   */\n                      swap2\n                      swap1\n                      pop\n                      jump\t// out\n                        /* \"#utility.yul\":7586:7679   */\n                    tag_74:\n                        /* \"#utility.yul\":7623:7629   */\n                      0x00\n                        /* \"#utility.yul\":7670:7672   */\n                      0x20\n                        /* \"#utility.yul\":7665:7667   */\n                      0x1f\n                        /* \"#utility.yul\":7658:7663   */\n                      dup4\n                        /* \"#utility.yul\":7654:7668   */\n                      add\n                        /* \"#utility.yul\":7650:7673   */\n                      div\n                        /* \"#utility.yul\":7640:7673   */\n                      swap1\n                      pop\n                        /* \"#utility.yul\":7586:7679   */\n                      swap2\n                      swap1\n                      pop\n                      jump\t// out\n                        /* \"#utility.yul\":7685:7792   */\n                    tag_75:\n                        /* \"#utility.yul\":7729:7737   */\n                      0x00\n                        /* \"#utility.yul\":7779:7784   */\n                      dup3\n                        /* \"#utility.yul\":7773:7777   */\n                      dup3\n                        /* \"#utility.yul\":7769:7785   */\n                      shl\n                        /* \"#utility.yul\":7748:7785   */\n                      swap1\n                      pop\n                        /* \"#utility.yul\":7685:7792   */\n                      swap3\n                      swap2\n                      pop\n                      pop\n                      jump\t// out\n                        /* \"#utility.yul\":7798:8191   */\n                    tag_76:\n                        /* \"#utility.yul\":7867:7873   */\n                      0x00\n                        /* \"#utility.yul\":7917:7918   */\n                      0x08\n                        /* \"#utility.yul\":7905:7915   */\n                      dup4\n                        /* \"#utility.yul\":7901:7919   */\n                      mul\n                        /* \"#utility.yul\":7940:8037   */\n                      tag_170\n                        /* \"#utility.yul\":7970:8036   */\n                      0xffffffffffffffffffffffffffffffffffffffffffffffffffffffffffffffff\n                        /* \"#utility.yul\":7959:7968   */\n                      dup3\n                        /* \"#utility.yul\":7940:8037   */\n                      tag_75\n                      jump\t// in\n                    tag_170:\n                        /* \"#utility.yul\":8058:8097   */\n                      tag_171\n                        /* \"#utility.yul\":8088:8096   */\n                      dup7\n                        /* \"#utility.yul\":8077:8086   */\n                      dup4\n                        /* \"#utility.yul\":8058:8097   */\n                      tag_75\n                      jump\t// in\n                    tag_171:\n                        /* \"#utility.yul\":8046:8097   */\n                      swap6\n                      pop\n                        /* \"#utility.yul\":8130:8134   */\n                      dup1\n                        /* \"#utility.yul\":8126:8135   */\n                      not\n                        /* \"#utility.yul\":8119:8124   */\n                      dup5\n                        /* \"#utility.yul\":8115:8136   */\n                      and\n                        /* \"#utility.yul\":8106:8136   */\n                      swap4\n                      pop\n                        /* \"#utility.yul\":8179:8183   */\n                      dup1\n                        /* \"#utility.yul\":8169:8177   */\n                      dup7\n                        /* \"#utility.yul\":8165:8184   */\n                      and\n                        /* \"#utility.yul\":8158:8163   */\n                      dup5\n                        /* \"#utility.yul\":8155:8185   */\n                      or\n                        /* \"#utility.yul\":8145:8185   */\n                      swap3\n                      pop\n                        /* \"#utility.yul\":7874:8191   */\n                      pop\n                      pop\n                        /* \"#utility.yul\":7798:8191   */\n                      swap4\n                      swap3\n                      pop\n                      pop\n                      pop\n                      jump\t// out\n                        /* \"#utility.yul\":8197:8257   */\n                    tag_77:\n                        /* \"#utility.yul\":8225:8228   */\n                      0x00\n                        /* \"#utility.yul\":8246:8251   */\n                      dup2\n                        /* \"#utility.yul\":8239:8251   */\n                      swap1\n                      pop\n                        /* \"#utility.yul\":8197:8257   */\n                      swap2\n                      swap1\n                      pop\n                      jump\t// out\n                        /* \"#utility.yul\":8263:8405   */\n                    tag_78:\n                        /* \"#utility.yul\":8313:8322   */\n                      0x00\n                        /* \"#utility.yul\":8346:8399   */\n                      tag_174\n                        /* \"#utility.yul\":8364:8398   */\n                      tag_175\n                        /* \"#utility.yul\":8373:8397   */\n                      tag_176\n                        /* \"#utility.yul\":8391:8396   */\n                      dup5\n                        /* \"#utility.yul\":8373:8397   */\n                      tag_58\n                      jump\t// in\n                    tag_176:\n                        /* \"#utility.yul\":8364:8398   */\n                      tag_77\n                      jump\t// in\n                    tag_175:\n                        /* \"#utility.yul\":8346:8399   */\n                      tag_58\n                      jump\t// in\n                    tag_174:\n                        /* \"#utility.yul\":8333:8399   */\n                      swap1\n                      pop\n                        /* \"#utility.yul\":8263:8405   */\n                      swap2\n                      swap1\n                      pop\n                      jump\t// out\n                        /* \"#utility.yul\":8411:8486   */\n                    tag_79:\n                        /* \"#utility.yul\":8454:8457   */\n                      0x00\n                        /* \"#utility.yul\":8475:8480   */\n                      dup2\n                        /* \"#utility.yul\":8468:8480   */\n                      swap1\n                      pop\n                        /* \"#utility.yul\":8411:8486   */\n                      swap2\n                      swap1\n                      pop\n                      jump\t// out\n                        /* \"#utility.yul\":8492:8761   */\n                    tag_80:\n                        /* \"#utility.yul\":8602:8641   */\n                      tag_179\n                        /* \"#utility.yul\":8633:8640   */\n                      dup4\n                        /* \"#utility.yul\":8602:8641   */\n                      tag_78\n                      jump\t// in\n                    tag_179:\n                        /* \"#utility.yul\":8663:8754   */\n                      tag_180\n                        /* \"#utility.yul\":8712:8753   */\n                      tag_181\n                        /* \"#utility.yul\":8736:8752   */\n                      dup3\n                        /* \"#utility.yul\":8712:8753   */\n                      tag_79\n                      jump\t// in\n                    tag_181:\n                        /* \"#utility.yul\":8704:8710   */\n                      dup5\n                        /* \"#utility.yul\":8697:8701   */\n                      dup5\n                        /* \"#utility.yul\":8691:8702   */\n                      sload\n                        /* \"#utility.yul\":8663:8754   */\n                      tag_76\n                      jump\t// in\n                    tag_180:\n                        /* \"#utility.yul\":8657:8661   */\n                      dup3\n                        /* \"#utility.yul\":8650:8755   */\n                      sstore\n                        /* \"#utility.yul\":8568:8761   */\n                      pop\n                        /* \"#utility.yul\":8492:8761   */\n                      pop\n                      pop\n                      pop\n                      jump\t// out\n                        /* \"#utility.yul\":8767:8840   */\n                    tag_81:\n                        /* \"#utility.yul\":8812:8815   */\n                      0x00\n                        /* \"#utility.yul\":8767:8840   */\n                      swap1\n                      jump\t// out\n                        /* \"#utility.yul\":8846:9035   */\n                    tag_82:\n                        /* \"#utility.yul\":8923:8955   */\n                      tag_184\n                      tag_81\n                      jump\t// in\n                    tag_184:\n                        /* \"#utility.yul\":8964:9029   */\n                      tag_185\n                        /* \"#utility.yul\":9022:9028   */\n                      dup2\n                        /* \"#utility.yul\":9014:9020   */\n                      dup5\n                        /* \"#utility.yul\":9008:9012   */\n                      dup5\n                        /* \"#utility.yul\":8964:9029   */\n                      tag_80\n                      jump\t// in\n                    tag_185:\n                        /* \"#utility.yul\":8899:9035   */\n                      pop\n                        /* \"#utility.yul\":8846:9035   */\n                      pop\n                      pop\n                      jump\t// out\n                        /* \"#utility.yul\":9041:9227   */\n                    tag_83:\n                        /* \"#utility.yul\":9101:9221   */\n                    tag_187:\n                        /* \"#utility.yul\":9118:9121   */\n                      dup2\n                        /* \"#utility.yul\":9111:9116   */\n                      dup2\n                        /* \"#utility.yul\":9108:9122   */\n                      lt\n                        /* \"#utility.yul\":9101:9221   */\n                      iszero\n                      tag_189\n                      jumpi\n                        /* \"#utility.yul\":9172:9211   */\n                      tag_190\n                        /* \"#utility.yul\":9209:9210   */\n                      0x00\n                        /* \"#utility.yul\":9202:9207   */\n                      dup3\n                        /* \"#utility.yul\":9172:9211   */\n                      tag_82\n                      jump\t// in\n                    tag_190:\n                        /* \"#utility.yul\":9145:9146   */\n                      0x01\n                        /* \"#utility.yul\":9138:9143   */\n                      dup2\n                        /* \"#utility.yul\":9134:9147   */\n                      add\n                        /* \"#utility.yul\":9125:9147   */\n                      swap1\n                      pop\n                        /* \"#utility.yul\":9101:9221   */\n                      jump(tag_187)\n                    tag_189:\n                        /* \"#utility.yul\":9041:9227   */\n                      pop\n                      pop\n                      jump\t// out\n                        /* \"#utility.yul\":9233:9776   */\n                    tag_84:\n                        /* \"#utility.yul\":9334:9336   */\n                      0x1f\n                        /* \"#utility.yul\":9329:9332   */\n                      dup3\n                        /* \"#utility.yul\":9326:9337   */\n                      gt\n                        /* \"#utility.yul\":9323:9769   */\n                      iszero\n                      tag_192\n                      jumpi\n                        /* \"#utility.yul\":9368:9406   */\n                      tag_193\n                        /* \"#utility.yul\":9400:9405   */\n                      dup2\n                        /* \"#utility.yul\":9368:9406   */\n                      tag_73\n                      jump\t// in\n                    tag_193:\n                        /* \"#utility.yul\":9452:9481   */\n                      tag_194\n                        /* \"#utility.yul\":9470:9480   */\n                      dup5\n                        /* \"#utility.yul\":9452:9481   */\n                      tag_74\n                      jump\t// in\n                    tag_194:\n                        /* \"#utility.yul\":9442:9450   */\n                      dup2\n                        /* \"#utility.yul\":9438:9482   */\n                      add\n                        /* \"#utility.yul\":9635:9637   */\n                      0x20\n                        /* \"#utility.yul\":9623:9633   */\n                      dup6\n                        /* \"#utility.yul\":9620:9638   */\n                      lt\n                        /* \"#utility.yul\":9617:9666   */\n                      iszero\n                      tag_195\n                      jumpi\n                        /* \"#utility.yul\":9656:9664   */\n                      dup2\n                        /* \"#utility.yul\":9641:9664   */\n                      swap1\n                      pop\n                        /* \"#utility.yul\":9617:9666   */\n                    tag_195:\n                        /* \"#utility.yul\":9679:9759   */\n                      tag_196\n                        /* \"#utility.yul\":9735:9757   */\n                      tag_197\n                        /* \"#utility.yul\":9753:9756   */\n                      dup6\n                        /* \"#utility.yul\":9735:9757   */\n                      tag_74\n                      jump\t// in\n                    tag_197:\n                        /* \"#utility.yul\":9725:9733   */\n                      dup4\n                        /* \"#utility.yul\":9721:9758   */\n                      add\n                        /* \"#utility.yul\":9708:9719   */\n                      dup3\n                        /* \"#utility.yul\":9679:9759   */\n                      tag_83\n                      jump\t// in\n                    tag_196:\n                        /* \"#utility.yul\":9338:9769   */\n                      pop\n                      pop\n                        /* \"#utility.yul\":9323:9769   */\n                    tag_192:\n                        /* \"#utility.yul\":9233:9776   */\n                      pop\n                      pop\n                      pop\n                      jump\t// out\n                        /* \"#utility.yul\":9782:9899   */\n                    tag_85:\n                        /* \"#utility.yul\":9836:9844   */\n                      0x00\n                        /* \"#utility.yul\":9886:9891   */\n                      dup3\n                        /* \"#utility.yul\":9880:9884   */\n                      dup3\n                        /* \"#utility.yul\":9876:9892   */\n                      shr\n                        /* \"#utility.yul\":9855:9892   */\n                      swap1\n                      pop\n                        /* \"#utility.yul\":9782:9899   */\n                      swap3\n                      swap2\n                      pop\n                      pop\n                      jump\t// out\n                        /* \"#utility.yul\":9905:10074   */\n                    tag_86:\n                        /* \"#utility.yul\":9949:9955   */\n                      0x00\n                        /* \"#utility.yul\":9982:10033   */\n                      tag_200\n                        /* \"#utility.yul\":10030:10031   */\n                      0x00\n                        /* \"#utility.yul\":10026:10032   */\n                      not\n                        /* \"#utility.yul\":10018:10023   */\n                      dup5\n                        /* \"#utility.yul\":10015:10016   */\n                      0x08\n                        /* \"#utility.yul\":10011:10024   */\n                      mul\n                        /* \"#utility.yul\":9982:10033   */\n                      tag_85\n                      jump\t// in\n                    tag_200:\n                        /* \"#utility.yul\":9978:10034   */\n                      not\n                        /* \"#utility.yul\":10063:10067   */\n                      dup1\n                        /* \"#utility.yul\":10057:10061   */\n                      dup4\n                        /* \"#utility.yul\":10053:10068   */\n                      and\n                        /* \"#utility.yul\":10043:10068   */\n                      swap2\n                      pop\n                        /* \"#utility.yul\":9956:10074   */\n                      pop\n                        /* \"#utility.yul\":9905:10074   */\n                      swap3\n                      swap2\n                      pop\n                      pop\n                      jump\t// out\n                        /* \"#utility.yul\":10079:10374   */\n                    tag_87:\n                        /* \"#utility.yul\":10155:10159   */\n                      0x00\n                        /* \"#utility.yul\":10301:10330   */\n                      tag_202\n                        /* \"#utility.yul\":10326:10329   */\n                      dup4\n                        /* \"#utility.yul\":10320:10324   */\n                      dup4\n                        /* \"#utility.yul\":10301:10330   */\n                      tag_86\n                      jump\t// in\n                    tag_202:\n                        /* \"#utility.yul\":10293:10330   */\n                      swap2\n                      pop\n                        /* \"#utility.yul\":10363:10366   */\n                      dup3\n                        /* \"#utility.yul\":10360:10361   */\n                      0x02\n                        /* \"#utility.yul\":10356:10367   */\n                      mul\n                        /* \"#utility.yul\":10350:10354   */\n                      dup3\n                        /* \"#utility.yul\":10347:10368   */\n                      or\n                        /* \"#utility.yul\":10339:10368   */\n                      swap1\n                      pop\n                        /* \"#utility.yul\":10079:10374   */\n                      swap3\n                      swap2\n                      pop\n                      pop\n                      jump\t// out\n                        /* \"#utility.yul\":10379:11774   */\n                    tag_47:\n                        /* \"#utility.yul\":10496:10533   */\n                      tag_204\n                        /* \"#utility.yul\":10529:10532   */\n                      dup3\n                        /* \"#utility.yul\":10496:10533   */\n                      tag_53\n                      jump\t// in\n                    tag_204:\n                        /* \"#utility.yul\":10598:10616   */\n                      0xffffffffffffffff\n                        /* \"#utility.yul\":10590:10596   */\n                      dup2\n                        /* \"#utility.yul\":10587:10617   */\n                      gt\n                        /* \"#utility.yul\":10584:10640   */\n                      iszero\n                      tag_205\n                      jumpi\n                        /* \"#utility.yul\":10620:10638   */\n                      tag_206\n                      tag_65\n                      jump\t// in\n                    tag_206:\n                        /* \"#utility.yul\":10584:10640   */\n                    tag_205:\n                        /* \"#utility.yul\":10664:10702   */\n                      tag_207\n                        /* \"#utility.yul\":10696:10700   */\n                      dup3\n                        /* \"#utility.yul\":10690:10701   */\n                      sload\n                        /* \"#utility.yul\":10664:10702   */\n                      tag_19\n                      jump\t// in\n                    tag_207:\n                        /* \"#utility.yul\":10749:10816   */\n                      tag_208\n                        /* \"#utility.yul\":10809:10815   */\n                      dup3\n                        /* \"#utility.yul\":10801:10807   */\n                      dup3\n                        /* \"#utility.yul\":10795:10799   */\n                      dup6\n                        /* \"#utility.yul\":10749:10816   */\n                      tag_84\n                      jump\t// in\n                    tag_208:\n                        /* \"#utility.yul\":10843:10844   */\n                      0x00\n                        /* \"#utility.yul\":10867:10871   */\n                      0x20\n                        /* \"#utility.yul\":10854:10871   */\n                      swap1\n                      pop\n                        /* \"#utility.yul\":10899:10901   */\n                      0x1f\n                        /* \"#utility.yul\":10891:10897   */\n                      dup4\n                        /* \"#utility.yul\":10888:10902   */\n                      gt\n                        /* \"#utility.yul\":10916:10917   */\n                      0x01\n                        /* \"#utility.yul\":10911:11529   */\n                      dup2\n                      eq\n                      tag_210\n                      jumpi\n                        /* \"#utility.yul\":11573:11574   */\n                      0x00\n                        /* \"#utility.yul\":11590:11596   */\n                      dup5\n                        /* \"#utility.yul\":11587:11664   */\n                      iszero\n                      tag_211\n                      jumpi\n                        /* \"#utility.yul\":11639:11648   */\n                      dup3\n                        /* \"#utility.yul\":11634:11637   */\n                      dup8\n                        /* \"#utility.yul\":11630:11649   */\n                      add\n                        /* \"#utility.yul\":11624:11650   */\n                      mload\n                        /* \"#utility.yul\":11615:11650   */\n                      swap1\n                      pop\n                        /* \"#utility.yul\":11587:11664   */\n                    tag_211:\n                        /* \"#utility.yul\":11690:11757   */\n                      tag_212\n                        /* \"#utility.yul\":11750:11756   */\n                      dup6\n                        /* \"#utility.yul\":11743:11748   */\n                      dup3\n                        /* \"#utility.yul\":11690:11757   */\n                      tag_87\n                      jump\t// in\n                    tag_212:\n                        /* \"#utility.yul\":11684:11688   */\n                      dup7\n                        /* \"#utility.yul\":11677:11758   */\n                      sstore\n                        /* \"#utility.yul\":11546:11768   */\n                      pop\n                        /* \"#utility.yul\":10881:11768   */\n                      jump(tag_209)\n                        /* \"#utility.yul\":10911:11529   */\n                    tag_210:\n                        /* \"#utility.yul\":10963:10967   */\n                      0x1f\n                        /* \"#utility.yul\":10959:10968   */\n                      not\n                        /* \"#utility.yul\":10951:10957   */\n                      dup5\n                        /* \"#utility.yul\":10947:10969   */\n                      and\n                        /* \"#utility.yul\":10997:11034   */\n                      tag_213\n                        /* \"#utility.yul\":11029:11033   */\n                      dup7\n                        /* \"#utility.yul\":10997:11034   */\n                      tag_73\n                      jump\t// in\n                    tag_213:\n                        /* \"#utility.yul\":11056:11057   */\n                      0x00\n                        /* \"#utility.yul\":11070:11278   */\n                    tag_214:\n                        /* \"#utility.yul\":11084:11091   */\n                      dup3\n                        /* \"#utility.yul\":11081:11082   */\n                      dup2\n                        /* \"#utility.yul\":11078:11092   */\n                      lt\n                        /* \"#utility.yul\":11070:11278   */\n                      iszero\n                      tag_216\n                      jumpi\n                        /* \"#utility.yul\":11163:11172   */\n                      dup5\n                        /* \"#utility.yul\":11158:11161   */\n                      dup10\n                        /* \"#utility.yul\":11154:11173   */\n                      add\n                        /* \"#utility.yul\":11148:11174   */\n                      mload\n                        /* \"#utility.yul\":11140:11146   */\n                      dup3\n                        /* \"#utility.yul\":11133:11175   */\n                      sstore\n                        /* \"#utility.yul\":11214:11215   */\n                      0x01\n                        /* \"#utility.yul\":11206:11212   */\n                      dup3\n                        /* \"#utility.yul\":11202:11216   */\n                      add\n                        /* \"#utility.yul\":11192:11216   */\n                      swap2\n                      pop\n                        /* \"#utility.yul\":11261:11263   */\n                      0x20\n                        /* \"#utility.yul\":11250:11259   */\n                      dup6\n                        /* \"#utility.yul\":11246:11264   */\n                      add\n                        /* \"#utility.yul\":11233:11264   */\n                      swap5\n                      pop\n                        /* \"#utility.yul\":11107:11111   */\n                      0x20\n                        /* \"#utility.yul\":11104:11105   */\n                      dup2\n                        /* \"#utility.yul\":11100:11112   */\n                      add\n                        /* \"#utility.yul\":11095:11112   */\n                      swap1\n                      pop\n                        /* \"#utility.yul\":11070:11278   */\n                      jump(tag_214)\n                    tag_216:\n                        /* \"#utility.yul\":11306:11312   */\n                      dup7\n                        /* \"#utility.yul\":11297:11304   */\n                      dup4\n                        /* \"#utility.yul\":11294:11313   */\n                      lt\n                        /* \"#utility.yul\":11291:11470   */\n                      iszero\n                      tag_217\n                      jumpi\n                        /* \"#utility.yul\":11364:11373   */\n                      dup5\n                        /* \"#utility.yul\":11359:11362   */\n                      dup10\n                        /* \"#utility.yul\":11355:11374   */\n                      add\n                        /* \"#utility.yul\":11349:11375   */\n                      mload\n                        /* \"#utility.yul\":11407:11455   */\n                      tag_218\n                        /* \"#utility.yul\":11449:11453   */\n                      0x1f\n                        /* \"#utility.yul\":11441:11447   */\n                      dup10\n                        /* \"#utility.yul\":11437:11454   */\n                      and\n                        /* \"#utility.yul\":11426:11435   */\n                      dup3\n                        /* \"#utility.yul\":11407:11455   */\n                      tag_86\n                      jump\t// in\n                    tag_218:\n                        /* \"#utility.yul\":11399:11405   */\n                      dup4\n                        /* \"#utility.yul\":11392:11456   */\n                      sstore\n                        /* \"#utility.yul\":11314:11470   */\n                      pop\n                        /* \"#utility.yul\":11291:11470   */\n                    tag_217:\n                        /* \"#utility.yul\":11516:11517   */\n                      0x01\n                        /* \"#utility.yul\":11512:11513   */\n                      0x02\n                        /* \"#utility.yul\":11504:11510   */\n                      dup9\n                        /* \"#utility.yul\":11500:11514   */\n                      mul\n                        /* \"#utility.yul\":11496:11518   */\n                      add\n                        /* \"#utility.yul\":11490:11494   */\n                      dup9\n                        /* \"#utility.yul\":11483:11519   */\n                      sstore\n                        /* \"#utility.yul\":10918:11529   */\n                      pop\n                      pop\n                      pop\n                        /* \"#utility.yul\":10881:11768   */\n                    tag_209:\n                      pop\n                        /* \"#utility.yul\":10471:11774   */\n                      pop\n                      pop\n                      pop\n                        /* \"#utility.yul\":10379:11774   */\n                      pop\n                      pop\n                      jump\t// out\n\n                    auxdata: 0xa2646970667358221220e8949b7fb1979aa2215ada4c2bedce0e506e443ef0eb50d5c4678f2d0bec8ff664736f6c634300080f0033\n                }\n            }\n\n            auxdata: 0xa264697066735822122070a666f9651c36ba88b3fa59c797647c47d5e74f3f33d6103e4a7cc08d8b1c2564736f6c634300080f0033\n        }\n    }\n\n    auxdata: 0xa2646970667358221220ad8464faf01c2228b2aff387ee9bf0cf1f70c6f65be9e3447714f40e5a30012064736f6c634300080f0033\n}\n","bytecode":{"linkReferences":{},"object":"608060405234801561001057600080fd5b50612123806100206000396000f3fe608060405234801561001057600080fd5b50600436106100415760003560e01c80630a2bfd0614610046578063a488f51014610064578063f63764891461006e575b600080fd5b61004e61009e565b60405161005b9190610306565b60405180910390f35b61006c61012c565b005b61008860048036038101906100839190610363565b6101ca565b604051610095919061039f565b60405180910390f35b6060600080548060200260200160405190810160405280929190818152602001828054801561012257602002820191906000526020600020905b8160009054906101000a900473ffffffffffffffffffffffffffffffffffffffff1673ffffffffffffffffffffffffffffffffffffffff16815260200190600101908083116100d8575b5050505050905090565b60003360405161013b90610209565b610145919061039f565b604051809103906000f080158015610161573d6000803e3d6000fd5b5090506000819080600181540180825580915050600190039060005260206000200160009091909190916101000a81548173ffffffffffffffffffffffffffffffffffffffff021916908373ffffffffffffffffffffffffffffffffffffffff16021790555050565b600081815481106101da57600080fd5b906000526020600020016000915054906101000a900473ffffffffffffffffffffffffffffffffffffffff1681565b611d33806103bb83390190565b600081519050919050565b600082825260208201905092915050565b6000819050602082019050919050565b600073ffffffffffffffffffffffffffffffffffffffff82169050919050565b600061026d82610242565b9050919050565b61027d81610262565b82525050565b600061028f8383610274565b60208301905092915050565b6000602082019050919050565b60006102b382610216565b6102bd8185610221565b93506102c883610232565b8060005b838110156102f95781516102e08882610283565b97506102eb8361029b565b9250506001810190506102cc565b5085935050505092915050565b6000602082019050818103600083015261032081846102a8565b905092915050565b600080fd5b6000819050919050565b6103408161032d565b811461034b57600080fd5b50565b60008135905061035d81610337565b92915050565b60006020828403121561037957610378610328565b5b60006103878482850161034e565b91505092915050565b61039981610262565b82525050565b60006020820190506103b46000830184610390565b9291505056fe608060405234801561001057600080fd5b50604051611d33380380611d33833981810160405281019061003291906100db565b806000806101000a81548173ffffffffffffffffffffffffffffffffffffffff021916908373ffffffffffffffffffffffffffffffffffffffff16021790555050610108565b600080fd5b600073ffffffffffffffffffffffffffffffffffffffff82169050919050565b60006100a88261007d565b9050919050565b6100b88161009d565b81146100c357600080fd5b50565b6000815190506100d5816100af565b92915050565b6000602082840312156100f1576100f0610078565b5b60006100ff848285016100c6565b91505092915050565b611c1c806101176000396000f3fe60806040523480156200001157600080fd5b50600436106200005e5760003560e01c80630626756d146200006357806333f0fb5a1462000085578063481c6a7514620000bb578063d580d5f014620000dd578063fee272bb14620000ff575b600080fd5b6200006d6200011f565b6040516200007c91906200046f565b60405180910390f35b620000a360048036038101906200009d9190620004e2565b620001af565b604051620000b2919062000525565b60405180910390f35b620000c5620001ef565b604051620000d4919062000525565b60405180910390f35b620000e762000213565b604051620000f6919062000553565b60405180910390f35b6200011d6004803603810190620001179190620006d2565b62000219565b005b60606001805480602002602001604051908101604052809291908181526020018280548015620001a557602002820191906000526020600020905b8160009054906101000a900473ffffffffffffffffffffffffffffffffffffffff1673ffffffffffffffffffffffffffffffffffffffff16815260200190600101908083116200015a575b5050505050905090565b60018181548110620001c057600080fd5b906000526020600020016000915054906101000a900473ffffffffffffffffffffffffffffffffffffffff1681565b60008054906101000a900473ffffffffffffffffffffffffffffffffffffffff1681565b60025481565b3373ffffffffffffffffffffffffffffffffffffffff1660008054906101000a900473ffffffffffffffffffffffffffffffffffffffff1673ffffffffffffffffffffffffffffffffffffffff16146200027257600080fd5b60008060009054906101000a900473ffffffffffffffffffffffffffffffffffffffff168686868686604051620002a9906200035f565b620002ba969594939291906200082b565b604051809103906000f080158015620002d7573d6000803e3d6000fd5b5090506001819080600181540180825580915050600190039060005260206000200160009091909190916101000a81548173ffffffffffffffffffffffffffffffffffffffff021916908373ffffffffffffffffffffffffffffffffffffffff160217905550600260008154809291906200035290620008d5565b9190505550505050505050565b6112c4806200092383390190565b600081519050919050565b600082825260208201905092915050565b6000819050602082019050919050565b600073ffffffffffffffffffffffffffffffffffffffff82169050919050565b6000620003c68262000399565b9050919050565b620003d881620003b9565b82525050565b6000620003ec8383620003cd565b60208301905092915050565b6000602082019050919050565b600062000412826200036d565b6200041e818562000378565b93506200042b8362000389565b8060005b8381101562000462578151620004468882620003de565b97506200045383620003f8565b9250506001810190506200042f565b5085935050505092915050565b600060208201905081810360008301526200048b818462000405565b905092915050565b6000604051905090565b600080fd5b600080fd5b6000819050919050565b620004bc81620004a7565b8114620004c857600080fd5b50565b600081359050620004dc81620004b1565b92915050565b600060208284031215620004fb57620004fa6200049d565b5b60006200050b84828501620004cb565b91505092915050565b6200051f81620003b9565b82525050565b60006020820190506200053c600083018462000514565b92915050565b6200054d81620004a7565b82525050565b60006020820190506200056a600083018462000542565b92915050565b600080fd5b600080fd5b6000601f19601f8301169050919050565b7f4e487b7100000000000000000000000000000000000000000000000000000000600052604160045260246000fd5b620005c5826200057a565b810181811067ffffffffffffffff82111715620005e757620005e66200058b565b5b80604052505050565b6000620005fc62000493565b90506200060a8282620005ba565b919050565b600067ffffffffffffffff8211156200062d576200062c6200058b565b5b62000638826200057a565b9050602081019050919050565b82818337600083830152505050565b60006200066b62000665846200060f565b620005f0565b9050828152602081018484840111156200068a576200068962000575565b5b6200069784828562000645565b509392505050565b600082601f830112620006b757620006b662000570565b5b8135620006c984826020860162000654565b91505092915050565b600080600080600060a08688031215620006f157620006f06200049d565b5b600086013567ffffffffffffffff811115620007125762000711620004a2565b5b62000720888289016200069f565b955050602086013567ffffffffffffffff811115620007445762000743620004a2565b5b62000752888289016200069f565b94505060406200076588828901620004cb565b93505060606200077888828901620004cb565b92505060806200078b88828901620004cb565b9150509295509295909350565b600081519050919050565b600082825260208201905092915050565b60005b83811015620007d4578082015181840152602081019050620007b7565b83811115620007e4576000848401525b50505050565b6000620007f78262000798565b620008038185620007a3565b935062000815818560208601620007b4565b62000820816200057a565b840191505092915050565b600060c08201905062000842600083018962000514565b8181036020830152620008568188620007ea565b905081810360408301526200086c8187620007ea565b90506200087d606083018662000542565b6200088c608083018562000542565b6200089b60a083018462000542565b979650505050505050565b7f4e487b7100000000000000000000000000000000000000000000000000000000600052601160045260246000fd5b6000620008e282620004a7565b91507fffffffffffffffffffffffffffffffffffffffffffffffffffffffffffffffff8203620009175762000916620008a6565b5b60018201905091905056fe60806040523480156200001157600080fd5b50604051620012c4380380620012c48339818101604052810190620000379190620003c2565b856000806101000a81548173ffffffffffffffffffffffffffffffffffffffff021916908373ffffffffffffffffffffffffffffffffffffffff1602179055506040518061010001604052808681526020018581526020018481526020018381526020018281526020016040518060200160405280600081525081526020016040518060200160405280600081525081526020016040518060200160405280600081525081525060016000820151816000019081620000f79190620006dd565b5060208201518160010190816200010f9190620006dd565b5060408201518160020155606082015181600301556080820151816004015560a0820151816005019081620001459190620006dd565b5060c08201518160060190816200015d9190620006dd565b5060e0820151816007019081620001759190620006dd565b50905050505050505050620007c4565b6000604051905090565b600080fd5b600080fd5b600073ffffffffffffffffffffffffffffffffffffffff82169050919050565b6000620001c68262000199565b9050919050565b620001d881620001b9565b8114620001e457600080fd5b50565b600081519050620001f881620001cd565b92915050565b600080fd5b600080fd5b6000601f19601f8301169050919050565b7f4e487b7100000000000000000000000000000000000000000000000000000000600052604160045260246000fd5b620002538262000208565b810181811067ffffffffffffffff8211171562000275576200027462000219565b5b80604052505050565b60006200028a62000185565b905062000298828262000248565b919050565b600067ffffffffffffffff821115620002bb57620002ba62000219565b5b620002c68262000208565b9050602081019050919050565b60005b83811015620002f3578082015181840152602081019050620002d6565b8381111562000303576000848401525b50505050565b6000620003206200031a846200029d565b6200027e565b9050828152602081018484840111156200033f576200033e62000203565b5b6200034c848285620002d3565b509392505050565b600082601f8301126200036c576200036b620001fe565b5b81516200037e84826020860162000309565b91505092915050565b6000819050919050565b6200039c8162000387565b8114620003a857600080fd5b50565b600081519050620003bc8162000391565b92915050565b60008060008060008060c08789031215620003e257620003e16200018f565b5b6000620003f289828a01620001e7565b965050602087015167ffffffffffffffff81111562000416576200041562000194565b5b6200042489828a0162000354565b955050604087015167ffffffffffffffff81111562000448576200044762000194565b5b6200045689828a0162000354565b94505060606200046989828a01620003ab565b93505060806200047c89828a01620003ab565b92505060a06200048f89828a01620003ab565b9150509295509295509295565b600081519050919050565b7f4e487b7100000000000000000000000000000000000000000000000000000000600052602260045260246000fd5b60006002820490506001821680620004ef57607f821691505b602082108103620005055762000504620004a7565b5b50919050565b60008190508160005260206000209050919050565b60006020601f8301049050919050565b600082821b905092915050565b6000600883026200056f7fffffffffffffffffffffffffffffffffffffffffffffffffffffffffffffffff8262000530565b6200057b868362000530565b95508019841693508086168417925050509392505050565b6000819050919050565b6000620005be620005b8620005b28462000387565b62000593565b62000387565b9050919050565b6000819050919050565b620005da836200059d565b620005f2620005e982620005c5565b8484546200053d565b825550505050565b600090565b62000609620005fa565b62000616818484620005cf565b505050565b5b818110156200063e5762000632600082620005ff565b6001810190506200061c565b5050565b601f8211156200068d5762000657816200050b565b620006628462000520565b8101602085101562000672578190505b6200068a620006818562000520565b8301826200061b565b50505b505050565b600082821c905092915050565b6000620006b26000198460080262000692565b1980831691505092915050565b6000620006cd83836200069f565b9150826002028217905092915050565b620006e8826200049c565b67ffffffffffffffff81111562000704576200070362000219565b5b620007108254620004d6565b6200071d82828562000642565b600060209050601f83116001811462000755576000841562000740578287015190505b6200074c8582620006bf565b865550620007bc565b601f19841662000765866200050b565b60005b828110156200078f5784890151825560018201915060208501945060208101905062000768565b86831015620007af5784890151620007ab601f8916826200069f565b8355505b6001600288020188555050505b505050505050565b610af080620007d46000396000f3fe608060405234801561001057600080fd5b50600436106100415760003560e01c8063481c6a75146100465780635dab242014610064578063f2390d4314610089575b600080fd5b61004e6100a5565b60405161005b919061047e565b60405180910390f35b61006c6100c9565b60405161008098979695949392919061054b565b60405180910390f35b6100a3600480360381019061009e9190610735565b6103a7565b005b60008054906101000a900473ffffffffffffffffffffffffffffffffffffffff1681565b60018060000180546100da9061080b565b80601f01602080910402602001604051908101604052809291908181526020018280546101069061080b565b80156101535780601f1061012857610100808354040283529160200191610153565b820191906000526020600020905b81548152906001019060200180831161013657829003601f168201915b5050505050908060010180546101689061080b565b80601f01602080910402602001604051908101604052809291908181526020018280546101949061080b565b80156101e15780601f106101b6576101008083540402835291602001916101e1565b820191906000526020600020905b8154815290600101906020018083116101c457829003601f168201915b5050505050908060020154908060030154908060040154908060050180546102089061080b565b80601f01602080910402602001604051908101604052809291908181526020018280546102349061080b565b80156102815780601f1061025657610100808354040283529160200191610281565b820191906000526020600020905b81548152906001019060200180831161026457829003601f168201915b5050505050908060060180546102969061080b565b80601f01602080910402602001604051908101604052809291908181526020018280546102c29061080b565b801561030f5780601f106102e45761010080835404028352916020019161030f565b820191906000526020600020905b8154815290600101906020018083116102f257829003601f168201915b5050505050908060070180546103249061080b565b80601f01602080910402602001604051908101604052809291908181526020018280546103509061080b565b801561039d5780601f106103725761010080835404028352916020019161039d565b820191906000526020600020905b81548152906001019060200180831161038057829003601f168201915b5050505050905088565b3373ffffffffffffffffffffffffffffffffffffffff1660008054906101000a900473ffffffffffffffffffffffffffffffffffffffff1673ffffffffffffffffffffffffffffffffffffffff16146103ff57600080fd5b826001600501908161041191906109e8565b50816001600601908161042491906109e8565b50806001600701908161043791906109e8565b50505050565b600073ffffffffffffffffffffffffffffffffffffffff82169050919050565b60006104688261043d565b9050919050565b6104788161045d565b82525050565b6000602082019050610493600083018461046f565b92915050565b600081519050919050565b600082825260208201905092915050565b60005b838110156104d35780820151818401526020810190506104b8565b838111156104e2576000848401525b50505050565b6000601f19601f8301169050919050565b600061050482610499565b61050e81856104a4565b935061051e8185602086016104b5565b610527816104e8565b840191505092915050565b6000819050919050565b61054581610532565b82525050565b6000610100820190508181036000830152610566818b6104f9565b9050818103602083015261057a818a6104f9565b9050610589604083018961053c565b610596606083018861053c565b6105a3608083018761053c565b81810360a08301526105b581866104f9565b905081810360c08301526105c981856104f9565b905081810360e08301526105dd81846104f9565b90509998505050505050505050565b6000604051905090565b600080fd5b600080fd5b600080fd5b600080fd5b7f4e487b7100000000000000000000000000000000000000000000000000000000600052604160045260246000fd5b610642826104e8565b810181811067ffffffffffffffff821117156106615761066061060a565b5b80604052505050565b60006106746105ec565b90506106808282610639565b919050565b600067ffffffffffffffff8211156106a05761069f61060a565b5b6106a9826104e8565b9050602081019050919050565b82818337600083830152505050565b60006106d86106d384610685565b61066a565b9050828152602081018484840111156106f4576106f3610605565b5b6106ff8482856106b6565b509392505050565b600082601f83011261071c5761071b610600565b5b813561072c8482602086016106c5565b91505092915050565b60008060006060848603121561074e5761074d6105f6565b5b600084013567ffffffffffffffff81111561076c5761076b6105fb565b5b61077886828701610707565b935050602084013567ffffffffffffffff811115610799576107986105fb565b5b6107a586828701610707565b925050604084013567ffffffffffffffff8111156107c6576107c56105fb565b5b6107d286828701610707565b9150509250925092565b7f4e487b7100000000000000000000000000000000000000000000000000000000600052602260045260246000fd5b6000600282049050600182168061082357607f821691505b602082108103610836576108356107dc565b5b50919050565b60008190508160005260206000209050919050565b60006020601f8301049050919050565b600082821b905092915050565b60006008830261089e7fffffffffffffffffffffffffffffffffffffffffffffffffffffffffffffffff82610861565b6108a88683610861565b95508019841693508086168417925050509392505050565b6000819050919050565b60006108e56108e06108db84610532565b6108c0565b610532565b9050919050565b6000819050919050565b6108ff836108ca565b61091361090b826108ec565b84845461086e565b825550505050565b600090565b61092861091b565b6109338184846108f6565b505050565b5b818110156109575761094c600082610920565b600181019050610939565b5050565b601f82111561099c5761096d8161083c565b61097684610851565b81016020851015610985578190505b61099961099185610851565b830182610938565b50505b505050565b600082821c905092915050565b60006109bf600019846008026109a1565b1980831691505092915050565b60006109d883836109ae565b9150826002028217905092915050565b6109f182610499565b67ffffffffffffffff811115610a0a57610a0961060a565b5b610a14825461080b565b610a1f82828561095b565b600060209050601f831160018114610a525760008415610a40578287015190505b610a4a85826109cc565b865550610ab2565b601f198416610a608661083c565b60005b82811015610a8857848901518255600182019150602085019450602081019050610a63565b86831015610aa55784890151610aa1601f8916826109ae565b8355505b6001600288020188555050505b50505050505056fea2646970667358221220e8949b7fb1979aa2215ada4c2bedce0e506e443ef0eb50d5c4678f2d0bec8ff664736f6c634300080f0033a264697066735822122070a666f9651c36ba88b3fa59c797647c47d5e74f3f33d6103e4a7cc08d8b1c2564736f6c634300080f0033a2646970667358221220ad8464faf01c2228b2aff387ee9bf0cf1f70c6f65be9e3447714f40e5a30012064736f6c634300080f0033","opcodes":"PUSH1 0x80 PUSH1 0x40 MSTORE CALLVALUE DUP1 ISZERO PUSH2 0x10 JUMPI PUSH1 0x0 DUP1 REVERT JUMPDEST POP PUSH2 0x2123 DUP1 PUSH2 0x20 PUSH1 0x0 CODECOPY PUSH1 0x0 RETURN INVALID PUSH1 0x80 PUSH1 0x40 MSTORE CALLVALUE DUP1 ISZERO PUSH2 0x10 JUMPI PUSH1 0x0 DUP1 REVERT JUMPDEST POP PUSH1 0x4 CALLDATASIZE LT PUSH2 0x41 JUMPI PUSH1 0x0 CALLDATALOAD PUSH1 0xE0 SHR DUP1 PUSH4 0xA2BFD06 EQ PUSH2 0x46 JUMPI DUP1 PUSH4 0xA488F510 EQ PUSH2 0x64 JUMPI DUP1 PUSH4 0xF6376489 EQ PUSH2 0x6E JUMPI JUMPDEST PUSH1 0x0 DUP1 REVERT JUMPDEST PUSH2 0x4E PUSH2 0x9E JUMP JUMPDEST PUSH1 0x40 MLOAD PUSH2 0x5B SWAP2 SWAP1 PUSH2 0x306 JUMP JUMPDEST PUSH1 0x40 MLOAD DUP1 SWAP2 SUB SWAP1 RETURN JUMPDEST PUSH2 0x6C PUSH2 0x12C JUMP JUMPDEST STOP JUMPDEST PUSH2 0x88 PUSH1 0x4 DUP1 CALLDATASIZE SUB DUP2 ADD SWAP1 PUSH2 0x83 SWAP2 SWAP1 PUSH2 0x363 JUMP JUMPDEST PUSH2 0x1CA JUMP JUMPDEST PUSH1 0x40 MLOAD PUSH2 0x95 SWAP2 SWAP1 PUSH2 0x39F JUMP JUMPDEST PUSH1 0x40 MLOAD DUP1 SWAP2 SUB SWAP1 RETURN JUMPDEST PUSH1 0x60 PUSH1 0x0 DUP1 SLOAD DUP1 PUSH1 0x20 MUL PUSH1 0x20 ADD PUSH1 0x40 MLOAD SWAP1 DUP2 ADD PUSH1 0x40 MSTORE DUP1 SWAP3 SWAP2 SWAP1 DUP2 DUP2 MSTORE PUSH1 0x20 ADD DUP3 DUP1 SLOAD DUP1 ISZERO PUSH2 0x122 JUMPI PUSH1 0x20 MUL DUP3 ADD SWAP2 SWAP1 PUSH1 0x0 MSTORE PUSH1 0x20 PUSH1 0x0 KECCAK256 SWAP1 JUMPDEST DUP2 PUSH1 0x0 SWAP1 SLOAD SWAP1 PUSH2 0x100 EXP SWAP1 DIV PUSH20 0xFFFFFFFFFFFFFFFFFFFFFFFFFFFFFFFFFFFFFFFF AND PUSH20 0xFFFFFFFFFFFFFFFFFFFFFFFFFFFFFFFFFFFFFFFF AND DUP2 MSTORE PUSH1 0x20 ADD SWAP1 PUSH1 0x1 ADD SWAP1 DUP1 DUP4 GT PUSH2 0xD8 JUMPI JUMPDEST POP POP POP POP POP SWAP1 POP SWAP1 JUMP JUMPDEST PUSH1 0x0 CALLER PUSH1 0x40 MLOAD PUSH2 0x13B SWAP1 PUSH2 0x209 JUMP JUMPDEST PUSH2 0x145 SWAP2 SWAP1 PUSH2 0x39F JUMP JUMPDEST PUSH1 0x40 MLOAD DUP1 SWAP2 SUB SWAP1 PUSH1 0x0 CREATE DUP1 ISZERO DUP1 ISZERO PUSH2 0x161 JUMPI RETURNDATASIZE PUSH1 0x0 DUP1 RETURNDATACOPY RETURNDATASIZE PUSH1 0x0 REVERT JUMPDEST POP SWAP1 POP PUSH1 0x0 DUP2 SWAP1 DUP1 PUSH1 0x1 DUP2 SLOAD ADD DUP1 DUP3 SSTORE DUP1 SWAP2 POP POP PUSH1 0x1 SWAP1 SUB SWAP1 PUSH1 0x0 MSTORE PUSH1 0x20 PUSH1 0x0 KECCAK256 ADD PUSH1 0x0 SWAP1 SWAP2 SWAP1 SWAP2 SWAP1 SWAP2 PUSH2 0x100 EXP DUP2 SLOAD DUP2 PUSH20 0xFFFFFFFFFFFFFFFFFFFFFFFFFFFFFFFFFFFFFFFF MUL NOT AND SWAP1 DUP4 PUSH20 0xFFFFFFFFFFFFFFFFFFFFFFFFFFFFFFFFFFFFFFFF AND MUL OR SWAP1 SSTORE POP POP JUMP JUMPDEST PUSH1 0x0 DUP2 DUP2 SLOAD DUP2 LT PUSH2 0x1DA JUMPI PUSH1 0x0 DUP1 REVERT JUMPDEST SWAP1 PUSH1 0x0 MSTORE PUSH1 0x20 PUSH1 0x0 KECCAK256 ADD PUSH1 0x0 SWAP2 POP SLOAD SWAP1 PUSH2 0x100 EXP SWAP1 DIV PUSH20 0xFFFFFFFFFFFFFFFFFFFFFFFFFFFFFFFFFFFFFFFF AND DUP2 JUMP JUMPDEST PUSH2 0x1D33 DUP1 PUSH2 0x3BB DUP4 CODECOPY ADD SWAP1 JUMP JUMPDEST PUSH1 0x0 DUP2 MLOAD SWAP1 POP SWAP2 SWAP1 POP JUMP JUMPDEST PUSH1 0x0 DUP3 DUP3 MSTORE PUSH1 0x20 DUP3 ADD SWAP1 POP SWAP3 SWAP2 POP POP JUMP JUMPDEST PUSH1 0x0 DUP2 SWAP1 POP PUSH1 0x20 DUP3 ADD SWAP1 POP SWAP2 SWAP1 POP JUMP JUMPDEST PUSH1 0x0 PUSH20 0xFFFFFFFFFFFFFFFFFFFFFFFFFFFFFFFFFFFFFFFF DUP3 AND SWAP1 POP SWAP2 SWAP1 POP JUMP JUMPDEST PUSH1 0x0 PUSH2 0x26D DUP3 PUSH2 0x242 JUMP JUMPDEST SWAP1 POP SWAP2 SWAP1 POP JUMP JUMPDEST PUSH2 0x27D DUP2 PUSH2 0x262 JUMP JUMPDEST DUP3 MSTORE POP POP JUMP JUMPDEST PUSH1 0x0 PUSH2 0x28F DUP4 DUP4 PUSH2 0x274 JUMP JUMPDEST PUSH1 0x20 DUP4 ADD SWAP1 POP SWAP3 SWAP2 POP POP JUMP JUMPDEST PUSH1 0x0 PUSH1 0x20 DUP3 ADD SWAP1 POP SWAP2 SWAP1 POP JUMP JUMPDEST PUSH1 0x0 PUSH2 0x2B3 DUP3 PUSH2 0x216 JUMP JUMPDEST PUSH2 0x2BD DUP2 DUP6 PUSH2 0x221 JUMP JUMPDEST SWAP4 POP PUSH2 0x2C8 DUP4 PUSH2 0x232 JUMP JUMPDEST DUP1 PUSH1 0x0 JUMPDEST DUP4 DUP2 LT ISZERO PUSH2 0x2F9 JUMPI DUP2 MLOAD PUSH2 0x2E0 DUP9 DUP3 PUSH2 0x283 JUMP JUMPDEST SWAP8 POP PUSH2 0x2EB DUP4 PUSH2 0x29B JUMP JUMPDEST SWAP3 POP POP PUSH1 0x1 DUP2 ADD SWAP1 POP PUSH2 0x2CC JUMP JUMPDEST POP DUP6 SWAP4 POP POP POP POP SWAP3 SWAP2 POP POP JUMP JUMPDEST PUSH1 0x0 PUSH1 0x20 DUP3 ADD SWAP1 POP DUP2 DUP2 SUB PUSH1 0x0 DUP4 ADD MSTORE PUSH2 0x320 DUP2 DUP5 PUSH2 0x2A8 JUMP JUMPDEST SWAP1 POP SWAP3 SWAP2 POP POP JUMP JUMPDEST PUSH1 0x0 DUP1 REVERT JUMPDEST PUSH1 0x0 DUP2 SWAP1 POP SWAP2 SWAP1 POP JUMP JUMPDEST PUSH2 0x340 DUP2 PUSH2 0x32D JUMP JUMPDEST DUP2 EQ PUSH2 0x34B JUMPI PUSH1 0x0 DUP1 REVERT JUMPDEST POP JUMP JUMPDEST PUSH1 0x0 DUP2 CALLDATALOAD SWAP1 POP PUSH2 0x35D DUP2 PUSH2 0x337 JUMP JUMPDEST SWAP3 SWAP2 POP POP JUMP JUMPDEST PUSH1 0x0 PUSH1 0x20 DUP3 DUP5 SUB SLT ISZERO PUSH2 0x379 JUMPI PUSH2 0x378 PUSH2 0x328 JUMP JUMPDEST JUMPDEST PUSH1 0x0 PUSH2 0x387 DUP5 DUP3 DUP6 ADD PUSH2 0x34E JUMP JUMPDEST SWAP2 POP POP SWAP3 SWAP2 POP POP JUMP JUMPDEST PUSH2 0x399 DUP2 PUSH2 0x262 JUMP JUMPDEST DUP3 MSTORE POP POP JUMP JUMPDEST PUSH1 0x0 PUSH1 0x20 DUP3 ADD SWAP1 POP PUSH2 0x3B4 PUSH1 0x0 DUP4 ADD DUP5 PUSH2 0x390 JUMP JUMPDEST SWAP3 SWAP2 POP POP JUMP INVALID PUSH1 0x80 PUSH1 0x40 MSTORE CALLVALUE DUP1 ISZERO PUSH2 0x10 JUMPI PUSH1 0x0 DUP1 REVERT JUMPDEST POP PUSH1 0x40 MLOAD PUSH2 0x1D33 CODESIZE SUB DUP1 PUSH2 0x1D33 DUP4 CODECOPY DUP2 DUP2 ADD PUSH1 0x40 MSTORE DUP2 ADD SWAP1 PUSH2 0x32 SWAP2 SWAP1 PUSH2 0xDB JUMP JUMPDEST DUP1 PUSH1 0x0 DUP1 PUSH2 0x100 EXP DUP2 SLOAD DUP2 PUSH20 0xFFFFFFFFFFFFFFFFFFFFFFFFFFFFFFFFFFFFFFFF MUL NOT AND SWAP1 DUP4 PUSH20 0xFFFFFFFFFFFFFFFFFFFFFFFFFFFFFFFFFFFFFFFF AND MUL OR SWAP1 SSTORE POP POP PUSH2 0x108 JUMP JUMPDEST PUSH1 0x0 DUP1 REVERT JUMPDEST PUSH1 0x0 PUSH20 0xFFFFFFFFFFFFFFFFFFFFFFFFFFFFFFFFFFFFFFFF DUP3 AND SWAP1 POP SWAP2 SWAP1 POP JUMP JUMPDEST PUSH1 0x0 PUSH2 0xA8 DUP3 PUSH2 0x7D JUMP JUMPDEST SWAP1 POP SWAP2 SWAP1 POP JUMP JUMPDEST PUSH2 0xB8 DUP2 PUSH2 0x9D JUMP JUMPDEST DUP2 EQ PUSH2 0xC3 JUMPI PUSH1 0x0 DUP1 REVERT JUMPDEST POP JUMP JUMPDEST PUSH1 0x0 DUP2 MLOAD SWAP1 POP PUSH2 0xD5 DUP2 PUSH2 0xAF JUMP JUMPDEST SWAP3 SWAP2 POP POP JUMP JUMPDEST PUSH1 0x0 PUSH1 0x20 DUP3 DUP5 SUB SLT ISZERO PUSH2 0xF1 JUMPI PUSH2 0xF0 PUSH2 0x78 JUMP JUMPDEST JUMPDEST PUSH1 0x0 PUSH2 0xFF DUP5 DUP3 DUP6 ADD PUSH2 0xC6 JUMP JUMPDEST SWAP2 POP POP SWAP3 SWAP2 POP POP JUMP JUMPDEST PUSH2 0x1C1C DUP1 PUSH2 0x117 PUSH1 0x0 CODECOPY PUSH1 0x0 RETURN INVALID PUSH1 0x80 PUSH1 0x40 MSTORE CALLVALUE DUP1 ISZERO PUSH3 0x11 JUMPI PUSH1 0x0 DUP1 REVERT JUMPDEST POP PUSH1 0x4 CALLDATASIZE LT PUSH3 0x5E JUMPI PUSH1 0x0 CALLDATALOAD PUSH1 0xE0 SHR DUP1 PUSH4 0x626756D EQ PUSH3 0x63 JUMPI DUP1 PUSH4 0x33F0FB5A EQ PUSH3 0x85 JUMPI DUP1 PUSH4 0x481C6A75 EQ PUSH3 0xBB JUMPI DUP1 PUSH4 0xD580D5F0 EQ PUSH3 0xDD JUMPI DUP1 PUSH4 0xFEE272BB EQ PUSH3 0xFF JUMPI JUMPDEST PUSH1 0x0 DUP1 REVERT JUMPDEST PUSH3 0x6D PUSH3 0x11F JUMP JUMPDEST PUSH1 0x40 MLOAD PUSH3 0x7C SWAP2 SWAP1 PUSH3 0x46F JUMP JUMPDEST PUSH1 0x40 MLOAD DUP1 SWAP2 SUB SWAP1 RETURN JUMPDEST PUSH3 0xA3 PUSH1 0x4 DUP1 CALLDATASIZE SUB DUP2 ADD SWAP1 PUSH3 0x9D SWAP2 SWAP1 PUSH3 0x4E2 JUMP JUMPDEST PUSH3 0x1AF JUMP JUMPDEST PUSH1 0x40 MLOAD PUSH3 0xB2 SWAP2 SWAP1 PUSH3 0x525 JUMP JUMPDEST PUSH1 0x40 MLOAD DUP1 SWAP2 SUB SWAP1 RETURN JUMPDEST PUSH3 0xC5 PUSH3 0x1EF JUMP JUMPDEST PUSH1 0x40 MLOAD PUSH3 0xD4 SWAP2 SWAP1 PUSH3 0x525 JUMP JUMPDEST PUSH1 0x40 MLOAD DUP1 SWAP2 SUB SWAP1 RETURN JUMPDEST PUSH3 0xE7 PUSH3 0x213 JUMP JUMPDEST PUSH1 0x40 MLOAD PUSH3 0xF6 SWAP2 SWAP1 PUSH3 0x553 JUMP JUMPDEST PUSH1 0x40 MLOAD DUP1 SWAP2 SUB SWAP1 RETURN JUMPDEST PUSH3 0x11D PUSH1 0x4 DUP1 CALLDATASIZE SUB DUP2 ADD SWAP1 PUSH3 0x117 SWAP2 SWAP1 PUSH3 0x6D2 JUMP JUMPDEST PUSH3 0x219 JUMP JUMPDEST STOP JUMPDEST PUSH1 0x60 PUSH1 0x1 DUP1 SLOAD DUP1 PUSH1 0x20 MUL PUSH1 0x20 ADD PUSH1 0x40 MLOAD SWAP1 DUP2 ADD PUSH1 0x40 MSTORE DUP1 SWAP3 SWAP2 SWAP1 DUP2 DUP2 MSTORE PUSH1 0x20 ADD DUP3 DUP1 SLOAD DUP1 ISZERO PUSH3 0x1A5 JUMPI PUSH1 0x20 MUL DUP3 ADD SWAP2 SWAP1 PUSH1 0x0 MSTORE PUSH1 0x20 PUSH1 0x0 KECCAK256 SWAP1 JUMPDEST DUP2 PUSH1 0x0 SWAP1 SLOAD SWAP1 PUSH2 0x100 EXP SWAP1 DIV PUSH20 0xFFFFFFFFFFFFFFFFFFFFFFFFFFFFFFFFFFFFFFFF AND PUSH20 0xFFFFFFFFFFFFFFFFFFFFFFFFFFFFFFFFFFFFFFFF AND DUP2 MSTORE PUSH1 0x20 ADD SWAP1 PUSH1 0x1 ADD SWAP1 DUP1 DUP4 GT PUSH3 0x15A JUMPI JUMPDEST POP POP POP POP POP SWAP1 POP SWAP1 JUMP JUMPDEST PUSH1 0x1 DUP2 DUP2 SLOAD DUP2 LT PUSH3 0x1C0 JUMPI PUSH1 0x0 DUP1 REVERT JUMPDEST SWAP1 PUSH1 0x0 MSTORE PUSH1 0x20 PUSH1 0x0 KECCAK256 ADD PUSH1 0x0 SWAP2 POP SLOAD SWAP1 PUSH2 0x100 EXP SWAP1 DIV PUSH20 0xFFFFFFFFFFFFFFFFFFFFFFFFFFFFFFFFFFFFFFFF AND DUP2 JUMP JUMPDEST PUSH1 0x0 DUP1 SLOAD SWAP1 PUSH2 0x100 EXP SWAP1 DIV PUSH20 0xFFFFFFFFFFFFFFFFFFFFFFFFFFFFFFFFFFFFFFFF AND DUP2 JUMP JUMPDEST PUSH1 0x2 SLOAD DUP2 JUMP JUMPDEST CALLER PUSH20 0xFFFFFFFFFFFFFFFFFFFFFFFFFFFFFFFFFFFFFFFF AND PUSH1 0x0 DUP1 SLOAD SWAP1 PUSH2 0x100 EXP SWAP1 DIV PUSH20 0xFFFFFFFFFFFFFFFFFFFFFFFFFFFFFFFFFFFFFFFF AND PUSH20 0xFFFFFFFFFFFFFFFFFFFFFFFFFFFFFFFFFFFFFFFF AND EQ PUSH3 0x272 JUMPI PUSH1 0x0 DUP1 REVERT JUMPDEST PUSH1 0x0 DUP1 PUSH1 0x0 SWAP1 SLOAD SWAP1 PUSH2 0x100 EXP SWAP1 DIV PUSH20 0xFFFFFFFFFFFFFFFFFFFFFFFFFFFFFFFFFFFFFFFF AND DUP7 DUP7 DUP7 DUP7 DUP7 PUSH1 0x40 MLOAD PUSH3 0x2A9 SWAP1 PUSH3 0x35F JUMP JUMPDEST PUSH3 0x2BA SWAP7 SWAP6 SWAP5 SWAP4 SWAP3 SWAP2 SWAP1 PUSH3 0x82B JUMP JUMPDEST PUSH1 0x40 MLOAD DUP1 SWAP2 SUB SWAP1 PUSH1 0x0 CREATE DUP1 ISZERO DUP1 ISZERO PUSH3 0x2D7 JUMPI RETURNDATASIZE PUSH1 0x0 DUP1 RETURNDATACOPY RETURNDATASIZE PUSH1 0x0 REVERT JUMPDEST POP SWAP1 POP PUSH1 0x1 DUP2 SWAP1 DUP1 PUSH1 0x1 DUP2 SLOAD ADD DUP1 DUP3 SSTORE DUP1 SWAP2 POP POP PUSH1 0x1 SWAP1 SUB SWAP1 PUSH1 0x0 MSTORE PUSH1 0x20 PUSH1 0x0 KECCAK256 ADD PUSH1 0x0 SWAP1 SWAP2 SWAP1 SWAP2 SWAP1 SWAP2 PUSH2 0x100 EXP DUP2 SLOAD DUP2 PUSH20 0xFFFFFFFFFFFFFFFFFFFFFFFFFFFFFFFFFFFFFFFF MUL NOT AND SWAP1 DUP4 PUSH20 0xFFFFFFFFFFFFFFFFFFFFFFFFFFFFFFFFFFFFFFFF AND MUL OR SWAP1 SSTORE POP PUSH1 0x2 PUSH1 0x0 DUP2 SLOAD DUP1 SWAP3 SWAP2 SWAP1 PUSH3 0x352 SWAP1 PUSH3 0x8D5 JUMP JUMPDEST SWAP2 SWAP1 POP SSTORE POP POP POP POP POP POP POP JUMP JUMPDEST PUSH2 0x12C4 DUP1 PUSH3 0x923 DUP4 CODECOPY ADD SWAP1 JUMP JUMPDEST PUSH1 0x0 DUP2 MLOAD SWAP1 POP SWAP2 SWAP1 POP JUMP JUMPDEST PUSH1 0x0 DUP3 DUP3 MSTORE PUSH1 0x20 DUP3 ADD SWAP1 POP SWAP3 SWAP2 POP POP JUMP JUMPDEST PUSH1 0x0 DUP2 SWAP1 POP PUSH1 0x20 DUP3 ADD SWAP1 POP SWAP2 SWAP1 POP JUMP JUMPDEST PUSH1 0x0 PUSH20 0xFFFFFFFFFFFFFFFFFFFFFFFFFFFFFFFFFFFFFFFF DUP3 AND SWAP1 POP SWAP2 SWAP1 POP JUMP JUMPDEST PUSH1 0x0 PUSH3 0x3C6 DUP3 PUSH3 0x399 JUMP JUMPDEST SWAP1 POP SWAP2 SWAP1 POP JUMP JUMPDEST PUSH3 0x3D8 DUP2 PUSH3 0x3B9 JUMP JUMPDEST DUP3 MSTORE POP POP JUMP JUMPDEST PUSH1 0x0 PUSH3 0x3EC DUP4 DUP4 PUSH3 0x3CD JUMP JUMPDEST PUSH1 0x20 DUP4 ADD SWAP1 POP SWAP3 SWAP2 POP POP JUMP JUMPDEST PUSH1 0x0 PUSH1 0x20 DUP3 ADD SWAP1 POP SWAP2 SWAP1 POP JUMP JUMPDEST PUSH1 0x0 PUSH3 0x412 DUP3 PUSH3 0x36D JUMP JUMPDEST PUSH3 0x41E DUP2 DUP6 PUSH3 0x378 JUMP JUMPDEST SWAP4 POP PUSH3 0x42B DUP4 PUSH3 0x389 JUMP JUMPDEST DUP1 PUSH1 0x0 JUMPDEST DUP4 DUP2 LT ISZERO PUSH3 0x462 JUMPI DUP2 MLOAD PUSH3 0x446 DUP9 DUP3 PUSH3 0x3DE JUMP JUMPDEST SWAP8 POP PUSH3 0x453 DUP4 PUSH3 0x3F8 JUMP JUMPDEST SWAP3 POP POP PUSH1 0x1 DUP2 ADD SWAP1 POP PUSH3 0x42F JUMP JUMPDEST POP DUP6 SWAP4 POP POP POP POP SWAP3 SWAP2 POP POP JUMP JUMPDEST PUSH1 0x0 PUSH1 0x20 DUP3 ADD SWAP1 POP DUP2 DUP2 SUB PUSH1 0x0 DUP4 ADD MSTORE PUSH3 0x48B DUP2 DUP5 PUSH3 0x405 JUMP JUMPDEST SWAP1 POP SWAP3 SWAP2 POP POP JUMP JUMPDEST PUSH1 0x0 PUSH1 0x40 MLOAD SWAP1 POP SWAP1 JUMP JUMPDEST PUSH1 0x0 DUP1 REVERT JUMPDEST PUSH1 0x0 DUP1 REVERT JUMPDEST PUSH1 0x0 DUP2 SWAP1 POP SWAP2 SWAP1 POP JUMP JUMPDEST PUSH3 0x4BC DUP2 PUSH3 0x4A7 JUMP JUMPDEST DUP2 EQ PUSH3 0x4C8 JUMPI PUSH1 0x0 DUP1 REVERT JUMPDEST POP JUMP JUMPDEST PUSH1 0x0 DUP2 CALLDATALOAD SWAP1 POP PUSH3 0x4DC DUP2 PUSH3 0x4B1 JUMP JUMPDEST SWAP3 SWAP2 POP POP JUMP JUMPDEST PUSH1 0x0 PUSH1 0x20 DUP3 DUP5 SUB SLT ISZERO PUSH3 0x4FB JUMPI PUSH3 0x4FA PUSH3 0x49D JUMP JUMPDEST JUMPDEST PUSH1 0x0 PUSH3 0x50B DUP5 DUP3 DUP6 ADD PUSH3 0x4CB JUMP JUMPDEST SWAP2 POP POP SWAP3 SWAP2 POP POP JUMP JUMPDEST PUSH3 0x51F DUP2 PUSH3 0x3B9 JUMP JUMPDEST DUP3 MSTORE POP POP JUMP JUMPDEST PUSH1 0x0 PUSH1 0x20 DUP3 ADD SWAP1 POP PUSH3 0x53C PUSH1 0x0 DUP4 ADD DUP5 PUSH3 0x514 JUMP JUMPDEST SWAP3 SWAP2 POP POP JUMP JUMPDEST PUSH3 0x54D DUP2 PUSH3 0x4A7 JUMP JUMPDEST DUP3 MSTORE POP POP JUMP JUMPDEST PUSH1 0x0 PUSH1 0x20 DUP3 ADD SWAP1 POP PUSH3 0x56A PUSH1 0x0 DUP4 ADD DUP5 PUSH3 0x542 JUMP JUMPDEST SWAP3 SWAP2 POP POP JUMP JUMPDEST PUSH1 0x0 DUP1 REVERT JUMPDEST PUSH1 0x0 DUP1 REVERT JUMPDEST PUSH1 0x0 PUSH1 0x1F NOT PUSH1 0x1F DUP4 ADD AND SWAP1 POP SWAP2 SWAP1 POP JUMP JUMPDEST PUSH32 0x4E487B7100000000000000000000000000000000000000000000000000000000 PUSH1 0x0 MSTORE PUSH1 0x41 PUSH1 0x4 MSTORE PUSH1 0x24 PUSH1 0x0 REVERT JUMPDEST PUSH3 0x5C5 DUP3 PUSH3 0x57A JUMP JUMPDEST DUP2 ADD DUP2 DUP2 LT PUSH8 0xFFFFFFFFFFFFFFFF DUP3 GT OR ISZERO PUSH3 0x5E7 JUMPI PUSH3 0x5E6 PUSH3 0x58B JUMP JUMPDEST JUMPDEST DUP1 PUSH1 0x40 MSTORE POP POP POP JUMP JUMPDEST PUSH1 0x0 PUSH3 0x5FC PUSH3 0x493 JUMP JUMPDEST SWAP1 POP PUSH3 0x60A DUP3 DUP3 PUSH3 0x5BA JUMP JUMPDEST SWAP2 SWAP1 POP JUMP JUMPDEST PUSH1 0x0 PUSH8 0xFFFFFFFFFFFFFFFF DUP3 GT ISZERO PUSH3 0x62D JUMPI PUSH3 0x62C PUSH3 0x58B JUMP JUMPDEST JUMPDEST PUSH3 0x638 DUP3 PUSH3 0x57A JUMP JUMPDEST SWAP1 POP PUSH1 0x20 DUP2 ADD SWAP1 POP SWAP2 SWAP1 POP JUMP JUMPDEST DUP3 DUP2 DUP4 CALLDATACOPY PUSH1 0x0 DUP4 DUP4 ADD MSTORE POP POP POP JUMP JUMPDEST PUSH1 0x0 PUSH3 0x66B PUSH3 0x665 DUP5 PUSH3 0x60F JUMP JUMPDEST PUSH3 0x5F0 JUMP JUMPDEST SWAP1 POP DUP3 DUP2 MSTORE PUSH1 0x20 DUP2 ADD DUP5 DUP5 DUP5 ADD GT ISZERO PUSH3 0x68A JUMPI PUSH3 0x689 PUSH3 0x575 JUMP JUMPDEST JUMPDEST PUSH3 0x697 DUP5 DUP3 DUP6 PUSH3 0x645 JUMP JUMPDEST POP SWAP4 SWAP3 POP POP POP JUMP JUMPDEST PUSH1 0x0 DUP3 PUSH1 0x1F DUP4 ADD SLT PUSH3 0x6B7 JUMPI PUSH3 0x6B6 PUSH3 0x570 JUMP JUMPDEST JUMPDEST DUP2 CALLDATALOAD PUSH3 0x6C9 DUP5 DUP3 PUSH1 0x20 DUP7 ADD PUSH3 0x654 JUMP JUMPDEST SWAP2 POP POP SWAP3 SWAP2 POP POP JUMP JUMPDEST PUSH1 0x0 DUP1 PUSH1 0x0 DUP1 PUSH1 0x0 PUSH1 0xA0 DUP7 DUP9 SUB SLT ISZERO PUSH3 0x6F1 JUMPI PUSH3 0x6F0 PUSH3 0x49D JUMP JUMPDEST JUMPDEST PUSH1 0x0 DUP7 ADD CALLDATALOAD PUSH8 0xFFFFFFFFFFFFFFFF DUP2 GT ISZERO PUSH3 0x712 JUMPI PUSH3 0x711 PUSH3 0x4A2 JUMP JUMPDEST JUMPDEST PUSH3 0x720 DUP9 DUP3 DUP10 ADD PUSH3 0x69F JUMP JUMPDEST SWAP6 POP POP PUSH1 0x20 DUP7 ADD CALLDATALOAD PUSH8 0xFFFFFFFFFFFFFFFF DUP2 GT ISZERO PUSH3 0x744 JUMPI PUSH3 0x743 PUSH3 0x4A2 JUMP JUMPDEST JUMPDEST PUSH3 0x752 DUP9 DUP3 DUP10 ADD PUSH3 0x69F JUMP JUMPDEST SWAP5 POP POP PUSH1 0x40 PUSH3 0x765 DUP9 DUP3 DUP10 ADD PUSH3 0x4CB JUMP JUMPDEST SWAP4 POP POP PUSH1 0x60 PUSH3 0x778 DUP9 DUP3 DUP10 ADD PUSH3 0x4CB JUMP JUMPDEST SWAP3 POP POP PUSH1 0x80 PUSH3 0x78B DUP9 DUP3 DUP10 ADD PUSH3 0x4CB JUMP JUMPDEST SWAP2 POP POP SWAP3 SWAP6 POP SWAP3 SWAP6 SWAP1 SWAP4 POP JUMP JUMPDEST PUSH1 0x0 DUP2 MLOAD SWAP1 POP SWAP2 SWAP1 POP JUMP JUMPDEST PUSH1 0x0 DUP3 DUP3 MSTORE PUSH1 0x20 DUP3 ADD SWAP1 POP SWAP3 SWAP2 POP POP JUMP JUMPDEST PUSH1 0x0 JUMPDEST DUP4 DUP2 LT ISZERO PUSH3 0x7D4 JUMPI DUP1 DUP3 ADD MLOAD DUP2 DUP5 ADD MSTORE PUSH1 0x20 DUP2 ADD SWAP1 POP PUSH3 0x7B7 JUMP JUMPDEST DUP4 DUP2 GT ISZERO PUSH3 0x7E4 JUMPI PUSH1 0x0 DUP5 DUP5 ADD MSTORE JUMPDEST POP POP POP POP JUMP JUMPDEST PUSH1 0x0 PUSH3 0x7F7 DUP3 PUSH3 0x798 JUMP JUMPDEST PUSH3 0x803 DUP2 DUP6 PUSH3 0x7A3 JUMP JUMPDEST SWAP4 POP PUSH3 0x815 DUP2 DUP6 PUSH1 0x20 DUP7 ADD PUSH3 0x7B4 JUMP JUMPDEST PUSH3 0x820 DUP2 PUSH3 0x57A JUMP JUMPDEST DUP5 ADD SWAP2 POP POP SWAP3 SWAP2 POP POP JUMP JUMPDEST PUSH1 0x0 PUSH1 0xC0 DUP3 ADD SWAP1 POP PUSH3 0x842 PUSH1 0x0 DUP4 ADD DUP10 PUSH3 0x514 JUMP JUMPDEST DUP2 DUP2 SUB PUSH1 0x20 DUP4 ADD MSTORE PUSH3 0x856 DUP2 DUP9 PUSH3 0x7EA JUMP JUMPDEST SWAP1 POP DUP2 DUP2 SUB PUSH1 0x40 DUP4 ADD MSTORE PUSH3 0x86C DUP2 DUP8 PUSH3 0x7EA JUMP JUMPDEST SWAP1 POP PUSH3 0x87D PUSH1 0x60 DUP4 ADD DUP7 PUSH3 0x542 JUMP JUMPDEST PUSH3 0x88C PUSH1 0x80 DUP4 ADD DUP6 PUSH3 0x542 JUMP JUMPDEST PUSH3 0x89B PUSH1 0xA0 DUP4 ADD DUP5 PUSH3 0x542 JUMP JUMPDEST SWAP8 SWAP7 POP POP POP POP POP POP POP JUMP JUMPDEST PUSH32 0x4E487B7100000000000000000000000000000000000000000000000000000000 PUSH1 0x0 MSTORE PUSH1 0x11 PUSH1 0x4 MSTORE PUSH1 0x24 PUSH1 0x0 REVERT JUMPDEST PUSH1 0x0 PUSH3 0x8E2 DUP3 PUSH3 0x4A7 JUMP JUMPDEST SWAP2 POP PUSH32 0xFFFFFFFFFFFFFFFFFFFFFFFFFFFFFFFFFFFFFFFFFFFFFFFFFFFFFFFFFFFFFFFF DUP3 SUB PUSH3 0x917 JUMPI PUSH3 0x916 PUSH3 0x8A6 JUMP JUMPDEST JUMPDEST PUSH1 0x1 DUP3 ADD SWAP1 POP SWAP2 SWAP1 POP JUMP INVALID PUSH1 0x80 PUSH1 0x40 MSTORE CALLVALUE DUP1 ISZERO PUSH3 0x11 JUMPI PUSH1 0x0 DUP1 REVERT JUMPDEST POP PUSH1 0x40 MLOAD PUSH3 0x12C4 CODESIZE SUB DUP1 PUSH3 0x12C4 DUP4 CODECOPY DUP2 DUP2 ADD PUSH1 0x40 MSTORE DUP2 ADD SWAP1 PUSH3 0x37 SWAP2 SWAP1 PUSH3 0x3C2 JUMP JUMPDEST DUP6 PUSH1 0x0 DUP1 PUSH2 0x100 EXP DUP2 SLOAD DUP2 PUSH20 0xFFFFFFFFFFFFFFFFFFFFFFFFFFFFFFFFFFFFFFFF MUL NOT AND SWAP1 DUP4 PUSH20 0xFFFFFFFFFFFFFFFFFFFFFFFFFFFFFFFFFFFFFFFF AND MUL OR SWAP1 SSTORE POP PUSH1 0x40 MLOAD DUP1 PUSH2 0x100 ADD PUSH1 0x40 MSTORE DUP1 DUP7 DUP2 MSTORE PUSH1 0x20 ADD DUP6 DUP2 MSTORE PUSH1 0x20 ADD DUP5 DUP2 MSTORE PUSH1 0x20 ADD DUP4 DUP2 MSTORE PUSH1 0x20 ADD DUP3 DUP2 MSTORE PUSH1 0x20 ADD PUSH1 0x40 MLOAD DUP1 PUSH1 0x20 ADD PUSH1 0x40 MSTORE DUP1 PUSH1 0x0 DUP2 MSTORE POP DUP2 MSTORE PUSH1 0x20 ADD PUSH1 0x40 MLOAD DUP1 PUSH1 0x20 ADD PUSH1 0x40 MSTORE DUP1 PUSH1 0x0 DUP2 MSTORE POP DUP2 MSTORE PUSH1 0x20 ADD PUSH1 0x40 MLOAD DUP1 PUSH1 0x20 ADD PUSH1 0x40 MSTORE DUP1 PUSH1 0x0 DUP2 MSTORE POP DUP2 MSTORE POP PUSH1 0x1 PUSH1 0x0 DUP3 ADD MLOAD DUP2 PUSH1 0x0 ADD SWAP1 DUP2 PUSH3 0xF7 SWAP2 SWAP1 PUSH3 0x6DD JUMP JUMPDEST POP PUSH1 0x20 DUP3 ADD MLOAD DUP2 PUSH1 0x1 ADD SWAP1 DUP2 PUSH3 0x10F SWAP2 SWAP1 PUSH3 0x6DD JUMP JUMPDEST POP PUSH1 0x40 DUP3 ADD MLOAD DUP2 PUSH1 0x2 ADD SSTORE PUSH1 0x60 DUP3 ADD MLOAD DUP2 PUSH1 0x3 ADD SSTORE PUSH1 0x80 DUP3 ADD MLOAD DUP2 PUSH1 0x4 ADD SSTORE PUSH1 0xA0 DUP3 ADD MLOAD DUP2 PUSH1 0x5 ADD SWAP1 DUP2 PUSH3 0x145 SWAP2 SWAP1 PUSH3 0x6DD JUMP JUMPDEST POP PUSH1 0xC0 DUP3 ADD MLOAD DUP2 PUSH1 0x6 ADD SWAP1 DUP2 PUSH3 0x15D SWAP2 SWAP1 PUSH3 0x6DD JUMP JUMPDEST POP PUSH1 0xE0 DUP3 ADD MLOAD DUP2 PUSH1 0x7 ADD SWAP1 DUP2 PUSH3 0x175 SWAP2 SWAP1 PUSH3 0x6DD JUMP JUMPDEST POP SWAP1 POP POP POP POP POP POP POP POP PUSH3 0x7C4 JUMP JUMPDEST PUSH1 0x0 PUSH1 0x40 MLOAD SWAP1 POP SWAP1 JUMP JUMPDEST PUSH1 0x0 DUP1 REVERT JUMPDEST PUSH1 0x0 DUP1 REVERT JUMPDEST PUSH1 0x0 PUSH20 0xFFFFFFFFFFFFFFFFFFFFFFFFFFFFFFFFFFFFFFFF DUP3 AND SWAP1 POP SWAP2 SWAP1 POP JUMP JUMPDEST PUSH1 0x0 PUSH3 0x1C6 DUP3 PUSH3 0x199 JUMP JUMPDEST SWAP1 POP SWAP2 SWAP1 POP JUMP JUMPDEST PUSH3 0x1D8 DUP2 PUSH3 0x1B9 JUMP JUMPDEST DUP2 EQ PUSH3 0x1E4 JUMPI PUSH1 0x0 DUP1 REVERT JUMPDEST POP JUMP JUMPDEST PUSH1 0x0 DUP2 MLOAD SWAP1 POP PUSH3 0x1F8 DUP2 PUSH3 0x1CD JUMP JUMPDEST SWAP3 SWAP2 POP POP JUMP JUMPDEST PUSH1 0x0 DUP1 REVERT JUMPDEST PUSH1 0x0 DUP1 REVERT JUMPDEST PUSH1 0x0 PUSH1 0x1F NOT PUSH1 0x1F DUP4 ADD AND SWAP1 POP SWAP2 SWAP1 POP JUMP JUMPDEST PUSH32 0x4E487B7100000000000000000000000000000000000000000000000000000000 PUSH1 0x0 MSTORE PUSH1 0x41 PUSH1 0x4 MSTORE PUSH1 0x24 PUSH1 0x0 REVERT JUMPDEST PUSH3 0x253 DUP3 PUSH3 0x208 JUMP JUMPDEST DUP2 ADD DUP2 DUP2 LT PUSH8 0xFFFFFFFFFFFFFFFF DUP3 GT OR ISZERO PUSH3 0x275 JUMPI PUSH3 0x274 PUSH3 0x219 JUMP JUMPDEST JUMPDEST DUP1 PUSH1 0x40 MSTORE POP POP POP JUMP JUMPDEST PUSH1 0x0 PUSH3 0x28A PUSH3 0x185 JUMP JUMPDEST SWAP1 POP PUSH3 0x298 DUP3 DUP3 PUSH3 0x248 JUMP JUMPDEST SWAP2 SWAP1 POP JUMP JUMPDEST PUSH1 0x0 PUSH8 0xFFFFFFFFFFFFFFFF DUP3 GT ISZERO PUSH3 0x2BB JUMPI PUSH3 0x2BA PUSH3 0x219 JUMP JUMPDEST JUMPDEST PUSH3 0x2C6 DUP3 PUSH3 0x208 JUMP JUMPDEST SWAP1 POP PUSH1 0x20 DUP2 ADD SWAP1 POP SWAP2 SWAP1 POP JUMP JUMPDEST PUSH1 0x0 JUMPDEST DUP4 DUP2 LT ISZERO PUSH3 0x2F3 JUMPI DUP1 DUP3 ADD MLOAD DUP2 DUP5 ADD MSTORE PUSH1 0x20 DUP2 ADD SWAP1 POP PUSH3 0x2D6 JUMP JUMPDEST DUP4 DUP2 GT ISZERO PUSH3 0x303 JUMPI PUSH1 0x0 DUP5 DUP5 ADD MSTORE JUMPDEST POP POP POP POP JUMP JUMPDEST PUSH1 0x0 PUSH3 0x320 PUSH3 0x31A DUP5 PUSH3 0x29D JUMP JUMPDEST PUSH3 0x27E JUMP JUMPDEST SWAP1 POP DUP3 DUP2 MSTORE PUSH1 0x20 DUP2 ADD DUP5 DUP5 DUP5 ADD GT ISZERO PUSH3 0x33F JUMPI PUSH3 0x33E PUSH3 0x203 JUMP JUMPDEST JUMPDEST PUSH3 0x34C DUP5 DUP3 DUP6 PUSH3 0x2D3 JUMP JUMPDEST POP SWAP4 SWAP3 POP POP POP JUMP JUMPDEST PUSH1 0x0 DUP3 PUSH1 0x1F DUP4 ADD SLT PUSH3 0x36C JUMPI PUSH3 0x36B PUSH3 0x1FE JUMP JUMPDEST JUMPDEST DUP2 MLOAD PUSH3 0x37E DUP5 DUP3 PUSH1 0x20 DUP7 ADD PUSH3 0x309 JUMP JUMPDEST SWAP2 POP POP SWAP3 SWAP2 POP POP JUMP JUMPDEST PUSH1 0x0 DUP2 SWAP1 POP SWAP2 SWAP1 POP JUMP JUMPDEST PUSH3 0x39C DUP2 PUSH3 0x387 JUMP JUMPDEST DUP2 EQ PUSH3 0x3A8 JUMPI PUSH1 0x0 DUP1 REVERT JUMPDEST POP JUMP JUMPDEST PUSH1 0x0 DUP2 MLOAD SWAP1 POP PUSH3 0x3BC DUP2 PUSH3 0x391 JUMP JUMPDEST SWAP3 SWAP2 POP POP JUMP JUMPDEST PUSH1 0x0 DUP1 PUSH1 0x0 DUP1 PUSH1 0x0 DUP1 PUSH1 0xC0 DUP8 DUP10 SUB SLT ISZERO PUSH3 0x3E2 JUMPI PUSH3 0x3E1 PUSH3 0x18F JUMP JUMPDEST JUMPDEST PUSH1 0x0 PUSH3 0x3F2 DUP10 DUP3 DUP11 ADD PUSH3 0x1E7 JUMP JUMPDEST SWAP7 POP POP PUSH1 0x20 DUP8 ADD MLOAD PUSH8 0xFFFFFFFFFFFFFFFF DUP2 GT ISZERO PUSH3 0x416 JUMPI PUSH3 0x415 PUSH3 0x194 JUMP JUMPDEST JUMPDEST PUSH3 0x424 DUP10 DUP3 DUP11 ADD PUSH3 0x354 JUMP JUMPDEST SWAP6 POP POP PUSH1 0x40 DUP8 ADD MLOAD PUSH8 0xFFFFFFFFFFFFFFFF DUP2 GT ISZERO PUSH3 0x448 JUMPI PUSH3 0x447 PUSH3 0x194 JUMP JUMPDEST JUMPDEST PUSH3 0x456 DUP10 DUP3 DUP11 ADD PUSH3 0x354 JUMP JUMPDEST SWAP5 POP POP PUSH1 0x60 PUSH3 0x469 DUP10 DUP3 DUP11 ADD PUSH3 0x3AB JUMP JUMPDEST SWAP4 POP POP PUSH1 0x80 PUSH3 0x47C DUP10 DUP3 DUP11 ADD PUSH3 0x3AB JUMP JUMPDEST SWAP3 POP POP PUSH1 0xA0 PUSH3 0x48F DUP10 DUP3 DUP11 ADD PUSH3 0x3AB JUMP JUMPDEST SWAP2 POP POP SWAP3 SWAP6 POP SWAP3 SWAP6 POP SWAP3 SWAP6 JUMP JUMPDEST PUSH1 0x0 DUP2 MLOAD SWAP1 POP SWAP2 SWAP1 POP JUMP JUMPDEST PUSH32 0x4E487B7100000000000000000000000000000000000000000000000000000000 PUSH1 0x0 MSTORE PUSH1 0x22 PUSH1 0x4 MSTORE PUSH1 0x24 PUSH1 0x0 REVERT JUMPDEST PUSH1 0x0 PUSH1 0x2 DUP3 DIV SWAP1 POP PUSH1 0x1 DUP3 AND DUP1 PUSH3 0x4EF JUMPI PUSH1 0x7F DUP3 AND SWAP2 POP JUMPDEST PUSH1 0x20 DUP3 LT DUP2 SUB PUSH3 0x505 JUMPI PUSH3 0x504 PUSH3 0x4A7 JUMP JUMPDEST JUMPDEST POP SWAP2 SWAP1 POP JUMP JUMPDEST PUSH1 0x0 DUP2 SWAP1 POP DUP2 PUSH1 0x0 MSTORE PUSH1 0x20 PUSH1 0x0 KECCAK256 SWAP1 POP SWAP2 SWAP1 POP JUMP JUMPDEST PUSH1 0x0 PUSH1 0x20 PUSH1 0x1F DUP4 ADD DIV SWAP1 POP SWAP2 SWAP1 POP JUMP JUMPDEST PUSH1 0x0 DUP3 DUP3 SHL SWAP1 POP SWAP3 SWAP2 POP POP JUMP JUMPDEST PUSH1 0x0 PUSH1 0x8 DUP4 MUL PUSH3 0x56F PUSH32 0xFFFFFFFFFFFFFFFFFFFFFFFFFFFFFFFFFFFFFFFFFFFFFFFFFFFFFFFFFFFFFFFF DUP3 PUSH3 0x530 JUMP JUMPDEST PUSH3 0x57B DUP7 DUP4 PUSH3 0x530 JUMP JUMPDEST SWAP6 POP DUP1 NOT DUP5 AND SWAP4 POP DUP1 DUP7 AND DUP5 OR SWAP3 POP POP POP SWAP4 SWAP3 POP POP POP JUMP JUMPDEST PUSH1 0x0 DUP2 SWAP1 POP SWAP2 SWAP1 POP JUMP JUMPDEST PUSH1 0x0 PUSH3 0x5BE PUSH3 0x5B8 PUSH3 0x5B2 DUP5 PUSH3 0x387 JUMP JUMPDEST PUSH3 0x593 JUMP JUMPDEST PUSH3 0x387 JUMP JUMPDEST SWAP1 POP SWAP2 SWAP1 POP JUMP JUMPDEST PUSH1 0x0 DUP2 SWAP1 POP SWAP2 SWAP1 POP JUMP JUMPDEST PUSH3 0x5DA DUP4 PUSH3 0x59D JUMP JUMPDEST PUSH3 0x5F2 PUSH3 0x5E9 DUP3 PUSH3 0x5C5 JUMP JUMPDEST DUP5 DUP5 SLOAD PUSH3 0x53D JUMP JUMPDEST DUP3 SSTORE POP POP POP POP JUMP JUMPDEST PUSH1 0x0 SWAP1 JUMP JUMPDEST PUSH3 0x609 PUSH3 0x5FA JUMP JUMPDEST PUSH3 0x616 DUP2 DUP5 DUP5 PUSH3 0x5CF JUMP JUMPDEST POP POP POP JUMP JUMPDEST JUMPDEST DUP2 DUP2 LT ISZERO PUSH3 0x63E JUMPI PUSH3 0x632 PUSH1 0x0 DUP3 PUSH3 0x5FF JUMP JUMPDEST PUSH1 0x1 DUP2 ADD SWAP1 POP PUSH3 0x61C JUMP JUMPDEST POP POP JUMP JUMPDEST PUSH1 0x1F DUP3 GT ISZERO PUSH3 0x68D JUMPI PUSH3 0x657 DUP2 PUSH3 0x50B JUMP JUMPDEST PUSH3 0x662 DUP5 PUSH3 0x520 JUMP JUMPDEST DUP2 ADD PUSH1 0x20 DUP6 LT ISZERO PUSH3 0x672 JUMPI DUP2 SWAP1 POP JUMPDEST PUSH3 0x68A PUSH3 0x681 DUP6 PUSH3 0x520 JUMP JUMPDEST DUP4 ADD DUP3 PUSH3 0x61B JUMP JUMPDEST POP POP JUMPDEST POP POP POP JUMP JUMPDEST PUSH1 0x0 DUP3 DUP3 SHR SWAP1 POP SWAP3 SWAP2 POP POP JUMP JUMPDEST PUSH1 0x0 PUSH3 0x6B2 PUSH1 0x0 NOT DUP5 PUSH1 0x8 MUL PUSH3 0x692 JUMP JUMPDEST NOT DUP1 DUP4 AND SWAP2 POP POP SWAP3 SWAP2 POP POP JUMP JUMPDEST PUSH1 0x0 PUSH3 0x6CD DUP4 DUP4 PUSH3 0x69F JUMP JUMPDEST SWAP2 POP DUP3 PUSH1 0x2 MUL DUP3 OR SWAP1 POP SWAP3 SWAP2 POP POP JUMP JUMPDEST PUSH3 0x6E8 DUP3 PUSH3 0x49C JUMP JUMPDEST PUSH8 0xFFFFFFFFFFFFFFFF DUP2 GT ISZERO PUSH3 0x704 JUMPI PUSH3 0x703 PUSH3 0x219 JUMP JUMPDEST JUMPDEST PUSH3 0x710 DUP3 SLOAD PUSH3 0x4D6 JUMP JUMPDEST PUSH3 0x71D DUP3 DUP3 DUP6 PUSH3 0x642 JUMP JUMPDEST PUSH1 0x0 PUSH1 0x20 SWAP1 POP PUSH1 0x1F DUP4 GT PUSH1 0x1 DUP2 EQ PUSH3 0x755 JUMPI PUSH1 0x0 DUP5 ISZERO PUSH3 0x740 JUMPI DUP3 DUP8 ADD MLOAD SWAP1 POP JUMPDEST PUSH3 0x74C DUP6 DUP3 PUSH3 0x6BF JUMP JUMPDEST DUP7 SSTORE POP PUSH3 0x7BC JUMP JUMPDEST PUSH1 0x1F NOT DUP5 AND PUSH3 0x765 DUP7 PUSH3 0x50B JUMP JUMPDEST PUSH1 0x0 JUMPDEST DUP3 DUP2 LT ISZERO PUSH3 0x78F JUMPI DUP5 DUP10 ADD MLOAD DUP3 SSTORE PUSH1 0x1 DUP3 ADD SWAP2 POP PUSH1 0x20 DUP6 ADD SWAP5 POP PUSH1 0x20 DUP2 ADD SWAP1 POP PUSH3 0x768 JUMP JUMPDEST DUP7 DUP4 LT ISZERO PUSH3 0x7AF JUMPI DUP5 DUP10 ADD MLOAD PUSH3 0x7AB PUSH1 0x1F DUP10 AND DUP3 PUSH3 0x69F JUMP JUMPDEST DUP4 SSTORE POP JUMPDEST PUSH1 0x1 PUSH1 0x2 DUP9 MUL ADD DUP9 SSTORE POP POP POP JUMPDEST POP POP POP POP POP POP JUMP JUMPDEST PUSH2 0xAF0 DUP1 PUSH3 0x7D4 PUSH1 0x0 CODECOPY PUSH1 0x0 RETURN INVALID PUSH1 0x80 PUSH1 0x40 MSTORE CALLVALUE DUP1 ISZERO PUSH2 0x10 JUMPI PUSH1 0x0 DUP1 REVERT JUMPDEST POP PUSH1 0x4 CALLDATASIZE LT PUSH2 0x41 JUMPI PUSH1 0x0 CALLDATALOAD PUSH1 0xE0 SHR DUP1 PUSH4 0x481C6A75 EQ PUSH2 0x46 JUMPI DUP1 PUSH4 0x5DAB2420 EQ PUSH2 0x64 JUMPI DUP1 PUSH4 0xF2390D43 EQ PUSH2 0x89 JUMPI JUMPDEST PUSH1 0x0 DUP1 REVERT JUMPDEST PUSH2 0x4E PUSH2 0xA5 JUMP JUMPDEST PUSH1 0x40 MLOAD PUSH2 0x5B SWAP2 SWAP1 PUSH2 0x47E JUMP JUMPDEST PUSH1 0x40 MLOAD DUP1 SWAP2 SUB SWAP1 RETURN JUMPDEST PUSH2 0x6C PUSH2 0xC9 JUMP JUMPDEST PUSH1 0x40 MLOAD PUSH2 0x80 SWAP9 SWAP8 SWAP7 SWAP6 SWAP5 SWAP4 SWAP3 SWAP2 SWAP1 PUSH2 0x54B JUMP JUMPDEST PUSH1 0x40 MLOAD DUP1 SWAP2 SUB SWAP1 RETURN JUMPDEST PUSH2 0xA3 PUSH1 0x4 DUP1 CALLDATASIZE SUB DUP2 ADD SWAP1 PUSH2 0x9E SWAP2 SWAP1 PUSH2 0x735 JUMP JUMPDEST PUSH2 0x3A7 JUMP JUMPDEST STOP JUMPDEST PUSH1 0x0 DUP1 SLOAD SWAP1 PUSH2 0x100 EXP SWAP1 DIV PUSH20 0xFFFFFFFFFFFFFFFFFFFFFFFFFFFFFFFFFFFFFFFF AND DUP2 JUMP JUMPDEST PUSH1 0x1 DUP1 PUSH1 0x0 ADD DUP1 SLOAD PUSH2 0xDA SWAP1 PUSH2 0x80B JUMP JUMPDEST DUP1 PUSH1 0x1F ADD PUSH1 0x20 DUP1 SWAP2 DIV MUL PUSH1 0x20 ADD PUSH1 0x40 MLOAD SWAP1 DUP2 ADD PUSH1 0x40 MSTORE DUP1 SWAP3 SWAP2 SWAP1 DUP2 DUP2 MSTORE PUSH1 0x20 ADD DUP3 DUP1 SLOAD PUSH2 0x106 SWAP1 PUSH2 0x80B JUMP JUMPDEST DUP1 ISZERO PUSH2 0x153 JUMPI DUP1 PUSH1 0x1F LT PUSH2 0x128 JUMPI PUSH2 0x100 DUP1 DUP4 SLOAD DIV MUL DUP4 MSTORE SWAP2 PUSH1 0x20 ADD SWAP2 PUSH2 0x153 JUMP JUMPDEST DUP3 ADD SWAP2 SWAP1 PUSH1 0x0 MSTORE PUSH1 0x20 PUSH1 0x0 KECCAK256 SWAP1 JUMPDEST DUP2 SLOAD DUP2 MSTORE SWAP1 PUSH1 0x1 ADD SWAP1 PUSH1 0x20 ADD DUP1 DUP4 GT PUSH2 0x136 JUMPI DUP3 SWAP1 SUB PUSH1 0x1F AND DUP3 ADD SWAP2 JUMPDEST POP POP POP POP POP SWAP1 DUP1 PUSH1 0x1 ADD DUP1 SLOAD PUSH2 0x168 SWAP1 PUSH2 0x80B JUMP JUMPDEST DUP1 PUSH1 0x1F ADD PUSH1 0x20 DUP1 SWAP2 DIV MUL PUSH1 0x20 ADD PUSH1 0x40 MLOAD SWAP1 DUP2 ADD PUSH1 0x40 MSTORE DUP1 SWAP3 SWAP2 SWAP1 DUP2 DUP2 MSTORE PUSH1 0x20 ADD DUP3 DUP1 SLOAD PUSH2 0x194 SWAP1 PUSH2 0x80B JUMP JUMPDEST DUP1 ISZERO PUSH2 0x1E1 JUMPI DUP1 PUSH1 0x1F LT PUSH2 0x1B6 JUMPI PUSH2 0x100 DUP1 DUP4 SLOAD DIV MUL DUP4 MSTORE SWAP2 PUSH1 0x20 ADD SWAP2 PUSH2 0x1E1 JUMP JUMPDEST DUP3 ADD SWAP2 SWAP1 PUSH1 0x0 MSTORE PUSH1 0x20 PUSH1 0x0 KECCAK256 SWAP1 JUMPDEST DUP2 SLOAD DUP2 MSTORE SWAP1 PUSH1 0x1 ADD SWAP1 PUSH1 0x20 ADD DUP1 DUP4 GT PUSH2 0x1C4 JUMPI DUP3 SWAP1 SUB PUSH1 0x1F AND DUP3 ADD SWAP2 JUMPDEST POP POP POP POP POP SWAP1 DUP1 PUSH1 0x2 ADD SLOAD SWAP1 DUP1 PUSH1 0x3 ADD SLOAD SWAP1 DUP1 PUSH1 0x4 ADD SLOAD SWAP1 DUP1 PUSH1 0x5 ADD DUP1 SLOAD PUSH2 0x208 SWAP1 PUSH2 0x80B JUMP JUMPDEST DUP1 PUSH1 0x1F ADD PUSH1 0x20 DUP1 SWAP2 DIV MUL PUSH1 0x20 ADD PUSH1 0x40 MLOAD SWAP1 DUP2 ADD PUSH1 0x40 MSTORE DUP1 SWAP3 SWAP2 SWAP1 DUP2 DUP2 MSTORE PUSH1 0x20 ADD DUP3 DUP1 SLOAD PUSH2 0x234 SWAP1 PUSH2 0x80B JUMP JUMPDEST DUP1 ISZERO PUSH2 0x281 JUMPI DUP1 PUSH1 0x1F LT PUSH2 0x256 JUMPI PUSH2 0x100 DUP1 DUP4 SLOAD DIV MUL DUP4 MSTORE SWAP2 PUSH1 0x20 ADD SWAP2 PUSH2 0x281 JUMP JUMPDEST DUP3 ADD SWAP2 SWAP1 PUSH1 0x0 MSTORE PUSH1 0x20 PUSH1 0x0 KECCAK256 SWAP1 JUMPDEST DUP2 SLOAD DUP2 MSTORE SWAP1 PUSH1 0x1 ADD SWAP1 PUSH1 0x20 ADD DUP1 DUP4 GT PUSH2 0x264 JUMPI DUP3 SWAP1 SUB PUSH1 0x1F AND DUP3 ADD SWAP2 JUMPDEST POP POP POP POP POP SWAP1 DUP1 PUSH1 0x6 ADD DUP1 SLOAD PUSH2 0x296 SWAP1 PUSH2 0x80B JUMP JUMPDEST DUP1 PUSH1 0x1F ADD PUSH1 0x20 DUP1 SWAP2 DIV MUL PUSH1 0x20 ADD PUSH1 0x40 MLOAD SWAP1 DUP2 ADD PUSH1 0x40 MSTORE DUP1 SWAP3 SWAP2 SWAP1 DUP2 DUP2 MSTORE PUSH1 0x20 ADD DUP3 DUP1 SLOAD PUSH2 0x2C2 SWAP1 PUSH2 0x80B JUMP JUMPDEST DUP1 ISZERO PUSH2 0x30F JUMPI DUP1 PUSH1 0x1F LT PUSH2 0x2E4 JUMPI PUSH2 0x100 DUP1 DUP4 SLOAD DIV MUL DUP4 MSTORE SWAP2 PUSH1 0x20 ADD SWAP2 PUSH2 0x30F JUMP JUMPDEST DUP3 ADD SWAP2 SWAP1 PUSH1 0x0 MSTORE PUSH1 0x20 PUSH1 0x0 KECCAK256 SWAP1 JUMPDEST DUP2 SLOAD DUP2 MSTORE SWAP1 PUSH1 0x1 ADD SWAP1 PUSH1 0x20 ADD DUP1 DUP4 GT PUSH2 0x2F2 JUMPI DUP3 SWAP1 SUB PUSH1 0x1F AND DUP3 ADD SWAP2 JUMPDEST POP POP POP POP POP SWAP1 DUP1 PUSH1 0x7 ADD DUP1 SLOAD PUSH2 0x324 SWAP1 PUSH2 0x80B JUMP JUMPDEST DUP1 PUSH1 0x1F ADD PUSH1 0x20 DUP1 SWAP2 DIV MUL PUSH1 0x20 ADD PUSH1 0x40 MLOAD SWAP1 DUP2 ADD PUSH1 0x40 MSTORE DUP1 SWAP3 SWAP2 SWAP1 DUP2 DUP2 MSTORE PUSH1 0x20 ADD DUP3 DUP1 SLOAD PUSH2 0x350 SWAP1 PUSH2 0x80B JUMP JUMPDEST DUP1 ISZERO PUSH2 0x39D JUMPI DUP1 PUSH1 0x1F LT PUSH2 0x372 JUMPI PUSH2 0x100 DUP1 DUP4 SLOAD DIV MUL DUP4 MSTORE SWAP2 PUSH1 0x20 ADD SWAP2 PUSH2 0x39D JUMP JUMPDEST DUP3 ADD SWAP2 SWAP1 PUSH1 0x0 MSTORE PUSH1 0x20 PUSH1 0x0 KECCAK256 SWAP1 JUMPDEST DUP2 SLOAD DUP2 MSTORE SWAP1 PUSH1 0x1 ADD SWAP1 PUSH1 0x20 ADD DUP1 DUP4 GT PUSH2 0x380 JUMPI DUP3 SWAP1 SUB PUSH1 0x1F AND DUP3 ADD SWAP2 JUMPDEST POP POP POP POP POP SWAP1 POP DUP9 JUMP JUMPDEST CALLER PUSH20 0xFFFFFFFFFFFFFFFFFFFFFFFFFFFFFFFFFFFFFFFF AND PUSH1 0x0 DUP1 SLOAD SWAP1 PUSH2 0x100 EXP SWAP1 DIV PUSH20 0xFFFFFFFFFFFFFFFFFFFFFFFFFFFFFFFFFFFFFFFF AND PUSH20 0xFFFFFFFFFFFFFFFFFFFFFFFFFFFFFFFFFFFFFFFF AND EQ PUSH2 0x3FF JUMPI PUSH1 0x0 DUP1 REVERT JUMPDEST DUP3 PUSH1 0x1 PUSH1 0x5 ADD SWAP1 DUP2 PUSH2 0x411 SWAP2 SWAP1 PUSH2 0x9E8 JUMP JUMPDEST POP DUP2 PUSH1 0x1 PUSH1 0x6 ADD SWAP1 DUP2 PUSH2 0x424 SWAP2 SWAP1 PUSH2 0x9E8 JUMP JUMPDEST POP DUP1 PUSH1 0x1 PUSH1 0x7 ADD SWAP1 DUP2 PUSH2 0x437 SWAP2 SWAP1 PUSH2 0x9E8 JUMP JUMPDEST POP POP POP POP JUMP JUMPDEST PUSH1 0x0 PUSH20 0xFFFFFFFFFFFFFFFFFFFFFFFFFFFFFFFFFFFFFFFF DUP3 AND SWAP1 POP SWAP2 SWAP1 POP JUMP JUMPDEST PUSH1 0x0 PUSH2 0x468 DUP3 PUSH2 0x43D JUMP JUMPDEST SWAP1 POP SWAP2 SWAP1 POP JUMP JUMPDEST PUSH2 0x478 DUP2 PUSH2 0x45D JUMP JUMPDEST DUP3 MSTORE POP POP JUMP JUMPDEST PUSH1 0x0 PUSH1 0x20 DUP3 ADD SWAP1 POP PUSH2 0x493 PUSH1 0x0 DUP4 ADD DUP5 PUSH2 0x46F JUMP JUMPDEST SWAP3 SWAP2 POP POP JUMP JUMPDEST PUSH1 0x0 DUP2 MLOAD SWAP1 POP SWAP2 SWAP1 POP JUMP JUMPDEST PUSH1 0x0 DUP3 DUP3 MSTORE PUSH1 0x20 DUP3 ADD SWAP1 POP SWAP3 SWAP2 POP POP JUMP JUMPDEST PUSH1 0x0 JUMPDEST DUP4 DUP2 LT ISZERO PUSH2 0x4D3 JUMPI DUP1 DUP3 ADD MLOAD DUP2 DUP5 ADD MSTORE PUSH1 0x20 DUP2 ADD SWAP1 POP PUSH2 0x4B8 JUMP JUMPDEST DUP4 DUP2 GT ISZERO PUSH2 0x4E2 JUMPI PUSH1 0x0 DUP5 DUP5 ADD MSTORE JUMPDEST POP POP POP POP JUMP JUMPDEST PUSH1 0x0 PUSH1 0x1F NOT PUSH1 0x1F DUP4 ADD AND SWAP1 POP SWAP2 SWAP1 POP JUMP JUMPDEST PUSH1 0x0 PUSH2 0x504 DUP3 PUSH2 0x499 JUMP JUMPDEST PUSH2 0x50E DUP2 DUP6 PUSH2 0x4A4 JUMP JUMPDEST SWAP4 POP PUSH2 0x51E DUP2 DUP6 PUSH1 0x20 DUP7 ADD PUSH2 0x4B5 JUMP JUMPDEST PUSH2 0x527 DUP2 PUSH2 0x4E8 JUMP JUMPDEST DUP5 ADD SWAP2 POP POP SWAP3 SWAP2 POP POP JUMP JUMPDEST PUSH1 0x0 DUP2 SWAP1 POP SWAP2 SWAP1 POP JUMP JUMPDEST PUSH2 0x545 DUP2 PUSH2 0x532 JUMP JUMPDEST DUP3 MSTORE POP POP JUMP JUMPDEST PUSH1 0x0 PUSH2 0x100 DUP3 ADD SWAP1 POP DUP2 DUP2 SUB PUSH1 0x0 DUP4 ADD MSTORE PUSH2 0x566 DUP2 DUP12 PUSH2 0x4F9 JUMP JUMPDEST SWAP1 POP DUP2 DUP2 SUB PUSH1 0x20 DUP4 ADD MSTORE PUSH2 0x57A DUP2 DUP11 PUSH2 0x4F9 JUMP JUMPDEST SWAP1 POP PUSH2 0x589 PUSH1 0x40 DUP4 ADD DUP10 PUSH2 0x53C JUMP JUMPDEST PUSH2 0x596 PUSH1 0x60 DUP4 ADD DUP9 PUSH2 0x53C JUMP JUMPDEST PUSH2 0x5A3 PUSH1 0x80 DUP4 ADD DUP8 PUSH2 0x53C JUMP JUMPDEST DUP2 DUP2 SUB PUSH1 0xA0 DUP4 ADD MSTORE PUSH2 0x5B5 DUP2 DUP7 PUSH2 0x4F9 JUMP JUMPDEST SWAP1 POP DUP2 DUP2 SUB PUSH1 0xC0 DUP4 ADD MSTORE PUSH2 0x5C9 DUP2 DUP6 PUSH2 0x4F9 JUMP JUMPDEST SWAP1 POP DUP2 DUP2 SUB PUSH1 0xE0 DUP4 ADD MSTORE PUSH2 0x5DD DUP2 DUP5 PUSH2 0x4F9 JUMP JUMPDEST SWAP1 POP SWAP10 SWAP9 POP POP POP POP POP POP POP POP POP JUMP JUMPDEST PUSH1 0x0 PUSH1 0x40 MLOAD SWAP1 POP SWAP1 JUMP JUMPDEST PUSH1 0x0 DUP1 REVERT JUMPDEST PUSH1 0x0 DUP1 REVERT JUMPDEST PUSH1 0x0 DUP1 REVERT JUMPDEST PUSH1 0x0 DUP1 REVERT JUMPDEST PUSH32 0x4E487B7100000000000000000000000000000000000000000000000000000000 PUSH1 0x0 MSTORE PUSH1 0x41 PUSH1 0x4 MSTORE PUSH1 0x24 PUSH1 0x0 REVERT JUMPDEST PUSH2 0x642 DUP3 PUSH2 0x4E8 JUMP JUMPDEST DUP2 ADD DUP2 DUP2 LT PUSH8 0xFFFFFFFFFFFFFFFF DUP3 GT OR ISZERO PUSH2 0x661 JUMPI PUSH2 0x660 PUSH2 0x60A JUMP JUMPDEST JUMPDEST DUP1 PUSH1 0x40 MSTORE POP POP POP JUMP JUMPDEST PUSH1 0x0 PUSH2 0x674 PUSH2 0x5EC JUMP JUMPDEST SWAP1 POP PUSH2 0x680 DUP3 DUP3 PUSH2 0x639 JUMP JUMPDEST SWAP2 SWAP1 POP JUMP JUMPDEST PUSH1 0x0 PUSH8 0xFFFFFFFFFFFFFFFF DUP3 GT ISZERO PUSH2 0x6A0 JUMPI PUSH2 0x69F PUSH2 0x60A JUMP JUMPDEST JUMPDEST PUSH2 0x6A9 DUP3 PUSH2 0x4E8 JUMP JUMPDEST SWAP1 POP PUSH1 0x20 DUP2 ADD SWAP1 POP SWAP2 SWAP1 POP JUMP JUMPDEST DUP3 DUP2 DUP4 CALLDATACOPY PUSH1 0x0 DUP4 DUP4 ADD MSTORE POP POP POP JUMP JUMPDEST PUSH1 0x0 PUSH2 0x6D8 PUSH2 0x6D3 DUP5 PUSH2 0x685 JUMP JUMPDEST PUSH2 0x66A JUMP JUMPDEST SWAP1 POP DUP3 DUP2 MSTORE PUSH1 0x20 DUP2 ADD DUP5 DUP5 DUP5 ADD GT ISZERO PUSH2 0x6F4 JUMPI PUSH2 0x6F3 PUSH2 0x605 JUMP JUMPDEST JUMPDEST PUSH2 0x6FF DUP5 DUP3 DUP6 PUSH2 0x6B6 JUMP JUMPDEST POP SWAP4 SWAP3 POP POP POP JUMP JUMPDEST PUSH1 0x0 DUP3 PUSH1 0x1F DUP4 ADD SLT PUSH2 0x71C JUMPI PUSH2 0x71B PUSH2 0x600 JUMP JUMPDEST JUMPDEST DUP2 CALLDATALOAD PUSH2 0x72C DUP5 DUP3 PUSH1 0x20 DUP7 ADD PUSH2 0x6C5 JUMP JUMPDEST SWAP2 POP POP SWAP3 SWAP2 POP POP JUMP JUMPDEST PUSH1 0x0 DUP1 PUSH1 0x0 PUSH1 0x60 DUP5 DUP7 SUB SLT ISZERO PUSH2 0x74E JUMPI PUSH2 0x74D PUSH2 0x5F6 JUMP JUMPDEST JUMPDEST PUSH1 0x0 DUP5 ADD CALLDATALOAD PUSH8 0xFFFFFFFFFFFFFFFF DUP2 GT ISZERO PUSH2 0x76C JUMPI PUSH2 0x76B PUSH2 0x5FB JUMP JUMPDEST JUMPDEST PUSH2 0x778 DUP7 DUP3 DUP8 ADD PUSH2 0x707 JUMP JUMPDEST SWAP4 POP POP PUSH1 0x20 DUP5 ADD CALLDATALOAD PUSH8 0xFFFFFFFFFFFFFFFF DUP2 GT ISZERO PUSH2 0x799 JUMPI PUSH2 0x798 PUSH2 0x5FB JUMP JUMPDEST JUMPDEST PUSH2 0x7A5 DUP7 DUP3 DUP8 ADD PUSH2 0x707 JUMP JUMPDEST SWAP3 POP POP PUSH1 0x40 DUP5 ADD CALLDATALOAD PUSH8 0xFFFFFFFFFFFFFFFF DUP2 GT ISZERO PUSH2 0x7C6 JUMPI PUSH2 0x7C5 PUSH2 0x5FB JUMP JUMPDEST JUMPDEST PUSH2 0x7D2 DUP7 DUP3 DUP8 ADD PUSH2 0x707 JUMP JUMPDEST SWAP2 POP POP SWAP3 POP SWAP3 POP SWAP3 JUMP JUMPDEST PUSH32 0x4E487B7100000000000000000000000000000000000000000000000000000000 PUSH1 0x0 MSTORE PUSH1 0x22 PUSH1 0x4 MSTORE PUSH1 0x24 PUSH1 0x0 REVERT JUMPDEST PUSH1 0x0 PUSH1 0x2 DUP3 DIV SWAP1 POP PUSH1 0x1 DUP3 AND DUP1 PUSH2 0x823 JUMPI PUSH1 0x7F DUP3 AND SWAP2 POP JUMPDEST PUSH1 0x20 DUP3 LT DUP2 SUB PUSH2 0x836 JUMPI PUSH2 0x835 PUSH2 0x7DC JUMP JUMPDEST JUMPDEST POP SWAP2 SWAP1 POP JUMP JUMPDEST PUSH1 0x0 DUP2 SWAP1 POP DUP2 PUSH1 0x0 MSTORE PUSH1 0x20 PUSH1 0x0 KECCAK256 SWAP1 POP SWAP2 SWAP1 POP JUMP JUMPDEST PUSH1 0x0 PUSH1 0x20 PUSH1 0x1F DUP4 ADD DIV SWAP1 POP SWAP2 SWAP1 POP JUMP JUMPDEST PUSH1 0x0 DUP3 DUP3 SHL SWAP1 POP SWAP3 SWAP2 POP POP JUMP JUMPDEST PUSH1 0x0 PUSH1 0x8 DUP4 MUL PUSH2 0x89E PUSH32 0xFFFFFFFFFFFFFFFFFFFFFFFFFFFFFFFFFFFFFFFFFFFFFFFFFFFFFFFFFFFFFFFF DUP3 PUSH2 0x861 JUMP JUMPDEST PUSH2 0x8A8 DUP7 DUP4 PUSH2 0x861 JUMP JUMPDEST SWAP6 POP DUP1 NOT DUP5 AND SWAP4 POP DUP1 DUP7 AND DUP5 OR SWAP3 POP POP POP SWAP4 SWAP3 POP POP POP JUMP JUMPDEST PUSH1 0x0 DUP2 SWAP1 POP SWAP2 SWAP1 POP JUMP JUMPDEST PUSH1 0x0 PUSH2 0x8E5 PUSH2 0x8E0 PUSH2 0x8DB DUP5 PUSH2 0x532 JUMP JUMPDEST PUSH2 0x8C0 JUMP JUMPDEST PUSH2 0x532 JUMP JUMPDEST SWAP1 POP SWAP2 SWAP1 POP JUMP JUMPDEST PUSH1 0x0 DUP2 SWAP1 POP SWAP2 SWAP1 POP JUMP JUMPDEST PUSH2 0x8FF DUP4 PUSH2 0x8CA JUMP JUMPDEST PUSH2 0x913 PUSH2 0x90B DUP3 PUSH2 0x8EC JUMP JUMPDEST DUP5 DUP5 SLOAD PUSH2 0x86E JUMP JUMPDEST DUP3 SSTORE POP POP POP POP JUMP JUMPDEST PUSH1 0x0 SWAP1 JUMP JUMPDEST PUSH2 0x928 PUSH2 0x91B JUMP JUMPDEST PUSH2 0x933 DUP2 DUP5 DUP5 PUSH2 0x8F6 JUMP JUMPDEST POP POP POP JUMP JUMPDEST JUMPDEST DUP2 DUP2 LT ISZERO PUSH2 0x957 JUMPI PUSH2 0x94C PUSH1 0x0 DUP3 PUSH2 0x920 JUMP JUMPDEST PUSH1 0x1 DUP2 ADD SWAP1 POP PUSH2 0x939 JUMP JUMPDEST POP POP JUMP JUMPDEST PUSH1 0x1F DUP3 GT ISZERO PUSH2 0x99C JUMPI PUSH2 0x96D DUP2 PUSH2 0x83C JUMP JUMPDEST PUSH2 0x976 DUP5 PUSH2 0x851 JUMP JUMPDEST DUP2 ADD PUSH1 0x20 DUP6 LT ISZERO PUSH2 0x985 JUMPI DUP2 SWAP1 POP JUMPDEST PUSH2 0x999 PUSH2 0x991 DUP6 PUSH2 0x851 JUMP JUMPDEST DUP4 ADD DUP3 PUSH2 0x938 JUMP JUMPDEST POP POP JUMPDEST POP POP POP JUMP JUMPDEST PUSH1 0x0 DUP3 DUP3 SHR SWAP1 POP SWAP3 SWAP2 POP POP JUMP JUMPDEST PUSH1 0x0 PUSH2 0x9BF PUSH1 0x0 NOT DUP5 PUSH1 0x8 MUL PUSH2 0x9A1 JUMP JUMPDEST NOT DUP1 DUP4 AND SWAP2 POP POP SWAP3 SWAP2 POP POP JUMP JUMPDEST PUSH1 0x0 PUSH2 0x9D8 DUP4 DUP4 PUSH2 0x9AE JUMP JUMPDEST SWAP2 POP DUP3 PUSH1 0x2 MUL DUP3 OR SWAP1 POP SWAP3 SWAP2 POP POP JUMP JUMPDEST PUSH2 0x9F1 DUP3 PUSH2 0x499 JUMP JUMPDEST PUSH8 0xFFFFFFFFFFFFFFFF DUP2 GT ISZERO PUSH2 0xA0A JUMPI PUSH2 0xA09 PUSH2 0x60A JUMP JUMPDEST JUMPDEST PUSH2 0xA14 DUP3 SLOAD PUSH2 0x80B JUMP JUMPDEST PUSH2 0xA1F DUP3 DUP3 DUP6 PUSH2 0x95B JUMP JUMPDEST PUSH1 0x0 PUSH1 0x20 SWAP1 POP PUSH1 0x1F DUP4 GT PUSH1 0x1 DUP2 EQ PUSH2 0xA52 JUMPI PUSH1 0x0 DUP5 ISZERO PUSH2 0xA40 JUMPI DUP3 DUP8 ADD MLOAD SWAP1 POP JUMPDEST PUSH2 0xA4A DUP6 DUP3 PUSH2 0x9CC JUMP JUMPDEST DUP7 SSTORE POP PUSH2 0xAB2 JUMP JUMPDEST PUSH1 0x1F NOT DUP5 AND PUSH2 0xA60 DUP7 PUSH2 0x83C JUMP JUMPDEST PUSH1 0x0 JUMPDEST DUP3 DUP2 LT ISZERO PUSH2 0xA88 JUMPI DUP5 DUP10 ADD MLOAD DUP3 SSTORE PUSH1 0x1 DUP3 ADD SWAP2 POP PUSH1 0x20 DUP6 ADD SWAP5 POP PUSH1 0x20 DUP2 ADD SWAP1 POP PUSH2 0xA63 JUMP JUMPDEST DUP7 DUP4 LT ISZERO PUSH2 0xAA5 JUMPI DUP5 DUP10 ADD MLOAD PUSH2 0xAA1 PUSH1 0x1F DUP10 AND DUP3 PUSH2 0x9AE JUMP JUMPDEST DUP4 SSTORE POP JUMPDEST PUSH1 0x1 PUSH1 0x2 DUP9 MUL ADD DUP9 SSTORE POP POP POP JUMPDEST POP POP POP POP POP POP JUMP INVALID LOG2 PUSH5 0x6970667358 0x22 SLT KECCAK256 0xE8 SWAP5 SWAP12 PUSH32 0xB1979AA2215ADA4C2BEDCE0E506E443EF0EB50D5C4678F2D0BEC8FF664736F6C PUSH4 0x4300080F STOP CALLER LOG2 PUSH5 0x6970667358 0x22 SLT KECCAK256 PUSH17 0xA666F9651C36BA88B3FA59C797647C47D5 0xE7 0x4F EXTCODEHASH CALLER 0xD6 LT RETURNDATACOPY 0x4A PUSH29 0xC08D8B1C2564736F6C634300080F0033A2646970667358221220AD8464 STATICCALL CREATE SHR 0x22 0x28 0xB2 0xAF RETURN DUP8 0xEE SWAP12 CREATE 0xCF 0x1F PUSH17 0xC6F65BE9E3447714F40E5A30012064736F PUSH13 0x634300080F0033000000000000 "},"gasEstimates":{"creation":{"codeDepositCost":"1696600","executionCost":"1785","totalCost":"1698385"},"external":{"createSmartWill()":"infinite","deployedSmartWills(uint256)":"4978","getDeployedSmartWills()":"infinite"}},"methodIdentifiers":{"createSmartWill()":"a488f510","deployedSmartWills(uint256)":"f6376489","getDeployedSmartWills()":"0a2bfd06"}},"storageLayout":{"storage":[{"astId":4,"contract":"smartwill.sol:Factory","label":"deployedSmartWills","offset":0,"slot":"0","type":"t_array(t_address)dyn_storage"}],"types":{"t_address":{"encoding":"inplace","label":"address","numberOfBytes":"20"},"t_array(t_address)dyn_storage":{"base":"t_address","encoding":"dynamic_array","label":"address[]","numberOfBytes":"32"}}},"userdoc":{"kind":"user","methods":{},"version":1}}